:100000000C9485010C94AD010C94AD010C94461632
:100010000C9446160C9446160C94AD010C94AD014C
:100020000C94AD010C94AD010C94AD010C94AD0198
:100030000C94AD010C94AD010C94AD010C94AD0188
:100040000C94A4150C94AD010C9414160C94EE159C
:100050000C94AD010C94AD010C94AD010C94AD0168
:100060000C94AD010C94AD0125642E25642E2564FD
:100070002E25640044617461207061636B65742097
:1000800073656E64206572726F7220283229004495
:10009000617461207061636B65742073656E6420A8
:1000A0006572726F72202831290041542B434950E8
:1000B00053454E443D25642C2575004661696C65A9
:1000C0006420746F20777269746520746F20736F79
:1000D000636B65740041542B434950434C4F534567
:1000E0003D256400446973636F6E6E656374696E69
:1000F00067200041542B43495053544154555300F9
:100100002B4349505354415455533A25642C0045D0
:100110006E6420746167206E6F7420666F756E6404
:10012000004E6F2074616720666F756E64003E3EFE
:100130003E2054494D454F5554203E3E3E000D0A49
:100140000053444B2076657273696F6E3A004154D8
:100150002B474D520041542B4357444843503D31A7
:100160002C310041542B43574155544F434F4E4E71
:100170003D300041542B43495044494E464F3D3198
:100180000041542B4349504D55583D310041542BAB
:1001900043574D4F44453D31004154453000415493
:1001A0002B52535400496E6974696C697A617469A1
:1001B0006F6E207375636365737366756C202D00B5
:1001C0005761726E696E673A20556E737570706F05
:1001D00072746564206669726D776172650043614F
:1001E0006E6E6F7420696E697469616C697A6520DE
:1001F000455350206D6F64756C6500415400496E25
:10020000697469616C697A696E6720455350206D25
:100210006F64756C6500436F6E6E65637465642012
:10022000746F004661696C656420636F6E6E656310
:1002300074696E6720746F0041542B43574A4150D4
:100240005F4355523D222573222C22257322000044
:100250000000080002010000030407000000000085
:100260000000004E6F20736F636B657420617661D0
:10027000696C61626C650041542B43495053544191
:1002800052543D25642C22544350222C22257322A3
:100290002C257500436F6E6E656374696E672074FC
:1002A0006F0054494D454F55543A005461672043FF
:1002B0004C4F534544206E6F7420666F756E64001A
:1002C0000000000023002600290000000000240098
:1002D00027002A0000000000250028002B0004044D
:1002E00004040404040402020202020203030303DE
:1002F00003030102040810204080010204081020BA
:100300000102040810200A174C2111241FBECFEF50
:10031000D8E0DEBFCDBF26E0AAE5B4E001C01D9263
:10032000A134B207E1F714E0A0E0B1E0E6E4FFE4B5
:1003300002C005900D92AA35B107D9F711E0C4E8C3
:10034000D1E004C02197FE010E941F26C338D107C7
:10035000C9F70E94E2180C9496270C940000CF93E2
:10036000DF93EC01FA013296E60FF71FDC019D01E5
:100370002C1B3D0BCF01861B970B4D91442311F095
:100380004193F5CFAC01421B530B640F751FFB016A
:100390003297308361507109FB012083DF91CF9147
:1003A00008958091F1059091F205009711F480E095
:1003B0002FC0DC01ED91FC910688F789E02D0995AD
:1003C000209114063091150681111FC0232B79F757
:1003D0008DEF9FEF90931506809314068091F105A1
:1003E0009091F205DC01ED91FC910680F781E02D02
:1003F00009958091F1059091F205DC01ED91FC9158
:100400000488F589E02D0995D2CF81E0232B79F678
:1004100008958091070590910805DC01ED91FC910C
:100420000084F185E02D09951816190664F4809171
:10043000070590910805DC01ED91FC910284F3859C
:10044000E02D0995E6CF08953FB7F8948091FE041A
:100450009091FF04A0910005B091010526B5A89BDD
:1004600005C02F3F19F00196A11DB11D3FBFBA2F46
:10047000A92F982F8827BC01CD01620F711D811D06
:10048000911D42E0660F771F881F991F4A95D1F78B
:1004900008958F929F92AF92BF92CF92DF92EF9288
:1004A000FF924B015C010E9424026B017C010E94BF
:1004B00024026C197D098E099F09683E73408105ED
:1004C0009105A8F321E0821A9108A108B10888EEED
:1004D000C80E83E0D81EE11CF11C81149104A10414
:1004E000B10429F7FF90EF90DF90CF90BF90AF90CD
:1004F0009F908F9008952FB7F8946091FA047091AF
:10050000FB048091FC049091FD042FBF0895EF92AD
:10051000FF920F931F93CF93DF9300D000D0CDB7FE
:10052000DEB7FA0120E08E010F5F1F4F9E2F9F77ED
:10053000EE0FEF2FEE1FFF0BF195309709F090684B
:10054000D801A20FB11D9C932F5F309779F730E04F
:10055000FB01E21BF30B8483FB01E21BF30B3596DB
:10056000D801CD01801B910B821793071CF48D914C
:100570008193F7CF2F5F3F4F8091F1059091F20566
:100580008901040F151F621B730B6B5F7F4FDC012A
:10059000ED91FC910280F381E02DA80109957C0189
:1005A0000E947B026093FD057093FE058093FF051A
:1005B0009093000681E00E151F0509F080E00F9072
:1005C0000F900F900F90DF91CF911F910F91FF909F
:1005D000EF9008958F929F92AF92BF92CF92DF9249
:1005E000EF92FF92CF93DF93EC010E947B024B01CD
:1005F0005C018091F1059091F205DC01ED91FC9197
:100600000084F185E02D0995892BB9F40E947B02C5
:100610006B017C01C818D908EA08FB082091F9058C
:100620003091FA05A8EEB3E00E94C425C616D7069D
:10063000E806F906F0F280E00DC08091F105909196
:10064000F205DC01ED91FC910284F385E02D099522
:10065000888381E0DF91CF91FF90EF90DF90CF9082
:10066000BF90AF909F908F9008952F923F924F929E
:100670005F926F927F928F929F92AF92BF92CF9232
:10068000DF92EF92FF920F931F93CF93DF93CDB73B
:10069000DEB72A970FB6F894DEBF0FBECDBF1C01A0
:1006A0008091F3059091F4050E94EA0281111CC02B
:1006B00060E070E0CB012A960FB6F894DEBF0FBE63
:1006C000CDBFDF91CF911F910F91FF90EF90DF9001
:1006D000CF90BF90AF909F908F907F906F905F90E2
:1006E0004F903F902F900895E091F305F091F4051D
:1006F000D0801982EE24E394F12C812C912C5401AA
:10070000412C512C32014394CE0101960E94EA0201
:10071000882371F287010F5F1F4F8981E091F305F4
:10072000F091F405EE0DFF1D8083E981AE2FAF77C8
:10073000B0E0A30192010E948225860E971EA81E9A
:10074000B91E37E0440C551C661C771C3A95D1F74E
:10075000E7FD3FC0BD2DB07FBE838FEF800FF1015D
:100760008083B03309F04CC08091F3059091F4057B
:10077000800F911F0E94EA02882309F499CF2091EB
:10078000F3053091F405C7010296820F931F0E9472
:10079000EA02882309F48CCF0E5F1F4FE091F30526
:1007A000F091F405D1018C91DF01A80FB11D1196D4
:1007B0008C91119790E0982F882712962C91820F98
:1007C000911D208121FD0296F2E0E0E030E020E082
:1007D0001DC078010530110509F096CF8FEF9FEF0E
:1007E00090931506809314068091F1059091F2057F
:1007F000DC01ED91FC910488F589E02D099558CF35
:10080000F0E0E0E030E020E090E080E070E060E0E8
:10081000CF2EDE2EE32EF22E28013B014C185D0870
:100820006E087F084A825B826C827D822C01712C6B
:10083000612C4F82588669867A864A805B806C80FC
:100840007D804C0C5D1C6E1C7F1CC814D904EA040E
:10085000FB0408F046C0CE0101960E94EA028823FC
:1008600009F426CF8091120690911306009711F19A
:100870002E812033F9F4D1012C914EEF5FEF6FEF11
:100880007FEF421B510961097109440E551E661E16
:10089000771E2F81388549855A85241535054605EB
:1008A000570540F4DC01ED91FC910190F081E02DC1
:1008B000698109958091F5059091F605081719074A
:1008C00050F48981E091F305F091F405E00FF11FF8
:1008D00080830F5F1F4FBFEFCB1ADB0AEB0AFB0AC7
:1008E000ACCF8091120690911306892B69F4809108
:1008F000F5059091F605B0E0A0E084159505A605F4
:10090000B70510F410E000E0B80190E080E0D3CE2D
:100910000F931F93CF93DF93EC010E947B026887B4
:1009200079878A879B87E881F9810484F585E02DA2
:10093000CE01099597FF15C00E947B020885198595
:100940002A853B85601B710B820B930B0C811D81EB
:100950002E813F81601771078207930720F38FEF85
:100960009FEFDF91CF911F910F910895BF92CF928A
:10097000DF92EF92FF920F931F93CF93DF938C013F
:10098000C8010E948804EC0197FD5DC0D801ED917B
:10099000FC910284F385E02D8D32910521F0C09702
:1009A0000A9708F04AC0C12CD12C7601B12CC13075
:1009B000D105D9F0CD32D10509F442C0CE01C0979E
:1009C0000A9798F4AAE0B0E0A70196010E94822558
:1009D0006E01DD0FEE08FF08C60ED71EE81EF91ED9
:1009E000B0E3CB1AD108E108F108D801ED91FC91F0
:1009F0000284F385E02DC8010995C8010E9488048E
:100A0000EC01C0970A9798F2C130D10581F2BB2062
:100A100041F0F094E094D094C094C11CD11CE11C2E
:100A2000F11CC701B601DF91CF911F910F91FF908B
:100A3000EF90DF90CF90BF900895C8010995A0CFA7
:100A4000BB24B394D2CFC12CD12C7601EACFEF9244
:100A5000FF920F931F93CF93DF938C017B01D0E024
:100A6000C0E0F701EC0FFD1F6491662361F0D8012F
:100A7000ED91FC910190F081E02DC8010995892B41
:100A800011F02196EECFCE01DF91CF911F910F9102
:100A9000FF90EF900895AF92BF92CF92DF92EF92C6
:100AA000FF920F931F93CF93DF936C017B018B0118
:100AB000040F151FEB015E01AE18BF08C017D10768
:100AC00059F06991D601ED91FC910190F081E02DF2
:100AD000C6010995892B79F7C501DF91CF911F9147
:100AE0000F91FF90EF90DF90CF90BF90AF9008955F
:100AF000FC01538D448D252F30E0842F90E0821B24
:100B0000930B541710F0CF96089501970895FC01A8
:100B1000918D828D981761F0A28DAE0FBF2FB11D00
:100B20005D968C91928D9F5F9F73928F90E0089558
:100B30008FEF9FEF0895FC01918D828D981731F012
:100B4000828DE80FF11D858D90E008958FEF9FEF66
:100B50000895FC01918D228D892F90E0805C9F4F3C
:100B6000821B91098F73992708958BE095E00E946D
:100B7000A90521E0892B09F420E0822F089580E067
:100B800090E0892B29F00E94B50581110C9400009A
:100B90000895FC01A48DA80FB92FB11DA35ABF4F12
:100BA0002C91848D90E001968F739927848FA6896C
:100BB000B7892C93A089B1898C91837080648C93C0
:100BC000938D848D981306C00288F389E02D80816F
:100BD0008F7D80830895EF92FF920F931F93CF93A1
:100BE000DF93EC0181E0888F9B8D8C8D98131AC068
:100BF000E889F989808185FF15C09FB7F894EE894F
:100C0000FF896083E889F9898081837080648083AB
:100C10009FBF81E090E0DF91CF911F910F91FF90F6
:100C2000EF900895F62E0B8D10E00F5F1F4F0F739E
:100C30001127E02E8C8D8E110CC00FB607FCFACF59
:100C4000E889F989808185FFF5CFCE010E94C90529
:100C5000F1CFEB8DEC0FFD2FF11DE35AFF4FF0822A
:100C60009FB7F8940B8FEA89FB8980818062CFCF90
:100C7000CF93DF93EC01888D8823B9F0AA89BB89D3
:100C8000E889F9898C9185FD03C0808186FD0DC0BE
:100C90000FB607FCF7CF8C9185FFF2CF808185FFDF
:100CA000EDCFCE010E94C905E9CFDF91CF91089524
:100CB0002091EB053091EC052817390771F49091DC
:100CC000ED048091EE04981741F0E091ED04F0E01E
:100CD000E45AFB4F808190E008958FEF9FEF0895D5
:100CE0000895EF92FF920F931F93CF93DF93DC0150
:100CF0005C96ED90FC905D97E114F10479F481E04D
:100D000090E013969C938E93129790E080E0DF9191
:100D1000CF911F910F91FF90EF9008955196ED9113
:100D2000FC91529750968C915097982F90950FB7B1
:100D30005E962C915E97122F127021FD6095F894AB
:100D40002081112319F1282B2083E7012197F1F746
:100D500028E0462F50E0308160FF1AC0382B3083E6
:100D6000E7012197F1F7BA0175956795215089F749
:100D7000112381F08081892380830FBF5C968D9140
:100D80009C910197F1F781E090E0C1CF2923DCCF5E
:100D90003923E5CF9081892BEFCF2091EB0530915E
:100DA000EC052817390761F48091EE042091ED04D9
:100DB00090E0805C9F4F821B91098F739927089563
:100DC00090E080E008952091EB053091EC05281724
:100DD0003907B9F49091ED048091EE04981789F0E9
:100DE000E091ED04F0E0E45AFB4F80812091ED04A6
:100DF00030E02F5F3F4F2F7333272093ED0490E0B7
:100E000008958FEF9FEF08958F929F92AF92BF92B8
:100E1000CF92DF92EF92FF920F931F93CF93DF93C6
:100E200040910305509104056091050570910605F8
:100E3000141615061606170644F490910205981725
:100E400009F417C1992309F414C1F82E80910705FC
:100E500090910805DC01ED91FC910084F185E02D75
:100E60000995892B19F450E040E003C10091070572
:100E700010910805D0E0C0E00E947B02F801608775
:100E8000718782879387D801ED91FC910284F38565
:100E9000E02DC801099597FF47C00E947B02F80129
:100EA00080849184A284B384681979098A099B0992
:100EB00084809580A680B780681579058A059B0592
:100EC00010F3D1CFC1E0D0E0D7CF4F0149E751E0D7
:100ED000209791F2BE012197D4012E914D01022E4F
:100EE000000C330B8217930729F0209729F24F5FEC
:100EF0005F4FF0CF209731F36A01BFEFCB1ADB0AC7
:100F0000A9E7B1E030E020E0BD90F601E1906F018B
:100F1000BE1005C02F5F3F4F2C173D07A8F3C21727
:100F2000D30729F7EB01A8CFFE01E758FE4F208138
:100F3000022E000C330B8217930739F62196C53029
:100F4000D10509F099CF80910705909108050E947D
:100F5000B604609302058091070590910805DC01B5
:100F6000ED91FC910284F385E02D099580910705B0
:100F7000909108050E94B6046093030570930405E0
:100F800080930505909306058091070590910805CB
:100F9000DC01ED91FC910284F385E02D09958091AF
:100FA0000705909108050E94B6048091070590916D
:100FB0000805DC01ED91FC910284F385E02D099593
:100FC00080910705909108050E94B604809107055D
:100FD00090910805DC01ED91FC910284F385E02DF0
:100FE000099580910705909108050E94B6048091AB
:100FF000070590910805DC01ED91FC910284F385D1
:10100000E02D099580910705909108050E94B6048E
:101010008091070590910805DC01ED91FC91028417
:10102000F385E02D09958091070590910805DC0175
:10103000ED91FC910284F385E02D099580910705DF
:10104000909108050E94B6048091070590910805CB
:10105000DC01ED91FC910284F385E02D09958091EE
:101060000205F81611F0F110FECE409103055091E3
:101070000405CA01DF91CF911F910F91FF90EF906E
:10108000DF90CF90BF90AF909F908F90089521E018
:10109000FC0184858F3F09F420E0822F0895CF93CF
:1010A000DF93EC01E881F9810084F185E02DCE0128
:1010B0000995892B41F0E881F9810284F385E02DBF
:1010C000CE010995EFCFDF91CF9108958F929F9236
:1010D000AF92BF92EF92FF920F931F93CF93DF9344
:1010E000EC017B018A01E881F9810084F185E02D22
:1010F0000995892B69F48FEF9FEFDF91CF911F91B5
:101100000F91FF90EF90BF90AF909F908F900895B8
:101110009C8580910205981336C0809103059091BB
:101120000405A0910505B0910605A80170E060E0F6
:1011300084179507A607B7070CF48C01E701E00EAA
:10114000F11EEC16FD06E9F00E947B024B015C01EA
:101150008091070590910805DC01ED91FC910284D6
:10116000F385E02D099597FF11C00E947B02681955
:1011700079098A099B09683E73408105910540F30E
:10118000BACFC801BACF80E090E0B7CF8993809101
:10119000030590910405A0910505B09106050197FE
:1011A000A109B1098093030590930405A093050557
:1011B000B0930605C6CFFC0184858F3F21F00E94C5
:1011C000040797FF02C090E080E00895CF93DF937B
:1011D0001F92CDB7DEB76983DC01ED91FC910280EF
:1011E000F381E02D41E050E0BE016F5F7F4F099534
:1011F0000F90DF91CF910895EF92FF920F931F937D
:10120000CF93DF93EC018B017A010E947B02688B04
:10121000798B8A8B9B8B8C819D81DC01ED91FC917C
:101220000280F381E02DA701B801DF91CF911F91DA
:101230000F91FF90EF9009941F93CF93DF93EC01F0
:10124000162F0E947B02688B798B8A8B9B8B8C81FB
:101250009D81DC01ED91FC910190F081E02D612FE9
:10126000DF91CF911F910994089590E080E0089557
:101270000F931F93CF93DF938C018FE090E00E9438
:101280002526EC01892BC1F082E090E099878887C0
:101290001D830C831E86000F111FC8010E94252686
:1012A00099838883080F191F1B830A839B878A876A
:1012B0009D878C871F821E82CE01DF91CF911F9167
:1012C0000F910895AF92BF92CF92DF92EF92FF926B
:1012D0000F931F93CF93DF937C018B0181E090E00C
:1012E000FB01918380838BE090E00E942526EC0136
:1012F00082E08A836E01F3E0CF0ED11C85E090E09E
:101300000E9438099E838D838FE791E09C838B83B5
:10131000E0915A04F0915B049AE5A92E94E0B92E6D
:10132000309741F05F0182E0A80EB11C0280F3818A
:10133000E02DF6CF84E090E00E942526FC01D182CA
:10134000C08213821282F501918380836E01F7E0DF
:10135000CF0ED11C85E090E00E9438099A878987DA
:101360008DEA91E098878F83E0915A04F0915B04B5
:101370008AE5A82E84E0B82E309741F05F0182E024
:10138000A80EB11C0280F381E02DF6CF84E090E03E
:101390000E942526FC01D182C08213821282F501AF
:1013A00091838083F7018681888380858983F80112
:1013B000D583C483C801DF91CF911F910F91FF9016
:1013C000EF90DF90CF90BF90AF9008953F924F92F3
:1013D0005F926F927F928F929F92AF92BF92CF92C5
:1013E000DF92EF92FF920F931F93CF93DF93CDB7CE
:1013F000DEB728970FB6F894DEBF0FBECDBF7C01D5
:1014000082E0382E9EEF492E55245A9425E6622E0E
:1014100021E0722E3CEF832E99249A940E94D101F0
:10142000811108C10E94D1018111F8CF8091F1058D
:101430009091F205DC01ED91FC910688F789E02D91
:101440000995882309F44AC0E1E0F0E0F093FC0537
:10145000E093FB0587E0EEE0F1E0DE0111960190FC
:101460000D928A95E1F7DE01119685E090E02D91CD
:10147000E091F305F091F405E80FF91F2083019640
:101480008C309105A1F70091F3051091F405F80156
:1014900034868091F80585878091F7058687C0900E
:1014A000F505D090F605B601C7010E94742141965A
:1014B000C816D90608F045C08091F1059091F20553
:1014C000DC01ED91FC910488F589E02D099568EE29
:1014D00073E080E090E00E944902A0CF60910E0688
:1014E00070910F068091F1059091F205DC01ED916C
:1014F000FC9140911006509111066115710561F043
:101500000088F189E02D0995019709F49DCF50924B
:10151000150640921406DBCF0684F785E02D7A820B
:10152000698200910A0610910B0620910C063091F9
:101530000D060B831C832D833E83BE016F5F7F4F9F
:10154000E2CF4FE050E0B801C7010E94AF01AC010B
:10155000455051096091F3057091F40580E10E94B6
:1015600087020E947B026093FD057093FE058093C5
:10157000FF05909300066093010670930206809326
:101580000306909304068091F1059091F205DC0129
:10159000ED91FC910084F185E02D0995892B11F5E1
:1015A0000E947B0200910106109102062091030621
:1015B000309104065B016C01A01AB10AC20AD30A79
:1015C0002091F9053091FA05A8EEB3E00E94C425F8
:1015D000A616B706C806D906B0F2909215068092F4
:1015E00014066ACFCE0108960E9435036430710557
:1015F0008105910509F060CFE091F305F091F405C4
:101600008381811111C00E947B0260930106709357
:10161000020680930306909304061092050610922A
:10162000150610921406FACE90E09093150680935A
:10163000140642CF28960FB6F894DEBF0FBECDBF7A
:10164000DF91CF911F910F91FF90EF90DF90CF909E
:10165000BF90AF909F908F907F906F905F904F90D2
:101660003F900895FC0101900020E9F731979F0118
:10167000281B390BE0913B06F0913C06E21BF30B73
:101680004091370650913806E417F50730F4609121
:10169000350670913606E60FF71F280F391F609147
:1016A000390670913A06DC018217930758F40196C7
:1016B000BC91A081BA1308C03196E617F70799F7D5
:1016C000FA01F1CF81E0089580E00895FB010190D7
:1016D0000020E9F73197AF01461B570BDC01ED9174
:1016E000FC910280F381E02D09948F929F92AF923A
:1016F000BF92EF92FF920F931F93CF93DF93CDB7DB
:10170000DEB7A1970FB6F894DEBF0FBECDBF7C0148
:10171000FA01CB0119A2223008F42AE08E010F5DF4
:101720001F4F822E912CB12CA12CBF01A501940139
:101730000E946025F901CA016A300CF5605DD8018C
:101740006E938D01232B242B252B79F790E080E0DD
:10175000109721F0BD01C7010E94660BA1960FB63C
:10176000F894DEBF0FBECDBFDF91CF911F910F91D7
:10177000FF90EF90BF90AF909F908F900895695C1D
:10178000DECF8F929F92AF92BF92CF92DF92EF9275
:10179000FF920F931F93CF93DF937C01EB016C01BA
:1017A00082E0C80ED11C4701E5E08E0E911C10E0CE
:1017B00000E0F60141916F0150E070E060E02AE046
:1017C000CE010E94750B5C01E881F9810190F081E6
:1017D000E02D6EE2CE0109958A0D9B1D080F191FA1
:1017E000C814D90431F7F701458150E070E060E09A
:1017F0002AE0CE010E94750B800F911FDF91CF91DF
:101800001F910F91FF90EF90DF90CF90BF90AF901E
:101810009F908F9008950F931F93CF93DF938C0128
:10182000D0E0C0E06115710519F00E94660BEC0173
:1018300063E672E0C8010E94660B8C0F9D1FDF916A
:10184000CF911F910F9108950F931F93CF93DF9323
:10185000EC010E9427058C0163E672E0CE010E9434
:10186000660B800F911FDF91CF911F910F9108950B
:101870000C94660BEF92FF920F931F93CF93DF931D
:101880008C017B01EC0109900020E9F72197C81B2E
:10189000D90BCA30D10510F0CAE0D0E06CED71E090
:1018A0008BE095E00E94380CAE014D5F5F4F70E019
:1018B00060E02AE08BE095E00E94750B63E08BE02E
:1018C00095E00E94EB056C2F6D5F8BE095E00E9428
:1018D000EB05AE01B8018BE095E00E944B0560E09E
:1018E0008BE095E00E94EB0542E050E0B7018BE011
:1018F00095E0DF91CF911F910F91FF90EF900C94A5
:101900004B05DC011296ED91FC918081918101974C
:1019100021F48AEF91E00C943A0C0895DC011296C0
:10192000ED91FC9180819181019721F485E292E013
:101930000C943A0C08953F924F925F926F927F926F
:101940008F929F92AF92BF92CF92DF92EF92FF92CF
:101950000F931F93CF93DF936C012B01342E809153
:1019600037069091380690933C0680933B060E9480
:101970007B024B015C0166246A94762C0D2C000CD2
:10198000EE08FF080E947B02681979098A099B0901
:101990006C157D058E059F0508F05BC08FEF6816FE
:1019A000780609F056C08091070590910805DC0182
:1019B000ED91FC910084F185E02D0995892B11F3BF
:1019C0008091070590910805DC01ED91FC9102845E
:1019D000F385E02D0995E0913B06F0913C0680836C
:1019E00080913B0690913C06019690933C06809333
:1019F0003B062091390630913A068217930740F052
:101A0000809137069091380690933C0680933B0670
:101A10004114510441F0C2010E94320B882319F095
:101A200085E0682E712C332009F4ACCF0BE111E076
:101A3000D0E0C0E0F801819191918F010E94320BBA
:101A4000811105C02196C530D105A1F79BCF3E017C
:101A500099CF0E947B02681979098A099B096C1544
:101A60007D058E059F0560F061E572E08BE095E0F5
:101A70000E94380C6EE271E08BE095E00E94240C2D
:101A8000C301DF91CF911F910F91FF90EF90DF90F5
:101A9000CF90BF90AF909F908F907F906F905F900E
:101AA0004F903F900895CF93DF93EC010E9409027D
:101AB000BE0180910705909108050E94240C41E029
:101AC00070E060E088EE93E0DF91CF910C949B0C86
:101AD0008F929F92AF92BF92CF92DF92EF92FF923E
:101AE000CF93DF93D82EEB01C42E79010E947B02A5
:101AF0004B015C018091070590910805DC01ED9197
:101B0000FC910084F185E02D0995892B09F47EC0B4
:101B10008091070590910805DC01ED91FC91CC20A6
:101B2000E9F00484F585E02D09958883809103050B
:101B300090910405A0910505B0910605892B8A2B8B
:101B40008B2B29F181E0DF91CF91FF90EF90DF9017
:101B5000CF90BF90AF909F908F9008950284F385AF
:101B6000E02D099588838091030590910405A0914B
:101B70000505B09106050197A109B10980930305F8
:101B800090930405A0930505B0930605CFCF65E0BB
:101B900070E080E090E00E944902809107059091FA
:101BA0000805DC01ED91FC910084F185E02D09959B
:101BB000892B41F28091070590910805DC01ED9198
:101BC000FC910484F585E02D09952D2D30E0205DF4
:101BD0003F4F8217930709F0B5CF40E06CE572E004
:101BE00084EF91E00E949B0C059761F061E572E043
:101BF0008BE095E00E94380C6BEA72E08BE095E098
:101C00000E94240C81E0F70180839DCF0E947B021B
:101C1000681979098A099B09603D7740810591051A
:101C200008F468CF61E572E08BE095E00E94380C23
:101C300062EA72E08BE095E00E94270568EF71E0B0
:101C40008BE095E00E94380CC0900305D09004050D
:101C5000E0900505F09006052AE0B701A601F7FE21
:101C60000DC06DE28BE095E00E94EB0544275527FF
:101C7000BA014C195D096E097F092AE08BE095E0F5
:101C80000E94750B63E672E08BE095E00E94660BA4
:101C90001092030510920405109205051092060596
:101CA00010920205188280E04ECF0F931F93CF93BE
:101CB000DF9300D0CDB7DEB78C01DC01ED91FC9154
:101CC0000084F185E02D0995892B59F11A82F801DC
:101CD000848590910205891309C09E012E5F3F4FB4
:101CE00040E0BE016F5F7F4F0E94680D8A818823AC
:101CF00079F0D8011C96EC911C97F0E0EE0FFF1FD5
:101D0000E050FF4F8FEF9FEF918380831C968C9361
:101D1000898190E00F900F90DF91CF911F910F91EB
:101D200008958FEF9FEFF6CF0F931F93CF93DF931D
:101D300000D0CDB7DEB78C01DC01ED91FC910084C1
:101D4000F185E02D0995892B59F11A82F8018485D6
:101D500090910205891309C09E012E5F3F4F41E01B
:101D6000BE016F5F7F4F0E94680D8A81882379F0E2
:101D7000D8011C96EC911C97F0E0EE0FFF1FE0508D
:101D8000FF4F8FEF9FEF918380831C968C93898107
:101D900090E00F900F90DF91CF911F910F910895D8
:101DA0008FEF9FEFF6CFCF92DF92EF92FF920F93DC
:101DB0001F93CF93DF93DC011296ED91FC9180810C
:101DC0009181892B29F5C481D5817E01CC80DD806C
:101DD00010E000E00C151D0541F166E672E0F70128
:101DE000808591850E947727F6E0EF0EF11C892B04
:101DF000C9F426E0209FC001219F900D1124C80F37
:101E0000D91FEA85FB8581E026813781232B09F4E0
:101E100080E0DF91CF911F910F91FF90EF90DF90C5
:101E2000CF9008950F5F1F4FD5CFF0E0E0E0EBCFEC
:101E3000CF92DF92EF92FF920F931F93CF93DF9396
:101E4000DC011296ED91FC9180819181019729F539
:101E500004811581F801C280D12C7801D0E0C0E066
:101E6000CC15DD0534F56DEA71E0D70113968D913F
:101E70009C910E947727B4E0EB0EF11C892BB9F4FA
:101E8000CC0FDD1FCC0FDD1FC00FD11FED81FE81F8
:101E900081E026813781232B09F480E0DF91CF9107
:101EA0001F910F91FF90EF90DF90CF9008952196B2
:101EB000D7CFF0E0E0E0ECCFCF92DF92EF92FF924D
:101EC0000F931F93CF93DF93DC011296ED91FC915A
:101ED00080819181019729F504811581F801C280E3
:101EE000D12C7801D0E0C0E0CC15DD0534F56FE7EA
:101EF00071E0D70113968D919C910E947727B4E0F1
:101F0000EB0EF11C892BB9F4CC0FDD1FCC0FDD1FBC
:101F1000C00FD11FED81FE8181E026813781232B07
:101F200009F480E0DF91CF911F910F91FF90EF9026
:101F3000DF90CF9008952196D7CFF0E0E0E0ECCF8E
:101F4000CF93DF93CDB7DEB7C85CD1090FB6F89455
:101F5000DEBF0FBECDBF9E012F523F4FC353DF4F99
:101F600048815981CD5CD04068EC70E0CE0101968B
:101F70000E94A2210E940902BE016F5F7F4F8091E3
:101F80000705909108050E940B0C41E070E060E0AD
:101F9000C153DF4F88819981CF5CD0400E949B0C58
:101FA000C853DF4F0FB6F894DEBF0FBECDBFDF9131
:101FB000CF910895EF92FF920F931F93CF93DF93EA
:101FC000EC01162F072FF42EE52E61E572E08BE071
:101FD00095E00E94380C64E972E08BE095E00E9485
:101FE000270568EF71E08BE095E00E94380C612FC7
:101FF000702F8BE095E00E940B0CE0E0F1E083E0B5
:1020000090E0268137812F3F3F4F31F00197329783
:102010008F3F9807B1F78FEF8C878F3F69F1EF9271
:10202000FF920F931F931F928F9383E18F9388E802
:102030008F9387E792E09F938F930E94A00F2DB715
:102040003EB7265F3F4F0FB6F8943EBF0FBE2DBF81
:10205000892BF1F48C8590E0FC01EE0FFF1FE0501E
:10206000FF4F9183808381E090E0DF91CF911F91BA
:102070000F91FF90EF90089561E572E08BE095E09D
:102080000E94380C63E672E08BE095E00E94240C1D
:1020900090E080E0EACF0C94DA0FCF93DF93FC015D
:1020A00024852F3F09F440C0EC0161E572E08BE02C
:1020B00095E00E94380C64EE70E08BE095E00E94A1
:1020C000270568EF71E08BE095E00E94380C4C85A5
:1020D00050E070E060E02AE08BE095E00E94750B34
:1020E00063E672E08BE095E00E94660B8C851F92A0
:1020F0008F938FE08F9380EA8F9385ED90E09F938D
:102100008F930E94A00FEC85F0E0EE0FFF1FE050D0
:10211000FF4F8FEF9FEF918380838C870F900F90FD
:102120000F900F900F900F90DF91CF910895AF9285
:10213000BF92CF92DF92EF92FF920F931F93CF93B4
:10214000DF935C016B017A01E90118820E940902A8
:10215000B50180910705909108050E94240C41E08B
:10216000B60188EE93E00E949B0C8530910509F042
:1021700058C0809137069091380690933C06809322
:102180003B0640913506509136064F5F5F4F70E039
:1021900060E00E94652741E0B70184EF91E00E9472
:1021A0009B0C059781F5A80141505109F701019059
:1021B0000020E9F73197EE19FF0960913706709119
:1021C000380680913B0690913C06861B970B8E1B30
:1021D0009F0B4817590708F0AC01CE010E948727D2
:1021E00041E070E060E080ED97E00E949B0C81E0B0
:1021F000DF91CF911F910F91FF90EF90DF90CF90E3
:10220000BF90AF90089561E572E08BE095E00E9489
:10221000380C6FE071E08BE095E00E94240C80E0C8
:10222000E7CF0597E0F361E572E08BE095E00E946F
:10223000380C61E271E0EFCFCF92DF92EF92FF9224
:102240000F931F93CF93DF93CDB7DEB76E970FB683
:10225000F894DEBF0FBECDBFFC0184858F3FD1F166
:102260007F010E940407892B21F5D7011C968C91D0
:102270001F928F9380E091E09F938F93FE013196A0
:102280006F01FF93EF930E947F210AE010E09E010F
:102290002B5E3F4F4DE751E0B60183EF90E00E9487
:1022A00097100F900F900F900F900F900F90882322
:1022B00011F094E010C0D7011C96EC911C97F0E04F
:1022C000EE0FFF1FE050FF4F8FEF9FEF9183808352
:1022D0001C968C9390E081E0943009F080E06E963B
:1022E0000FB6F894DEBF0FBECDBFDF91CF911F9127
:1022F0000F91FF90EF90DF90CF900895AF92BF9233
:10230000CF92DF92EF92FF920F931F93CF93DF93C1
:10231000CDB7DEB764970FB6F894DEBF0FBECDBF62
:102320007C015B018A01DC011C968C91843018F4DD
:1023300041155105C9F481E090E0F7019383828350
:1023400010E000E0C80164960FB6F894DEBF0FBE3F
:10235000CDBFDF91CF911F910F91FF90EF90DF9054
:10236000CF90BF90AF9008951F934F931F928F937C
:102370008AEA90E09F938F939E012F5F3F4F690100
:102380003F932F930E947F21B60180910705909182
:1023900008050E940B0C40E065E972E088EE93E0CE
:1023A0000E949B0C0FB6F894DEBF0FBECDBF059701
:1023B00009F443C061E572E08BE095E00E94380CBF
:1023C0006FE870E08BE095E00E94240C81E090E0E3
:1023D000F7019383828361E572E08BE095E00E94D0
:1023E000380C6BEB70E08BE095E00E94270568EFFE
:1023F00071E08BE095E00E94380CD7011C964C915F
:1024000050E070E060E02AE08BE095E00E94750B00
:1024100063E672E08BE095E00E94660B60EA7FE085
:1024200080E090E00E944902D701ED91FC91048880
:10243000F589E02DC701099583CF8091070590911B
:102440000805DC01ED91FC910280F381E02DA801EB
:10245000B501099541E070E060E080ED97E00E94F1
:102460009B0C039709F46ECF61E572E08BE095E079
:102470000E94380C64E770E0A5CFCF92DF92EF9214
:10248000FF920F931F93CF93DF93CDB7DEB7609783
:102490000FB6F894DEBF0FBECDBF7C01FB016A0111
:1024A00085811F928F9384811F928F9383811F92C6
:1024B0008F9382811F928F9388E690E09F938F93F2
:1024C0008E010F5F1F4F1F930F930E947F21A60164
:1024D000B801C7010E94DA0F0FB6F894DEBF0FBE35
:1024E000CDBF60960FB6F894DEBF0FBECDBFDF91B3
:1024F000CF911F910F91FF90EF90DF90CF900895B3
:10250000CF92DF92EF92FF920F931F93CF93DF93BF
:102510006C018B01C0910905D0910A05209779F0D3
:10252000E880F980F70160817181C6010E947727F8
:10253000892B71F4F701C481D581209769F4DF916B
:10254000CF911F910F91FF90EF90DF90CF90089562
:102550000A80DB81C02DE2CF2E813F818C819D815D
:1025600028173907F8F448855985B8018C859D8569
:102570000E944A278C859D8528853985820F931F67
:102580009D878C872E813F812F5F3F4F3F832E8316
:102590002A813B818217930791F6888199819D87D3
:1025A0008C87CDCF8E85882351F248855985B80117
:1025B0008C859D850E944A27488559852C853D85B7
:1025C000240F351F3D872C878A859B85840F951F97
:1025D0009B878A87B4CFCF93DF93FC012681378115
:1025E000232B11F19B01EC01628573854085518598
:1025F000C9010E944A278A859B8528853985820FD3
:10260000931F9B878A872E813F81215031093F8309
:102610002E832A813B818217930721F48881998137
:102620009B878A8781E001C080E0DF91CF91089588
:10263000AF92BF92CF92DF92EF92FF920F931F93D0
:10264000CF93DF93DC011296ED91FC918081918113
:10265000892BB1F58B01E480F5806701F701A48037
:10266000B580D0E0C0E0CA15DB0539F166E672E05E
:10267000D60118968D919C910E947727B6E0CB0EDB
:10268000D11C892BC1F426E02C9FC0012D9F900DF9
:102690001124E80EF91EF70182859385B801DF91B8
:1026A000CF911F910F91FF90EF90DF90CF90BF904F
:1026B000AF900C94EB122196D6CF90E080E0EECF55
:1026C00080E0DF91CF911F910F91FF90EF90DF900D
:1026D000CF90BF90AF900895AF92BF92CF92DF920C
:1026E000EF92FF920F931F93CF93DF93DC0112962B
:1026F000ED91FC9180819181019799F58B01C480C6
:10270000D580F601E280F12C5601D0E0C0E0CE1574
:10271000DF0524F56DEA71E0D50113968D919C914A
:102720000E947727B4E0AB0EB11C892BA9F4CC0F23
:10273000DD1FCC0FDD1FCC0DDD1D8D819E81B8010D
:10274000DF91CF911F910F91FF90EF90DF90CF908D
:10275000BF90AF900C94EB122196D9CF90E080E01F
:10276000EECF80E0DF91CF911F910F91FF90EF901E
:10277000DF90CF90BF90AF900895AF92BF92CF926D
:10278000DF92EF92FF920F931F93CF93DF93DC01C1
:102790001296ED91FC9180819181019799F58B01C1
:1027A000C480D580F601E280F12C5601D0E0C0E073
:1027B000CE15DF0524F56FE771E0D50113968D91F5
:1027C0009C910E947727B4E0AB0EB11C892BA9F431
:1027D000CC0FDD1FCC0FDD1FCC0DDD1D8D819E814B
:1027E000B801DF91CF911F910F91FF90EF90DF9093
:1027F000CF90BF90AF900C94EB122196D9CF90E080
:1028000080E0EECF80E0DF91CF911F910F91FF909C
:10281000EF90DF90CF90BF90AF900895EF92FF922E
:102820000F931F93CF93DF937C018B01FC010190E9
:102830000020E9F7CF01FB0101900020E9F7319773
:10284000E61BF70BEE19FF098E0F9F1F0E9425262E
:10285000EC01B7010E948027B801CE010E946C27CD
:10286000CE01DF91CF911F910F91FF90EF900895CE
:10287000EF92FF920F931F93CF93DF938C01EB01A5
:102880007A01C9010E943809F80195838483B70150
:10289000CE010E940E14EC01F80191838083F38233
:1028A000E282E0910905F0910A0589E0E82E85E0D1
:1028B000F82E309741F07F0182E0E80EF11C028093
:1028C000F381E02DF6CF84E090E00E942526FC0104
:1028D0001183008313821282F70191838083009118
:1028E000F5051091F605B801CE010E9474212097DC
:1028F00009F444C009960817190708F43FC00E945C
:10290000D1018823D9F18091FB059091FC050196B6
:1029100091F19093FC058093FB05E091F305F09114
:10292000F4058091FC058583E091F305F091F405B1
:102930008091FB0586836091F3057091F40547E073
:1029400050E0CE010E94AF01E091F305F091F40553
:10295000E80FF91F1082AC01445051096091F30552
:102960007091F40582E8DF91CF911F910F91FF9054
:10297000EF900C94870281E090E0CBCFDF91CF9174
:102980001F910F91FF90EF900895EF92FF920F9398
:102990001F93CF93DF938C017B01FB011182108287
:1029A00082E190E00E942526EC0182E090E09D8388
:1029B0008C83F801608D718D25E030E047E952E0AD
:1029C000CE0106960E943814F801608D718D25E0C5
:1029D00030E047EC52E0CE010C960E943814F8012A
:1029E0008689978999838883808D918D9B838A833B
:1029F000F701D583C483C701DF91CF911F910F9158
:102A0000FF90EF900895EF92FF920F931F93CF9353
:102A1000DF937C018B01FB01118210828CE090E03E
:102A20000E942526EC0181E090E09D838C83F701D4
:102A30006089718921E030E046E652E0CE010696D9
:102A40000E943814F7018685978599838883808949
:102A500091899B838A83F801D583C483C801DF9160
:102A6000CF911F910F91FF90EF900895EF92FF92F9
:102A70000F931F93CF93DF938A010E940E14EC01F2
:102A80000E94D101882389F1E090F505F090F605C8
:102A9000B701CE010E9474210996E816F90628F1C3
:102AA0006091F3057091F40545E050E0CE010E947D
:102AB000AF01F8012081E091F305F091F405E80FF2
:102AC000F91F2083F8012181E091F305F091F405CD
:102AD000E80FF91F2183AC01435051096091F305C0
:102AE0007091F40580E30E948702CE01DF91CF91BF
:102AF0001F910F91FF90EF900C94C126AB01DC0168
:102B00001296ED91FC9180819181892B49F404808A
:102B1000F581E02D67EC72E0808191810C9436158F
:102B20000895AB01DC011296ED91FC9180819181B9
:102B3000892B49F40480F581E02D67E972E08081FA
:102B400091810C94361508951F920F920FB60F9233
:102B500011242F933F938F939F93AF93BF938091B3
:102B6000FA049091FB04A091FC04B091FD04309113
:102B7000F90423E0230F2D3758F50196A11DB11D4F
:102B80002093F9048093FA049093FB04A093FC042F
:102B9000B093FD048091FE049091FF04A091000584
:102BA000B09101050196A11DB11D8093FE04909383
:102BB000FF04A0930005B0930105BF91AF919F91D1
:102BC0008F913F912F910F900FBE0F901F901895EE
:102BD00026E8230F0296A11DB11DD2CF1F920F929E
:102BE0000FB60F9211242F933F934F935F936F93E0
:102BF0007F938F939F93AF93BF93EF93FF938BE05C
:102C000095E00E94C905FF91EF91BF91AF919F910F
:102C10008F917F916F915F914F913F912F910F9085
:102C20000FBE0F901F9018951F920F920FB60F9224
:102C300011242F938F939F93EF93FF93E0911B05A4
:102C4000F0911C058081E0912105F091220582FD23
:102C50001BC09081809124058F5F8F732091250583
:102C6000821741F0E0912405F0E0E55FFA4F958F7F
:102C700080932405FF91EF919F918F912F910F9059
:102C80000FBE0F901F9018958081F4CF1F920F9266
:102C90000FB60F9211242F933F934F935F936F932F
:102CA0007F938F939F93AF93BF93EF93FF93E091A5
:102CB000EB05F091EC05309749F0A685B785858541
:102CC000968D91FF14C09C918923A1F4FF91EF91FF
:102CD000BF91AF919F918F917F916F915F914F9134
:102CE0003F912F910F900FBE0F901F9018959C91C0
:102CF000892361F7A389B4899C918589809589236B
:102D00008C93868997890197F1F7608D718DA685DF
:102D1000B785558538E020E0CB010197F1F7822F88
:102D200090E095958795282F4C91452309F02068D0
:102D3000315091F7868D81FD20958091EE0490E0D1
:102D400001968F7399273091ED04381799F0A0916F
:102D5000EE04B0E0A45ABB4F2C938093EE04828D16
:102D6000938D0197F1F7A389B4898C919589892B6B
:102D70008C93ACCF868D8160868FF1CF90E0FC0183
:102D8000E15BFD4F2491FC01EE50FD4F3491FC01BD
:102D9000E252FD4FE491EE23C9F0222339F02330B3
:102DA00001F1A8F4213019F1223029F1F0E0EE0F01
:102DB000FF1FEC52FD4FA591B4918FB7F894EC91A1
:102DC000611126C030953E233C938FBF0895273074
:102DD000A9F02830C9F0243049F7809180008F7D18
:102DE00003C0809180008F7780938000DFCF84B50F
:102DF0008F7784BDDBCF84B58F7DFBCF8091B00012
:102E00008F778093B000D2CF8091B0008F7DF9CFC3
:102E10003E2BDACFCF92DF92EF92FF920F931F9368
:102E2000CF93DF9310920E0510920D05E8EECE2E93
:102E3000E3E0DE2EE12CF12CC0920F05D0921005BC
:102E4000E0921105F092120589E291E090930C0551
:102E500080930B0585EC90E09093180580931705FF
:102E600084EC90E090931A058093190580EC90E033
:102E700090931C0580931B0581EC90E090931E05B8
:102E800080931D0582EC90E09093200580931F05B0
:102E900086EC90E090932205809321051092240502
:102EA000109225051092260510922705C5E6D1E05F
:102EB000D093A905C093A8051092AA051092AB055E
:102EC0001092AC051092AD0580E290E0909336062A
:102ED0008093350681E290E00E9425269093380683
:102EE000809337069C01205E3F4F30933A06209333
:102EF000390690933C0680933B0621E2FC01119237
:102F00002A95E9F7D093AF05C093AE051092B005AE
:102F10001092B1051092B2051092B305D093B50589
:102F2000C093B4051092B6051092B7051092B8057B
:102F30001092B905D093BB05C093BA051092BC0599
:102F40001092BD051092BE051092BF05D093C10529
:102F5000C093C0051092C2051092C3051092C4051B
:102F60001092C505D093C705C093C6051092C80539
:102F70001092C9051092CA051092CB05D093CD05C9
:102F8000C093CC051092CE051092CF051092D005BB
:102F90001092D1050E947B02D093E005C093DF051B
:102FA0001092E1051092E2051092E3051092E405FB
:102FB0001092D5051092D405C092D605D092D705AF
:102FC000E092D805F092D90587E491E09093D3057B
:102FD0008093D2058FEF8093DE051092F00510925A
:102FE000EF058BE391E09093EE058093ED05D09390
:102FF0000906C093080610920A0610920B0610925A
:103000000C0610920D068FEF9FEF9093150680939C
:1030100014061092F2051092F10510921306109208
:103020001206109207061092060680E091E00E94B8
:1030300025269093F4058093F30580E091E090932A
:10304000F6058093F5058FE090E09093F805809366
:10305000F7059093FA058093F905109219061092DE
:103060001806C0921A06D0921B06E0921C06F09237
:103070001D068BE691E0909317068093160610923A
:103080002D0610922C0610922F0610922E061092EA
:10309000310610923006109233061092320660917B
:1030A00034066E7F6D7F609334066695617081E0B3
:1030B000682783E00E94BE1645EF52E0FA01649152
:1030C00081EE92E0FC012491222399F030E0220F5E
:1030D000331FF901E653FD4FA591B491F901EC526C
:1030E000FD4F259134912FB7F8943C91632B6C934D
:1030F0002FBFFA01449140932606FC018491E82FEA
:10310000F0E0EE0FFF1FEC52FD4F859194919093EC
:1031100028068093270604EF12E0F8012491C0EE00
:10312000D2E0FE0184918823C9F090E0880F991FB6
:10313000FC01E653FD4FA591B491FC01EC52FD4F0B
:10314000459154913FB7F8949C91822F8095982394
:103150009C93FA019081892380833FBF809134063C
:1031600081FD04C061E082E00E94BE1682E080938F
:103170002206F801049100932306FE01C491EC2F6E
:10318000F0E0EE0FFF1FE054FD4F85919491909376
:1031900025068093240685E691E09093E6058093CA
:1031A000E5051092E7051092E8051092E9051092E6
:1031B000EA05DF91CF911F910F91FF90EF90DF9083
:1031C000CF900895CF93DF93CDB7DEB7AD970FB60D
:1031D000F894DEBF0FBECDBF789484B5826084BD05
:1031E00084B5816084BD85B5826085BD85B581600B
:1031F00085BD80916E00816080936E001092810089
:103200008091810082608093810080918100816043
:103210008093810080918000816080938000809104
:10322000B10084608093B1008091B0008160809390
:10323000B00080917A00846080937A0080917A0057
:10324000826080937A0080917A00816080937A0016
:1032500080917A00806880937A001092C10001E02A
:1032600010E01A83098383E090E09C838B8322E63D
:1032700039E03E832D8318870F8329E030E03A87B9
:1032800029879C8B8B8B25EC34E13E8B2D8B28EF93
:1032900032E0388F2F8B23E333E03A8F298F9C87DE
:1032A0008B8783E095E19E878D878EE693E0988BF0
:1032B0008F8789EA93E09A8B898BA090AE04B090B7
:1032C000AF0482E18A9D60018B9DD00C1124960190
:1032D00024563B4F4901D9010D931C938BE190E09B
:1032E0000E9425267C010097B9F1FC019182808221
:1032F0000E947B029B01AC01D7011E966C931E9726
:103300001F963C931F9750968C93509751965C93C1
:10331000519752961C92529753961C9253975496DB
:103320001C92549755961C92F701168A178A108E94
:10333000118E128E1383028382E090E09583848342
:1033400081E0838725E030E037832683848728E087
:1033500030E031872087858782E18A9D80018B9DBF
:10336000100D112404561B4FD8011396FC92EE92B7
:1033700012970E947B029B01AC01F7016687378799
:10338000808B518B128A138A148A158A168A178A9F
:10339000108E118E128E81E090E09383828382E002
:1033A00090E09583848381E0838725E030E0378354
:1033B0002683848728E030E03187208785878B81CA
:1033C0009C810097C1F0F8019583848386E090E0AA
:1033D0000E942526D80117969C938E9316979601E6
:1033E00020563B4FFC0133832283ED81FE81BC01DB
:1033F000CE01019609958B859C85009739F1209126
:10340000AE043091AF0442E1429F8001439F100D12
:103410001124980124563B4F7901D90119969C93A8
:103420008E93189786E090E00E942526F7019387F7
:1034300082870C551B4FDC0113961C930E93129739
:10344000ED85FE85BC01CE01019609958B899C898D
:10345000009721F12091AE043091AF0442E1429FE8
:103460008001439F100D1124F801E456FB4F7F01AA
:103470009587848786E090E00E942526D7011F96D5
:103480009C938E931E9708551B4FFC011383028358
:10349000ED89FE89BC01CE01019609952091AE040B
:1034A0003091AF04C90101969093AF048093AE04AC
:1034B00042E1429FC001439F900D112484569B4FCF
:1034C0009093F6048093F504E0911B05F0911C05A0
:1034D00082E08083E0911705F09118051082E09159
:1034E0001905F0911A0580E1808310922305E0917F
:1034F0001F05F091200586E08083E0911D05F09185
:103500001E05908190619083E0911D05F0911E054C
:10351000908198609083E0911D05F0911E05908147
:1035200090689083E0911D05F0911E0590819F7D2C
:103530009083E0EBF4E09DE3DF011D929A95E9F7BB
:10354000E5E1F1E0DE015B9601900D928A95E1F7ED
:103550001E01BBE12B0E311C3092F8042092F704BF
:10356000109231061092300610922F0610922E06FD
:1035700010922D0610922C068DE991E0909333065F
:103580008093320690912206963108F047C02DEBC9
:1035900030E030932D0620932C062BE931E0309358
:1035A0002F0620932E062CE231E030933106209333
:1035B00030062091680084E0983048F031E09E3079
:1035C00008F430E081E001C0880F3A95EAF7822BD9
:1035D000809368002DE630E0983050F02BE630E024
:1035E0009E3030F02CE630E0963110F030E020E0F4
:1035F00030932A0620932906292F30E0983008F0CE
:1036000071C081E001C0880F9A95EAF780932B067C
:1036100080913206909133060197F1F78091300640
:1036200090913106892B49F1E091EB05F091EC0581
:1036300006E0E631F00709F1309739F0A389B48943
:103640009C918589809589238C93809134068E7F07
:10365000809334061092EE041092ED0486E196E019
:103660009093EC058093EB05E0912906F0912A06F2
:10367000808190912B06892B808361E572E08BE03D
:1036800095E00E94380C6EEF71E08BE095E00E94AF
:10369000240C86E196E0909308058093070505E0E9
:1036A00010E08BEF91E00E94530D892B09F47FC548
:1036B00068EE73E080E090E00E9449020150110939
:1036C00081F761E572E08BE095E00E94380C6EEDC9
:1036D00071E08BE095E00E94240C68E873E180E0E3
:1036E00090E0D7C59E3040F42850310981E001C0F8
:1036F000880F2A95EAF78ACF2E503109F7CF61E576
:1037000072E08BE095E00E94380C65EA71E08BE096
:1037100095E00E94270568EF71E08BE095E00E943C
:10372000380C6FEE74E08BE095E00E940B0C04EE19
:1037300013E0EDEEEE2EE3E0FE2EFEE4BF2EA0E25F
:10374000AA2EB8E3CB2EB2E0DB2E1F930F93FF928D
:10375000EF92BF92AF92DF92CF920E94A00F0FB66E
:10376000F894DEBF0FBECDBF61E572E0892B09F092
:1037700013C28BE095E00E94380C66E172E08BE0AA
:1037800095E00E94270568EF71E08BE095E00E94CC
:10379000380C6DEE73E08BE095E00E940B0C68EE48
:1037A00073E080E090E00E94490282ED95E0909302
:1037B000F2058093F1058D8D9E8D2B8D3C8D309380
:1037C0000F0620930E06909311068093100680E852
:1037D00092E1909307068093060684E190E090932F
:1037E000F8058093F7058F8D98A10E94E609009156
:1037F000F7041091F8040E94D101811106C0D8018C
:1038000014968D919C910E94E6090E94D101882313
:1038100009F44FC00E947B026B017C012091F705E7
:103820003091F805A8EEB3E00E94C425009101068E
:1038300010910206209103063091040646015701BB
:10384000801A910AA20AB30A9501840160177107D0
:1038500082079307B0F00091FD051091FE052091BD
:10386000FF053091000646015701801A910AA20A0D
:10387000B30A95018401601771078207930708F066
:10388000D9C180910506882309F4A5C17CEFA72E34
:10389000BB24BA94B0921506A09214068091F1054B
:1038A0009091F205DC01ED91FC910488F589E02D01
:1038B0000995E091F504F091F60482809380AA24A2
:1038C000A394F401A286A386A486A586828193810F
:1038D000019709F050C1808591858930910509F4DF
:1038E000AAC28A30910509F4C3C2089709F067C0DB
:1038F0000190F081E02D0684F785E02D8081918193
:10390000892B09F05CC0E480F5805701D70114963B
:103910004D905C903701D12CC12CC414D50409F40E
:1039200080C267E972E0F301808591850E94772764
:10393000F6E06F0E711C892B09F06FC286E08C9D3A
:10394000F0018D9DF00D1124EE0DFF1D0284F38515
:10395000E02D86819781892B91F1D4015A968C9123
:1039600081112DC0D12CC12CC414D50409F460C21E
:1039700067E972E0F501808591850E947727F6E07E
:10398000AF0EB11C892B09F04FC226E02C9DC0015F
:103990002D9D900D1124E80EF91ED7011A968D91D8
:1039A0009C91BE016F5F7F4F0E94EB12AA24A394EB
:1039B000F401A28E49E0E42EF12CF186E086D401D8
:1039C0001D961C921D971C968C911C97882309F4B8
:1039D0006BC01B968C911B9716962D913C91179757
:1039E0002630310509F4B3C22730310509F418C374
:1039F0002530310509F055C0882309F452C01496CA
:103A00008D919C911597029709F04BC00D911C91D7
:103A10000C5F1F4FC8010E945C0F882309F441C04E
:103A2000F401828D81113DC0B101C8010E94BD1316
:103A3000E3E0F0E0D4011596FC93EE931497F1E0E7
:103A40005A96FC935A978D919C91BE016F5F7F4F60
:103A500008960E949115E6E0F0E0D4011796FC93D9
:103A6000EE9316970E947B028B019C01D4011E9657
:103A70006C931E971F961C931F9750968C9350978C
:103A800051963C93519752961C92529753961C9282
:103A9000539754961C92549755961C9255971B9683
:103AA0001C92D4011C961C92F4018385882309F48E
:103AB00062C0848195818330910509F4E0C284302D
:103AC000910509F445C3029709F052C08485882303
:103AD00009F44EC086819781059709F049C0828D0F
:103AE000811146C0008111810C5F1F4FC8010E94E7
:103AF0005C0F8823E9F1B101C8010E94BD13E3E026
:103B0000F0E0D4011596FC93EE931497F1E05A96E9
:103B1000FC935A978D919C91BE016F5F7F4F0896E1
:103B20000E949115E6E0F0E0D4011796FC93EE9325
:103B300016970E947B028B019C01D4011E966C9308
:103B40001E971F961C931F9750968C9350975196D3
:103B50003C93519752961C92529753961C925397AE
:103B600054961C92549755961C9255971C961C92ED
:103B7000D4011B961C92F401128680E0882E80E00E
:103B8000982E892809F433CE0E94B505882309F4BC
:103B90002ECE0E9400002BCE8BE095E00E94380CC8
:103BA00063E272E08BE095E00E94270568EF71E028
:103BB0008BE095E00E94380C6DEE73E08BE095E0B1
:103BC0000E940B0C68EE73E080E090E00E944902D6
:103BD0000E940902BACDE091F305F091F40580EC62
:103BE0008083E091F305F091F40511828091F10555
:103BF0009091F2056091F3057091F405DC01ED916F
:103C0000FC910280F381E02D42E050E00995C092E2
:103C1000FD05D092FE05E092FF05F0920006C092ED
:103C20000106D0920206E0920306F0920406B1E08B
:103C3000B09305068091F1059091F205DC01ED91BC
:103C4000FC910084F185E02D0995892B09F431CE92
:103C5000CE0101960E9435034B01672B09F4DAC0AF
:103C6000C0920106D0920206E0920306F09204068A
:103C7000E091F305F091F4058081807F803309F0B5
:103C8000A8C08091060690910706892B09F411CEF1
:103C9000498150E0CA0102968E0F9F1FDF01A40FD9
:103CA000B51F11966C90712C762C6624DC016C91FA
:103CB000660E711C4D5F5F4FBF01640F751FA3013E
:103CC0000E945327E9818091F3059091F405860DB8
:103CD000971DE80FF92FF11D1282A091F305B09105
:103CE000F405298130E02901E2E04E0E511C4A0E14
:103CF0005B1E1C911670E0910606F0910706FDA769
:103D0000ECA7123009F051C0C301820F931FFD01CF
:103D1000E80FF91F638170E0762F66274481FB016D
:103D2000E40FF11DFDA3ECA34BEF5FEF421B530B20
:103D300046195709480D591D0596BD01680F791F91
:103D4000C201ECA5FDA50995E091F305F091F405FC
:103D500080E48083E091F305F091F4051183E09114
:103D6000F305F091F4058DA08282E091F305F091C6
:103D7000F4059CA093828091F1059091F2056091E9
:103D8000F3057091F405DC01ED91FC910280F38163
:103D9000E02D44E050E00995C092FD05D092FE056B
:103DA000E092FF05F092000684CD4DEF5FEF421BDD
:103DB000530B46195709480D591D2D5F3F4F620E91
:103DC000731EBD01660D771DC201ECA5FDA5099509
:103DD00070CD803CC9F480ED8083E091F305F091D3
:103DE000F40511828091F1059091F2056091F3053F
:103DF0007091F405DC01ED91FC910280F381E02DDE
:103E000042E050E0099555CD803D09F052CD109229
:103E100005064FCD0E94D1014CCD0FEFC01AD00A3C
:103E20007CCDF0E0E0E095CDBFEFCB1ADB0A9CCD76
:103E300090E080E0B6CD0190F081E02D0684F7851A
:103E4000E02D80819181892B61F40480F581E02D42
:103E5000AE014F5F5F4F66E672E0808191810E9404
:103E600036153AE0A32EB12CF401B186A086A7CD79
:103E70000190F081E02D0684F785E02D808191810D
:103E8000892B09F09CCDE480F5805701F70144802F
:103E900055803701D12CC12CC414D50409F44DC070
:103EA00067EC72E0D30118968D919C910E94772760
:103EB000B6E06B0E711C892BE1F586E08C9DF0015C
:103EC0008D9DF00D1124EE0DFF1D0284F385E02D74
:103ED00086819781892B09F472CDD12CC12CC41411
:103EE000D50491F167EC72E0D50118968D919C9103
:103EF0000E947727B6E0AB0EB11C892B09F526E0AE
:103F00002C9DC0012D9D900D1124E80EF91EF70186
:103F100082859385BE016F5F7F4F0E94EB12E8E0C0
:103F2000F0E0D4011996FC93EE9318975A961C92E0
:103F300046CDEFEFCE1ADE0AAFCFF0E0E0E0C8CF1B
:103F4000FFEFCF1ADF0ACBCF90E080E0E3CF8823EA
:103F500009F4A7CDF40184819581039709F0A1CDDF
:103F6000A684B784C088D1887288638854884588BD
:103F70000E947B027B018C0120E030E0A9016CA350
:103F8000FDA28EA31FA328A739A74AA75BA79B0161
:103F9000AC0160E070E080E090E0E72CF62C052DAD
:103FA000142D0E9416260E94D3256B017C01D4019A
:103FB00056966D917D918D919C9159970E944324C5
:103FC00020E030E04AE754E40E94A2249B01AC01C7
:103FD000C701B6010E94112618160CF062CDF4013B
:103FE00080819181B10108960E947E15E5E0F0E0A4
:103FF000D4011796FC93EE9316975A961C925A97F3
:104000008D919C91BE016F5F7F4F04960E948E0C34
:1040100084E090E0D40115969C938E9314973FCD45
:10402000882309F43ECDF40184819581049709F039
:1040300038CD008111810C5F1F4FC8010E94180FFD
:10404000882309F42ECDB101C8010E946C1382E0CF
:1040500090E0D40115969C938E9314978D919C912A
:10406000BE016F5F7F4F08960E947E1525E0A22E4D
:10407000B12CF401B782A682128E138612CD8485EC
:10408000882309F475CD86819781069709F070CD54
:10409000A684B784C088D18872886388548845888C
:1040A0000E947B027B018C0120E030E0A9016CA31F
:1040B000FDA28EA31FA328A739A74AA75BA79B0130
:1040C000AC0160E070E080E090E0E72CF62C052D7C
:1040D000142D0E9416260E94D3256B017C01D40169
:1040E00056966D917D918D919C9159970E94432494
:1040F00020E030E04AE754E40E94A2249B01AC0196
:10410000C701B6010E94112618160CF031CDF4013A
:1041100080819181B10108960E947E15E5E0F0E072
:10412000D4011796FC93EE9316975A961C925A97C1
:104130008D919C91BE016F5F7F4F04960E948E0C03
:1041400084E090E0D40115969C938E9314970ECD45
:104150008485882309F40CCD86819781079709F01F
:1041600007CD008111810C5F1F4FC8010E94180FFD
:10417000882309F4FDCCB101C8010E946C1382E0D0
:1041800090E0D40115969C938E9314978D919C91F9
:10419000BE016F5F7F4F08960E947E1595E0A92EA5
:1041A000B12CF401B782A682128E1486E1CC8EE97E
:1041B00091E00E94530D68EB7BE080E090E00E946C
:1041C00049020E94090289E991E00E94530D8DE89D
:1041D00091E00E94530D68EC70E080E090E00E9456
:1041E000490281E891E00E94530D83E791E00E942B
:1041F000530D83E691E00E94530D85E591E00E9406
:10420000530D68EC70E080E090E00E94490210924B
:10421000EF0461E471E0CE0101960E946D216EE32E
:1042200071E0CE0181960E946D2106E010E02FEE34
:1042300034E0AE014F5D5F4FBE016F5F7F4F8EE494
:1042400091E00E9497108091EF048153823028F40E
:104250008091F0048E3209F452CA61E572E08BE07D
:1042600095E00E94380C60EC71E08BE095E00E94D4
:10427000270568EF71E08BE095E00E94380C6FEE47
:1042800074E08BE095E00E940B0C60EA7FE080E038
:1042900090E00E9449024BCA8BE691E0909317068A
:1042A000809316068091EB059091EC05865196401F
:1042B00071F4E0912906F0912A06908180912B06F5
:1042C0008095892380831092EC051092EB058091F4
:1042D000F3059091F4050C94C126FB01DC010590D7
:1042E0000D920020E1F70895FC01615070400190AB
:1042F0000110D8F7809590958E0F9F1F0895AEE01E
:10430000B0E0E5E8F1E20C949B250D891E898EE072
:104310008C831A8309838FEF9FE79E838D83AE0181
:10432000475E5F4F6F89788DCE0101960E94CE2146
:104330002F813885020F131FF80110822E96E4E0BA
:104340000C94B725AEE0B0E0E8EAF1E20C949B25CE
:104350008C01FA018EE08C831A83098377FF02C0F7
:1043600060E070E8615071097E836D83A901BF012F
:10437000CE0101960E94CE214D815E8157FD0AC07B
:104380002F813885421753070CF49A01020F131F2F
:10439000F80110822E96E4E00C94B725ABE0B0E073
:1043A000E4EDF1E20C948D257C013B018A01FC01D6
:1043B00017821682838181FFC8C1CE0101965C01FC
:1043C000F7019381F30193FD859193FF81913F0163
:1043D000882309F453C1853239F493FD859193FF05
:1043E00081913F01853229F4B70190E00E94B32307
:1043F000E7CF912C212C312CFFE1F31538F08B32D3
:1044000011F190F4803209F1833229F137FC3CC07C
:1044100020ED280F2A3050F536FE20C08AE0989E05
:10442000200D1124922E06C08D3291F0803371F749
:10443000689430F8F30193FD859193FF81913F01DA
:104440008111DACF21C0689431F8689432F8F2CF44
:10445000689433F8EFCF689434F8ECCFEAE02E9EFE
:10446000200D1124222E689435F8E4CF8E3229F4E1
:1044700036FC04C1689436F8DDCF8C3619F46894A4
:1044800037F8D8CF8836B1F2982F9F7D9554933066
:10449000E0F08336A1F18337C1F1833509F063C0C1
:1044A0002801F2E04F0E511CF801C080D180692D27
:1044B00070E036FC02C06FEF7FEFC6010E94A823B8
:1044C0004C01689437F882010AC00C5F1F4FFFE36C
:1044D000F98388248394912C6501E89437F833FE9E
:1044E0002DC0522C8114910471F5552009F468CF28
:1044F000B70180E290E00E94B3235A94F6CFF8010E
:10450000808189830E5F1F4FE4CF2801F2E04F0EB8
:10451000511CF801C080D180692D70E036FC02C0CA
:104520006FEF7FEFC6010E9474214C018201D5CF4D
:10453000B70180E290E00E94B3232A942814190462
:1045400009F0B0F7CECFF60137FC859137FE8191A7
:104550006F01B70190E00E94B32351105A94F1E02B
:104560008F1A9108BFCF843619F0893609F077C0C9
:10457000F80137FE6BC060817181828193810C5F8D
:104580001F4FF32DFF763F2E97FF09C09095809522
:10459000709561957F4F8F4F9F4F689437F82AE051
:1045A00030E0A5010E94E323C82ECA188C2C432CAE
:1045B00036FE0CC0E89440F8C91440F434FE05C03F
:1045C00032FC03C0F32DFE7E4F2E892C44FE95C095
:1045D000FE01EC0DF11D8081803309F087C0242D90
:1045E000297E422E842D8870582E43FC95C040FEB3
:1045F0008FC09C2C821418F42C0C922C981844FE1A
:1046000091C0B70180E390E00E94B32342FE09C04D
:1046100088E790E041FE02C088E590E0B7010E9483
:10462000B323C91408F48AC0CA94D12C9FEFC91AC5
:10463000D90ACA0CDB1CF60182916F01B70190E028
:104640000E94B323AC14BD04B1F74FCF60817181D8
:10465000072E000C880B990B0E5F1F4F92CFD32CA7
:10466000E894D4F82AE030E0853739F1232D297F0A
:10467000D22E8F3601F148F48835A9F0F7018681F2
:1046800097812B96E2E10C94A925803749F0883771
:10469000A9F7D4FE02C06894D2F820E130E00DC042
:1046A0006894D4F8F6CF34FE03C0822F8660D82EEB
:1046B00020E132E002C028E030E0F801D7FE0FC070
:1046C00060817181828193810C5F1F4FA5010E94DF
:1046D000E323C82ECA183D2CE89437F867CF6081D1
:1046E000718190E080E00E5F1F4FF0CF42FC02C06E
:1046F000839478CF8394839475CF842D867809F43E
:1047000071CFF6CFB70180E290E00E94B32383948B
:104710008214C0F3512C73CF522C5818821408F411
:104720006ECFF8CF842D867809F47BCF8BE241FEE3
:1047300080E247FC8DE2B70190E071CFB70180E3E2
:1047400090E00E94B3239A946CCF8FEF9FEF99CFA4
:10475000FC010590615070400110D8F7809590954C
:104760008E0F9F1F08950F931F93CF93DF93182FE2
:10477000092FEB018B8181FD09C01FEF0FEF812F06
:10478000902FDF91CF911F910F91089582FF14C058
:104790002E813F818C819D81281739073CF4E88167
:1047A000F981CF0101969983888310838E819F813F
:1047B00001969F838E83E3CFE885F985812F099544
:1047C000892BA1F3DACFFA01AA27283051F1203141
:1047D00081F1E8946F936E7F6E5F7F4F8F4F9F4F95
:1047E000AF4FB1E03ED0B4E03CD0670F781F891FD7
:1047F0009A1FA11D680F791F8A1F911DA11D6A0FA5
:10480000711D811D911DA11D20D009F468943F9157
:104810002AE0269F11243019305D3193DEF6CF0156
:104820000895462F4770405D4193B3E00FD0C9F71C
:10483000F6CF462F4F70405D4A3318F0495D31FD89
:104840004052419302D0A9F7EACFB4E0A6959795DC
:10485000879577956795BA95C9F7009761057105B2
:1048600008959B01AC010A2E0694579547953795FC
:104870002795BA95C9F7620F731F841F951FA01D56
:104880000895E89409C097FB3EF490958095709543
:1048900061957F4F8F4F9F4F9923A9F0F92F96E98C
:1048A000BB279395F695879577956795B795F11101
:1048B000F8CFFAF4BB0F11F460FF1BC06F5F7F4F9E
:1048C0008F4F9F4F16C0882311F096E911C07723B0
:1048D00021F09EE8872F762F05C0662371F096E8B9
:1048E000862F70E060E02AF09A95660F771F881F88
:1048F000DAF7880F9695879597F90895990F00082C
:10490000550FAA0BE0E8FEEF16161706E807F907A1
:10491000C0F012161306E407F50798F0621B730B3C
:10492000840B950B39F40A2661F0232B242B252BBD
:1049300021F408950A2609F4A140A6958FEF811D60
:10494000811D08950E94B5240C9426250E941825E7
:1049500038F00E941F2520F0952311F00C940F25AC
:104960000C94152511240C945A250E94372570F3B8
:10497000959FC1F3950F50E0551F629FF001729F04
:10498000BB27F00DB11D639FAA27F00DB11DAA1F13
:10499000649F6627B00DA11D661F829F2227B00D60
:1049A000A11D621F739FB00DA11D621F839FA00DEB
:1049B000611D221F749F3327A00D611D231F849F3B
:1049C000600D211D822F762F6A2F11249F57504092
:1049D0009AF0F1F088234AF0EE0FFF1FBB1F661F0D
:1049E000771F881F91505040A9F79E3F510580F0D6
:1049F0000C940F250C945A255F3FE4F3983ED4F3B2
:104A0000869577956795B795F795E7959F5FC1F779
:104A1000FE2B880F911D9695879597F9089597F924
:104A20009F6780E870E060E008959FEF80EC089554
:104A300000240A941616170618060906089500247D
:104A40000A9412161306140605060895092E0394F7
:104A5000000C11F4882352F0BB0F40F4BF2B11F46B
:104A600060FF04C06F5F7F4F8F4F9F4F089557FDCA
:104A70009058440F551F59F05F3F71F04795880FCC
:104A800097FB991F61F09F3F79F087950895121663
:104A900013061406551FF2CF4695F1DF08C016160F
:104AA00017061806991FF1CF8695710561050894C0
:104AB0000895E894BB2766277727CB0197F90895D7
:104AC000A1E21A2EAA1BBB1BFD010DC0AA1FBB1F12
:104AD000EE1FFF1FA217B307E407F50720F0A21B84
:104AE000B30BE40BF50B661F771F881F991F1A94F1
:104AF00069F760957095809590959B01AC01BD011B
:104B0000CF0108950E94C425A59F900DB49F900DDC
:104B1000A49F800D911D112408952F923F924F92D2
:104B20005F926F927F928F929F92AF92BF92CF923D
:104B3000DF92EF92FF920F931F93CF93DF93CDB746
:104B4000DEB7CA1BDB0B0FB6F894DEBF0FBECDBFBE
:104B500009942A88398848885F846E847D848C848F
:104B60009B84AA84B984C884DF80EE80FD800C8198
:104B70001B81AA81B981CE0FD11D0FB6F894DEBF7B
:104B80000FBECDBFED010895A29FB001B39FC0013C
:104B9000A39F700D811D1124911DB29F700D811D69
:104BA0001124911D0895E894F92F96EBFF2381F0CD
:104BB000121613061406440B9395F6958795779570
:104BC000679557954040FF23B9F71BC09927089573
:104BD000882351F49850D2F7872B762F652F542FC6
:104BE000432F322F20E0B1F3121613061406440BA4
:104BF00088233AF09A95440F551F661F771F881F28
:104C0000CAF755234AF4440F551F11F460FF04C03E
:104C10006F5F7F4F8F4F9F4F880F9695879597F9BE
:104C200008950E947E2408F48FEF08952A193B0905
:104C30004C095D096E097F09800B910B0895EE0FF9
:104C4000FF1F0590F491E02D09940F931F93CF93CC
:104C5000DF938230910510F482E090E0E0913F060E
:104C6000F091400630E020E0B0E0A0E0309799F409
:104C70002115310509F44AC0281B390B24303105B0
:104C8000D8F58A819B816115710589F1FB019383B8
:104C90008283FE0111C04081518102811381481736
:104CA0005907E0F04817590799F4109761F01296E8
:104CB0000C93129713961C933296CF01DF91CF91EC
:104CC0001F910F91089500933F0610934006F4CF73
:104CD0002115310551F04217530738F0A901DB01C6
:104CE0009A01BD01DF01F801C1CFEF01F9CF909327
:104CF000400680933F06CDCFFE01E20FF31F819364
:104D000091932250310939832883D7CF20913D06D2
:104D100030913E06232B41F420910A0130910B0182
:104D200030933E0620933D06209108013091090101
:104D30002115310541F42DB73EB740910C0150913A
:104D40000D01241B350BE0913D06F0913E06E21764
:104D5000F307A0F42E1B3F0B2817390778F0AC019E
:104D60004E5F5F4F2417350748F04E0F5F1F50937B
:104D70003E0640933D06819391939FCFF0E0E0E0A3
:104D80009CCFCF93DF930097E9F0FC013297138219
:104D90001282A0913F06B0914006ED0130E020E084
:104DA0001097A1F420813181820F931F20913D063D
:104DB00030913E062817390709F061C0F0933E068E
:104DC000E0933D06DF91CF910895EA01CE17DF070A
:104DD000E8F54A815B819E0141155105B1F7E90172
:104DE000FB83EA8349915991C40FD51FEC17FD0746
:104DF00061F4808191810296840F951FE901998366
:104E00008883828193819B838A83F0E0E0E012961D
:104E10008D919C9113970097B9F52D913C91119725
:104E2000CD010296820F931F20913D0630913E06E0
:104E30002817390739F6309751F51092400610922D
:104E40003F06B0933E06A0933D06BCCFD383C283FA
:104E500040815181840F951FC817D90761F44E5FB7
:104E60005F4F88819981480F591F518340838A8100
:104E70009B81938382832115310509F0B0CFF09394
:104E80004006E0933F069ECFFD01DC01C0CF1382B8
:104E90001282D7CFFB01DC0102C001900D9241507C
:104EA0005040D8F708956817790768F4FB01DC01D2
:104EB000E40FF51FA40FB51F02C002900E924150DF
:104EC0005040D8F708950C944A27DC0101C06D9337
:104ED00041505040E0F70895FB01DC010D900020A7
:104EE000E9F7119701900D920020E1F70895FB0179
:104EF000DC018D91019080190110D9F3990B08956F
:104F0000FB01DC0101900D920020E1F70895FB0107
:104F1000DC014150504048F001900D920020C9F74B
:104F200001C01D9241505040E0F7089511E0C4E8DF
:104F3000D1E004C0FE010E941F262196C538D1078A
:064F4000C9F7F894FFCF51
:104F4600FFFFFFFFFFFFFFFF000041068000000498
:104F56004D51545404FD035B070B0428042F0439F8
:104F66000442044E0400000000EB054B05780538AA
:104F760006A90587059B05000000001C09FC0835ED
:104F860009340900000000E6087E1135094F08DBE8
:104F960008550E940E3D124B1066084D101C114715
:104FA6000800000000C10B0000000071064B05352B
:104FB600097006CD06E30658062B4950442C004FCF
:104FC60076657274616B696E675065726D6973732D
:104FD600696F6E4D6573736167657352657175654B
:104FE60073745065726D697373696F6E004F766581
:104FF6007274616B696E675065726D697373696F00
:105006006E4D657373616765734578656375746521
:10501600644F76657274616B696E6700020A536548
:105026006E64696E67206D657373616765206F6670
:10503600206C656E6774683A20004F7665727461FD
:105046006B696E675065726D697373696F6E4D65D6
:1050560073736167657344656E795065726D6973C4
:1050660073696F6E004F76657274616B696E675017
:1050760065726D697373696F6E4D6573736167658C
:10508600734772616E745065726D697373696F6E82
:10509600005B576946694573705D20002C434C4F91
:1050A6005345440D0A004F76657274616B696E67ED
:1050B600436F6F7264696E6174696F6E4D65737369
:1050C600616765734163636570744F766572746179
:1050D6006B696E67003E004F76657274616B696E30
:1050E60067436F6F7264696E6174696F6E4D657345
:1050F6007361676573526571756573744F76657212
:1051060074616B696E67004F76657274616B696E68
:1051160067436F6F7264696E6174696F6E4D657314
:10512600736167657346696E69736865644F766512
:105136007274616B696E6700666173744361724372
:105146006F6F7264696E61746F724543552F636F3A
:105156006D6D756E696361746F722E462F6F76651D
:105166007274616B696E67416666696C69617465C4
:10517600312F00736C6F77436172436F6F7264698E
:105186006E61746F724543552F636F6D6D756E69F1
:105196006361746F722E532F6F76657274616B69DB
:1051A6006E67496E69746961746F72312F0066614A
:1051B6007374436172436F6F7264696E61746F7268
:1051C6004543552F636F6D6D756E696361746F72BC
:1051D6002E462F6F76657274616B696E67496E69CC
:1051E600746961746F72312F00736C6F77436172EB
:1051F600436F6F7264696E61746F724543552F63B6
:105206006F6D6D756E696361746F722E532F6F7655
:10521600657274616B696E67416666696C69617413
:1052260065312F002A2A2A2A2A2A2A2A0053656348
:1052360074696F6E20436F6E74726F6C0031393211
:105246002E3136382E302E3130300066617374437D
:105256006172436F6F7264696E61746F7245435514
:105266005F636F6E666967000D0A4F4B0D0A000D8E
:105276000A4552524F520D0A000D0A4641494C0D3D
:105286000A000D0A53454E44204F4B0D0A00204399
:0A5296004F4E4E4543540D0A000030
:00000001FF
