:020000040000FA
:100000000C948E020C94BF020C94BF020C94BF029D
:100010000C94BF020C94BF020C94BF020C94BF025C
:100020000C94BF020C9489180C9489180C948918AC
:100030000C94BF020C94BF020C94BF020C94BF023C
:100040000C94BF020C94BF020C94BF020C94BF022C
:100050000C94BF020C94BF020C94BF020C94431783
:100060000C94BF020C945F180C9435180C94BF02CA
:100070000C94BF020C94BF020C94BF020C94BF02FC
:100080000C94BF020C94BF020C94BF020C94BF02EC
:100090000C940B180C94E1170C94BF020C94BF0243
:1000A0000C94BF020C94BF020C94BF020C94BF02CC
:1000B0000C94BF020C94BF020C94BF020C94BF02BC
:1000C0000C94BF020C94BF020C94BF020C94B7179F
:1000D0000C948D170C94BF020C94BF020C94BF02B9
:1000E0000C94BF020C94B80A0C94BB120C94F40745
:1000F0000C94420D0C94F20F0C94CA090C949716B0
:100100000C948B190C9464160C9432100C94820687
:100110000C94EA110C9461190C9481240C945819D4
:100120000C9492070C94F9060C9465190C94DB0757
:100130000C9466080C94E50A0C949F0A0C947D19A3
:100140000C943A190C94EC110C9481190C945419D8
:100150000C94DC130C94D2090C941D130C947F0A9C
:100160000C94C8060C94F3070C94B70A0C9450191D
:100170000C9487190C9491190C945E0A0C94EB065C
:100180000C946B190C9479190C9435190C946F1903
:100190000C9450080C945B190C94690A0C941F146D
:1001A0000C944C190C94D7060C9445070C947319B5
:1001B0000C94E90925642E25642E25642E256400FF
:1001C00044617461207061636B65742073656E6453
:1001D000206572726F722028322900446174612098
:1001E0007061636B65742073656E64206572726FF5
:1001F00072202831290041542B43495053454E4425
:100200003D25642C2575004661696C656420746F1A
:1002100020777269746520746F20736F636B6574E7
:100220000041542B434950434C4F53453D256400F6
:10023000446973636F6E6E656374696E6720004115
:10024000542B434950535441545553002B43495068
:100250005354415455533A25642C00456E64207420
:100260006167206E6F7420666F756E64004E6F203C
:1002700074616720666F756E64003E3E3E2054498F
:100280004D454F5554203E3E3E000D0A0053444B11
:100290002076657273696F6E3A0041542B474D5258
:1002A0000041542B4357444843503D312C310041C9
:1002B000542B43574155544F434F4E4E3D30004110
:1002C000542B43495044494E464F3D310041542B35
:1002D0004349504D55583D310041542B43574D4FE4
:1002E00044453D3100415445300041542B52535454
:1002F00000496E6974696C697A6174696F6E207304
:1003000075636365737366756C202D005761726E3B
:10031000696E673A20556E737570706F727465649C
:10032000206669726D776172650043616E6E6F74ED
:1003300020696E697469616C697A65204553502043
:100340006D6F64756C6500415400496E6974696134
:100350006C697A696E6720455350206D6F64756CC7
:100360006500436F6E6E656374656420746F00464C
:1003700061696C656420636F6E6E656374696E6736
:1003800020746F0041542B43574A41505F435552EC
:100390003D222573222C222573220000000A0B0225
:1003A000090C0D0E08070304010000000000000006
:1003B000000000000000000000000000000000003D
:1003C00000000000000000121110000000000000FA
:1003D000000000000000000000000000000000001D
:1003E000004E6F20736F636B657420617661696C7A
:1003F00061626C650041542B43495053544152543F
:100400003D25642C22544350222C222573222C2576
:100410007500436F6E6E656374696E6720746F005C
:1004200054494D454F55543A0054616720434C4F51
:10043000534544206E6F7420666F756E6400000033
:1004400020002300260029002C002F00320000018C
:10045000000003010601090100002100240027001B
:100460002A002D00300033000101000004010701C3
:100470000A0100002200250028002B002E00310078
:10048000340002010000050108010B010505050506
:10049000070508080808020202020A0A08080404FC
:1004A000040401010101010101010303030303032A
:1004B0000303040707070C0C0C0C0C0C0C0C0202B9
:1004C000020206060606060606060B0B0B0B0B0BB6
:1004D0000B0B010210202008081020401020408043
:1004E00002010201080402010102040810204080F8
:1004F0008040201008040201800402018040201086
:1005000008040201080402010102040810204080CE
:1005100001020408102040809119812411241FBE7B
:10052000CFEFD1E2DEBFCDBF00E00CBF28E0A6E7F1
:10053000B5E001C01D92AF3BB207E1F715E0A0E0C6
:10054000B2E0E4EDF5E500E00BBF02C007900D92CC
:10055000A637B107D9F712E0CDE8D2E000E006C037
:1005600021970109802FFE010E945629CC38D1071E
:1005700080E00807A9F70E94E11B0C94D82A0C948C
:100580000000CF93DF93EC01FA013296E60FF71FDC
:10059000DC019D012C1B3D0BCF01861B970B4D9160
:1005A000442311F04193F5CFAC01421B530B640F70
:1005B000751FFB013297308361507109FB01208365
:1005C000DF91CF91089580916F0890917008009706
:1005D00011F480E02FC0DC01ED91FC910688F789D1
:1005E000E02D1995209192083091930881111FC038
:1005F000232B79F78DEF9FEF9093930880939208C8
:1006000080916F0890917008DC01ED91FC9106805B
:10061000F781E02D199580916F0890917008DC01A9
:10062000ED91FC910488F589E02D1995D2CF81E0F8
:10063000232B79F6089580914B0690914C06DC01AE
:10064000ED91FC910084F185E02D1995181619069D
:1006500064F480914B0690914C06DC01ED91FC9185
:100660000284F385E02D1995E6CF0895FC01A08959
:10067000B18982E08C93A485B5851C92A685B78547
:1006800080E18C93108EA489B58986E08C93A28931
:10069000B3898C9180618C93A289B3898C91886095
:1006A0008C93A289B3898C9180688C930288F3899A
:1006B000E02D80818F7D808308953FB7F8948091ED
:1006C000420690914306A0914406B091450626B596
:1006D000A89B05C02F3F19F00196A11DB11D3FBF7A
:1006E000BA2FA92F982F8827BC01CD01620F711D49
:1006F000811D911D42E0660F771F881F991F4A9543
:10070000D1F708958F929F92AF92BF92CF92DF92CE
:10071000EF92FF924B015C010E945D036B017C0133
:100720000E945D036C197D098E099F09683E734024
:1007300081059105A8F321E0821A9108A108B1086A
:1007400088EEC80E83E0D81EE11CF11C81149104D0
:10075000A104B10429F7FF90EF90DF90CF90BF90F4
:10076000AF909F908F9008952FB7F89460913E06B8
:1007700070913F0680914006909141062FBF0895E9
:10078000EF92FF920F931F93CF93DF9300D01F92AE
:10079000CDB7DEB7FA0120E08E010F5F1F4F9E2F0D
:1007A0009F77EE0FEF2FEE1FFF0BF195309709F0BB
:1007B0009068D801A20FB11D9C932F5F309779F7F5
:1007C00030E0FB01E21BF30B8483FB01E21BF30B24
:1007D0003596D801CD01801B910B821793071CF42D
:1007E0008D918193F7CF2F5F3F4F80916F0890914C
:1007F00070088901040F151F621B730B6B5F7F4F1D
:10080000DC01ED91FC910280F381E02DA8011995A6
:100810007C010E94B40360937B0870937C088093F2
:100820007D0890937E0881E00E151F0509F080E099
:100830000F900F900F900F90DF91CF911F910F911C
:10084000FF90EF9008958F929F92AF92BF92CF92B8
:10085000DF92EF92FF92CF93DF93EC010E94B403FB
:100860004B015C0180916F0890917008DC01ED9163
:10087000FC910084F185E02D1995892BB9F40E9433
:10088000B4036B017C01C818D908EA08FB08209161
:10089000770830917808A8EEB3E00E940429C616C4
:1008A000D706E806F906F0F280E00DC080916F08E7
:1008B00090917008DC01ED91FC910284F385E02DAC
:1008C0001995888381E0DF91CF91FF90EF90DF90C1
:1008D000CF90BF90AF909F908F9008952F923F92AE
:1008E0004F925F926F927F928F929F92AF92BF9240
:1008F000CF92DF92EF92FF920F931F93CF93DF93EC
:1009000000D000D000D01F92CDB7DEB71C0180917F
:100910007108909172080E94230481111CC060E04C
:1009200070E0CB012A960FB6F894DEBF0FBECDBFA4
:10093000DF91CF911F910F91FF90EF90DF90CF90BB
:10094000BF90AF909F908F907F906F905F904F90EF
:100950003F902F900895E0917108F0917208D08037
:100960001982EE24E394F12C812C912C5401412C1A
:10097000512C32014394CE0101960E942304882316
:1009800071F287010F5F1F4F8981E0917108F0912B
:100990007208EE0DFF1D8083E981AE2FAF77B0E0C6
:1009A000A30192010E94F928860E971EA81EB91E67
:1009B00037E0440C551C661C771C3A95D1F7E7FDCF
:1009C0003FC0BD2DB07FBE838FEF800FF1018083CC
:1009D000B03309F04CC08091710890917208800F7B
:1009E000911F0E942304882309F499CF2091710854
:1009F00030917208C7010296820F931F0E94230450
:100A0000882309F48CCF0E5F1F4FE0917108F0919D
:100A10007208D1018C91DF01A80FB11D11968C9144
:100A2000119790E0982F882712962C91820F911D94
:100A3000208121FD0296F2E0E0E030E020E01DC0E0
:100A400078010530110509F096CF8FEF9FEF909355
:100A500093088093920880916F0890917008DC0150
:100A6000ED91FC910488F589E02D199558CFF0E0BF
:100A7000E0E030E020E090E080E070E060E0CF2E49
:100A8000DE2EE32EF22E28013B014C185D086E0885
:100A90007F084A825B826C827D822C01712C612CE2
:100AA0004F82588669867A864A805B806C807D801A
:100AB0004C0C5D1C6E1C7F1CC814D904EA04FB049A
:100AC00008F046C0CE0101960E942304882309F451
:100AD00026CF8091900890919108009711F12E8176
:100AE0002033F9F4D1012C914EEF5FEF6FEF7FEFE0
:100AF000421B510961097109440E551E661E771E7D
:100B00002F81388549855A852415350546055705B1
:100B100040F4DC01ED91FC910190F081E02D6981C0
:100B2000199580917308909174080817190750F46B
:100B30008981E0917108F0917208E00FF11F8083C4
:100B40000F5F1F4FBFEFCB1ADB0AEB0AFB0AACCFDC
:100B50008091900890919108892B69F48091730895
:100B600090917408B0E0A0E084159505A605B7053E
:100B700010F410E000E0B80190E080E0D3CE0F93D5
:100B80001F93CF93DF93EC010E94B40368877987AA
:100B90008A879B87E881F9810484F585E02DCE0161
:100BA000199597FF15C00E94B403088519852A85F9
:100BB0003B85601B710B820B930B0C811D812E8179
:100BC0003F81601771078207930720F38FEF9FEF34
:100BD000DF91CF911F910F910895BF92CF92DF9235
:100BE000EF92FF920F931F93CF93DF938C01C80175
:100BF0000E94BF05EC0197FD5DC0D801ED91FC910D
:100C00000284F385E02D8D32910521F0C0970A977B
:100C100008F04AC0C12CD12C7601B12CC130D105CD
:100C2000D9F0CD32D10509F442C0CE01C0970A9760
:100C300098F4AAE0B0E0A70196010E94F9286E019D
:100C4000DD0FEE08FF08C60ED71EE81EF91EB0E342
:100C5000CB1AD108E108F108D801ED91FC9102848A
:100C6000F385E02DC8011995C8010E94BF05EC016C
:100C7000C0970A9798F2C130D10581F2BB2041F0AC
:100C8000F094E094D094C094C11CD11CE11CF11CE0
:100C9000C701B601DF91CF911F910F91FF90EF90A7
:100CA000DF90CF90BF900895C8011995A0CFBB24C5
:100CB000B394D2CFC12CD12C7601EACFEF92FF9220
:100CC0000F931F93CF93DF938C017B01D0E0C0E0A3
:100CD000F701EC0FFD1F6491662361F0D801ED91DF
:100CE000FC910190F081E02DC8011995892B11F03C
:100CF0002196EECFCE01DF91CF911F910F91FF9002
:100D0000EF900895AF92BF92CF92DF92EF92FF9251
:100D10000F931F93CF93DF936C017B018B01040F23
:100D2000151FEB015E01AE18BF08C017D10759F0BF
:100D30006991D601ED91FC910190F081E02DC60101
:100D40001995892B79F7C501DF91CF911F910F91EB
:100D5000FF90EF90DF90CF90BF90AF900895FC018F
:100D6000A089B1898C91A689B78982FD0FC09C9119
:100D7000818D8F5F8F73228D821749F0A18DAE0F09
:100D8000BF2FB11D5D969C93818F08958C9108951E
:100D9000FC01538D448D252F30E0842F90E0821B81
:100DA000930B541710F0CF96089501970895FC0106
:100DB000918D828D981761F0A28DAE0FBF2FB11D5E
:100DC0005D968C91928D9F5F9F73928F90E00895B6
:100DD0008FEF9FEF0895FC01918D828D981731F070
:100DE000828DE80FF11D858D90E008958FEF9FEFC4
:100DF0000895FC01918D228D892F90E0805C9F4F9A
:100E0000821B91098F73992708958FE496E00E94C1
:100E1000F90621E0892B09F420E0822F08958CEE59
:100E200096E00E94F90621E0892B09F420E0822F48
:100E3000089589E897E00E94F90621E0892B09F4DA
:100E400020E0822F0895FC01A48DA80FB92FB11DB9
:100E5000A35ABF4F2C91848D90E001968F739927F0
:100E6000848FA689B7892C93A089B1898C918370CE
:100E700080648C93938D848D981306C00288F389C7
:100E8000E02D80818F7D80830895EF92FF920F93F4
:100E90001F93CF93DF93EC0181E0888F9B8D8C8D26
:100EA00098131AC0E889F989808185FF15C09FB71A
:100EB000F894EE89FF896083E889F98980818370DD
:100EC000806480839FBF81E090E0DF91CF911F918C
:100ED0000F91FF90EF900895F62E0B8D10E00F5FAD
:100EE0001F4F0F731127E02E8C8D8E110CC00FB683
:100EF00007FCFACFE889F989808185FFF5CFCE011B
:100F00000E942307F1CFEB8DEC0FFD2FF11DE35A6B
:100F1000FF4FF0829FB7F8940B8FEA89FB8980819D
:100F20008062CFCFCF93DF93EC01888D8823B9F017
:100F3000AA89BB89E889F9898C9185FD03C08081E4
:100F400086FD0DC00FB607FCF7CF8C9185FFF2CF61
:100F5000808185FFEDCFCE010E942307E9CFDF918D
:100F6000CF91089580E090E0892B29F00E94190725
:100F700081110E94000080E090E0892B29F00E94FE
:100F80000F0781110E94000080E090E0892B29F07A
:100F90000E94050781110E94000080E090E0892BEB
:100FA00049F080E090E0892B29F00E940000811137
:100FB0000C94000008952091690830916A08281760
:100FC000390771F49091310680913206981741F0FB
:100FD000E0913106F0E0E858FA4F808190E0089502
:100FE0008FEF9FEF08950895EF92FF920F931F9355
:100FF000CF93DF93DC015C96ED90FC905D97E1145C
:10100000F10479F481E090E013969C938E9312970B
:1010100090E080E0DF91CF911F910F91FF90EF90D2
:1010200008955196ED91FC91529750968C9150975E
:10103000982F90950FB75E962C915E97122F127095
:1010400021FD6095F8942081112319F1282B20832C
:10105000E7012197F1F728E0462F50E0308160FF4B
:101060001AC0382B3083E7012197F1F7BA01759543
:101070006795215089F7112381F08081892380832E
:101080000FBF5C968D919C910197F1F781E090E004
:10109000C1CF2923DCCF3923E5CF9081892BEFCF36
:1010A0002091690830916A082817390761F4809106
:1010B00032062091310690E0805C9F4F821B91099F
:1010C0008F739927089590E080E008952091690832
:1010D00030916A0828173907B9F490913106809148
:1010E0003206981789F0E0913106F0E0E858FA4F9F
:1010F00080812091310630E02F5F3F4F2F733327DF
:101100002093310690E008958FEF9FEF08958F921E
:101110009F92AF92BF92CF92DF92EF92FF920F9386
:101120001F93CF93DF9340914706509148066091FB
:10113000490670914A06141615061606170644F459
:1011400090914606981709F417C1992309F414C120
:10115000F82E80914B0690914C06DC01ED91FC91AC
:101160000084F185E02D1995892B19F450E040E0B9
:1011700003C100914B0610914C06D0E0C0E00E94E4
:10118000B403F8016087718782879387D801ED9156
:10119000FC910284F385E02DC801199597FF47C0A3
:1011A0000E94B403F80180849184A284B3846819F6
:1011B00079098A099B0984809580A680B780681583
:1011C00079058A059B0510F3D1CFC1E0D0E0D7CFD8
:1011D0004F014BE752E0209791F2BE012197D401D5
:1011E0002E914D01022E000C330B8217930729F02C
:1011F000209729F24F5F5F4FF0CF209731F36A01BC
:10120000BFEFCB1ADB0AABE7B2E030E020E0BD90E5
:10121000F601E1906F01BE1005C02F5F3F4F2C1704
:101220003D07A8F3C217D30729F7EB01A8CFFE01AA
:10123000E558FD4F2081022E000C330B82179307D7
:1012400039F62196C530D10509F099CF80914B062A
:1012500090914C060E94ED056093460680914B06E6
:1012600090914C06DC01ED91FC910284F385E02D18
:10127000199580914B0690914C060E94ED05609364
:101280004706709348068093490690934A068091DA
:101290004B0690914C06DC01ED91FC910284F385A4
:1012A000E02D199580914B0690914C060E94ED051A
:1012B00080914B0690914C06DC01ED91FC910284EB
:1012C000F385E02D199580914B0690914C060E9474
:1012D000ED0580914B0690914C06DC01ED91FC915F
:1012E0000284F385E02D199580914B0690914C0670
:1012F0000E94ED0580914B0690914C06DC01ED912A
:10130000FC910284F385E02D199580914B06909114
:101310004C060E94ED0580914B0690914C06DC0135
:10132000ED91FC910284F385E02D199580914B0697
:1013300090914C06DC01ED91FC910284F385E02D47
:10134000199580914B0690914C060E94ED05809175
:101350004B0690914C06DC01ED91FC910284F385E3
:10136000E02D199580914606F81611F0F110FECE89
:101370004091470650914806CA01DF91CF911F91D5
:101380000F91FF90EF90DF90CF90BF90AF909F9024
:101390008F90089521E0FC0184858F3F09F420E0BF
:1013A000822F0895CF93DF93EC01E881F9810084C7
:1013B000F185E02DCE011995892B41F0E881F98165
:1013C0000284F385E02DCE011995EFCFDF91CF9107
:1013D00008958F929F92AF92BF92EF92FF920F93D8
:1013E0001F93CF93DF93EC017B018A01E881F981A0
:1013F0000084F185E02D1995892B69F48FEF9FEF1B
:10140000DF91CF911F910F91FF90EF90BF90AF9020
:101410009F908F9008959C8580914606981336C0C2
:101420008091470690914806A0914906B0914A06DE
:10143000A80170E060E084179507A607B7070CF4D1
:101440008C01E701E00EF11EEC16FD06E9F00E94AA
:10145000B4034B015C0180914B0690914C06DC017A
:10146000ED91FC910284F385E02D199597FF11C051
:101470000E94B403681979098A099B09683E734080
:101480008105910540F3BACFC801BACF80E090E062
:10149000B7CF89938091470690914806A09149065D
:1014A000B0914A060197A109B1098093470690932C
:1014B0004806A0934906B0934A06C6CFFC0184852E
:1014C0008F3F21F00E94870897FF02C090E080E0E4
:1014D0000895CF93DF931F92CDB7DEB76983DC0108
:1014E000ED91FC910280F381E02D41E050E0BE01DE
:1014F0006F5F7F4F19950F90DF91CF910895EF9215
:10150000FF920F931F93CF93DF93EC018B017A012E
:101510000E94B403688B798B8A8B9B8B8C819D8115
:10152000DC01ED91FC910280F381E02DA701B8016F
:10153000DF91CF911F910F91FF90EF9019941F931E
:10154000CF93DF93EC01162F0E94B403688B798B45
:101550008A8B9B8B8C819D81DC01ED91FC910190AC
:10156000F081E02D612FDF91CF911F9119940895A3
:1015700090E080E008950F931F93CF93DF938C0149
:101580008FE090E00E946729EC01892BC1F082E096
:1015900090E0998788871D830C831E86000F111F9A
:1015A000C8010E94672999838883080F191F1B832C
:1015B0000A839B878A879D878C871F821E82CE0124
:1015C000DF91CF911F910F910895AF92BF92CF926B
:1015D000DF92EF92FF920F931F93CF93DF937C01E3
:1015E0008B0181E090E0FB01918380838BE090E0B0
:1015F0000E946729EC0182E08A836E01F3E0CF0E3E
:10160000D11C85E090E00E94BB0A9E838D8381E817
:1016100092E09C838B83E0917605F091770596E7C5
:10162000A92E95E0B92E309741F05F0182E0A80E17
:10163000B11C0280F381E02DF6CF84E090E00E949F
:101640006729FC01D182C08213821282F501918345
:1016500080836E01F7E0CF0ED11C85E090E00E9400
:10166000BB0A9A8789878FEA92E098878F83E091F7
:101670007605F091770586E7A82E85E0B82E30979D
:1016800041F05F0182E0A80EB11C0280F381E02DE1
:10169000F6CF84E090E00E946729FC01D182C082ED
:1016A00013821282F50191838083F70186818883FA
:1016B00080858983F801D583C483C801DF91CF91E8
:1016C0001F910F91FF90EF90DF90CF90BF90AF9060
:1016D00008953F924F925F926F927F928F929F9266
:1016E000AF92BF92CF92DF92EF92FF920F931F9330
:1016F000CF93DF9300D000D01F921F92CDB7DEB7FB
:101700007C0182E0382E9EEF492E55245A9427E61C
:10171000622E22E0722E3CEF832E99249A940E942E
:10172000E302811108C10E94E3028111F8CF809188
:101730006F0890917008DC01ED91FC910688F789A3
:10174000E02D1995882309F44AC0E1E0F0E0F09318
:101750007A08E093790887E0E0E1F2E0DE01119693
:1017600001900D928A95E1F7DE01119685E090E0F7
:101770002D91E0917108F0917208E80FF91F208314
:1017800001968C309105A1F70091710810917208B3
:10179000F801348680917608858780917508868760
:1017A000C0907308D0907408B601C7010E94A924A4
:1017B0004196C816D90608F045C080916F089091EF
:1017C0007008DC01ED91FC910488F589E02D1995F4
:1017D00068EE73E080E090E00E948203A0CF609109
:1017E0008C0870918D0880916F0890917008DC01D1
:1017F000ED91FC9140918E0850918F086115710513
:1018000061F00088F189E02D1995019709F49DCFC9
:101810005092930840929208DBCF0684F785E02D22
:101820007A826982009188081091890820918A083B
:1018300030918B080B831C832D833E83BE016F5F29
:101840007F4FE2CF4FE050E0B801C7010E94C102D4
:10185000AC0145505109609171087091720880E1A6
:101860000E94C0030E94B40360937B0870937C08BD
:1018700080937D0890937E0860937F087093800822
:10188000809381089093820880916F0890917008EE
:10189000DC01ED91FC910084F185E02D1995892BF7
:1018A00011F50E94B40300917F08109180082091E7
:1018B0008108309182085B016C01A01AB10AC20A4A
:1018C000D30A2091770830917808A8EEB3E00E94FF
:1018D0000429A616B706C806D906B0F29092930856
:1018E000809292086ACFCE0108960E946E046430FE
:1018F00071058105910509F060CFE0917108F091C3
:1019000072088381811111C00E94B40360937F0823
:1019100070938008809381089093820810928308C6
:101920001092930810929208FACE90E09093930848
:101930008093920842CF28960FB6F894DEBF0FBE70
:10194000CDBFDF91CF911F910F91FF90EF90DF906E
:10195000CF90BF90AF909F908F907F906F905F904F
:101960004F903F900895FC0101900020E9F73197D6
:101970009F01281B390BE091B908F091BA08E21BCE
:10198000F30B4091B5085091B608E417F50730F411
:101990006091B3087091B408E60FF71F280F391F44
:1019A0006091B7087091B808DC018217930758F46A
:1019B0000196BC91A081BA1308C03196E617F707CB
:1019C00099F7FA01F1CF81E0089580E00895FB01D5
:1019D00001900020E9F73197AF01461B570BDC015E
:1019E000ED91FC910280F381E02D19948F929F92EA
:1019F000AF92BF92EF92FF920F931F93CF93DF931B
:101A0000CDB7DEB7A1970FB6F894DEBF0FBECDBF3E
:101A10007C01FA01CB0119A2223008F42AE08E01E0
:101A20000F5D1F4F822E912CB12CA12CBF01A5015F
:101A300094010E94D728F901CA016A300CF5605D53
:101A4000D8016E938D01232B242B252B79F790E061
:101A500080E0109721F0BD01C7010E94E70CA1961C
:101A60000FB6F894DEBF0FBECDBFDF91CF911F91AF
:101A70000F91FF90EF90BF90AF909F908F9008953F
:101A8000695CDECF8F929F92AF92BF92CF92DF922E
:101A9000EF92FF920F931F93CF93DF937C01EB01A3
:101AA0006C0182E0C80ED11C4701E5E08E0E911C4E
:101AB00010E000E0F60141916F0150E070E060E05D
:101AC0002AE0CE010E94F60C5C01E881F9810190C8
:101AD000F081E02D6EE2CE0119958A0D9B1D080F55
:101AE000191FC814D90431F7F701458150E070E09F
:101AF00060E02AE0CE010E94F60C800F911FDF917A
:101B0000CF911F910F91FF90EF90DF90CF90BF90FA
:101B1000AF909F908F9008950F931F93CF93DF9373
:101B20008C01D0E0C0E06115710519F00E94E70C4E
:101B3000EC0165E673E0C8010E94E70C8C0F9D1F65
:101B4000DF91CF911F910F9108950F931F93CF9322
:101B5000DF93EC010E945E068C0165E673E0CE0126
:101B60000E94E70C800F911FDF91CF911F910F9181
:101B700008950C94E70CEF92FF920F931F93CF936D
:101B8000DF938C017B01EC0109900020E9F721979C
:101B9000C81BD90BC233D10510F0C2E3D0E06EED03
:101BA00072E089E897E00E94B90DAE014D5F5F4F8A
:101BB00070E060E02AE089E897E00E94F60C63E0BC
:101BC00089E897E00E9445078091080290910902F8
:101BD0006C2F6D5FDC01ED91FC910190F081E02DA7
:101BE00019958091080290910902DC01ED91FC9118
:101BF0000280F381E02DAE01B801199580910802B1
:101C000090910902DC01ED91FC910190F081E02DB1
:101C100060E019958091080290910902DC01ED9134
:101C2000FC910280F381E02D42E050E0B701DF91AA
:101C3000CF911F910F91FF90EF901994DC011296B4
:101C4000ED91FC9180819181019721F48CEF92E0DC
:101C50000C94BB0D0895DC011296ED91FC918081EE
:101C60009181019721F487E293E00C94BB0D0895D4
:101C70003F924F925F926F927F928F929F92AF921C
:101C8000BF92CF92DF92EF92FF920F931F93CF9369
:101C9000DF936C012B01342E8091B5089091B6082A
:101CA0009093BA088093B9080E94B4034B015C0179
:101CB00066246A94762C0D2C000CEE08FF080E9416
:101CC000B403681979098A099B096C157D058E058D
:101CD0009F0508F05BC08FEF6816780609F056C0C4
:101CE00080914B0690914C06DC01ED91FC910084B3
:101CF000F185E02D1995892B11F380914B06909178
:101D00004C06DC01ED91FC910284F385E02D1995E0
:101D1000E091B908F091BA0880838091B908909158
:101D2000BA0801969093BA088093B9082091B70831
:101D30003091B8088217930740F08091B5089091D0
:101D4000B6089093BA088093B9084114510441F041
:101D5000C2010E94B30C882319F085E0682E712C13
:101D6000332009F4ACCF0DE112E0D0E0C0E0F8017F
:101D7000819191918F010E94B30C811105C0219630
:101D8000C530D105A1F79BCF3E0199CF0E94B40386
:101D9000681979098A099B096C157D058E059F05CF
:101DA00060F063E573E089E897E00E94B90D6AE7A7
:101DB00072E089E897E00E94A50DC301DF91CF9101
:101DC0001F910F91FF90EF90DF90CF90BF90AF9059
:101DD0009F908F907F906F905F904F903F9008956D
:101DE000CF93DF93EC010E941B03BE0180914B0651
:101DF00090914C060E94A50D41E070E060E088EEF5
:101E000093E0DF91CF910C94380E8F929F92AF9216
:101E1000BF92CF92DF92EF92FF92CF93DF93D82EB3
:101E2000EB01C42E79010E94B4034B015C01809147
:101E30004B0690914C06DC01ED91FC910084F185FC
:101E4000E02D1995892B09F47EC080914B06909165
:101E50004C06DC01ED91FC91CC20E9F00484F58581
:101E6000E02D199588838091470690914806A091AE
:101E70004906B0914A06892B8A2B8B2B29F181E0E8
:101E8000DF91CF91FF90EF90DF90CF90BF90AF9018
:101E90009F908F9008950284F385E02D1995888393
:101EA0008091470690914806A0914906B0914A0654
:101EB0000197A109B1098093470690934806A09322
:101EC0004906B0934A06CFCF65E070E080E090E02D
:101ED0000E94820380914B0690914C06DC01ED91AB
:101EE000FC910084F185E02D1995892B41F28091B8
:101EF0004B0690914C06DC01ED91FC910484F58534
:101F0000E02D19952D2D30E0205D3F4F821793076E
:101F100009F0B5CF40E06EE573E084EF91E00E94F8
:101F2000380E059761F063E573E089E897E00E9459
:101F3000B90D69E274E089E897E00E94A50D81E09F
:101F4000F70180839DCF0E94B403681979098A093B
:101F50009B09603D77408105910508F468CF63E5F2
:101F600073E089E897E00E94B90D60E274E089E8C7
:101F700097E00E945E066AEF72E089E897E00E94AF
:101F8000B90DC0904706D0904806E0904906F09001
:101F90004A062AE0B701A601F7FE0DC06DE289E806
:101FA00097E00E94450744275527BA014C195D095F
:101FB0006E097F092AE089E897E00E94F60C65E641
:101FC00073E089E897E00E94E70C109247061092B0
:101FD00048061092490610924A0610924606188248
:101FE00080E04ECF0F931F93CF93DF931F921F92EA
:101FF000CDB7DEB78C01DC01ED91FC910084F18559
:10200000E02D1995892B59F11A82F8018485909158
:102010004606891309C09E012E5F3F4F41E0BE0175
:102020006F5F7F4F0E94050F8A81882379F0D80166
:102030001C96EC911C97F0E0EE0FFF1FE050FE4F56
:102040008FEF9FEF918380831C968C93898190E022
:102050000F900F90DF91CF911F910F9108958FEF07
:102060009FEFF6CF0F931F93CF93DF931F921F9293
:10207000CDB7DEB78C01DC01ED91FC910084F185D8
:10208000E02D1995892B59F11A82F80184859091D8
:102090004606891309C09E012E5F3F4F40E0BE01F6
:1020A0006F5F7F4F0E94050F8A81882379F0D801E6
:1020B0001C96EC911C97F0E0EE0FFF1FE050FE4FD6
:1020C0008FEF9FEF918380831C968C93898190E0A2
:1020D0000F900F90DF91CF911F910F9108958FEF87
:1020E0009FEFF6CFCF92DF92EF92FF920F931F9365
:1020F000CF93DF93DC011296ED91FC918081918169
:10210000892B29F5C481D5817E01CC80DD8010E04A
:1021100000E00C151D0541F168E673E0F7018085CC
:1021200091850E94B92AF6E0EF0EF11C892BC9F4C3
:1021300026E0209FC001219F900D1124C80FD91FB8
:10214000EA85FB8581E026813781232B09F480E035
:10215000DF91CF911F910F91FF90EF90DF90CF9083
:1021600008950F5F1F4FD5CFF0E0E0E0EBCFCF92A7
:10217000DF92EF92FF920F931F93CF93DF93DC01D7
:102180001296ED91FC9180819181019729F504814E
:102190001581F801C280D12C7801D0E0C0E0CC15C7
:1021A000DD0534F56FEA72E0D70113968D919C91AD
:1021B0000E94B92AB4E0EB0EF11C892BB9F4CC0FC4
:1021C000DD1FCC0FDD1FC00FD11FED81FE8181E02F
:1021D00026813781232B09F480E0DF91CF911F9175
:1021E0000F91FF90EF90DF90CF9008952196D7CF79
:1021F000F0E0E0E0ECCFCF92DF92EF92FF920F930E
:102200001F93CF93DF93DC011296ED91FC918081B7
:102210009181019729F504811581F801C280D12CA3
:102220007801D0E0C0E0CC15DD0534F561E872E05E
:10223000D70113968D919C910E94B92AB4E0EB0EC0
:10224000F11C892BB9F4CC0FDD1FCC0FDD1FC00FA3
:10225000D11FED81FE8181E026813781232B09F496
:1022600080E0DF91CF911F910F91FF90EF90DF9071
:10227000CF9008952196D7CFF0E0E0E0ECCFCF9358
:10228000DF93CDB7DEB7C85CD1090FB6F894DEBFD7
:102290000FBECDBF9E012E523F4FC253DF4F48812C
:1022A0005981CE5CD04068EC70E0CE0101960E946E
:1022B000E4240E941B03BE016F5F7F4F80914B0699
:1022C00090914C060E948C0D41E070E060E0C0539C
:1022D000DF4F88819981C05DD0400E94380EC8537D
:1022E000DF4F0FB6F894DEBF0FBECDBFDF91CF91A9
:1022F0000895EF92FF920F931F93CF93DF93EC011A
:10230000162F072FF42EE52E63E573E089E897E09A
:102310000E94B90D62E174E089E897E00E945E06D0
:102320006AEF72E089E897E00E94B90D612F702F83
:1023300089E897E00E948C0DE0E0F2E083E090E015
:10234000268137812F3F3F4F31F0019732978F3FE2
:102350009807B1F78FEF8C878F3F69F1EF92FF926B
:102360000F931F931F928F9383E18F9388E88F932E
:1023700085EF93E09F938F930E943F112DB73EB757
:10238000265F3F4F0FB6F8943EBF0FBE2DBF892B7F
:10239000F1F48C8590E0FC01EE0FFF1FE050FE4F42
:1023A0009183808381E090E0DF91CF911F910F9125
:1023B000FF90EF90089563E573E089E897E00E944D
:1023C000B90D61EE73E089E897E00E94A50D90E0F9
:1023D00080E0EACF0C947911CF93DF93FC01248540
:1023E0002F3F09F440C0EC0163E573E089E897E012
:1023F0000E94B90D60E372E089E897E00E945E06F2
:102400006AEF72E089E897E00E94B90D4C8550E0D0
:1024100070E060E02AE089E897E00E94F60C65E64B
:1024200073E089E897E00E94E70C8C851F928F93F8
:102430008FE08F9380EA8F9381E292E09F938F9356
:102440000E943F11EC85F0E0EE0FFF1FE050FE4FC1
:102450008FEF9FEF918380838C870F900F900F9069
:102460000F900F900F90DF91CF910895AF92BF9290
:10247000CF92DF92EF92FF920F931F93CF93DF9350
:102480005C016B017A01E90118820E941B03B5010E
:1024900080914B0690914C060E94A50D41E0B6013B
:1024A00088EE93E00E94380E8530910509F058C0FF
:1024B0008091B5089091B6089093BA088093B908B6
:1024C0004091B3085091B4084F5F5F4F70E060E0F7
:1024D0000E94A72A41E0B70184EF91E00E94380EE4
:1024E000059781F5A80141505109F701019000209D
:1024F000E9F73197EE19FF096091B5087091B608B8
:102500008091B9089091BA08861B970B8E1B9F0B80
:102510004817590708F0AC01CE010E94C92A41E0D2
:1025200070E060E080ED97E00E94380E81E0DF917E
:10253000CF911F910F91FF90EF90DF90CF90BF90C0
:10254000AF90089563E573E089E897E00E94B90DC4
:102550006BE572E089E897E00E94A50D80E0E7CF87
:102560000597E0F363E573E089E897E00E94B90D11
:102570006DE672E0EFCFCF92DF92EF92FF920F9372
:102580001F93CF93DF93CDB7DEB76E970FB6F89456
:10259000DEBF0FBECDBFFC0184858F3FD1F17F012F
:1025A0000E948708892B21F5D7011C968C911F92D8
:1025B0008F938CE492E09F938F93FE0131966F018D
:1025C000FF93EF930E94B4240AE010E09E012B5E7B
:1025D0003F4F4FE752E0B6018FE392E00E94361280
:1025E0000F900F900F900F900F900F90882311F085
:1025F00094E010C0D7011C96EC911C97F0E0EE0F10
:10260000FF1FE050FE4F8FEF9FEF918380831C965A
:102610008C9390E081E0943009F080E06E960FB6E4
:10262000F894DEBF0FBECDBFDF91CF911F910F9108
:10263000FF90EF90DF90CF900895AF92BF92CF922E
:10264000DF92EF92FF920F931F93CF93DF93CDB75B
:10265000DEB764970FB6F894DEBF0FBECDBF7C0126
:102660005B018A01DC011C968C91843018F44115C1
:102670005105C9F481E090E0F7019383828310E073
:1026800000E0C80164960FB6F894DEBF0FBECDBF60
:10269000DF91CF911F910F91FF90EF90DF90CF903E
:1026A000BF90AF9008951F934F931F928F9386EF23
:1026B00091E09F938F939E012F5F3F4F69013F935E
:1026C0002F930E94B424B60180914B0690914C0642
:1026D0000E948C0D40E067E973E088EE93E00E9471
:1026E000380E0FB6F894DEBF0FBECDBF059709F4C4
:1026F00043C063E573E089E897E00E94B90D6BED94
:1027000071E089E897E00E94A50D81E090E0F70173
:102710009383828363E573E089E897E00E94B90DB3
:1027200067E072E089E897E00E945E066AEF72E077
:1027300089E897E00E94B90DD7011C964C9150E0B2
:1027400070E060E02AE089E897E00E94F60C65E618
:1027500073E089E897E00E94E70C60EA7FE080E0A0
:1027600090E00E948203D701ED91FC910488F589E5
:10277000E02DC701199583CF80914B0690914C06AF
:10278000DC01ED91FC910280F381E02DA801B501FF
:10279000199541E070E060E080ED97E00E94380E0E
:1027A000039709F46ECF63E573E089E897E00E9430
:1027B000B90D60EC71E0A5CFCF92DF92EF92FF925E
:1027C0000F931F93CF93DF93CDB7DEB760970FB60C
:1027D000F894DEBF0FBECDBF7C01FB016A0185818D
:1027E0001F928F9384811F928F9383811F928F9367
:1027F00082811F928F9384EB91E09F938F938E0140
:102800000F5F1F4F1F930F930E94B424A601B801BE
:10281000C7010E9479110FB6F894DEBF0FBECDBF7D
:1028200060960FB6F894DEBF0FBECDBFDF91CF919B
:102830001F910F91FF90EF90DF90CF900895CF926E
:10284000DF92EF92FF920F931F93CF93DF936C0170
:102850008B01C0914D06D0914E06209779F0E8800B
:10286000F980F70160817181C6010E94B92A892B24
:1028700071F4F701C481D581209769F4DF91CF917C
:102880001F910F91FF90EF90DF90CF9008950A80F5
:10289000DB81C02DE2CF2E813F818C819D81281765
:1028A0003907F8F448855985B8018C859D850E94C3
:1028B0008C2A8C859D8528853985820F931F9D875D
:1028C0008C872E813F812F5F3F4F3F832E832A814C
:1028D0003B818217930791F6888199819D878C8728
:1028E000CDCF8E85882351F248855985B8018C85D6
:1028F0009D850E948C2A488559852C853D85240F0D
:10290000351F3D872C878A859B85840F951F9B8764
:102910008A87B4CFCF93DF93FC0126813781232BA5
:1029200011F19B01EC016285738540855185C901D8
:102930000E948C2A8A859B8528853985820F931F62
:102940009B878A872E813F81215031093F832E83C7
:102950002A813B818217930721F4888199819B8783
:102960008A8781E001C080E0DF91CF910895AF9226
:10297000BF92CF92DF92EF92FF920F931F93CF936C
:10298000DF93DC011296ED91FC9180819181892B7E
:10299000B1F58B01E480F5806701F701A480B58073
:1029A000D0E0C0E0CA15DB0539F168E673E0D60176
:1029B00018968D919C910E94B92AB6E0CB0ED11C3D
:1029C000892BC1F426E02C9FC0012D9F900D11246E
:1029D000E80EF91EF70182859385B801DF91CF914A
:1029E0001F910F91FF90EF90DF90CF90BF90AF902D
:1029F0000C948A142196D6CF90E080E0EECF80E050
:102A0000DF91CF911F910F91FF90EF90DF90CF90CA
:102A1000BF90AF900895AF92BF92CF92DF92EF92A6
:102A2000FF920F931F93CF93DF93DC011296ED91EA
:102A3000FC9180819181019799F58B01C480D580AB
:102A4000F601E280F12C5601D0E0C0E0CE15DF05A2
:102A500024F56FEA72E0D50113968D919C910E9446
:102A6000B92AB4E0AB0EB11C892BA9F4CC0FDD1F41
:102A7000CC0FDD1FCC0DDD1D8D819E81B801DF9156
:102A8000CF911F910F91FF90EF90DF90CF90BF906B
:102A9000AF900C948A142196D9CF90E080E0EECFCD
:102AA00080E0DF91CF911F910F91FF90EF90DF9029
:102AB000CF90BF90AF900895AF92BF92CF92DF9228
:102AC000EF92FF920F931F93CF93DF93DC01129647
:102AD000ED91FC9180819181019799F58B01C480E2
:102AE000D580F601E280F12C5601D0E0C0E0CE1591
:102AF000DF0524F561E872E0D50113968D919C9174
:102B00000E94B92AB4E0AB0EB11C892BA9F4CC0FFA
:102B1000DD1FCC0FDD1FCC0DDD1D8D819E81B80129
:102B2000DF91CF911F910F91FF90EF90DF90CF90A9
:102B3000BF90AF900C948A142196D9CF90E080E09A
:102B4000EECF80E0DF91CF911F910F91FF90EF903A
:102B5000DF90CF90BF90AF900895EF92FF920F93C8
:102B60001F93CF93DF937C018B01FC010190002028
:102B7000E9F7CF01FB0101900020E9F73197E61B4F
:102B8000F70BEE19FF098E0F9F1F0E946729EC01BA
:102B9000B7010E94C22AB801CE010E94AE2ACE011E
:102BA000DF91CF911F910F91FF90EF900895EF92D9
:102BB000FF920F931F93CF93DF938C01EB017A0168
:102BC000C9010E94BB0AF80195838483B701CE0135
:102BD0000E94AD15EC01F80191838083F382E282BB
:102BE000E0914D06F0914E068DE4E82E86E0F82E39
:102BF000309741F07F0182E0E80EF11C0280F38102
:102C0000E02DF6CF84E090E00E946729FC0111835B
:102C1000008313821282F7019183808300917308ED
:102C200010917408B801CE010E94A924209709F4DC
:102C300044C009960817190708F43FC00E94E30230
:102C40008823D9F18091790890917A08019691F1C1
:102C500090937A0880937908E0917108F091720856
:102C600080917A088583E0917108F09172088091D3
:102C700079088683609171087091720847E050E08E
:102C8000CE010E94C102E0917108F0917208E80F34
:102C9000F91F1082AC014450510960917108709184
:102CA000720882E8DF91CF911F910F91FF90EF9012
:102CB0000C94C00381E090E0CBCFDF91CF911F91C6
:102CC0000F91FF90EF900895EF92FF920F931F9353
:102CD000CF93DF937C018B01FB01118210828CE08A
:102CE00090E00E946729EC0181E090E09D838C8355
:102CF000F7016089718921E030E048E653E0CE01B8
:102D000006960E94D715F701868597859983888353
:102D1000808991899B838A83F801D583C483C80104
:102D2000DF91CF911F910F91FF90EF900895EF9257
:102D3000FF920F931F93CF93DF938C017B01FB01D5
:102D40001182108282E190E00E946729EC0182E00A
:102D500090E09D838C83F801608D718D25E030E0DB
:102D600049E953E0CE0106960E94D715F801608D1F
:102D7000718D25E030E049EC53E0CE010C960E94C5
:102D8000D715F8018689978999838883808D918DDD
:102D90009B838A83F701D583C483C701DF91CF91D9
:102DA0001F910F91FF90EF900895EF92FF920F9374
:102DB0001F93CF93DF938A010E94AD15EC010E940F
:102DC000E302882389F1E0907308F0907408B7015A
:102DD000CE010E94A9240996E816F90628F160910F
:102DE00071087091720845E050E0CE010E94C10266
:102DF000F8012081E0917108F0917208E80FF91F45
:102E00002083F8012181E0917108F0917208E80FA8
:102E1000F91F2183AC0143505109609171087091F1
:102E2000720880E30E94C003CE01DF91CF911F9111
:102E30000F91FF90EF900C94032AAB01DC011296E6
:102E4000ED91FC9180819181892B49F40480F58179
:102E5000E02D69EC73E0808191810C94D516089582
:102E6000AB01DC011296ED91FC9180819181892B5F
:102E700049F40480F581E02D69E973E08081918156
:102E80000C94D51608951F920F920FB60F9211242D
:102E90002F933F938F939F93AF93BF9380913E0661
:102EA00090913F06A0914006B091410630913D06B9
:102EB00023E0230F2D3758F50196A11DB11D209356
:102EC0003D0680933E0690933F06A0934006B09344
:102ED00041068091420690914306A0914406B0912C
:102EE00045060196A11DB11D8093420690934306AD
:102EF000A0934406B0934506BF91AF919F918F91E7
:102F00003F912F910F900FBE0F901F90189526E8BC
:102F1000230F0296A11DB11DD2CF1F920F920FB6A3
:102F20000F9211240BB60F922F933F934F935F9301
:102F30006F937F938F939F93AF93BF93EF93FF9381
:102F40008FE496E00E942307FF91EF91BF91AF912C
:102F50009F918F917F916F915F914F913F912F91B1
:102F60000F900BBE0F900FBE0F901F9018951F92E1
:102F70000F920FB60F9211240BB60F922F933F931F
:102F80004F935F936F937F938F939F93AF93BF9371
:102F9000EF93FF938FE496E00E94AF06FF91EF91CD
:102FA000BF91AF919F918F917F916F915F914F9161
:102FB0003F912F910F900BBE0F900FBE0F901F905F
:102FC00018951F920F920FB60F9211240BB60F9205
:102FD0002F933F934F935F936F937F938F939F9321
:102FE000AF93BF93EF93FF938CEE96E00E9423077D
:102FF000FF91EF91BF91AF919F918F917F916F91D1
:103000005F914F913F912F910F900BBE0F900FBE8C
:103010000F901F9018951F920F920FB60F921124C8
:103020000BB60F922F933F934F935F936F937F93C2
:103030008F939F93AF93BF93EF93FF938CEE96E0A4
:103040000E94AF06FF91EF91BF91AF919F918F9139
:103050007F916F915F914F913F912F910F900BBE98
:103060000F900FBE0F901F9018951F920F920FB6E2
:103070000F9211240BB60F922F933F934F935F93B0
:103080006F937F938F939F93AF93BF93EF93FF9330
:1030900089E897E00E942307FF91EF91BF91AF91DC
:1030A0009F918F917F916F915F914F913F912F9160
:1030B0000F900BBE0F900FBE0F901F9018951F9290
:1030C0000F920FB60F9211240BB60F922F933F93CE
:1030D0004F935F936F937F938F939F93AF93BF9320
:1030E000EF93FF9389E897E00E94AF06FF91EF917D
:1030F000BF91AF919F918F917F916F915F914F9110
:103100003F912F910F900BBE0F900FBE0F901F900D
:1031100018951F920F920FB60F9211240BB60F92B3
:103120002F933F934F935F936F937F938F939F93CF
:10313000AF93BF93EF93FF93E0916908F0916A0812
:10314000309749F0A685B7858585968D91FF16C085
:103150009C918923B1F4FF91EF91BF91AF919F9121
:103160008F917F916F915F914F913F912F910F9030
:103170000BBE0F900FBE0F901F9018959C91892346
:1031800051F7A389B4899C918589809589238C9373
:10319000868997890197F1F7608D718DA685B7852E
:1031A000558538E020E0CB010197F1F7822F90E0C0
:1031B00095958795282F4C91452309F0206831502B
:1031C00091F7868D81FD20958091320690E00196E1
:1031D0008F73992730913106381799F0A0913206F4
:1031E000B0E0A858BA4F2C9380933206828D938D0D
:1031F0000197F1F7A389B4898C919589892B8C93D8
:10320000AACF868D8160868FF1CF282F30E0F9011B
:10321000E556FC4F9491F901EE52FB4F449124572F
:103220003B4FF9012491222309F435C0992311F170
:1032300091509231F8F4E92FF0E08827ED5DF64ED9
:103240008F4F0C9456295419581935194C19501987
:103250003A195B19611965196B196F197319791985
:103260007D193A19811987198B19809180008F7700
:1032700080938000E22FF0E0EE0FFF1FEE58FB4F2F
:10328000A591B4918FB7F894EC91611148C0409525
:103290004E234C938FBF0895809180008F7DE8CF9F
:1032A00080918000877FE4CF84B58F7784BDE2CFA3
:1032B00084B58F7DFBCF8091B0008F778093B00075
:1032C000D9CF8091B0008F7DF9CF809190008F771A
:1032D00080939000CFCF809190008F7DF9CF809127
:1032E0009000877FF5CF8091A0008F778093A0001A
:1032F000C1CF8091A0008F7DF9CF8091A000877F02
:10330000F5CF809120018F7780932001B3CF8091FA
:1033100020018F7DF9CF80912001877FF5CF4E2B43
:10332000B8CFCF92DF92EF92FF920F931F93CF937C
:10333000DF931092520610925106E8EECE2EE3E093
:10334000DE2EE12CF12CC0925306D0925406E0926E
:103350005506F09256068BE292E0909350068093C9
:103360004F0625ED30E030935C0620935B0624ED9C
:1033700030E030935E0620935D0620ED30E0309320
:10338000600620935F0621ED30E0309362062093C3
:10339000610622ED30E0309364062093630626ED4B
:1033A00030E030936606209365061092680610920E
:1033B000690610926A0610926B061092EF06109240
:1033C000EE06C092F006D092F106E092F206F0927C
:1033D000F3069093ED068093EC062DEC30E03093ED
:1033E000F9062093F8062CEC30E03093FB0620938E
:1033F000FA0628EC30E03093FD062093FC0629EC19
:1034000030E03093FF062093FE062AEC30E0309344
:103410000107209300072EEC30E030930307209340
:1034200002071092050710920607109207071092E4
:10343000080710928C0710928B07C0928D07D092CC
:103440008E07E0928F07F092900790938A078093FF
:10345000890785EC90E0909396078093950784EC1C
:1034600090E0909398078093970780EC90E090937A
:103470009A078093990781EC90E090939C07809342
:103480009B0782EC90E090939E0780939D0786ECCB
:1034900090E09093A00780939F071092A20710924C
:1034A000A3071092A4071092A507C7E6D2E0D09315
:1034B0002708C09326081092280810922908109215
:1034C0002A0810922B0880E290E09093B408809331
:1034D000B30881E290E00E9467299093B608809338
:1034E000B5089C01205E3F4F3093B8082093B70881
:1034F0009093BA088093B90821E2FC0111922A95B1
:10350000E9F7D0932D08C0932C0810922E08109242
:103510002F081092300810923108D0933308C093CE
:103520003208109234081092350810923608109222
:103530003708D0933908C093380810923A0810928F
:103540003B0810923C0810923D08D0933F08C0936E
:103550003E081092400810924108109242081092C2
:103560004308D0934508C09344081092460810922F
:1035700047081092480810924908D0934B08C0930E
:103580004A0810924C0810924D0810924E08109262
:103590004F080E94B403D0935E08C0935D08109258
:1035A0005F081092600810926108109262081092F1
:1035B000530810925208C0925408D0925508E092D5
:1035C0005608F092570889E492E09093510880934E
:1035D00050088FEF80935C0810926E0810926D086F
:1035E0008DE392E090936C0880936B08D0938708EA
:1035F000C0938608109288081092890810928A0851
:1036000010928B088FEF9FEF90939308809392080E
:103610001092700810926F08109291081092900802
:10362000109285081092840880E091E00E9467293A
:10363000909372088093710880E091E090937408F1
:10364000809373088FE090E09093760880937508DC
:1036500090937808809377081092970810929608B4
:10366000C0929808D0929908E0929A08F0929B082C
:103670008DE692E090939508809394081092AB08A1
:103680001092AA081092AD081092AC081092AF08E0
:103690001092AE081092B1081092B0086091B20872
:1036A0006E7F6D7F6093B2086695617081E06827D8
:1036B00083E00E94051945ED54E0FA0164918FE81A
:1036C00094E0FC012491222399F030E0220F331F73
:1036D000F901E85AFB4FA591B491F901EE58FB4F5F
:1036E000259134912FB7F8943C91632B6C932FBFA5
:1036F000FA0144914093A408FC018491E82FF0E082
:10370000EE0FFF1FEE58FB4F859194919093A60802
:103710008093A50804ED14E0F8012491CEE8D4E0EC
:10372000FE0184918823C9F090E0880F991FFC0165
:10373000E85AFB4FA591B491FC01EE58FB4F45911F
:1037400054913FB7F8949C91822F809598239C9335
:10375000FA019081892380833FBF8091B20881FD67
:1037600004C061E082E00E94051982E08093A00815
:10377000F80104910093A108FE01C491EC2FF0E040
:10378000EE0FFF1FE25CFB4F859194919093A3088D
:103790008093A20887E692E0909364088093630880
:1037A00010926508109266081092670810926808D7
:1037B000DF91CF911F910F91FF90EF90DF90CF900D
:1037C0000895CF93DF93CDB7DEB7AD970FB6F894DA
:1037D000DEBF0FBECDBF789484B5826084BD84B552
:1037E000816084BD85B5826085BD85B5816085BDFC
:1037F00080916E00816080936E00109281008091B4
:10380000810082608093810080918100816080933B
:103810008100809180008160809380008091B10060
:1038200084608093B1008091B00081608093B0008B
:1038300080919100826080939100809191008160DD
:10384000809391008091900081608093900080919E
:10385000A10082608093A1008091A100816080938B
:10386000A1008091A00081608093A000809121013F
:1038700082608093210180912101816080932101E8
:103880008091200181608093200180917A00846082
:1038900080937A0080917A00826080937A00809190
:1038A0007A00816080937A0080917A0080688093AA
:1038B0007A001092C100EE24E394F12CFA82E9829E
:1038C00083E090E09C838B8325EE3AE03E832D835A
:1038D00002E0A02EB12CB886AF822AE030E03A8711
:1038E00029879C878B8724E636E13E872D872AEF40
:1038F00033E0388B2F8725E334E03A8B298B9C8B80
:103900008B8B87E996E19E8B8D8B80E794E0988F77
:103910008F8B8BEA94E09A8F898FC090CA05D090E4
:10392000CB0582E18C9D30018D9D700C11248301AB
:1039300008541A4F4801D801ED92FC928BE190E0B7
:103940000E9467298C010097A9F1FC019182808275
:103950000E94B4039B01AC01D8011E966C931E9784
:103960001F963C931F9750968C93509751965C935B
:10397000519752961C92529753961C925397549675
:103980001C92549755961C92F801168A178A108E2D
:10399000118E128EF382E282B582A48281E0838747
:1039A00025E030E037832683848728E030E03187C4
:1039B0002087858722E12C9DC0012D9D900D11242B
:1039C0009C0128543A4F7901D90113961C930E9308
:1039D00012970E94B4039B01AC01F80166873787F8
:1039E000808B518B128A138A148A158A168A178A39
:1039F000108E118E128E81E090E09383828382E09C
:103A000090E09583848381E0838725E030E03783ED
:103A10002683848728E030E03187208785878B8163
:103A20009C810097C1F0F7019583848386E090E044
:103A30000E946729D70117969C938E93169793013E
:103A400024543A4FFC0133832283ED81FE81BC0173
:103A5000CE01019619958B859C85009739F12091AF
:103A6000CA053091CB0542E1429F8001439F100D72
:103A70001124980128543A4F7901D90119969C9341
:103A80008E93189786E090E00E946729F70193874C
:103A9000828700541A4FDC0113961C930E931297E1
:103AA000ED85FE85BC01CE01019619958B899C8917
:103AB000009721F12091CA053091CB0542E1429F48
:103AC0008001439F100D1124F801E854FA4F7F0143
:103AD0009587848786E090E00E946729D7011F962A
:103AE0009C938E931E970C531A4FFC0113830283F1
:103AF000ED89FE89BC01CE01019619952091CA0578
:103B00003091CB05C90101969093CB058093CA05EE
:103B100042E1429FC001439F900D112488549A4F67
:103B200090933A06809339068FE496E00E9436031C
:103B30008FE496E0909309028093080266EE74E0A9
:103B400089E897E00E948C0DECECF5E085E6DF015A
:103B50001D928A95E9F786E0E7E1F2E0DE015B96E7
:103B600001900D928A95E1F71E01BBE12B0E311CED
:103B700030923C0620923B061092AF081092AE089D
:103B80001092AD081092AC081092AB081092AA08DF
:103B90008DE991E09093B1088093B0088091A008DE
:103BA00096EF980F943048F02EEC280F243028F030
:103BB00022EC280F283008F061C02DEB30E0309364
:103BC000AB082093AA082BE931E03093AD0820938D
:103BD000AC082CE231E03093AF082093AE0894306B
:103BE00050F02EEC280F243030F022EC280FF0E0BB
:103BF000E0E0283010F4E8E6F0E02081943028F08E
:103C000032EC380F383008F49DC031E0232B94306B
:103C100048F09EEC980F943028F08E53F0E0E0E0EE
:103C2000883010F4E8E6F0E020832091A00836EF19
:103C3000320F343008F488C08EEC820F843008F4E0
:103C400083C082EC820F883008F081C08DE690E05E
:103C50009093A8088093A708343008F07BC02650C2
:103C6000330B81E001C0880F2A95EAF78093A908F9
:103C70008091B0089091B1080197F1F78091AE085A
:103C80009091AF08892B49F1E0916908F0916A0899
:103C900008E0E439F00709F1309739F0A389B489D5
:103CA0009C918589809589238C938091B2088E7F21
:103CB0008093B208109232061092310684E998E09F
:103CC00090936A0880936908E091A708F091A8088A
:103CD00080819091A908892B808363E573E089E84E
:103CE00097E00E94B90D6AE473E089E897E00E94CA
:103CF000A50D84E998E090934C0680934B0605E06F
:103D000010E087E493E00E94F00E892B09F484C54B
:103D100068EE73E080E090E00E9482030150110998
:103D200081F763E573E089E897E00E94B90D6AE2E4
:103D300073E089E897E00E94A50D68E873E180E0F0
:103D400090E0DCC534E062CF8BE690E081CF90E07C
:103D500080E07ECF88E0223309F488CF84E02333EB
:103D600009F484CF82E0243309F480CF82EC820FFF
:103D7000883018F42E53330B74CF81E077CF63E58E
:103D800073E089E897E00E94B90D61EF72E089E87D
:103D900097E00E945E066AEF72E089E897E00E9471
:103DA000B90D63E376E089E897E00E948C0D04EF9B
:103DB00014E0E6E0EE2EE5E0FE2EFEE4BF2EA0E2EB
:103DC000AA2EB4E8CB2EB3E0DB2E1F930F93FF9205
:103DD000EF92BF92AF92DF92CF920E943F110FB647
:103DE000F894DEBF0FBECDBF63E573E0892B09F009
:103DF00007C289E897E00E94B90D62E673E089E89E
:103E000097E00E945E066AEF72E089E897E00E9400
:103E1000B90D66E075E089E897E00E948C0D68EEC8
:103E200073E080E090E00E94820380E598E0909348
:103E3000700880936F088D8D9E8D2B8D3C8D3093F7
:103E40008D0820938C0890938F0880938E088FE1C3
:103E500094E1909385088093840884E190E09093A6
:103E60007608809375088F8D98A10E94690B009148
:103E70003B0610913C060E94E302811106C0D80166
:103E800014968D919C910E94690B0E94E3028823F5
:103E900009F44FC00E94B4036B017C0120917508A6
:103EA00030917608A8EEB3E00E94042900917F08C3
:103EB00010918008209181083091820846015701B5
:103EC000801A910AA20AB30A95018401601771074A
:103ED00082079307B0F000917B0810917C08209135
:103EE0007D0830917E0846015701801A910AA20A86
:103EF000B30A95018401601771078207930708F0E0
:103F0000CDC180918308882309F499C17CEFA72E45
:103F1000BB24BA94B0929308A092920880916F0843
:103F200090917008DC01ED91FC910488F589E02DF9
:103F30001995E0913906F0913A0682809380AA247F
:103F4000A394F401A286A386A486A5868281938188
:103F5000019709F050C1808591858930910509F458
:103F60009FC28A30910509F4B8C2089709F067C06A
:103F70000190F081E02D0684F785E02D808191810C
:103F8000892B09F05CC0048115816801D801149661
:103F90006D907C905801F12CE12CE614F70409F4A3
:103FA00075C269E973E0F501808591850E94B92A9F
:103FB000F6E0AF0EB11C892B09F064C286E08E9D3D
:103FC000F0018F9DF00D1124E00FF11F0284F385A5
:103FD000E02D86819781892B91F1D4015A968C919D
:103FE00081112DC0F12CE12CE614F70409F455C21F
:103FF00069E973E0F601808591850E94B92AF6E0AF
:10400000CF0ED11C892B09F044C226E02E9DC001A1
:104010002F9D900D1124080F191FD8011A968D910C
:104020009C91BE016F5F7F4F0E948A14AA24A394C3
:10403000F401A28E39E0E32EF12CF186E086D40162
:104040001D961C921D971C968C911C97882309F431
:104050006BC01B968C911B9716962D913C911797D0
:104060002630310509F4A8C22730310509F40DC303
:104070002530310509F055C0882309F452C0149643
:104080008D919C911597029709F04BC00D911C9151
:104090000C5F1F4FC8010E94FB10882309F441C028
:1040A000F401828D81113DC0B101C8010E945C15EF
:1040B000E3E0F0E0D4011596FC93EE931497F1E061
:1040C0005A96FC935A978D919C91BE016F5F7F4FDA
:1040D00008960E943017E6E0F0E0D4011796FC93B2
:1040E000EE9316970E94B4038B019C01D4011E9697
:1040F0006C931E971F961C931F9750968C93509706
:1041000051963C93519752961C92529753961C92FB
:10411000539754961C92549755961C9255971B96FC
:104120001C92D4011C961C92F4018385882309F407
:1041300062C0848195818330910509F4D5C28430B1
:10414000910509F43AC3029709F052C08485882387
:1041500009F44EC086819781059709F049C0828D88
:10416000811146C0008111810C5F1F4FC8010E9460
:10417000FB108823E9F1B101C8010E945C15E3E05E
:10418000F0E0D4011596FC93EE931497F1E05A9663
:10419000FC935A978D919C91BE016F5F7F4F08965B
:1041A0000E943017E6E0F0E0D4011796FC93EE93FE
:1041B00016970E94B4038B019C01D4011E966C9348
:1041C0001E971F961C931F9750968C93509751964D
:1041D0003C93519752961C92529753961C92539728
:1041E00054961C92549755961C9255971C961C9267
:1041F000D4011B961C92F40112860E94B20737CE9E
:1042000089E897E00E94B90D6FE673E089E897E0CE
:104210000E945E066AEF72E089E897E00E94B90D9D
:1042200066E075E089E897E00E948C0D68EE73E027
:1042300080E090E00E9482030E941B03C6CDE091C3
:104240007108F091720880EC8083E0917108F09120
:104250007208118280916F089091700860917108C6
:1042600070917208DC01ED91FC910280F381E02DE8
:1042700042E050E01995C0927B08D0927C08E09211
:104280007D08F0927E08C0927F08D0928008E0926C
:104290008108F0928208B1E0B093830880916F08A2
:1042A00090917008DC01ED91FC910084F185E02D86
:1042B0001995892B09F43DCECE0101960E946E041A
:1042C0004B01672B09F4DBC0C0927F08D0928008B5
:1042D000E0928108F0928208E0917108F0917208F2
:1042E0008081807F803309F0A8C0809184089091FC
:1042F0008508892B09F41DCE498150E0CA01029638
:104300008E0F9F1FDF01A40FB51F11966C90712CAB
:10431000762C6624DC016C91660E711C4D5F5F4F3C
:10432000BF01640F751FA3010E94952AE981809146
:10433000710890917208860D971DE80FF92FF11DF5
:104340001282A0917108B0917208298130E0290190
:10435000E2E04E0E511C4A0E5B1E1C911670E0915D
:104360008408F0918508FDA7ECA7123009F051C030
:10437000C301820F931FFD01E80FF91F638170E0F5
:10438000762F66274481FB01E40FF11DFDA3ECA30A
:104390004BEF5FEF421B530B46195709480D591D50
:1043A0000596BD01680F791FC201ECA5FDA5199501
:1043B000E0917108F091720880E48083E0917108C7
:1043C000F09172081183E0917108F09172088DA04C
:1043D0008282E0917108F09172089CA09382809192
:1043E0006F08909170086091710870917208DC01FB
:1043F000ED91FC910280F381E02D44E050E01995AD
:10440000C0927B08D0927C08E0927D08F0927E08F2
:1044100090CD4DEF5FEF421B530B46195709480DE6
:10442000591D2D5F3F4F620E731EBD01660D771D36
:10443000C201ECA5FDA519957CCD803CD1F440EDE1
:10444000842E8082E0917108F0917208118280912F
:104450006F08909170086091710870917208DC018A
:10446000ED91FC910280F381E02D42E050E019953E
:1044700060CD803D09F05DCD109283085ACD0E9439
:10448000E30257CD2FEFE21AF20A87CDF0E0E0E029
:10449000A0CDBFEFEB1AFB0AA7CD90E080E0C1CD25
:1044A0000190F081E02D0684F785E02D80819181D7
:1044B000892B61F40480F581E02DAE014F5F5F4FE1
:1044C00068E673E0808191810E94D5162AE0A22ED1
:1044D000B12CF401B186A086B2CD0190F081E02D1F
:1044E0000684F785E02D80819181892B09F0A7CD85
:1044F000048115816801F801648075805801F12CF0
:10450000E12CE614F70409F44DC069EC73E0D50121
:1045100018968D919C910E94B92AB6E0AB0EB11C01
:10452000892BE1F586E08E9DF0018F9DF00D112421
:10453000E00FF11F0284F385E02D86819781892B9E
:1045400009F47DCDF12CE12CE614F70491F169EC2E
:1045500073E0D60118968D919C910E94B92AB6E01D
:10456000CB0ED11C892B09F526E02E9DC0012F9D75
:10457000900D1124080F191FF80182859385BE0143
:104580006F5F7F4F0E948A14E8E0F0E0D401199633
:10459000FC93EE9318975A961C9251CDEFEFEE1ABA
:1045A000FE0AAFCFF0E0E0E0C8CFFFEFEF1AFF0A5E
:1045B000CBCF90E080E0E3CF882309F4B2CDF401C3
:1045C00084819581039709F0ACCDA684B784C08817
:1045D000D18872886388548845880E94B4037B011F
:1045E0008C0120E030E0A9016CA3FDA28EA31FA3E3
:1045F00028A739A74AA75BA79B01AC0160E070E040
:1046000080E090E0E72CF62C052D142D0E945E2909
:104610000E9413296B017C01D40156966D917D9106
:104620008D919C9159970E94BA2720E030E04AE78B
:1046300054E40E9419289B01AC01C701B6010E94F5
:10464000512918160CF06DCDF40180819181B101D2
:1046500008960E941D17E5E0F0E0D4011796FC9340
:10466000EE9316975A961C925A978D919C91BE0183
:104670006F5F7F4F04960E942B0E84E090E0D40180
:1046800015969C938E9314974ACD882309F449CDAF
:10469000F40184819581049709F043CD0081118153
:1046A0000C5F1F4FC8010E94B710882309F439CD51
:1046B000B101C8010E940B1582E090E0D40115966B
:1046C0009C938E9314978D919C91BE016F5F7F4F49
:1046D00008960E941D1795E0A92EB12CF401B7820F
:1046E000A682128E13861DCD8485882309F480CD81
:1046F00086819781069709F07BCDA684B784C08810
:10470000D18872886388548845880E94B4037B01ED
:104710008C0120E030E0A9016CA3FDA28EA31FA3B1
:1047200028A739A74AA75BA79B01AC0160E070E00E
:1047300080E090E0E72CF62C052D142D0E945E29D8
:104740000E9413296B017C01D40156966D917D91D5
:104750008D919C9159970E94BA2720E030E04AE75A
:1047600054E40E9419289B01AC01C701B6010E94C4
:10477000512918160CF03CCDF40180819181B101D2
:1047800008960E941D17E5E0F0E0D4011796FC930F
:10479000EE9316975A961C925A978D919C91BE0152
:1047A0006F5F7F4F04960E942B0E84E090E0D4014F
:1047B00015969C938E93149719CD8485882309F4BC
:1047C00017CD86819781079709F012CD008111815D
:1047D0000C5F1F4FC8010E94B710882309F408CD51
:1047E000B101C8010E940B1582E090E0D40115963A
:1047F0009C938E9314978D919C91BE016F5F7F4F18
:1048000008960E941D1785E0A82EB12CF401B782EE
:10481000A682128E1486ECCC8AEE92E00E94F00EF4
:1048200068EB7BE080E090E00E9482030E941B0323
:1048300085EE92E00E94F00E89ED92E00E94F00E6B
:1048400068EC70E080E090E00E9482038DEC92E0E2
:104850000E94F00E8FEB92E00E94F00E8FEA92E041
:104860000E94F00E81EA92E00E94F00E68EC70E087
:1048700080E090E00E948203109233066DE872E0BF
:10488000CE0101960E94A2246AE872E0CE018196D0
:104890000E94A22406E010E023E336E0AE014F5D63
:1048A0005F4FBE016F5F7F4F8AE992E00E94361230
:1048B000809133068153823028F4809134068E3201
:1048C00009F45DCA63E573E089E897E00E94B90DD9
:1048D0006CE073E089E897E00E945E066AEF72E0A0
:1048E00089E897E00E94B90D63E376E089E897E0F4
:1048F0000E948C0D60EA7FE080E090E00E948203DD
:1049000056CA8DE692E09093950880939408809122
:10491000690890916A088459984071F4E091A70859
:10492000F091A80890818091A908809589238083BF
:1049300010926A081092690880917108909172082B
:104940000C94032AFB01DC0105900D920020E1F795
:104950000895FC016150704001900110D8F78095D6
:1049600090958E0F9F1F08950F931F93CF93DF9302
:10497000CDB7DEB72E970FB6F894DEBF0FBECDBF12
:104980000E891F898EE08C831A8309838FEF9FE73E
:104990009E838D83AE01465E5F4F688D798DCE011B
:1049A00001960E941D252F813885020F131FF801E3
:1049B00010822E960FB6F894DEBF0FBECDBFDF91EA
:1049C000CF911F910F9108950F931F93CF93DF9372
:1049D000CDB7DEB72E970FB6F894DEBF0FBECDBFB2
:1049E0008C01FA018EE08C831A83098377FF02C061
:1049F00060E070E8615071097E836D83A901BF0199
:104A0000CE0101960E941D254D815E8157FD0AC091
:104A10002F813885421753070CF49A01020F131F98
:104A2000F80110822E960FB6F894DEBF0FBECDBFF0
:104A3000DF91CF911F910F9108952F923F924F9246
:104A40005F926F927F928F929F92AF92BF92CF921E
:104A5000DF92EF92FF920F931F93CF93DF9300D0DB
:104A600000D000D01F921F92CDB7DEB77C013B0172
:104A70008A01FC0117821682838181FFDDC1CE018C
:104A800001965C01F7019381F30193FD859193FFFA
:104A900081913F01882309F453C1853239F493FD94
:104AA000859193FF81913F01853229F4B70190E010
:104AB0000E942A27E7CF912C212C312CFFE1F315FE
:104AC00038F08B3211F190F4803209F1833229F100
:104AD00037FC3CC020ED280F2A3050F536FE20C0B0
:104AE0008AE0989E200D1124922E06C08D3291F0FE
:104AF000803371F7689430F8F30193FD859193FF4B
:104B000081913F018111DACF21C0689431F8689416
:104B100032F8F2CF689433F8EFCF689434F8ECCFE2
:104B2000EAE02E9E200D1124222E689435F8E4CF61
:104B30008E3229F436FC04C1689436F8DDCF8C3609
:104B400019F4689437F8D8CF8836B1F2982F9F7D42
:104B500095549330E0F08336A1F18337C1F183356A
:104B600009F063C02801F2E04F0E511CF801C0802B
:104B7000D180692D70E036FC02C06FEF7FEFC60177
:104B80000E941F274C01689437F882010AC00C5F0D
:104B90001F4FFFE3F98388248394912C6501E894E7
:104BA00037F833FE2DC0522C8114910471F5552035
:104BB00009F468CFB70180E290E00E942A275A9456
:104BC000F6CFF801808189830E5F1F4FE4CF280163
:104BD000F2E04F0E511CF801C080D180692D70E0C9
:104BE00036FC02C06FEF7FEFC6010E94A9244C0182
:104BF0008201D5CFB70180E290E00E942A272A9453
:104C00002814190409F0B0F7CECFF60137FC8591CE
:104C100037FE81916F01B70190E00E942A27511061
:104C20005A94F1E08F1A9108BFCF843619F0893673
:104C300009F077C0F80137FE6BC060817181828115
:104C400093810C5F1F4FF32DFF763F2E97FF09C016
:104C500090958095709561957F4F8F4F9F4F689489
:104C600037F82AE030E0A5010E945A27C82ECA185A
:104C70008C2C432C36FE0CC0E89440F8C91440F448
:104C800034FE05C032FC03C0F32DFE7E4F2E892C6E
:104C900044FEAAC0FE01EC0DF11D8081803309F0B5
:104CA0009CC0242D297E422E842D8870582E43FCD2
:104CB000AAC040FEA4C09C2C821418F42C0C922C88
:104CC000981844FEA6C0B70180E390E00E942A270E
:104CD00042FE09C088E790E041FE02C088E590E00E
:104CE000B7010E942A27C91408F49FC0CA94D12C86
:104CF0009FEFC91AD90ACA0CDB1CF60182916F0119
:104D0000B70190E00E942A27AC14BD04B1F74FCF41
:104D100060817181072E000C880B990B0E5F1F4F6D
:104D200092CFD32CE894D4F82AE030E08537E1F133
:104D3000232D297FD22E8F36A9F1F0F4883551F139
:104D4000F701868197812B960FB6F894DEBF0FBED0
:104D5000CDBFDF91CF911F910F91FF90EF90DF902A
:104D6000CF90BF90AF909F908F907F906F905F900B
:104D70004F903F902F900895803749F0883701F782
:104D8000D4FE02C06894D2F820E130E00DC06894EF
:104D9000D4F8F6CF34FE03C0822F8660D82E20E1EF
:104DA00032E002C028E030E0F801D7FE0FC0608199
:104DB0007181828193810C5F1F4FA5010E945A2748
:104DC000C82ECA183D2CE89437F852CF6081718103
:104DD00090E080E00E5F1F4FF0CF42FC02C0839452
:104DE00063CF8394839460CF842D867809F45CCF5D
:104DF000F6CFB70180E290E00E942A2783948214C4
:104E0000C0F3512C5ECF522C5818821408F459CF9D
:104E1000F8CF842D867809F466CF8BE241FE80E2DC
:104E200047FC8DE2B70190E05CCFB70180E390E0F2
:104E30000E942A279A9457CF8FEF9FEF84CFFC01CF
:104E40000590615070400110D8F7809590958E0FB5
:104E50009F1F08950F931F93CF93DF93182F092F50
:104E6000EB018B8181FD09C01FEF0FEF812F902F88
:104E7000DF91CF911F910F91089582FF14C02E8171
:104E80003F818C819D81281739073CF4E881F981A5
:104E9000CF0101969983888310838E819F8101962B
:104EA0009F838E83E3CFE885F985812F1995892B20
:104EB000A1F3DACFFA01AA27283051F1203181F18C
:104EC000E8946F936E7F6E5F7F4F8F4F9F4FAF4F12
:104ED000B1E03ED0B4E03CD0670F781F891F9A1F25
:104EE000A11D680F791F8A1F911DA11D6A0F711DD9
:104EF000811D911DA11D20D009F468943F912AE0E5
:104F0000269F11243019305D3193DEF6CF010895CC
:104F1000462F4770405D4193B3E00FD0C9F7F6CFFD
:104F2000462F4F70405D4A3318F0495D31FD4052C5
:104F3000419302D0A9F7EACFB4E0A695979587955B
:104F400077956795BA95C9F700976105710508953A
:104F50009B01AC010A2E06945795479537952795E6
:104F6000BA95C9F7620F731F841F951FA01D08957E
:104F7000E89409C097FB3EF49095809570956195F3
:104F80007F4F8F4F9F4F9923A9F0F92F96E9BB27A9
:104F90009395F695879577956795B795F111F8CF25
:104FA000FAF4BB0F11F460FF1BC06F5F7F4F8F4F90
:104FB0009F4F16C0882311F096E911C0772321F086
:104FC0009EE8872F762F05C0662371F096E8862F1E
:104FD00070E060E02AF09A95660F771F881FDAF775
:104FE000880F9695879597F90895990F0008550FA2
:104FF000AA0BE0E8FEEF16161706E807F907C0F05F
:1050000012161306E407F50798F0621B730B840B66
:10501000950B39F40A2661F0232B242B252B21F440
:1050200008950A2609F4A140A6958FEF811D811DE0
:1050300008950E942C280C949D280E948F2838F0F7
:105040000E94962820F0952311F00C9486280C9449
:105050008C2811240C94D1280E94AE2870F3959FBF
:10506000C1F3950F50E0551F629FF001729FBB275F
:10507000F00DB11D639FAA27F00DB11DAA1F649FFB
:105080006627B00DA11D661F829F2227B00DA11DAE
:10509000621F739FB00DA11D621F839FA00D611D34
:1050A000221F749F3327A00D611D231F849F600D55
:1050B000211D822F762F6A2F11249F5750409AF07E
:1050C000F1F088234AF0EE0FFF1FBB1F661F771F0A
:1050D000881F91505040A9F79E3F510580F00C94D5
:1050E00086280C94D1285F3FE4F3983ED4F386954C
:1050F00077956795B795F795E7959F5FC1F7FE2B75
:10510000880F911D9695879597F9089597F99F6750
:1051100080E870E060E008959FEF80EC089500243F
:105120000A941616170618060906089500240A940C
:1051300012161306140605060895092E0394000C92
:1051400011F4882352F0BB0F40F4BF2B11F460FF21
:1051500004C06F5F7F4F8F4F9F4F089557FD90584A
:10516000440F551F59F05F3F71F04795880F97FB2B
:10517000991F61F09F3F79F08795089512161306E5
:105180001406551FF2CF4695F1DF08C01616170614
:105190001806991FF1CF8695710561050894089549
:1051A000E894BB2766277727CB0197F90895A1E2FA
:1051B0001A2EAA1BBB1BFD010DC0AA1FBB1FEE1F91
:1051C000FF1FA217B307E407F50720F0A21BB30BDC
:1051D000E40BF50B661F771F881F991F1A9469F758
:1051E00060957095809590959B01AC01BD01CF01B4
:1051F00008950E940429A59F900DB49F900DA49F2F
:10520000800D911D11240895A29FB001B39FC0018C
:10521000A39F700D811D1124911DB29F700D811DE2
:105220001124911D0895E894F92F96EBFF2381F046
:10523000121613061406440B9395F69587957795E9
:10524000679557954040FF23B9F71BC099270895EC
:10525000882351F49850D2F7872B762F652F542F3F
:10526000432F322F20E0B1F3121613061406440B1D
:1052700088233AF09A95440F551F661F771F881FA1
:10528000CAF755234AF4440F551F11F460FF04C0B8
:105290006F5F7F4F8F4F9F4F880F9695879597F938
:1052A00008950E94F52708F48FEF0895EE0FFF1F71
:1052B000881F8BBF0790F691E02D19942A193B099E
:1052C0004C095D096E097F09800B910B08950F93BE
:1052D0001F93CF93DF938230910510F482E090E02A
:1052E000E091BD08F091BE0830E020E0B0E0A0E021
:1052F000309799F42115310509F44AC0281B390B60
:1053000024303105D8F58A819B816115710589F1B9
:10531000FB0193838283FE0111C040815181028190
:10532000138148175907E0F04817590799F4109767
:1053300061F012960C93129713961C933296CF013C
:10534000DF91CF911F910F9108950093BD081093A5
:10535000BE08F4CF2115310551F04217530738F03C
:10536000A901DB019A01BD01DF01F801C1CFEF0105
:10537000F9CF9093BE088093BD08CDCFFE01E20F18
:10538000F31F819391932250310939832883D7CF1A
:105390002091BB083091BC08232B41F420910C02D2
:1053A00030910D023093BC082093BB0820910A0273
:1053B00030910B022115310541F42DB73EB74091D4
:1053C0000E0250910F02241B350BE091BB08F091A7
:1053D000BC08E217F307A0F42E1B3F0B2817390770
:1053E00078F0AC014E5F5F4F2417350748F04E0F41
:1053F0005F1F5093BC084093BB08819391939FCF4C
:10540000F0E0E0E09CCFCF93DF930097E9F0FC0160
:10541000329713821282A091BD08B091BE08ED01AF
:1054200030E020E01097A1F420813181820F931F9A
:105430002091BB083091BC082817390709F061C0DA
:10544000F093BC08E093BB08DF91CF910895EA0187
:10545000CE17DF07E8F54A815B819E0141155105B2
:10546000B1F7E901FB83EA8349915991C40FD51F34
:10547000EC17FD0761F4808191810296840F951FDE
:10548000E90199838883828193819B838A83F0E0F9
:10549000E0E012968D919C9113970097B9F52D91AC
:1054A0003C911197CD010296820F931F2091BB086A
:1054B0003091BC082817390739F6309751F510920A
:1054C000BE081092BD08B093BC08A093BB08BCCF27
:1054D000D383C28340815181840F951FC817D90798
:1054E00061F44E5F5F4F88819981480F591F518346
:1054F00040838A819B81938382832115310509F042
:10550000B0CFF093BE08E093BD089ECFFD01DC0153
:10551000C0CF13821282D7CFFB01DC0102C0019001
:105520000D9241505040D8F708956817790768F4F4
:10553000FB01DC01E40FF51FA40FB51F02C00290B0
:105540000E9241505040D8F708950C948C2ADC01FB
:1055500001C06D9341505040E0F70895FB01DC011C
:105560000D900020E9F7119701900D920020E1F7CE
:105570000895FB01DC018D91019080190110D9F390
:10558000990B0895FB01DC0101900D920020E1F7D9
:105590000895FB01DC014150504048F001900D920C
:1055A0000020C9F701C01D9241505040E0F7089516
:1055B00012E0CDE8D2E000E006C0802FFE010E949C
:1055C00056292196011DCE38D10780E00807A9F79A
:1055D000F894FFCFFFFFFFFFFFFFFFFF89070000E9
:1055E000BF08800000044D515454041A055B072F76
:1055F0000545054C0556055F056B05000000004597
:10560000078206C8069207F906D706EB06000000D7
:10561000009F0A7F0AB80AB70A00000000690A1D45
:1056200013B80AD2095E0A3210F20FDC13EA11E94C
:1056300009EC11BB12CA0900000000420D00000075
:1056400000F4078206B80AF30750086608DB072B48
:105650004950442C004F76657274616B696E6750D7
:1056600065726D697373696F6E4D6573736167659C
:1056700073526571756573745065726D6973736982
:105680006F6E004F76657274616B696E67506572FC
:105690006D697373696F6E4D65737361676573458B
:1056A000786563757465644F76657274616B696E55
:1056B0006700020A53656E64696E67206D657373D7
:1056C000616765206F66206C656E6774683A2000BC
:1056D0004F76657274616B696E675065726D697340
:1056E00073696F6E4D6573736167657344656E7939
:1056F0005065726D697373696F6E004F7665727471
:10570000616B696E675065726D697373696F6E4D19
:10571000657373616765734772616E745065726D0E
:10572000697373696F6E005B576946694573705D95
:1057300020002C434C4F5345440D0A004F766572B0
:1057400074616B696E67436F6F7264696E617469CF
:105750006F6E4D65737361676573416363657074E4
:105760004F76657274616B696E67003E004F7665B7
:105770007274616B696E67436F6F7264696E617496
:10578000696F6E4D65737361676573526571756599
:1057900073744F76657274616B696E67004F7665DE
:1057A0007274616B696E67436F6F7264696E617466
:1057B000696F6E4D6573736167657346696E697372
:1057C0006865644F76657274616B696E6700736CAF
:1057D0006F77436172436F6F7264696E61746F7249
:1057E0004543552F636F6D6D756E696361746F729C
:1057F0002E532F6F76657274616B696E67496E699F
:10580000746961746F72312F0066617374436172E1
:10581000436F6F7264696E61746F724543552F6395
:105820006F6D6D756E696361746F722E462F6F7642
:10583000657274616B696E67416666696C696174F3
:1058400065312F00736C6F77436172436F6F7264C1
:10585000696E61746F724543552F636F6D6D756E20
:10586000696361746F722E532F6F76657274616B0A
:10587000696E67416666696C69617465312F00669F
:10588000617374436172436F6F7264696E61746FA8
:10589000724543552F636F6D6D756E696361746FEB
:1058A000722E462F6F76657274616B696E67496EF2
:1058B00069746961746F72312F005573696E672066
:1058C00053657269616C320044756D6D79574C4156
:1058D0004E50617373776F72640044756D6D7957C4
:1058E0004C414E4E616D654F7253534944004475AF
:1058F0006D6D795365727665724950416464726565
:10590000737300736C6F77436172436F6F72646976
:105910006E61746F72454355000D0A4F4B0D0A00BE
:105920000D0A4552524F520D0A000D0A4641494C8C
:105930000D0A000D0A53454E44204F4B0D0A00201E
:0A594000434F4E4E4543540D0A003C
:020000040003F7
:10E000000D9489F10D94B2F10D94B2F10D94B2F129
:10E010000D94B2F10D94B2F10D94B2F10D94B2F1F0
:10E020000D94B2F10D94B2F10D94B2F10D94B2F1E0
:10E030000D94B2F10D94B2F10D94B2F10D94B2F1D0
:10E040000D94B2F10D94B2F10D94B2F10D94B2F1C0
:10E050000D94B2F10D94B2F10D94B2F10D94B2F1B0
:10E060000D94B2F10D94B2F10D94B2F10D94B2F1A0
:10E070000D94B2F10D94B2F10D94B2F10D94B2F190
:10E080000D94B2F10D94B2F10D94B2F10D94B2F180
:10E090000D94B2F10D94B2F10D94B2F10D94B2F170
:10E0A0000D94B2F10D94B2F10D94B2F10D94B2F160
:10E0B0000D94B2F10D94B2F10D94B2F10D94B2F150
:10E0C0000D94B2F10D94B2F10D94B2F10D94B2F140
:10E0D0000D94B2F10D94B2F10D94B2F10D94B2F130
:10E0E0000D94B2F141546D656761323536300041AF
:10E0F000726475696E6F206578706C6F72657220DE
:10E1000073746B3530305632206279204D4C530099
:10E11000426F6F746C6F616465723E004875683F52
:10E1200000436F6D70696C6564206F6E203D200048
:10E130004350552054797065202020203D20005FF9
:10E140005F4156525F415243485F5F3D2000415658
:10E1500052204C696243205665723D20004743437C
:10E160002056657273696F6E203D20004350552024
:10E1700049442020202020203D20004C6F7720663D
:10E18000757365202020203D20004869676820665F
