:020000040000FA
:100000000C9470020C94A1020C94A1020C94A10215
:100010000C94A1020C94A1020C94A1020C94A102D4
:100020000C94A1020C9485230C9485230C948523B5
:100030000C94A1020C94A1020C94A1020C94A102B4
:100040000C94A1020C94AF250C94A1020C94A10273
:100050000C94A1020C94A1020C94A1020C94DB223A
:100060000C94A1020C944F230C9425230C94A10210
:100070000C94A1020C94A1020C94A1020C94A10274
:100080000C9481250C94A1020C94A1020C94A10261
:100090000C94A1020C94A1020C94A1020C940124D2
:1000A0000C94A1020C94A1020C9453250C94A1026F
:1000B0000C94A1020C94A1020C94A1020C9425258D
:1000C0000C94A1020C94A1020C94A1020C94A10224
:1000D0000C94A1020C94A1020C94A1020C94A10214
:1000E0000C94A1020664EC1B3C04BC163E3BE5B933
:1000F0003CC93C37C29E5A3D660498083EEA69AA4C
:10010000AA3E000000803F000C94B1030C940C0840
:100110000C94590D0C94C8030C9426030C940A04F7
:100120000C941F060C946D0F0C9418030C94300360
:100130000C94E30E0C94F1020C942D090C94220300
:100140000C9483210C9419040C94590A0C94B9034F
:100150000C94D4130C94D0080C9498200C94C50ED5
:100160000C9412030C94171D0C9443090C94250A4B
:100170000C94CF050C9423040C94FC050C94F20E03
:100180000C9429100C946C1A0C9484090C94370468
:100190000C94D40E0C94E4030C9407030C94951C5B
:1001A0000C940B060C94D70C0C94F6030C94BE0321
:1001B0000C943B140C949C090C9455200C94B4049E
:1001C0000C94260E0C941C030C940F030C94B30493
:1001D0000C9497080C94140F0C94D2030C944203C3
:1001E0000C9438030C945B220C9400040C94C10B07
:1001F0000C9404080C94DC1A0C94EC030C949413E7
:100200000C94A41A0C9403030C9458140C946506D3
:100210000C944B040C9434030C9441040C94B206DB
:100220000C94141B0C943E030C948E110C94991F87
:100230000C94DC030C9423080C940B030C94EC0238
:100240000C94880A0C94120A0C942D040C946409E2
:100250000C94B8080C94240E0C94C7260C94030A32
:100260000C942A030C94A2080C942C0A0C942D06CE
:100270000C9422260C94D1080C944F1F0C944D1F03
:100280000C94560D0C94801D25642E25642E256437
:100290002E25640044617461207061636B65742075
:1002A00073656E64206572726F7220283229004473
:1002B000617461207061636B65742073656E642086
:1002C0006572726F72202831290041542B434950C6
:1002D00053454E443D25642C2575004661696C6587
:1002E0006420746F20777269746520746F20736F57
:1002F000636B65740041542B434950434C4F534545
:100300003D256400446973636F6E6E656374696E46
:10031000672000456E6420746167206E6F742066EC
:100320006F756E64004E6F2074616720666F756E26
:10033000640041542B434950535441545553002BAE
:100340004349505354415455533A25642C003E3E82
:100350003E2054494D454F5554203E3E3E0000003E
:100360002100240027002A002D0030003300010165
:100370000000040107010A0100000A0B02090C0D2C
:100380000E08070304010000000000000000000048
:10039000000000000000000000000000000000005D
:1003A000000000001211100000000000000000001A
:1003B00000000000000000000000000000004E6F80
:1003C00020736F636B657420617661696C61626C28
:1003D000650041542B43495053544152543D2564C8
:1003E0002C22544350222C222573222C25750043A5
:1003F0006F6E6E656374696E6720746F0054494D4B
:10040000454F55543A0054616720434C4F5345447F
:10041000206E6F7420666F756E64000000200023EC
:1004200000260029002C002F0032000001000003EC
:10043000010601090100002200250028002B002EE2
:10044000003100340002010000050108010B010524
:10045000050505070508080808020202020A0A083D
:100460000804040404010101010101010103030363
:100470000303030303040707070C0C0C0C0C0C0C00
:100480000C0202020206060606060606060B0B0B07
:100490000B0B0B0B0B010210202008081020401042
:1004A0002040800201020108040201010204081038
:1004B0002040808040201008040201800402018056
:1004C000402010080402010804020101020408107F
:1004D000204080010204081020408000C726222608
:1004E00011241FBECFEFD1E2DEBFCDBF00E00CBFB5
:1004F00014E0A0E0B2E0E4E4F3E700E00BBF02C0E8
:1005000007900D92AE30B107D9F727E0AEE0B4E026
:1005100001C01D92A539B207E1F712E0CFE6D2E0A3
:1005200000E006C021970109802FFE010E941038CB
:10053000CE36D10780E00807A9F70E9479280C94ED
:1005400090390C940000E0910000F09101000084CB
:10055000F185E02D90E080E01995181619065CF4FD
:10056000E0910000F09101000284F385E02D90E01D
:1005700080E01995E8CF0895282F30E0F901E85878
:10058000FC4F9491F901EB56FB4F4491215B3B4F9B
:10059000F9012491222309F435C0992311F19150D6
:1005A0009231F8F4E92FF0E08827E652FD4F8F4FA3
:1005B0000C9410380B030F03EC0203030703F10242
:1005C000120318031C03220326032A0330033403F7
:1005D000F10238033E034203809180008F778093BD
:1005E0008000E22FF0E0EE0FFF1FEB5CFB4FA591C8
:1005F000B4918FB7F894EC91611148C040954E23A7
:100600004C938FBF0895809180008F7DE8CF8091BB
:100610008000877FE4CF84B58F7784BDE2CF84B537
:100620008F7DFBCF8091B0008F778093B000D9CFC2
:100630008091B0008F7DF9CF809190008F7780936B
:100640009000CFCF809190008F7DF9CF8091900066
:10065000877FF5CF8091A0008F778093A000C1CFD6
:100660008091A0008F7DF9CF8091A000877FF5CF8A
:10067000809120018F7780932001B3CF809120015A
:100680008F7DF9CF80912001877FF5CF4E2BB8CF9A
:10069000CF93DF9390E0FC01EB56FB4F2491815BFD
:1006A0009B4FFC0184918823D1F090E0880F991F23
:1006B000FC01E25AFC4FA591B491FC01EB5CFB4FAD
:1006C000C591D49161110EC09FB7F8948C91E22F1F
:1006D000E0958E238C932881E223E8839FBFDF91EE
:1006E000CF9108958FB7F894EC91E22BEC938FBFE4
:1006F000F6CF1F93CF93DF93182FEB0161E00E9499
:100700004803209739F460E0812FDF91CF911F914A
:100710000C94BC02CF3FD10511F461E0F5CFE12F7D
:10072000F0E0E858FC4FE491E150E23108F0B3C04A
:10073000F0E08827E156FC4F8F4F0C941038B1033E
:10074000B903BE03C803D2034B04DC03E403EC0388
:10075000F60300040A04190423044B042D0437048F
:10076000410484B5806884BDC7BDDF91CF911F91DE
:10077000089584B5806284BDC8BDF7CF80918000A4
:10078000806880938000D0938900C0938800EDCF6B
:1007900080918000806280938000D0938B00C09312
:1007A0008A00E3CF80918000886080938000D0939E
:1007B0008D00C0938C00D9CF8091B0008068809369
:1007C000B000C093B300D1CF8091B000806280931D
:1007D000B000C093B400C9CF80919000806880932E
:1007E0009000D0939900C0939800BFCF8091900063
:1007F000806280939000D0939B00C0939A00B5CF05
:1008000080919000886080939000D0939D00C09369
:100810009C00ABCF8091A00080688093A000809165
:10082000A0008F7B8093A000D093A900C093A80064
:100830009CCF8091A00080628093A000D093AB00F9
:10084000C093AA0092CF8091A00088608093A000FE
:10085000D093AD00C093AC0088CF80912001806818
:1008600080932001D0932901C09328017ECF8091ED
:100870002001806280932001D0932B01C0932A0134
:1008800074CF80912001886080932001D0932D0146
:10089000C0932C016ACFC038D1050CF03ECF33CFC6
:1008A0003FB7F8948091F2059091F305A091F4057B
:1008B000B091F50526B5A89B05C02F3F19F001960C
:1008C000A11DB11D3FBFBA2FA92F982F8827BC01AA
:1008D000CD01620F711D811D911D42E0660F771FD2
:1008E000881F991F4A95D1F708958F929F92AF92D2
:1008F000BF92CF92DF92EF92FF924B015C010E9478
:1009000050046B017C010E9450046C197D098E0912
:100910009F09683E734081059105A8F321E0821A82
:100920009108A108B10888EEC80E83E0D81EE11C2A
:10093000F11C81149104A104B10429F7FF90EF90F8
:10094000DF90CF90BF90AF909F908F9008952FB77A
:10095000F8946091EE057091EF058091F00590910B
:10096000F1052FBF08950895CF93DF93AC01E09177
:10097000DB05F091DC053097F1F09091E205809174
:10098000E1059817C0F090E0292F30E026173707CF
:1009900054F4D901AE5BBB4F240F351FE901288108
:1009A0002C939F5FF1CF1092E2056093E105CB019C
:1009B000DF91CF911994DF91CF9108950F931F93F9
:1009C000CF93DF93EC010E94A704688779878A8719
:1009D0009B87E881F9810484F585E02DCE01199586
:1009E00097FF15C00E94A704088519852A853B85B5
:1009F000601B710B820B930B0C811D812E813F813B
:100A0000601771078207930720F38FEF9FEFDF9145
:100A1000CF911F910F910895BF92CF92DF92EF92E5
:100A2000FF920F931F93CF93DF938C01C8010E9415
:100A3000DE04EC0197FD5DC0D801ED91FC910284CC
:100A4000F385E02D8D32910521F0C0970A9708F0CB
:100A50004AC0C12CD12C7601B12CC130D105D9F0BE
:100A6000CD32D10509F442C0CE01C0970A9798F45F
:100A7000AAE0B0E0A70196010E94D5356E01DD0F16
:100A8000EE08FF08C60ED71EE81EF91EB0E3CB1A0B
:100A9000D108E108F108D801ED91FC910284F385B9
:100AA000E02DC8011995C8010E94DE04EC01C09731
:100AB0000A9798F2C130D10581F2BB2041F0F09441
:100AC000E094D094C094C11CD11CE11CF11CC7015E
:100AD000B601DF91CF911F910F91FF90EF90DF90C2
:100AE000CF90BF900895C8011995A0CFBB24B394AF
:100AF000D2CFC12CD12C7601EACF0F931F93CF9385
:100B0000DF93EC010E94A704688779878A879B8717
:100B1000E881F9810284F385E02DCE01199597FFD4
:100B200015C00E94A704088519852A853B85601B8E
:100B3000710B820B930B0C811D812E813F816017FD
:100B400071078207930720F38FEF9FEFDF91CF911B
:100B50001F910F910895EF92FF920F931F93CF93E0
:100B6000DF938C017B01D0E0C0E0F701EC0FFD1FAB
:100B70006491662361F0D801ED91FC910190F081C0
:100B8000E02DC8011995892B11F02196EECFCE01E9
:100B9000DF91CF911F910F91FF90EF900895AF9249
:100BA000BF92CF92DF92EF92FF920F931F93CF935A
:100BB000DF936C017B018B01040F151FEB015E01BC
:100BC000AE18BF08C017D10759F06991D601ED9151
:100BD000FC910190F081E02DC6011995892B79F7E0
:100BE000C501DF91CF911F910F91FF90EF90DF90A2
:100BF000CF90BF90AF900895FC01538D448D252F69
:100C000030E0842F90E0821B930B541710F0CF96A6
:100C1000089501970895FC01918D828D981761F0D8
:100C2000A28DAE0FBF2FB11D5D968C91928D9F5FEF
:100C30009F73928F90E008958FEF9FEF0895FC01CE
:100C4000918D828D981731F0828DE80FF11D858D81
:100C500090E008958FEF9FEF0895FC01918D228D14
:100C6000892F90E0805C9F4F821B91098F73992799
:100C700008958DE496E00E942D0621E0892B09F469
:100C800020E0822F0895FC01A48DA80FB92FB11D7B
:100C9000A35ABF4F2C91848D90E001968F739927B2
:100CA000848FA689B7892C93A089B1898C91837090
:100CB00080648C93938D848D981306C00288F38989
:100CC000E02D80818F7D80830895EF92FF920F93B6
:100CD0001F93CF93DF93EC0181E0888F9B8D8C8DE8
:100CE00098131AC0E889F989808185FF15C09FB7DC
:100CF000F894EE89FF896083E889F989808183709F
:100D0000806480839FBF81E090E0DF91CF911F914D
:100D10000F91FF90EF900895F62E0B8D10E00F5F6E
:100D20001F4F0F731127E02E8C8D8E110CC00FB644
:100D300007FCFACFE889F989808185FFF5CFCE01DC
:100D40000E944306F1CFEB8DEC0FFD2FF11DE35A0E
:100D5000FF4FF0829FB7F8940B8FEA89FB8980815F
:100D60008062CFCFCF93DF93EC01888D8823B9F0D9
:100D7000AA89BB89E889F9898C9185FD03C08081A6
:100D800086FD0DC00FB607FCF7CF8C9185FFF2CF23
:100D9000808185FFEDCFCE010E944306E9CFDF9130
:100DA000CF91089580E090E0892B29F00E943906C8
:100DB00081110E94000080E090E0892B49F080E0E2
:100DC00090E0892B29F00E94000081110E94000010
:100DD00080E090E0892B49F080E090E0892B29F0B9
:100DE0000E94000081110E94000080E090E0892BA9
:100DF00049F080E090E0892B29F00E9400008111E9
:100E00000C9400000895AF92BF92DF92EF92FF9290
:100E10000F931F93CF93DF934091F7055091F805FF
:100E20006091F9057091FA05141615061606170655
:100E300034F49091F605981789F0992379F0182FDA
:100E4000E0910000F09101000084F185E02D90E038
:100E500080E01995892BA1F550E040E0CA01DF91AF
:100E6000CF911F910F91FF90EF90DF90BF90AF90C7
:100E70000895C1E0D0E090E080E00E947D0597FDFC
:100E8000EBCFFE01E354FD4F2081022E000C330B0B
:100E90002817390791F15F014DEB52E0209759F384
:100EA000BE012197F50122915F01022E000C330B48
:100EB0008217930741F02097F1F24F5F5F4FF0CF19
:100EC000D0E0C0E0D8CF2097A1F27A01FFEFEF1A6F
:100ED000FF0AADEBB2E030E020E0DD90F7010191D8
:100EE0007F01D01205C02F5F3F4F2C173D07A8F39D
:100EF000C217D30711F7EB01BECF2196C530D1053C
:100F000009F0B9CF90E080E00E940C056093F605EF
:100F1000E0910000F09101000284F385E02D90E063
:100F200080E0199590E080E00E940C056093F70541
:100F30007093F8058093F9059093FA05E09100000D
:100F4000F09101000284F385E02D90E080E0199596
:100F500090E080E00E940C05E0910000F09101001B
:100F60000284F385E02D90E080E0199590E080E028
:100F70000E940C05E0910000F09101000284F385CD
:100F8000E02D90E080E0199590E080E00E940C0553
:100F9000E0910000F09101000284F385E02D90E0E3
:100FA00080E0199590E080E00E940C05E09100003F
:100FB000F09101000284F385E02D90E080E0199526
:100FC000E0910000F09101000284F385E02D90E0B3
:100FD00080E0199590E080E00E940C05E09100000F
:100FE000F09101000284F385E02D90E080E01995F6
:100FF0008091F605181305C04091F7055091F8054A
:101000002DCF1123C9F328CF21E0FC0184858F3F28
:1010100009F420E0822F0895CF93DF93EC01E8815B
:10102000F9810084F185E02DCE011995892B41F0DD
:10103000E881F9810284F385E02DCE011995EFCF87
:10104000DF91CF9108958F929F92AF92BF92EF92CE
:10105000FF920F931F93CF93DF93EC017B018A01E3
:10106000E881F9810084F185E02D1995892B69F4D7
:101070008FEF9FEFDF91CF911F910F91FF90EF9036
:10108000BF90AF909F908F9008959C858091F605BA
:10109000981335C08091F7059091F805A091F90556
:1010A000B091FA05A80170E060E084179507A607E3
:1010B000B7070CF48C01E701E00EF11ECE15DF0539
:1010C000E1F00E94A7044B015C01E0910000F09167
:1010D00001000284F385E02D90E080E0199597FFF0
:1010E00011C00E94A704681979098A099B09683E02
:1010F00073408105910548F3BBCFC801BBCF80E0A9
:1011000090E0B8CF89938091F7059091F805A09170
:10111000F905B091FA050197A109B1098093F70586
:101120009093F805A093F905B093FA05C7CFFC0199
:1011300084858F3F21F00E94030797FF02C090E053
:1011400080E00895CF93DF931F92CDB7DEB7698318
:10115000DC01ED91FC910280F381E02D41E050E053
:10116000BE016F5F7F4F19950F90DF91CF9108956A
:1011700020912D0730912E072817390771F490918F
:10118000E7048091E604981741F0E091E704F0E06D
:10119000EA55FB4F808190E008958FEF9FEF08950F
:1011A0000895EF92FF920F931F93CF93DF93DC018B
:1011B0005C96ED90FC905D97E114F10479F481E088
:1011C00090E013969C938E93129790E080E0DF91CD
:1011D000CF911F910F91FF90EF9008955196ED914F
:1011E000FC91529750968C915097982F90950FB7ED
:1011F0005E962C915E97122F127021FD6095F894E7
:101200002081112319F1282B2083E7012197F1F781
:1012100028E0462F50E0308160FF1AC0382B308321
:10122000E7012197F1F7BA0175956795215089F784
:10123000112381F08081892380830FBF5C968D917B
:101240009C910197F1F781E090E0C1CF2923DCCF99
:101250003923E5CF9081892BEFCF20912D07309155
:101260002E072817390761F48091E6042091E704DE
:1012700090E0805C9F4F821B91098F73992708959E
:1012800090E080E0089520912D0730912E072817D7
:101290003907B9F49091E7048091E604981789F032
:1012A000E091E704F0E0EA55FB4F80812091E704EC
:1012B00030E02F5F3F4F2F7333272093E70490E0F8
:1012C00008958FEF9FEF0895EF92FF920F931F9372
:1012D000CF93DF93EC018B017A010E94A704688B06
:1012E000798B8A8B9B8B8C819D81DC01ED91FC91AC
:1012F0000280F381E02DA701B801DF91CF911F910A
:101300000F91FF90EF9019941F93CF93DF93EC010F
:10131000162F0E94A704688B798B8A8B9B8B8C81FC
:101320009D81DC01ED91FC910190F081E02D612F18
:10133000DF91CF911F911994089520918304260F76
:101340003327331F21323105ECF420912306FC01B1
:1013500090E080E0243069F082E00895A091830459
:101360002191AC014D595B4FA40FB52FB11D2C93AA
:101370000196861798F380918304680F6093830425
:1013800080E0089581E008951092230681E0809323
:1013900022061092FD0561E084E10E94BC0261E03A
:1013A00085E10E94BC02E9EBF0E080818E7F8083C2
:1013B00080818D7F808388E48093B80085E480936A
:1013C000BC000895CF93DF9391E09093620488234B
:1013D000B9F0C091B800D091BA008091BC008A7B6E
:1013E0008093BC0060E084E10E94BC0260E085E183
:1013F0000E94BC020E94C409D093BA00C093B800F6
:10140000DF91CF910895E091E2058091E105E81721
:1014100030F4F0E0EE5BFB4F808190E008958FEFB9
:101420009FEF08959091E2058091E1052FEF3FEF46
:10143000981748F4E92FF0E0EE5BFB4F208130E095
:101440009F5F9093E205C90108958091E105909115
:10145000E205891B990B0895CF92DF92EF92FF92DC
:101460000F931F93CF93DF937C01CB018A012091CF
:101470004C06222389F0EB016B01C40ED51ECC155E
:10148000DD0569F06991D701ED91FC910190F08142
:10149000E02DC7011995F3CF642F0E949D09C80163
:1014A000DF91CF911F910F91FF90EF90DF90CF9040
:1014B0000895CF93DF931F92CDB7DEB76983209154
:1014C0004C062223F9F020914906203258F021E001
:1014D00030E0FC013383228390E080E00F90DF91C5
:1014E000CF91089580914A06E82FF0E0E75DF94F2B
:1014F000998190838F5F80934A068093490681E0AB
:1015000090E0ECCF61E0CE0101960E949D09F7CFFB
:1015100090E080E00895CF92DF92EF92FF92CF9318
:10152000DF93EC01603282E07807CCF5653B710512
:1015300014F064EB70E0898128E830E0281B310961
:1015400087FD3395220F331F220F331F6901330F9D
:10155000EE08FF088A8128E532E0281B310987FD63
:101560003395220F331F220F331F032E000C440B21
:10157000550B2C193D094E095F09DB0177FF02C0AD
:10158000B0E0A0E00E94E03524EB30E040E050E025
:101590000E94B635C20ED31EE41EF51EB601E881C8
:1015A000E03370F5298188E890E0821B910927FDDE
:1015B0009395880F991F880F991F681779077CF0FA
:1015C0002A8188E592E0821B910927FD9395880F77
:1015D000991F880F991F681779070CF4CB010297A0
:1015E000880F991F4FB7F8942E2F30E0F901EE0FB6
:1015F000FF1FE20FF31FE851FB4F928381834FBF20
:10160000DF91CF91FF90EF90DF90CF900895AF9250
:10161000BF92CF92DF92EF92FF920F931F93CF93DF
:10162000DF936B017A01EC01C25CDB4F28813CE067
:10163000389F8001399F100D1124A0907805B12C9E
:1016400027FF1FC0FB011182108288818F5F888372
:1016500088819801280F311D87FD3A95F6012A15DA
:101660003B051CF488818C30C4F180819181049603
:1016700080349C4908F473C0F601808191810496FE
:1016800070C088819801280F311D87FD3A952A1571
:101690003B05DCF68881A801480F511D87FD5A954E
:1016A000FA01EE0FFF1FE40FF51FE851FB4F808199
:1016B00086FFCBCF8881F801E80FF11D87FDFA95F1
:1016C000CF01EE0FFF1FE80FF91FE851FB4F80819C
:1016D00060E08F730E94BC02B8CF80819181288125
:1016E000A801420F511D27FD5A959A01FA01EE0FEC
:1016F000FF1FE20FF31FE851FB4F21813281820F60
:10170000931FF7019183808388819801280F311DF1
:1017100087FD3A95F901EE0FFF1FE20FF31FE85125
:10172000FB4F808186FF22C08881080F111D87FD35
:101730001A95F801EE0FFF1FE00FF11FE851FB4F64
:10174000808161E08F73DF91CF911F910F91FF90A6
:10175000EF90DF90CF90BF90AF900C94BC0280E4EC
:101760009CE9F701918380838FEF8883DF91CF918C
:101770001F910F91FF90EF90DF90CF90BF90AF90AF
:1017800008954F925F926F927F928F929F92AF9245
:10179000BF92CF92DF92EF92FF920F931F93CF935E
:1017A000DF93EC01F62E8C010C5F1F4F8C81282FEC
:1017B00030E0F901EE0FFF1FE20FF31FE851FB4F7E
:1017C000908196FD54C0803308F051C0EF8061E0F5
:1017D0008E2D0E9448038C81282F30E0F901EE0FF6
:1017E000FF1FE20FF31FE851FB4F2E2D2F73908147
:1017F000907C922B90831D821E822CE0622F0E948F
:10180000F037829FB001112430E020E0AB01420F9D
:10181000531FFA01EE0FFF1FE40FF51FE851FB4FB6
:10182000908196FD17C02F5F3F4F2C30310571F727
:10183000813009F06AC01092800082E080938100BC
:101840001092850010928400B19A80916F0082609E
:1018500080936F00EC818E2F90E0FC01EE0FFF1F54
:10186000E80FF91FE851FB4F8081806480838A80F4
:10187000912C919481949108EB818E2F90E06F2DA3
:10188000FF0C770B861797070CF4BC0168157905D8
:101890000CF4B401362F698570E0332319F1462E1C
:1018A000512C712C612C632F032E000C770B880BAD
:1018B000990B13160CF055C02A8530E050E040E03B
:1018C00024193509460957090E9484352E2F30E026
:1018D00050E040E00E94B635CA01B901640D751DA3
:1018E000861D971DC801DF91CF911F910F91FF9029
:1018F000EF90DF90CF90BF90AF909F908F907F90B0
:101900006F905F904F900C948B0A823061F410922C
:10191000900080939100109295001092940088BBE3
:101920008093710097CF833069F41092A00082E019
:101930008093A1001092A5001092A40089BB80930F
:10194000720088CF811186CF1092200182E08093AF
:10195000210110922501109224018ABB809373000B
:1019600079CFC884D12CF12CE12C092C000CAA08C9
:10197000BB089B01AC01281939094A095B09C3015D
:10198000B2016C197D098E099F090E9484352227B6
:101990003327A901281939094A095B090E94B6357C
:1019A000CA01B9016C0D7D1D8E1D9F1D9BCF0F932C
:1019B0001F93CF93DF938C01EB01FC01878120976C
:1019C00089F460E00E94BC0260E0F80180850E941A
:1019D000BC0261E0F8018681DF91CF911F910F91E8
:1019E0000C94BC0277FF12C060E00E94BC0261E070
:1019F000F80180850E94BC02662777276C1B7D0B4F
:101A0000C130DF4F84F46FEF70E00DC061E00E94E1
:101A1000BC0260E0F80180850E94BC02BE01CF3F9D
:101A2000D10509F084F7F8018681DF91CF911F91EC
:101A30000F910C947903CF93DF93EC01CA012A81B3
:101A40003B8121303105C9F02230310521F1BC0143
:101A500061308FEF780714F461E07FEF6F3F71051D
:101A600019F014F06FEF70E0E881F9810190F081D6
:101A7000E02DCE01DF91CF911994AC81BD811097FB
:101A800031F3ED91FC9111970190F081E02DBA01B5
:101A9000CD011995DCCFAC81BD811097C1F2ED91DC
:101AA000FC9111970680F781E02DF1CFFC01828136
:101AB00008952F923F924F925F926F927F928F92F2
:101AC0009F92AF92BF92CF92DF92EF92FF920F93CD
:101AD0001F93CF93DF9300D01F92CDB7DEB78C0159
:101AE0007B016B011C821B82242F30E03A83298307
:101AF000D80112968C911297EB81FC818E171F06EC
:101B000009F008F489C029813A81E217F30708F047
:101B100083C01396ED91FC918B819C81E80FF91F96
:101B20008081863308F0865320917B00982F98702F
:101B3000277F922B90937B008770806480937C003A
:101B400080917A00806480937A0080917A0086FD8B
:101B5000FCCF8091780090917900D80117962D9153
:101B60003C9116012E183F0821153105B1F04B812B
:101B70005C81440F551F240F351FD901ED91FC9155
:101B80001995D6016D937D938D939D936D01EB8196
:101B9000FC813196FC83EB83ABCFBC0190E080E00D
:101BA0000E9465344B015C01F801858196810097A4
:101BB00051F1280E391ED1016D917C9190E080E0A9
:101BC0000E9465342B013C01AC019B01C501B401AD
:101BD0000E94F7354B015C01F1016281738190E055
:101BE00080E00E946534A30192010E94F7359B01B9
:101BF000AC01C501B4010E94643620E030E0A901C7
:101C00000E94F835BECF20E030E040E85AE3C5013D
:101C1000B4010E94C634F1CF8B810F900F900F90CA
:101C20000F90DF91CF911F910F91FF90EF90DF9078
:101C3000CF90BF90AF909F908F907F906F905F906C
:101C40004F903F902F90089580E008950895E0917F
:101C5000E305F091E40590E0880F991F2481358118
:101C6000820F931FDC018D919C91DC01ED91FC9121
:101C70000190F081E02D19940F931F93CF93DF9380
:101C8000EC010E94A7048B019C01088319838A83BD
:101C90003B831C821D821E821F82DF91CF911F9188
:101CA0000F9108951F93CF93DF93EC0181E090E0B3
:101CB000A0E0B0E08BA39CA3ADA3BEA382E090E024
:101CC000A0E0B0E08FA398A7A9A7BAA780E090E012
:101CD000A0E4B0E48BA79CA7ADA7BEA784E090E0EA
:101CE000A0E0B0E08FA798ABA9ABBAAB81E090E0E1
:101CF0009B838A8382E090E09D838C8311E0198727
:101D0000CE010B960E943C0ECE0143960E943C0EE3
:101D1000CE014B960E943C0E85E090E09F838E831F
:101D20001A87DF91CF911F910895DC011296ED91F2
:101D3000FC9180819181029709F50480F581E02D65
:101D4000DF012481358190E080E082179307D1F094
:101D5000149612964D915C911397452B89F4029637
:101D6000880F991F880F991FE80FF91F0190F081C4
:101D7000E02D81E026813781232B09F480E008954E
:101D80000196E3CFF0E0E0E0F4CFCF93DF93EC01F6
:101D900080E00E94270EB0E0A0E088839983AA83A8
:101DA000BB83DF91CF910895CF93DF93EC0181E066
:101DB0000E94270EB0E0A0E088839983AA83BB83AA
:101DC000DF91CF910895E091E305F091E405019052
:101DD000F081E02D2481022E000C330BFC013183B5
:101DE000208308950F931F93CF93DF938C01EB0112
:101DF00082E090E09983888386E090E00E942A3810
:101E00009D838C83F80126A137A1FC0131832083B7
:101E1000F80120A531A5FC0133832283CE01DF9197
:101E2000CF911F910F9108950F931F93CF93DF933D
:101E30008C01EB0182E090E09983888386E090E05A
:101E40000E942A389D838C83F801268D378DFC01F2
:101E500031832083F80120A131A1FC013383228347
:101E6000CE01DF91CF911F910F910895CF92DF9214
:101E7000EF92FF920F931F93CF93DF937C016B013F
:101E8000142F8FE090E00E942A38EC01892BD9F0C2
:101E9000D986C886FD82EC821E87CE9C8001CF9CAD
:101EA000100DDE9C100D1124C8010E942A38998360
:101EB0008883080F191F1B830A839B878A879D8746
:101EC0008C871F821E82CE01DF91CF911F910F91CF
:101ED000FF90EF90DF90CF9008950F931F93CF93D3
:101EE000DF938C01EB0182E090E09983888386E0A8
:101EF00090E00E942A389D838C83F80126813781E7
:101F0000FC0131832083F80120853185FC01338376
:101F10002283CE01DF91CF911F910F910895CF922F
:101F2000DF92EF92FF920F931F93CF93DF93CDB782
:101F3000DEB72C970FB6F894DEBF0FBECDBF9E0163
:101F40002F5F3F4F69012CE0F60111922A95E9F7C6
:101F50008130910509F468C084309105B1F49A8309
:101F6000898385EC9EE09C878B8783E090E09C834F
:101F70008B838DE69FE09E838D838CE29FE898871C
:101F80008F838EE69EEA9A87898780913C049091A0
:101F90003D0426E1289F8001299F100D11249801FE
:101FA000205F3B4F790189819A81F9019183808378
:101FB0008B859C85978786878B819C81009799F07C
:101FC0009383828386E090E00E942A38F70195830C
:101FD00084830E5E1B4FFC0113830283ED81FE811F
:101FE000BC01C601199520913C0430913D04C90102
:101FF000019690933D0480933C0446E1429FC001CA
:10200000439F900D1124805F9B4F2C960FB6F89440
:10201000DEBF0FBECDBFDF91CF911F910F91FF901B
:10202000EF90DF90CF9008959A83898384ED9EE0AE
:102030009C878B8783E090E09C838B838DE69FE079
:102040009E838D8384E99AE798878F8383E793E162
:102050009ACFAF92BF92CF92DF92EF92FF920F93FF
:102060001F93CF93DF937C018B0181E090E0FB0114
:10207000918380838EE090E00E942A38EC0182E018
:1020800090E09D838C836E01F6E0CF0ED11C40E082
:1020900062E070E085E090E00E94360F99878887C3
:1020A00083EC92E09F838E83E0910E04F0910F0405
:1020B0009EE0A92E94E0B92E309741F05F0182E0B6
:1020C000A80EB11C0280F381E02DF6CF84E090E0F1
:1020D0000E942A38FC01D182C08213821282F5014B
:1020E000918380836E01FAE0CF0ED11C40E062E064
:1020F00070E085E090E00E94360F9D878C878FEE20
:1021000092E09B878A87E0910E04F0910F048EE0A5
:10211000A82E84E0B82E309741F05F0182E0A80E2F
:10212000B11C0280F381E02DF6CF84E090E00E94A4
:102130002A38FC01D182C08213821282F501918378
:102140008083F7018689978999838883808D918D13
:102150009B838A83F801D583C483C801DF91CF9123
:102160001F910F91FF90EF90DF90CF90BF90AF90B5
:102170000895FC0101900020E9F731979F01281B89
:10218000390BE0918F07F0919007E21BF30B409120
:102190008B0750918C07E417F50730F4609189079D
:1021A00070918A07E60FF71F280F391F60918D077E
:1021B00070918E07DC018217930758F40196BC9149
:1021C000A081BA1308C03196E617F70799F7FA010C
:1021D000F1CF81E0089580E00895FB010190002097
:1021E000E9F73197AF01461B570BDC01ED91FC91EC
:1021F0000280F381E02D19948F929F92AF92BF924B
:10220000EF92FF920F931F93CF93DF93CDB7DEB77B
:10221000A1970FB6F894DEBF0FBECDBF7C01FA01C7
:10222000CB0119A2223008F42AE08E010F5D1F4F66
:10223000822E912CB12CA12CBF01A50194010E94EA
:102240009435F901CA016A300CF5605DD8016E93CE
:102250008D01232B242B252B79F790E080E010971C
:1022600021F0BD01C7010E94ED10A1960FB6F894B0
:10227000DEBF0FBECDBFDF91CF911F910F91FF90B9
:10228000EF90BF90AF909F908F900895695CDECFE4
:10229000CF92DF92EF92FF92CF93DF93AB01BC011D
:1022A00077FF1DC06A017C016DE28DE496E00E941B
:1022B0006506EC0144275527BA014C195D096E09E2
:1022C0007F092AE08DE496E00E94FC108C0F9D1F90
:1022D000DF91CF91FF90EF90DF90CF9008952AE0AB
:1022E0008DE496E0DF91CF91FF90EF90DF90CF905B
:1022F0000C94FC10CF93DF93BC01990F880B990BC2
:102300000E944811EC016CE273E08DE496E00E94BB
:10231000ED108C0F9D1FDF91CF9108958F929F92AA
:10232000AF92BF92CF92DF92EF92FF920F931F93E3
:10233000CF93DF937C01EB016C0182E0C80ED11CCE
:102340004701E5E08E0E911C10E000E0F60141919E
:102350006F0150E070E060E02AE0CE010E94FC10C6
:102360005C01E881F9810190F081E02D6EE2CE01FF
:1023700019958A0D9B1D080F191FC814D90431F730
:10238000F701458150E070E060E02AE0CE010E9454
:10239000FC10800F911FDF91CF911F910F91FF9043
:1023A000EF90DF90CF90BF90AF909F908F90089567
:1023B0000F931F93CF93DF938C01D0E0C0E06115A2
:1023C000710519F00E94ED10EC016CE273E0C80198
:1023D0000E94ED108C0F9D1FDF91CF911F910F91E7
:1023E00008950F931F93CF93DF93EC010E94AB05E9
:1023F0008C016CE273E0CE010E94ED10800F911F02
:10240000DF91CF911F910F9108950C94ED103F92A1
:102410004F925F926F927F928F929F92AF92BF92F4
:10242000CF92DF92EF92FF920F931F93CF93DF93A0
:102430006C012B01342E80918B0790918C07909327
:10244000900780938F070E94A7044B015C016624CC
:102450006A94762C0D2C000CEE08FF080E94A7044D
:10246000681979098A099B096C157D058E059F05F8
:1024700008F059C08FEF6816780609F054C0E09153
:102480000000F09101000084F185E02D90E080E0F3
:102490001995892B19F3E0910000F0910100028455
:1024A000F385E02D90E080E01995E0918F07F091A1
:1024B0009007808380918F07909190070196909369
:1024C000900780938F0720918D0730918E07821798
:1024D000930740F080918B0790918C079093900721
:1024E00080938F074114510441F0C2010E94B9103A
:1024F000882319F085E0682E712C332009F4AECFC3
:102500000DE112E0D0E0C0E0F801819191918F01DE
:102510000E94B910811105C02196C530D105A1F7DF
:102520009DCF3E019BCF0E94A704681979098A09B3
:102530009B096C157D058E059F0560F06AE173E0CF
:102540008DE496E00E9405126EE473E08DE496E05F
:102550000E94F111C301DF91CF911F910F91FF9064
:10256000EF90DF90CF90BF90AF909F908F907F9033
:102570006F905F904F903F900895AF92BF92CF922F
:10258000DF92EF92FF920F931F93CF93DF93B82EBA
:10259000EB01A42E89010E94A7046B017C01E0914C
:1025A0000000F09101000084F185E02D90E080E0D2
:1025B0001995892B09F47DC0E0910000F09101008C
:1025C000AA20F9F00484F585E02D90E080E01995CB
:1025D00088838091F7059091F805A091F905B09155
:1025E000FA05892B8A2B8B2B39F181E0DF91CF9172
:1025F0001F910F91FF90EF90DF90CF90BF90AF9021
:1026000008950284F385E02D90E080E01995888399
:102610008091F7059091F805A091F905B091FA0520
:102620000197A109B1098093F7059093F805A0934C
:10263000F905B093FA05CDCF65E070E080E090E059
:102640000E947504E0910000F09101000084F18582
:10265000E02D90E080E01995892B39F2E09100009F
:10266000F09101000484F585E02D90E080E019955B
:102670002B2D30E0205D3F4F8217930709F0B5CF37
:1026800040E065E273E084EF91E00E940712059755
:1026900061F06AE173E08DE496E00E94051266E065
:1026A00074E08DE496E00E94F11181E0F8018083EE
:1026B0009DCF0E94A7046C197D098E099F09603D7A
:1026C00077408105910508F46ACF6AE173E08DE4F3
:1026D00096E00E9405126DEF73E08DE496E00E9493
:1026E000AB056DE373E08DE496E00E940512609106
:1026F000F7057091F8058091F9059091FA050E940F
:1027000048116CE273E08DE496E00E94ED101092A7
:10271000F7051092F8051092F9051092FA0510923B
:10272000F605188280E062CF0F931F93CF93DF935B
:102730001F921F92CDB7DEB78C01DC01ED91FC91A9
:102740000084F185E02D1995892B59F11A82F80141
:1027500084859091F605891309C09E012E5F3F4F35
:1027600040E0BE016F5F7F4F0E94BD128A818823C7
:1027700079F0D8011C96EC911C97F0E0EE0FFF1F4A
:10278000E15FFD4F8FEF9FEF918380831C968C93C9
:10279000898190E00F900F90DF91CF911F910F9161
:1027A00008958FEF9FEFF6CF0F931F93CF93DF9393
:1027B0001F921F92CDB7DEB78C01DC01ED91FC9129
:1027C0000084F185E02D1995892B59F11A82F801C1
:1027D00084859091F605891309C09E012E5F3F4FB5
:1027E00041E0BE016F5F7F4F0E94BD128A81882346
:1027F00079F0D8011C96EC911C97F0E0EE0FFF1FCA
:10280000E15FFD4F8FEF9FEF918380831C968C9348
:10281000898190E00F900F90DF91CF911F910F91E0
:1028200008958FEF9FEFF6CFCF93DF93EC016FE228
:1028300073E08DE496E00E9405126A817B81072E89
:10284000000C880B990B0E9448116FE373E08DE434
:1028500096E00E9405128D819E810E947A118D81E1
:102860009E81029729F48A819B81DF91CF910895FF
:1028700090E080E0FACF0F931F93CF93DF93EC01AA
:102880008B859C85DC01ED91FC910190F081E02D20
:102890001995E881F98102811381CE010E941414F7
:1028A000BC01CE01F801DF91CF911F910F911994D6
:1028B000CF93DF93EC01E091E305F091E405808193
:1028C00091810E94141499838883DF91CF91089598
:1028D0000F931F93CF93DF938C01E091E305F09169
:1028E000E405C081D1816BE473E08DE496E00E9441
:1028F0000512C8010E947A111B830A83E881F981BD
:102900000280F381E02DB801CE0119958A819B8167
:10291000892B49F082E090E09E838D83DF91CF91F7
:102920001F910F91089590E080E0F6CF8F929F92D3
:10293000AF92BF92CF92DF92EF92FF920F931F93CD
:10294000CF93DF93D82EEB017A01DB010D900020AD
:10295000E9F7CD01861B970B02960E942A388C015D
:10296000BE010E947A39FE0101900020E9F7EC1BBC
:10297000FD0BE00FF11FD7018D919C919183808316
:1029800081E080934C06D0924B0610924A0610923A
:102990004906FE0101900020E9F7AF014C1B5D0BD9
:1029A0004E5F5F4FB8018EE097E00E942C0AD091F5
:1029B0004906D13208F094C0C0914B060E945004E1
:1029C0006B017C0180912306811165C082E08093B8
:1029D000230681E0809322068FEF809321061092D8
:1029E0002006D0931F06A9E2B6E0EFEFF5E080E005
:1029F000D8138BC01092FE058091FE05CC0FC82B1A
:102A0000C093FE058091FD05813009F082C01092CF
:102A1000FD050E9450046B017C018091FE058093AE
:102A2000BB008091250690912606A0912706B091C3
:102A30002806892B8A2B8B2B99F00E9450048090BA
:102A4000250690902606A0902706B09028066C19BF
:102A50007D098E099F0986169706A806B906E0F13A
:102A60008091BC0083FDD9CF85EC8093BC000E948F
:102A700050046B017C0180912306823009F44BC025
:102A8000809121068F3F61F180912106803241F1D2
:102A90008091210625C08091250690912606A0915F
:102AA0002706B0912806892B8A2B8B2B09F48ACF15
:102AB0000E9450048090250690902606A09027063C
:102AC000B09028066C197D098E099F098616970615
:102AD000A806B90608F076CF809124060E94E20984
:102AE00010924A061092490610924C06C801DF91D6
:102AF000CF911F910F91FF90EF90DF90CF90BF90FB
:102B0000AF909F908F900C94C6389D9191938F5F5A
:102B10006FCF85EEAACF8091250690912606A091D1
:102B20002706B0912806892B8A2B8B2B09F4A3CF7B
:102B30000E9450048090250690902606A0902706BB
:102B4000B09028066C197D098E099F098616970694
:102B5000A806B90608F08FCFBFCFAB01DC011296F3
:102B6000ED91FC9180819181019749F40480F58178
:102B7000E02D6BE573E0828193810C9496140895A7
:102B8000CF93DF93EC012E813F818C819D812817AB
:102B9000390708F5488559858C859D850E946139DE
:102BA0008C859D8528853985820F931F9D878C870D
:102BB0002E813F812F5F3F4F3F832E832A813B81B0
:102BC0008217930721F4888199819D878C8781E002
:102BD000DF91CF9108958E858823A9F04885598586
:102BE0008C859D850E946139488559852C853D8558
:102BF000240F351F3D872C878A859B85840F951F61
:102C00009B878A87E4CF80E0E3CFCF92DF92EF9279
:102C1000FF920F931F93CF93DF931F921F92CDB715
:102C2000DEB79A838983E091FB05F091FC0530972C
:102C300009F49AC09C013327215F3E4B892F90E015
:102C4000982F8827820F931F25E08227A8ECBAEBE4
:102C5000A81BB90B382F2227A227B32721EF3EEB61
:102C6000281B390B2A1B3B0BAD01452F55274295DD
:102C700046954770242735278A1B9B0B821B930B95
:102C8000A901452F552742954F7048275927A21B68
:102C9000B30BCD01841B950B2A1B3B0BDC0115E00C
:102CA000B695A7951A95E1F72A273B27481B590B9C
:102CB000421B530BD90103E0B695A7950A95E1F79E
:102CC0004A275B27821B930BDC01A41BB50BCA01AF
:102CD000982F8827990F990F8A279B27241B350B3C
:102CE000281B390B0480F581E02D8827990F881F58
:102CF000992782279327228133812150310982230A
:102D0000932346E0489F9001499F300D1124A081F4
:102D1000B181A20FB31F0D911C910115110521F175
:102D20007B01C284D384D194C194D1080C0D1D1DA4
:102D300001151105C9F0D80150968D919C915197BC
:102D4000029761F442E050E0BE016F5F7F4F1E9634
:102D50008D919C910E945439892B01F1F8010485D1
:102D600015850115110511F70F900F90DF91CF9187
:102D70001F910F91FF90EF90DF90CF900895D801B1
:102D8000ED91FC91B701828193810E94C015F801F9
:102D9000028113810115110591F7E6CFD801129632
:102DA0000D911C91F7CF2F923F924F925F926F92AD
:102DB0007F928F929F92AF92BF92CF92DF92EF92CB
:102DC000FF920F931F93CF93DF93EC01AE80BF80F0
:102DD000C884D984EA84FB840C851D850E94A704DD
:102DE0001B012C019501A601B701C8015101620127
:102DF000E12CF12C00E010E00E94213859F18E0105
:102E0000005F1F4FEE85FF85C8011995EC81FD819C
:102E100080819181029741F40480F581E02DB80111
:102E2000808191810E940516CE010696DF91CF9197
:102E30001F910F91FF90EF90DF90CF90BF90AF90D8
:102E40009F908F907F906F905F904F903F902F90CA
:102E50000C943C0EDF91CF911F910F91FF90EF905A
:102E6000DF90CF90BF90AF909F908F907F906F90AA
:102E70005F904F903F902F900895DC011296ED9156
:102E8000FC9180819181029739F40480F581E02DD5
:102E9000808191810E94051680E00895DC011296E0
:102EA000ED91FC9180819181029739F40480F58144
:102EB000E02D808191810C9405160895DC01129615
:102EC000ED91FC9180819181029739F40480F58124
:102ED000E02D808191810E94051680E008952F9257
:102EE0003F924F925F926F927F928F929F92AF929A
:102EF000BF92CF92DF92EF92FF920F931F93CF93E7
:102F0000DF9300D01F921F92CDB7DEB75C016B013B
:102F10007A836983E090FB05F090FC05E114F104ED
:102F200009F49AC0CB019927815F9E4B2D2D30E08B
:102F3000322F2227820F931F25E0822748EC5AEB7D
:102F4000481B590B382F22274227532721EF3EEBEE
:102F5000281B390B241B350BBA01672F7727629585
:102F60006695677026273727841B950B821B930B6A
:102F7000F901EF2FFF27E295EF70E827F927BA0153
:102F8000621B730BAB014E1B5F0B261B370BCA0179
:102F9000B5E096958795BA95E1F728273927E41B80
:102FA000F50BCF01821B930BF90113E0F695E79522
:102FB0001A95E1F7E827F927421B530B4E1B5F0BCD
:102FC000CF01982F8827990F990F842795272E1BBB
:102FD0003F0B281B390BD7011496ED91FC918827E4
:102FE000990F881F992782279327228133812150A7
:102FF00031098223932346E0489F9001499F300D79
:103000001124A081B181A20FB31F0D911C91011554
:10301000110511F182849384919481949108080D93
:10302000191D01151105C1F0F801808991890297D8
:1030300061F442E050E0BE016F5F7F4F8685978567
:103040000E945439892B09F43FC2D8011C960D9176
:103050001C910115110519F784E190E00E942A38AE
:103060008C01FC01D182C08284E090E00E942A3869
:10307000DC011196BC92AE9213961C921E9212978E
:10308000F80193838283118610861787068782E072
:1030900090E0918B808B98012C5F3F4F6901E11488
:1030A000F10409F085C11093FC050093FB0517821C
:1030B000168288E190E00E942A387C01D80115969A
:1030C0009C938E931497892B21F48FEF9FEF0E948E
:1030D000903982E1F7013696DF011D928A95E9F772
:1030E000F701D186C08680E290E09383828385E0F9
:1030F00090E09583848384E090E09387828780ECDE
:1031000090E00E942A38D7018D939C930097E9F2B2
:1031100020ECFC0111922A95E9F781EE9FE1A1E1F3
:10312000B0EAF701848B958BA68BB78BE091FB05FA
:10313000F091FC05E480F580D70116968D919C9165
:103140001797019617969C938E931697D80115960C
:10315000FC92EE92149711962C91119730E0322F39
:1031600022278C9190E0815F9E4B280F391FB5E09C
:103170002B2768EC7AEB621B730B922F882768274A
:10318000792781EF9EEB821B930B861B970BAB017C
:10319000452F552742954695477084279527261B2E
:1031A000370B281B390BAC01452F552742954F7023
:1031B00024273527681B790BAB01421B530B861B59
:1031C000970BBA01B5E076956795BA95E1F7862732
:1031D0009727241B350B281B390BBC01A3E07695E0
:1031E0006795AA95E1F726273727481B590B421BFD
:1031F000530BB901762F6627770F770F462757278E
:10320000821B930B841B950B4427550F441F552796
:1032100084279527D80153969C938E935297A48127
:10322000B58112962D913C9113972150310982233B
:10323000932346E0489F9001499F300D1124ED9162
:10324000FC91E20FF31F8281938101969383828325
:1032500020813181D8011D963C932E931C971B969B
:103260001C921E921A972115310529F0D901179643
:10327000DC92CE921697D182C082248135812F5F55
:103280003F4F6AE0629FA001639F500D1124841795
:10329000950708F475C0F70182899389019709F4AD
:1032A0006FC0828193812CE0289F5001299FB00C30
:1032B0001124C5010E942A386C01009709F405CF3A
:1032C000A50170E060E00E946A39D70116968D91E1
:1032D0009C9117971296ED91FC911397FC83EB83C9
:1032E0001F01220C331CF1E02F1A310814962D9186
:1032F0003C912F5F3F4F5C0102C0B694A7942A9582
:10330000E2F78221932121E030E0892B11F430E0B3
:1033100020E0A20EB31ED7011D96BC92AE921C9760
:103320001F961C921E921E974D905C90912C812CA2
:10333000712C612C2B813C812615370509F050C07A
:10334000C2010E94C638D8011496ED91FC91828189
:103350009381880F991F938382838481958101963D
:1033600095838483D182C082868197819695879543
:10337000268537858217930708F484C0118A108A3E
:103380000F900F900F900F900F90DF91CF911F91A2
:103390000F91FF90EF90DF90CF90BF90AF909F90F4
:1033A0008F907F906F905F904F903F902F900895F7
:1033B000F701A481B5811896ED91FC9119971583B9
:1033C00004831A968D919C911B979F01281B390BA2
:1033D000F801378326831996DC92CE921897A6CEF1
:1033E000F201E80DF91D0190F081E02D309739F4DC
:1033F000BFEF6B1A7B0AE6E08E0E911C9BCF4085D7
:1034000021852D83868597858221932156E0589FBB
:103410009001599F300D11242C0D3D1DD90112969C
:103420008D919C911397019613969C938E9312976E
:10343000A816B90698F4D7011E966D917C911F9736
:103440006F5F7F4F1F967C936E931E97B5010E940E
:10345000FC37D90115967C936E93149717821682C8
:10346000D9018D919C9191878087009729F0DC018B
:103470001796FC93EE931697D901ED93FC93E42FE6
:10348000FD81B4CF808991890196918B808B0297C1
:1034900008F476CF81E090E0938B828B71CF8F011F
:1034A0000E5F1F4F0280F381E02D3097C1F784E05B
:1034B00090E00E942A38FC01B182A082138212821D
:1034C000D8018D939C935CCF87010E5F1F4FD7016E
:1034D0001296ED91FC91E9CFEF92FF920F931F931B
:1034E000CF93DF937C018B0182E090E0FB0191831D
:1034F00080838AE090E00E942A38EC01F8019583ED
:103500008483F7018681978199838883E084F1849D
:10351000FB82EA8281E090E09D838C8341E064E05D
:1035200070E00E94360F998788871F821E82B7013C
:10353000CE0106960E946F17C801DF91CF911F91AF
:103540000F91FF90EF900895EF92FF920F931F93CA
:10355000CF93DF937C018B0182E090E0FB019183AC
:1035600080838AE090E00E942A38EC01F80195837C
:103570008483F7018685978599838883E088F1881D
:10358000FB82EA8281E090E09D838C8341E062E0EF
:1035900070E00E94360F998788871F821E82B701CC
:1035A000CE0106960E946F17C801DF91CF911F913F
:1035B0000F91FF90EF900895EF92FF920F931F935A
:1035C000CF93DF937C018B0182E090E0FB0191833C
:1035D00080838AE090E00E942A38EC01F80195830C
:1035E0008483F7018681978199838883E084F184BD
:1035F000FB82EA8281E090E09D838C8341E062E07F
:1036000070E00E94360F998788871F821E82B7015B
:10361000CE0106960E946F17C801DF91CF911F91CE
:103620000F91FF90EF900895EF92FF920F931F93E9
:10363000CF93DF937C018B0182E090E0FB019183CB
:1036400080838AE090E00E942A38EC01F80195839B
:103650008483F7018685978599838883E088F1883C
:10366000FB82EA8281E090E09D838C8341E064E00C
:1036700070E00E94360F998788871F821E82B701EB
:10368000CE0106960E946F17C801DF91CF911F915E
:103690000F91FF90EF9008952F923F924F925F927B
:1036A0006F927F928F929F92AF92BF92CF92DF9252
:1036B000EF92FF920F931F93CF93DF9300D0CDB77C
:1036C000DEB75C012DB73EB73B832A83FC015580F2
:1036D000852D90E07C01F1E0EF1AF108880F991F29
:1036E000880F991F281B390B0FB6F8943EBF0FBEE9
:1036F0002DBF0DB71EB70F5F1F4F3B01F501F781BF
:10370000F983D12CC12C4701C51478F16801712CC3
:1037100088248A9499249A94571409F448C02FEF66
:1037200082120DC026E636E646E65FE3F6016081CA
:103730007181828193810E944A3787FF872CFFEF36
:103740009F120EC02DEC3CEC4CEC5DE3F601608169
:103750007181828193810E944A3718160CF4972C4C
:103760007394F4E0CF0ED11CD7CFF30121913191A6
:10377000419151913F01F981C4018C199D09F111C9
:10378000C601880F991F880F991F1801280E391E2E
:1037900060E070E080E89FE30E94F735F10160830C
:1037A000718382839383FFEFCF1ADF0AADCF682D39
:1037B00070E0C92CD12C36012FEF621A720A6615FF
:1037C0007705A1F4072E000C880B990B0E94673433
:1037D000CC0CDD1CCC0CDD1C0C0D1D1DF80120815A
:1037E0003181428153810E94F73511C0FFEF9F164E
:1037F00009F48FC08F1609F463C0882009F485C0CE
:103800008910E0CF70E090E080E00E9465342B01E9
:103810003C01B701FF0C880B990B0E94673420E034
:1038200030E040E05FE30E94C6349B01AC01C3017D
:10383000B2010E94F7356B017C01F981F11104C0DE
:10384000F7FAF094F7F8F094F501668170E090E0F3
:1038500080E00E946734A70196010E94C6346B0184
:103860007C0120E030E0A9010E944A3720E030E0EE
:1038700040E05FE387FD54C0C701B6010E94F83500
:103880000E94D636862F2A813B810FB6F8943EBF20
:103890000FBE2DBF0F900F900F90DF91CF911F9112
:1038A0000F91FF90EF90DF90CF90BF90AF909F90DF
:1038B0008F907F906F905F904F903F902F900895E2
:1038C000CE14DF04FCF4CC0CDD1CCC0CDD1CF801A8
:1038D000EC0DFD1D208031804280538020E030E0DF
:1038E000A90164817581868197810E944A371816E3
:1038F0004CF4B301770C880B990B0E946734A2013A
:10390000910171CF692D91107DCF412C512C320145
:1039100080CF412C512C80EC682E8FE7782E79CF08
:10392000C701B6010E94F735ABCF4F925F926F92FD
:103930007F928F929F92AF92BF92CF92DF92EF923F
:10394000FF920F931F93CF93DF93CDB7DEB77C0128
:103950006B01142F8DB69EB6DC0115968C91EDB7D8
:10396000FEB724E0829FE019F10911240FB6F89404
:10397000FEBF0FBEEDBF8DB79EB701965C0100E0A4
:10398000412C512C3201D70114968C9114970817B1
:1039900018F5802F90E0880F991F1296ED91FC91F9
:1039A0001397E80FF91F8081918115964C91441966
:1039B000B201660F771F660F771F6A0D7B1DDC0152
:1039C000ED91FC910190F081E02D1995480E511C6C
:1039D000611C711C0F5FD7CFB501C7010E944C1B42
:1039E000803809F1112341F0F601808311821230F1
:1039F000E0F08283138212E0812F0FB6F8949EBE0E
:103A00000FBE8DBEDF91CF911F910F91FF90EF9070
:103A1000DF90CF90BF90AF909F908F907F906F90EE
:103A20005F904F90089510E0E7CF11E0E5CF4F92FF
:103A30005F926F927F92AF92BF92CF92DF92FF928E
:103A40000F931F93CF93DF93CDB7DEB78C01ADB645
:103A5000BEB6DC0115968C91EDB7FEB724E0829FCF
:103A6000E019F10911240FB6F894FEBF0FBEEDBFA7
:103A70008DB79EB701966C01F12C412C512C32016F
:103A8000D80114968C911497F81618F58F2D90E0A4
:103A9000880F991F1296ED91FC911397E80FF91F6B
:103AA0008081918115964C914419B201660F771F60
:103AB000660F771F6C0D7D1DDC01ED91FC9101906F
:103AC000F081E02D1995480E511C611C711CF39476
:103AD000D7CFB601C8010E944C1B0FB6F894BEBEEA
:103AE0000FBEADBEDF91CF911F910F91FF90DF9080
:103AF000CF90BF90AF907F906F905F904F90089560
:103B00008F929F92AF92BF92CF92DF92EF92FF92ED
:103B10000F931F93CF93DF93CDB7DEB77C01ADB684
:103B2000BEB68DB79EB78E199F090FB6F8949EBF8B
:103B30000FBE8DBF0DB71EB70F5F1F4F6801480145
:103B40008E0C9F1CC814D90451F08EE097E00E949F
:103B50007D0597FD04C0F60181936F01F3CFC70186
:103B60000E942A387C01B8010E947A39C0900E0464
:103B7000D0900F04C114D10481F0F60180809180AF
:103B8000B701F401808191810E947139892BD1F4B0
:103B9000F401828193810097C9F4C7010E94C6385D
:103BA0000FB6F894BEBE0FBEADBEDF91CF911F9190
:103BB0000F91FF90EF90DF90CF90BF90AF909F90CC
:103BC0008F900895F601C280D380D4CFF701019081
:103BD0000020E9F7BF016E197F09600F711F0E9475
:103BE000C015DBCFAF92BF92CF92DF92EF92FF92E0
:103BF0000F931F93CF93DF93DC011296ED91FC910D
:103C000080819181019709F04CC08B01E480F5809F
:103C10006701F701A480B580D0E0C0E0CA15DB05DC
:103C2000E9F163EC72E0D60116968D919C910E94A9
:103C30007139B4E0CB0ED11C892B71F52296CC0FD3
:103C4000DD1FCC0FDD1FCE0DDF1D0990D881C02DEB
:103C50008E819F81892B29F16A857B8548855985CD
:103C6000C8010E9461398A859B8528853985820F24
:103C7000931F9B878A872E813F81215031093F8383
:103C80002E832A813B818217930721F488819981B1
:103C90009B878A8781E006C02196C0CFD0E0C0E034
:103CA000D7CF80E0DF91CF911F910F91FF90EF90E0
:103CB000DF90CF90BF90AF900895CF92DF92EF92B8
:103CC000FF920F931F93CF93DF93DC011296ED9138
:103CD000FC9180819181019731F5048115817801F2
:103CE000F801C480D580D0E0C0E0CC15DD0539F105
:103CF00063EC72E0D70116968D919C910E94713908
:103D0000B4E0EB0EF11C892BC1F42296CC0FDD1F21
:103D1000CC0FDD1FC00FD11FE881F98181E0268122
:103D20003781232B09F480E0DF91CF911F910F9110
:103D3000FF90EF90DF90CF9008952196D6CFF0E0DE
:103D4000E0E0ECCF0E944F39CF93DF93CDB7DEB7E1
:103D5000C85CD1090FB6F894DEBF0FBECDBF9E017F
:103D60002E523F4FC253DF4F48815981CE5CD04025
:103D700068EC70E0CE0101960E9491310E94A3028E
:103D8000BE016F5F7F4F90E080E00E94D81141E05C
:103D900070E060E0C053DF4F88819981C05DD04002
:103DA0000E940712C853DF4F0FB6F894DEBF0FBE54
:103DB000CDBFDF91CF910895EF92FF920F931F93A4
:103DC000CF93DF93EC01162F072FF42EE52E6AE137
:103DD00073E08DE496E00E9405126FEE73E08DE4CF
:103DE00096E00E94AB056DE373E08DE496E00E94DF
:103DF0000512612F702F8DE496E00E94D811EFE03C
:103E0000F2E083E090E0268137812F3F3F4F31F091
:103E1000019732978F3F9807B1F78FEF8C878F3FCD
:103E200069F1EF92FF920F931F931F928F9383E19B
:103E30008F9388E88F9382ED93E09F938F930E94F6
:103E4000A41E2DB73EB7265F3F4F0FB6F8943EBF76
:103E50000FBE2DBF892BF1F48C8590E0FC01EE0F95
:103E6000FF1FE15FFD4F9183808381E090E0DF9150
:103E7000CF911F910F91FF90EF9008956AE173E049
:103E80008DE496E00E9405126EEB73E08DE496E0FF
:103E90000E94F11190E080E0EACF0C94DC1ECF93F9
:103EA000DF93FC0124852F3F09F440C0EC016AE157
:103EB00073E08DE496E00E94051264E073E08DE407
:103EC00096E00E94AB056DE373E08DE496E00E94FE
:103ED00005124C8550E070E060E02AE08DE496E049
:103EE0000E94FC106CE273E08DE496E00E94ED10FD
:103EF0008C851F928F938FE08F9380EA8F9385EF4D
:103F000092E09F938F930E94A41EEC85F0E0EE0F49
:103F1000FF1FE15FFD4F8FEF9FEF918380838C87C1
:103F20000F900F900F900F900F900F90DF91CF9107
:103F30000895AF92BF92CF92DF92EF92FF920F93CC
:103F40001F93CF93DF93CDB7DEB764970FB6F89486
:103F5000DEBF0FBECDBF7C015B018A01DC011C9678
:103F60008C91843018F441155105C9F481E090E03A
:103F7000F7019383828310E000E0C80164960FB6D6
:103F8000F894DEBF0FBECDBFDF91CF911F910F918F
:103F9000FF90EF90DF90CF90BF90AF9008951F9368
:103FA0004F931F928F938AEC92E09F938F939E0181
:103FB0002F5F3F4F69013F932F930E946131B601FC
:103FC00090E080E00E94D81140E06AE873E088EE5B
:103FD00093E00E9407120FB6F894DEBF0FBECDBF6C
:103FE000059709F443C06AE173E08DE496E00E940E
:103FF00005126FEA72E08DE496E00E94F11181E013
:1040000090E0F701938382836AE173E08DE496E0A8
:104010000E9405126BED72E08DE496E00E94AB0504
:104020006DE373E08DE496E00E940512D7011C96C3
:104030004C9150E070E060E02AE08DE496E00E9450
:10404000FC106CE273E08DE496E00E94ED1060EAF3
:104050007FE080E090E00E947504D701ED91FC9133
:104060000488F589E02DC701199585CFE0910000FE
:10407000F09101000280F381E02DA801B50190E0EC
:1040800080E0199541E070E060E080ED97E00E94EB
:104090000712039709F471CF6AE173E08DE496E0AB
:1040A0000E94051264E972E0A6CFCF92DF92EF92F0
:1040B000FF920F931F93CF93DF93CDB7DEB7609737
:1040C0000FB6F894DEBF0FBECDBF7C01FB016A01C5
:1040D00085811F928F9384811F928F9383811F927A
:1040E0008F9382811F928F9388E892E09F938F93A2
:1040F0008E010F5F1F4F1F930F930E946131A60126
:10410000B801C7010E94DC1E0FB6F894DEBF0FBED7
:10411000CDBF60960FB6F894DEBF0FBECDBFDF9166
:10412000CF911F910F91FF90EF90DF90CF90089566
:10413000EF92FF920F931F93CF93DF93CDB7DEB72C
:104140006E970FB6F894DEBF0FBECDBFFC0184851D
:104150008F3F09F483C08F010E940307892B09F068
:1041600060C0D8011C968C911F928F938FE393E0CF
:104170009F938F93FE0131967F01FF93EF930E94EF
:1041800061311D8A0E94A30262E373E090E080E047
:104190000E94F11141E0B70188EE93E00E940712FE
:1041A0000F900F900F900F900F900F90853091050A
:1041B00009F066C080918B0790918C0790939007CF
:1041C00080938F074091890750918A074F5F5F4F17
:1041D00070E060E00E946A3941E061EC72E084EFD7
:1041E00091E00E9407120597F1F460918B0770919E
:1041F0008C0740918F0750919007461B570B4150F9
:1042000051094A30510510F049E050E0CE01459681
:104210000E94813941E070E060E080ED97E00E940B
:10422000071294E01CC06AE173E08DE496E00E94FE
:10423000051263E173E08DE496E00E94F111D8016C
:104240001C96EC911C97F0E0EE0FFF1FE15FFD4F15
:104250008FEF9FEF918380831C968C9390E081E099
:10426000943009F080E06E960FB6F894DEBF0FBE72
:10427000CDBFDF91CF911F910F91FF90EF900895E7
:104280000597E8F26AE173E08DE496E00E9405127A
:1042900065E273E0D0CF85ED8093BC008091250668
:1042A00090912606A0912706B09128060796A11D99
:1042B000B11D23E0B695A795979587952A95D1F7D7
:1042C0002091BC0024FD03C0109223060895409164
:1042D0002506509126066091270670912806452BE9
:1042E000462B472B69F30097A105B10541F02AE25F
:1042F0002A95F1F700C00197A109B109E1CF80919A
:1043000024060C94E2093F924F925F926F927F9243
:104310008F929F92AF92BF92CF92DF92EF92FF92D5
:104320000F931F93CF93DF9300D000D0CDB7DEB7AC
:104330009E838D83FC013480078110856B01770F8C
:10434000EE08FF08311024C0B701A601C8010E9481
:104350001B0DB701A601ED81FE8181859285269610
:104360000FB6F894DEBF0FBECDBFDF91CF911F9186
:104370000F91FF90EF90DF90CF90BF90AF909F9004
:104380008F907F906F905F904F903F900C941B0D9B
:10439000632D032C000C770B77FF03C0719561959B
:1043A0007109072E000C880B990B0E9467349B0142
:1043B000AC0160E070E084EB92E40E94F7352BEDF5
:1043C0003FE049E450E40E94C63420E030E044E39A
:1043D00053E40E9464360E944F374B015C01ED812B
:1043E000FE81668570E090E080E00E946734A50160
:1043F00094010E94C6344B015C01ED81FE817584FD
:10440000672D669570E090E080E00E946734A5011A
:1044100094010E94F83569837A838B839C83672D8E
:1044200070E090E080E00E946734A50194010E9452
:10443000F83529813A814B815C810E9464362B01D9
:104440003C0129813A814B815C81C501B4010E9404
:1044500064364B015C01C701B6010E9467346B01F1
:104460007C01AC019B011314B4F4C301B2010E949E
:10447000C6340E94D636AB01BC01C8010E941B0D98
:10448000A7019601C501B4010E94C6340E94D63628
:10449000AB01BC0160CFC501B4010E94C6340E94CB
:1044A000D636AB01BC01C8010E941B0DA7019601C5
:1044B000C301B201E9CF0F931F93CF93DF93EC01B8
:1044C0008A819B8161E0891358C00E94480360E0A3
:1044D0008B810E94480360E08A810E94BC028FE0C9
:1044E00090E00197F1F761E08A810E94BC0283E2CB
:1044F00090E00197F1F760E08A810E94BC028B8115
:1045000090E0FC01EB56FB4F6491FC01E15BFB4F3B
:10451000E491F0E0EE0FFF1FE55EFB4F8591949173
:104520000C811D8130E020E0462F0E94DD256115C1
:1045300071058105910509F43BC09B01AC012F5F1A
:104540003F4F4F4F5F4F5F702115310541055105BA
:1045500079F1A4E5B1E00E94D53568547D40810928
:10456000910920ED37E040E050E00E949435C90108
:10457000DF91CF911F910F9108950E94480360E051
:104580008A810E94BC028FE090E00197F1F761E020
:104590008A810E94BC0283E290E00197F1F760E01B
:1045A0008A810E94BC0260E08B810E944803A7CFF1
:1045B0008FEF9FEFDDCF1F920F920FB60F92112456
:1045C0002F933F938F939F93AF93BF938091EE056B
:1045D0009091EF05A091F005B091F1053091ED05B6
:1045E00023E0230F2D3758F50196A11DB11D20930F
:1045F000ED058093EE059093EF05A093F005B09341
:10460000F1058091F2059091F305A091F405B09128
:10461000F5050196A11DB11D8093F2059093F30558
:10462000A093F405B093F505BF91AF919F918F9141
:104630003F912F910F900FBE0F901F90189526E875
:10464000230F0296A11DB11DD2CF1F920F920FB65C
:104650000F9211240BB60F922F933F934F935F93BA
:104660006F937F938F939F93AF93BF93EF93FF933A
:104670008DE496E00E944306FF91EF91BF91AF91C8
:104680009F918F917F916F915F914F913F912F916A
:104690000F900BBE0F900FBE0F901F9018951F929A
:1046A0000F920FB60F9211240BB60F922F938F9388
:1046B0009F93EF93FF93E0915D06F0915E068081FA
:1046C000E0916306F091640682FD1DC090818091A7
:1046D00066068F5F8F7320916706821741F0E09125
:1046E0006606F0E0E35BF94F958F80936606FF91D5
:1046F000EF919F918F912F910F900BBE0F900FBE56
:104700000F901F9018958081F2CF1F920F920FB6D5
:104710000F9211240BB60F922F933F934F935F93F9
:104720006F937F938F939F93AF93BF93EF93FF9379
:10473000E0912D07F0912E07309749F0A685B785B7
:104740008585968D91FF16C09C918923B1F4FF91C8
:10475000EF91BF91AF919F918F917F916F915F91F9
:104760004F913F912F910F900BBE0F900FBE0F9066
:104770001F9018959C91892351F7A389B4899C9126
:104780008589809589238C93868997890197F1F78C
:10479000608D718DA685B785558538E020E0CB0109
:1047A0000197F1F7822F90E095958795282F4C91EE
:1047B000452309F02068315091F7868D81FD2095C1
:1047C0008091E60490E001968F7399273091E70479
:1047D000381799F0A091E604B0E0AA55BB4F2C938E
:1047E0008093E604828D938D0197F1F7A389B489B4
:1047F0008C919589892B8C93AACF868D8160868F29
:10480000F1CF1F920F920FB60F9211240BB60F9299
:104810002F933F934F935F936F937F938F939F93C8
:10482000AF93BF93EF93FF938091B900887F803659
:1048300009F44DC008F040C0883209F4A9C028F539
:10484000803109F49DC0C8F4882309F4FBC0883086
:1048500009F496C0FF91EF91BF91AF919F918F9115
:104860007F916F915F914F913F912F910F900BBE70
:104870000F900FBE0F901F901895883109F488C0D3
:10488000803241F78093210614C0803409F49DC022
:1048900040F48033B9F38833E9F68093210685EC40
:1048A000B0C0803509F485C0883509F496C08834D5
:1048B00089F60E944B21CECF883909F48CC038F597
:1048C000883729F050F4883611F0803719F683E0E4
:1048D000809323061092A50457C0883809F47BC042
:1048E000803919F0803809F0B5CF8091A504803265
:1048F00008F071C0E091A50481E08E0F8093A504BB
:104900008091BB00F0E0EB57FB4F80833DC0803BC4
:1049100039F0E0F4803A09F479C0883A09F09ACF86
:1049200084E0809323061092840410928304E09123
:10493000DF05F091E00519958091830481110FC086
:1049400081E0809383041092630409C0803C09F4E1
:10495000A6CF883C09F4A3CF883B09F07BCFE09138
:10496000840481E08E0F80938404F0E0ED59FB4FC6
:1049700080818093BB00909184048091830429C03E
:104980008091FE058093BB0085EC8093BC0062CFD4
:104990009091200680911F06981758F5E091200607
:1049A00081E08E0F80932006F0E0E150FA4F808185
:1049B000E9CFE091200681E08E0F80932006809160
:1049C000BB00F0E0E150FA4F808390912006809187
:1049D0001F069817C8F285E8D8CFE091200681E03D
:1049E0008E0F809320068091BB00F0E0E150FA4FDB
:1049F00080838091220681115CCF81E08093FD0548
:104A000084EA8093BC001092230624CF85EC809327
:104A1000BC00109223068091A504803230F4E0910E
:104A2000A504F0E0EB57FB4F10826091A50470E005
:104A3000E091DD05F091DE0585E894E0199510928E
:104A4000A50408CF1092210634CF1F920F920FB603
:104A50000F9211240BB60F922F933F934F935F93B6
:104A60006F937F938F939F93AF93BF93EF93FF9336
:104A700048E251E064E271E090E080E00E94070BC0
:104A8000FF91EF91BF91AF919F918F917F916F9126
:104A90005F914F913F912F910F900BBE0F900FBEE2
:104AA0000F901F9018951F920F920FB60F9211241E
:104AB0000BB60F922F933F934F935F936F937F9318
:104AC0008F939F93AF93BF93EF93FF9348EA50E088
:104AD00064EA70E083E090E00E94070BFF91EF91A1
:104AE000BF91AF919F918F917F916F915F914F9106
:104AF0003F912F910F900BBE0F900FBE0F901F9004
:104B000018951F920F920FB60F9211240BB60F92A9
:104B10002F933F934F935F936F937F938F939F93C5
:104B2000AF93BF93EF93FF9348E950E064E970E0DF
:104B300082E090E00E94070BFF91EF91BF91AF914F
:104B40009F918F917F916F915F914F913F912F91A5
:104B50000F900BBE0F900FBE0F901F9018951F92D5
:104B60000F920FB60F9211240BB60F922F933F9313
:104B70004F935F936F937F938F939F93AF93BF9365
:104B8000EF93FF9348E850E064E870E081E090E044
:104B90000E94070BFF91EF91BF91AF919F918F9171
:104BA0007F916F915F914F913F912F910F900BBE2D
:104BB0000F900FBE0F901F901895CF92DF92EF923B
:104BC000FF920F931F93E82FF92F05C00150110991
:104BD0002109310961F1908196239417B9F305C039
:104BE000015011092109310911F190819623941383
:104BF000F7CFC12CD12CE12CF12C0AC08FEFC81AB1
:104C0000D80AE80AF80A0C151D052E053F0579F0AB
:104C100080818623841791F36C2D7D2D8E2D9F2D01
:104C20001F910F91FF90EF90DF90CF90089560E07B
:104C300070E080E090E01F910F91FF90EF90DF9087
:104C4000CF900895CF938FEA92E090935907809385
:104C5000580780912D0790912E078855974071F441
:104C6000E0916B07F0916C07908180916D078095C2
:104C70008923808310922E0710922D07809135078B
:104C8000909136070E94C6388091770790917807F7
:104C9000009711F00E94C6388091790790917A07A9
:104CA000009711F00E94C63880917E0790917F078F
:104CB000009711F00E94C63880918607909187076F
:104CC000009711F00E94C63880917B0790917C0775
:104CD000892BD1F0C0E080917B0790917C072091D7
:104CE0007D07C21778F42C2F30E0220F331F820F7C
:104CF000931FFC0180819181009711F00E94C638BA
:104D0000CF5FE9CF0E94C6388091800790918107DC
:104D1000892BD1F0C0E0809180079091810720918C
:104D20008207C21778F42C2F30E0220F331F820F36
:104D3000931FFC0180819181009711F00E94C63879
:104D4000CF5FE9CF0E94C638809183079091840796
:104D5000892BD9F0C0E0809183079091840720913E
:104D60008507C21778F42C2F30E0220F331F820FF3
:104D7000931FFC0180819181009711F00E94C63839
:104D8000CF5FE9CFCF910C94C638CF910895CF92E1
:104D9000DF92EF92FF92CF93DF9310925006109222
:104DA0004F0698EEC92E93E0D92EE12CF12CC0923B
:104DB0005106D0925206E0925306F09254068BE5CB
:104DC00092E090934E0680934D0685EC90E0909390
:104DD0005A068093590684EC90E090935C06809389
:104DE0005B0680EC90E090935E0680935D0681EC1C
:104DF00090E09093600680935F0682EC90E0909341
:104E000062068093610686EC90E09093640680933E
:104E1000630610926606109267061092680610925A
:104E20006906C9EAD2E0D093EB06C093EA06109275
:104E3000EC061092ED061092EE061092EF0680E25C
:104E400090E090938A078093890781E290E00E9426
:104E50002A3890938C0780938B079C01205E3F4FEC
:104E600030938E0720938D079093900780938F0740
:104E700021E2FC0111922A95E9F7D093F106C09343
:104E8000F0061092F2061092F3061092F4061092B9
:104E9000F506D093F706C093F6061092F806109226
:104EA000F9061092FA061092FB06D093FD06C09305
:104EB000FC061092FE061092FF0610920007109258
:104EC0000107D0930307C0930207109204071092C2
:104ED00005071092060710920707D0930907C093A1
:104EE000080710920A0710920B0710920C071092F5
:104EF0000D071092110710921007C0921207D0925E
:104F00001307E0921407F09215078DE692E0909354
:104F10000F0780930E071092780710927707109270
:104F20007A071092790710927F0710927E071092ED
:104F300087071092860710927C0710927B071092C9
:104F400081071092800710928407109283071092B5
:104F50008807D0932807C09327071092290710923B
:104F60002A0710922B0710922C0710921D071092FF
:104F70001C07C0921E07D0921F07E0922007F092F4
:104F800021078BE892E090931B0780931A078FEF1D
:104F90008093260710923207109231078FE792E034
:104FA0009093300780932F07D0934B07C0934A0705
:104FB00010924C0710924D0710924E0710924F0717
:104FC0008FEF9FEF90935707809356071092340707
:104FD0001092330710925507109254071092490708
:104FE0001092480780E091E00E942A38909336079B
:104FF0008093350780E091E09093380780933707DE
:105000008FE090E090933A078093390790933C07A4
:1050100080933B0710925B0710925A07C0925C077F
:10502000D0925D07E0925E07F0925F078FEA92E010
:10503000909359078093580710926F0710926E074C
:1050400010927107109270071092730710927207F6
:105050001092750710927407609176076E7F6D7FCE
:10506000609376076695617081E0682783E00E940F
:10507000BC0261E083E00E944803E8E9F4E0E491C7
:10508000E0936807E2E5F4E0E491F0E0EE0FFF1F43
:10509000EB5CFB4F8591949190936A07809369072D
:1050A00060E082E00E9448038091760781FD04C0A1
:1050B00061E082E00E94BC0282E080936407E7E93D
:1050C000F4E0E491E0936507E1E5F4E0E491F0E0D9
:1050D000EE0FFF1FE55EFB4F85919491909367075C
:1050E00080936607DF91CF91FF90EF90DF90CF9094
:1050F0000895CF93DF93CDB7DEB7E2970FB6F8945C
:10510000DEBF0FBECDBF789484B5826084BD84B508
:10511000816084BD85B5826085BD85B5816085BDB2
:1051200080916E00816080936E001092810080916A
:1051300081008260809381008091810081608093F2
:105140008100809180008160809380008091B10017
:1051500084608093B1008091B00081608093B00042
:105160008091910082608093910080919100816094
:105170008093910080919000816080939000809155
:10518000A10082608093A1008091A1008160809342
:10519000A1008091A00081608093A00080912101F6
:1051A000826080932101809121018160809321019F
:1051B0008091200181608093200180917A00846039
:1051C00080937A0080917A00826080937A00809147
:1051D0007A00816080937A0080917A008068809361
:1051E0007A001092C10087E797E09093E4058093DE
:1051F000E3058091880781117EC189E090E00E94DB
:105200002A388C0183E592E0D80111969C938E9305
:1052100083E012968C93129780E092E016969C930E
:105220008E93159718961C921E92179783E090E024
:105230000E942A38F8019483838320910C023091D4
:105240000D0240910E02DC012D933D934C9310937F
:105250007F0700937E0788E090E00E942A387C0157
:1052600089E492E0F70191838083BB24B394B482F4
:1052700080E18683178282E090E00E942A38D7017D
:1052800013969C938E931297FC0111830083C8019F
:105290000E94560DD70115968C93F0927A07E092F2
:1052A0007907B2E0AB2EA0927D0784E090E00E94E7
:1052B0002A388C0190937C0780937B0786E090E0EE
:1052C0000E942A38FC0181E4C82E82E0D82ED182C7
:1052D000C08290E3892E828221E3922E93823AEF5C
:1052E000E32E36E1F32EF582E482D801ED93FC93B0
:1052F00086E090E00E942A38FC01D182C08282823E
:105300009382F582E482D80113969C938E93129730
:10531000A092820784E090E00E942A38909381074F
:105320008093800789E090E00E942A388C0142E057
:10533000C42ED12CFC01D382C282158214825BE37D
:10534000E52E52E0F52EF182E0828DE086838CE03E
:1053500087838BE0808761E08DE00E94480361E0F5
:10536000D80117968C910E94480361E0F80180856E
:105370000E944803E0918007F09181071183008328
:1053800089E090E00E942A388C01DC011396DC92BF
:10539000CE92129715961C921E9214971196FC921B
:1053A000EE9288E016968C93169789E017968C9368
:1053B00017978AE018968C9361E088E00E94480372
:1053C00061E0F80187810E94480361E0D8011896E6
:1053D0008C910E944803C0908007D0908107F6010D
:1053E00013830283B092850782E090E00E942A38FE
:1053F0008C0190938407809383078BE090E00E9458
:105400002A387C0188E2D70112968C93129787E2A2
:1054100013968C93139785E392E011969C938E9349
:1054200080917805803308F0AEC491E0980F909396
:10543000780514968C9390E0FC01EE0FFF1FE80FA7
:10544000F91FE851FB4F88EB9BE09283818384E353
:10545000D70117968C93179783E118968C9318971A
:1054600082E419968C9319978DE61A968C93F8011D
:10547000F182E0828FE090E00E942A388C01D60110
:1054800012968D919C9113972D913C91F801138266
:1054900012821482168215824BE252E051834083BD
:1054A0003087278392878187F486E38688E785871C
:1054B00084E68687109378070093770787E090E06B
:1054C0000E942A38FC01A0917B07B0917C078D9146
:1054D0009C912091790730917A073183208313833F
:1054E0000283958384831682F0938707E09386076F
:1054F00081E08093880781E090E00E948F0F909375
:10550000EC058093EB0562E070E07A83698348E5FF
:1055100054E15C8B4B8B23EE3EE03E8B2D8B83E086
:1055200090E09C838B83ECEDFAE1FE83ED83EFEF5B
:10553000F4E8F887EF83E5E7F5E2FA87E9879C87E7
:105540008B87E4EAFAE1FE87ED87EDEEF7E4F88B6E
:10555000EF87E0EDFFEFFA8BE98BE0919D05F0918D
:105560009E05A4E2AE9F7001AF9FF00C112487014D
:1055700007581A4FD80111967C936E935B965C93F3
:105580004E935A975D963C932E935C9713969C93FB
:105590008E93129786E090E00E942A38F801958356
:1055A0008483970125583A4FDC0113963C932E9340
:1055B0001297BC01CE0101960E94DC1A8B859C8556
:1055C0000097C1F0F8019783868386E090E00E94FF
:1055D0002A38D80119969C938E93189797012158D1
:1055E0003A4FFC0133832283ED85FE85BC01CE0159
:1055F0000196199520919D0530919E05C90101964E
:1056000090939E0580939D0544E2429FC001439F75
:10561000900D112487589A4F9093EA058093E905DD
:1056200083E090E09A8389839C8B8B8B29E230E125
:105630003E8B2D8B2AE030E0388F2F8B22E030E03C
:105640003A8F298F9CA38BA322EF3EE03EA32DA38C
:1056500020ED3FEF38A72FA32DEE37E43AA729A777
:105660009C838B832CE63AE13E832D832EE63EEA33
:1056700038872F832CE23FE83A8729879C8F8B8FCE
:1056800024E13FE03E8F2D8F25E735E238A32F8FB1
:105690002FEF34E83AA329A39C878B8724E13BE1D1
:1056A0003E872D8723E733E1388B2F8724E93AE7BC
:1056B0003A8B298BE090D905F090DA052AE32E9DEC
:1056C00080012F9D100D1124980121563A4F590148
:1056D000D9018D939C938FE390E00E942A386C014E
:1056E000009729F0FC01B182A0820E94520E2AE3A9
:1056F0002E9DC0012F9D900D11249C0121563A4FE3
:105700007901D9011396DC92CE921297C6010E94BC
:10571000520EC80189549A4F0E943C0EC801815410
:105720009A4F0E943C0EC80189539A4F0E943C0E2A
:10573000C80181539A4F0E943C0E8B819C81009737
:10574000B9F0F7019583848386E090E00E942A38BF
:10575000D70117969C938E9316970D551A4FFC01FF
:1057600013830283ED81FE81BC01CE010196199560
:105770008B859C85009739F12091D9053091DA0508
:105780004AE3429F8001439F100D11249801215646
:105790003A4F7901D90119969C938E93189786E018
:1057A00090E00E942A38F7019387828709551A4FA3
:1057B000DC0113961C930E931297ED85FE85BC01B8
:1057C000CE01019619958B899C89009721F1209132
:1057D000D9053091DA054AE3429F8001439F100DBD
:1057E0001124F801E156FA4F7F019587848786E0FE
:1057F00090E00E942A38D7011F969C938E931E97A3
:1058000005551A4FFC0113830283ED89FE89BC0103
:10581000CE01019619958B8D9C8D009739F12091C1
:10582000D9053091DA054AE3429F8001439F100D6C
:105830001124980121563A4F7901D90151969C9330
:105840008E93509786E090E00E942A38F701938B60
:10585000828B01551A4FDC0113961C930E931297FD
:10586000ED8DFE8DBC01CE01019619958BA19CA1F9
:10587000009721F12091D9053091DA054AE3429F42
:105880008001439F100D1124F801E156FA4F7F016A
:10589000958B848B86E090E00E942A38D70157963A
:1058A0009C938E9356970D541A4FFC0113830283D9
:1058B000EDA1FEA1BC01CE01019619952091D9055B
:1058C0003091DA05C90101969093DA058093D905E4
:1058D0004AE3429FC001439F900D112481569A4F85
:1058E0009093E8058093E70584E090E00E948F0F95
:1058F0009093E6058093E5051092E2051092E1058C
:1059000010924A06109249060E94C40983EB94E063
:105910009093E0058093DF0584EB94E09093DE059F
:105920008093DD0584E18093BA0080E89DE1909347
:10593000DC058093DB0580917707909178070097CD
:1059400039F0DC01ED91FC910190F081E02D199589
:10595000E0908607F0908707E114F10409F487C00E
:10596000F70184819581DC01ED91FC910190F0813A
:10597000E02D19958C016CE873E08DE496E00E94AF
:105980000512A80170E060E02AE08DE496E00E9434
:10599000FC106CE273E08DE496E00E94ED1004369A
:1059A000110508F0F4C1F701828193810E9414145B
:1059B000892B99F0D70112960D911C91D801ED9188
:1059C000FC910280F381E02D70E060E0C801199540
:1059D00021E030E0F80136832583F7018081918151
:1059E000DC01ED91FC910480F581E02D42E0BE01E7
:1059F0006F5F7F4F19958823D1F1F70102811381E1
:105A0000268130E08150990B281739070CF4C90121
:105A1000880F991FE1E0F0E0EC0FFD1FE80FF91F80
:105A20006081F4E16F0270011124F7FE03C02FE0E2
:105A3000E20EF11C74E0F594E7947A95E1F76FE9D2
:105A400073E08DE496E00E9405128E2D0E2C000C62
:105A5000990B0E947A11D8011496EC921497ED914B
:105A6000FC910480F581E02D6E2DC801199580917F
:105A7000EB059091EC050E94D3168090E90590907B
:105A8000EA05F401A284B384C484D584768467844F
:105A9000508841880E94A7047B018C0120E030E0FF
:105AA000A9016BA7FCA68DA71EA72FA738AB49ABF2
:105AB0005AAB9501A601672D762D852D942D5701A2
:105AC0006801E12CF12C00E010E00E942138F9F08F
:105AD0008401025E1F4F740122E0E20EF11CC70137
