:020000040000FA
:100000000C9460020C9491020C9491020C94910255
:100010000C9491020C9491020C9491020C94910214
:100020000C9491020C94A8210C94A8210C94A82162
:100030000C9491020C9491020C9491020C949102F4
:100040000C9491020C94AE220C9491020C949102A7
:100050000C9491020C9491020C9491020C946220E5
:100060000C9491020C947E210C9454210C949102D6
:100070000C9491020C9491020C9491020C949102B4
:100080000C9480220C9491020C9491020C94910295
:100090000C942A210C9400210C9491020C9491024E
:1000A0000C9491020C9491020C9452220C949102A3
:1000B0000C9491020C9491020C9491020C942422C1
:1000C0000C9491020C9491020C9491020C94D62001
:1000D0000C94AC200C9491020C9491020C9491021B
:1000E0000C9491020664EC1B3C04BC163E3BE5B943
:1000F0003CC93C37C29E5A3D660498083EEA69AA4C
:10010000AA3E000000803F000C948A090C947606F9
:100110000C94240F0C9466050C941A030C94581D2F
:100120000C9423160C940C030C9429060C940904CB
:100130000C94141E0C94FB020C94C30A0C94270418
:100140000C94DC030C9430090C9421230C94120EB3
:100150000C9471090C94BE080C941D040C94F003CB
:100160000C94C2030C94DC020C947D180C942E03A6
:100170000C94FA030C943B040C9484080C94A10393
:100180000C94C81A0C94E21F0C94BD080C94AC0596
:100190000C9416030C9408030C9410080C94241966
:1001A0000C94F9070C948F080C9441190C94BD1809
:1001B0000C9420030C940C1D0C94C6230C94D403B3
:1001C0000C94A5080C94E10D0C94AE030C94BB05A3
:1001D0000C941A090C94D20D0C9453130C940E1D0C
:1001E0000C9432030C9413040C94A9030C94020392
:1001F0000C946B0E0C94E3120C941B130C94890951
:100200000C94B8030C94F00D0C94FF020C94CC03E6
:100210000C9451090C94571E0C945B0C0C94CF0554
:100220000C94E6030C94F3020C9428030C94120330
:100230000C94F7020C94D90B0C94580C0C943104C8
:100240000C94280D0C94F1070C94DD050C94260DEC
:100250000C9424030C944A1B0C94E1020C94C30DDF
:100260000C94AB120C940A1F25642E25642E256471
:100270002E25640044617461207061636B65742095
:1002800073656E64206572726F7220283229004493
:10029000617461207061636B65742073656E6420A6
:1002A0006572726F72202831290041542B434950E6
:1002B00053454E443D25642C2575004661696C65A7
:1002C0006420746F20777269746520746F20736F77
:1002D000636B65740041542B434950434C4F534565
:1002E0003D256400446973636F6E6E656374696E67
:1002F000672000456E6420746167206E6F7420660D
:100300006F756E64004E6F2074616720666F756E46
:10031000640041542B434950535441545553002BCE
:100320004349505354415455533A25642C003E3EA2
:100330003E2054494D454F5554203E3E3E0000005E
:100340002100240027002A002D0030003300010185
:100350000000040107010A0100000A0B02090C0D4C
:100360000E08070304010000000000000000000068
:10037000000000000000000000000000000000007D
:10038000000000001211100000000000000000003A
:1003900000000000000000000000000000004E6FA0
:1003A00020736F636B657420617661696C61626C48
:1003B000650041542B43495053544152543D2564E8
:1003C0002C22544350222C222573222C25750043C5
:1003D0006F6E6E656374696E6720746F0054494D6B
:1003E000454F55543A0054616720434C4F534544A0
:1003F000206E6F7420666F756E640000002000230D
:1004000000260029002C002F00320000010000030C
:10041000010601090100002200250028002B002E02
:10042000003100340002010000050108010B010544
:10043000050505070508080808020202020A0A085D
:100440000804040404010101010101010103030383
:100450000303030303040707070C0C0C0C0C0C0C20
:100460000C0202020206060606060606060B0B0B27
:100470000B0B0B0B0B010210202008081020401062
:100480002040800201020108040201010204081058
:100490002040808040201008040201800402018076
:1004A000402010080402010804020101020408109F
:1004B000204080010204081020408000C623212330
:1004C00011241FBECFEFD1E2DEBFCDBF00E00CBFD5
:1004D00014E0A0E0B2E0E6E2FEE600E00BBF02C0FE
:1004E00007900D92AA31B107D9F728E0AAE1B4E04C
:1004F00001C01D92A035B207E1F712E0CFE5D2E0CE
:1005000000E006C021970109802FFE010E94883576
:10051000CE35D10780E00807A9F70E94E0250C94AA
:1005200001370C940000E0910000F091010000847C
:10053000F185E02D90E080E01995181619065CF41D
:10054000E0910000F09101000284F385E02D90E03D
:1005500080E01995E8CF0895282F30E0F901E85A96
:10056000FC4F9491F901EB58FB4F4491215D3B4FB7
:10057000F9012491222309F435C0992311F19150F6
:100580009231F8F4E92FF0E08827E653FD4F8F4FC2
:100590000C948835FB02FF02DC02F302F702E10251
:1005A000020308030C03120316031A032003240397
:1005B000E10228032E033203809180008F7780931D
:1005C0008000E22FF0E0EE0FFF1FEB5EFB4FA591E6
:1005D000B4918FB7F894EC91611148C040954E23C7
:1005E0004C938FBF0895809180008F7DE8CF8091DC
:1005F0008000877FE4CF84B58F7784BDE2CF84B558
:100600008F7DFBCF8091B0008F778093B000D9CFE2
:100610008091B0008F7DF9CF809190008F7780938B
:100620009000CFCF809190008F7DF9CF8091900086
:10063000877FF5CF8091A0008F778093A000C1CFF6
:100640008091A0008F7DF9CF8091A000877FF5CFAA
:10065000809120018F7780932001B3CF809120017A
:100660008F7DF9CF80912001877FF5CF4E2BB8CFBA
:10067000CF93DF9390E0FC01EB58FB4F2491815D19
:100680009B4FFC0184918823D1F090E0880F991F43
:10069000FC01E25CFC4FA591B491FC01EB5EFB4FC9
:1006A000C591D49161110EC09FB7F8948C91E22F3F
:1006B000E0958E238C932881E223E8839FBFDF910E
:1006C000CF9108958FB7F894EC91E22BEC938FBF04
:1006D000F6CF1F93CF93DF93182FEB0161E00E94B9
:1006E0003803209739F460E0812FDF91CF911F917B
:1006F0000C94AC02CF3FD10511F461E0F5CFE12FAE
:10070000F0E0E85AFC4FE491E150E23108F0B3C068
:10071000F0E08827E157FC4F8F4F0C948835A103F8
:10072000A903AE03B803C2033B04CC03D403DC0328
:10073000E603F003FA03090413043B041D04270431
:10074000310484B5806884BDC7BDDF91CF911F910E
:10075000089584B5806284BDC8BDF7CF80918000C4
:10076000806880938000D0938900C0938800EDCF8B
:1007700080918000806280938000D0938B00C09332
:100780008A00E3CF80918000886080938000D093BE
:100790008D00C0938C00D9CF8091B0008068809389
:1007A000B000C093B300D1CF8091B000806280933D
:1007B000B000C093B400C9CF80919000806880934E
:1007C0009000D0939900C0939800BFCF8091900083
:1007D000806280939000D0939B00C0939A00B5CF25
:1007E00080919000886080939000D0939D00C0938A
:1007F0009C00ABCF8091A00080688093A000809186
:10080000A0008F7B8093A000D093A900C093A80084
:100810009CCF8091A00080628093A000D093AB0019
:10082000C093AA0092CF8091A00088608093A0001E
:10083000D093AD00C093AC0088CF80912001806838
:1008400080932001D0932901C09328017ECF80910D
:100850002001806280932001D0932B01C0932A0154
:1008600074CF80912001886080932001D0932D0166
:10087000C0932C016ACFC038D1050CF03ECF33CFE6
:100880003FB7F8948091CF059091D005A091D10504
:10089000B091D20526B5A89B05C02F3F19F001964F
:1008A000A11DB11D3FBFBA2FA92F982F8827BC01CA
:1008B000CD01620F711D811D911D42E0660F771FF2
:1008C000881F991F4A95D1F708958F929F92AF92F2
:1008D000BF92CF92DF92EF92FF924B015C010E9498
:1008E00040046B017C010E9440046C197D098E0953
:1008F0009F09683E734081059105A8F321E0821AA3
:100900009108A108B10888EEC80E83E0D81EE11C4A
:10091000F11C81149104A104B10429F7FF90EF9018
:10092000DF90CF90BF90AF909F908F9008952FB79A
:10093000F8946091CB057091CC058091CD05909194
:10094000CE052FBF08950F931F93CF93DF93EC0134
:100950000E949704688779878A879B87E881F98155
:100960000484F585E02DCE01199597FF15C00E94EE
:100970009704088519852A853B85601B710B820BBE
:10098000930B0C811D812E813F81601771078207B7
:10099000930720F38FEF9FEFDF91CF911F910F917E
:1009A0000895BF92CF92DF92EF92FF920F931F9321
:1009B000CF93DF938C01C8010E94A304EC0197FD43
:1009C0005DC0D801ED91FC910284F385E02D8D325C
:1009D000910521F0C0970A9708F04AC0C12CD12C8C
:1009E0007601B12CC130D105D9F0CD32D10509F451
:1009F00042C0CE01C0970A9798F4AAE0B0E0A701E0
:100A000096010E944D336E01DD0FEE08FF08C60E01
:100A1000D71EE81EF91EB0E3CB1AD108E108F10891
:100A2000D801ED91FC910284F385E02DC801199560
:100A3000C8010E94A304EC01C0970A9798F2C13044
:100A4000D10581F2BB2041F0F094E094D094C094A1
:100A5000C11CD11CE11CF11CC701B601DF91CF9173
:100A60001F910F91FF90EF90DF90CF90BF9008956E
:100A7000C8011995A0CFBB24B394D2CFC12CD12CDF
:100A80007601EACFEF92FF920F931F93CF93DF93FC
:100A90008C017B01D0E0C0E0F701EC0FFD1F6491F9
:100AA000662361F0D801ED91FC910190F081E02D79
:100AB000C8011995892B11F02196EECFCE01DF9157
:100AC000CF911F910F91FF90EF900895AF92BF9239
:100AD000CF92DF92EF92FF920F931F93CF93DF930A
:100AE0006C017B018B01040F151FEB015E01AE1839
:100AF000BF08C017D10759F06991D601ED91FC915B
:100B00000190F081E02DC6011995892B79F7C50177
:100B1000DF91CF911F910F91FF90EF90DF90CF90D9
:100B2000BF90AF900895FC01A089B1898C91A689EE
:100B3000B78982FD0FC09C91818D8F5F8F73228D4D
:100B4000821749F0A18DAE0FBF2FB11D5D969C930A
:100B5000818F08958C910895FC01538D448D252F2C
:100B600030E0842F90E0821B930B541710F0CF9647
:100B7000089501970895FC01918D828D981761F079
:100B8000A28DAE0FBF2FB11D5D968C91928D9F5F90
:100B90009F73928F90E008958FEF9FEF0895FC016F
:100BA000918D828D981731F0828DE80FF11D858D22
:100BB00090E008958FEF9FEF0895FC01918D228DB5
:100BC000892F90E0805C9F4F821B91098F7399273A
:100BD00008958AED95E00E94DD0521E0892B09F456
:100BE00020E0822F089587E796E00E94DD0521E04E
:100BF000892B09F420E0822F089584E197E00E9478
:100C0000DD0521E0892B09F420E0822F0895FC0105
:100C1000A48DA80FB92FB11DA35ABF4F2C91848D5D
:100C200090E001968F739927848FA689B7892C93BA
:100C3000A089B1898C91837080648C93938D848D0D
:100C4000981306C00288F389E02D80818F7D808310
:100C50000895EF92FF920F931F93CF93DF93EC01D0
:100C600081E0888F9B8D8C8D98131AC0E889F98953
:100C7000808185FF15C09FB7F894EE89FF89608356
:100C8000E889F98980818370806480839FBF81E0D7
:100C900090E0DF91CF911F910F91FF90EF90089519
:100CA000F62E0B8D10E00F5F1F4F0F731127E02EF4
:100CB0008C8D8E110CC00FB607FCFACFE889F9892C
:100CC000808185FFF5CFCE010E940706F1CFEB8D25
:100CD000EC0FFD2FF11DE35AFF4FF0829FB7F89400
:100CE0000B8FEA89FB8980818062CFCFCF93DF931E
:100CF000EC01888D8823B9F0AA89BB89E889F98934
:100D00008C9185FD03C0808186FD0DC00FB607FC68
:100D1000F7CF8C9185FFF2CF808185FFEDCFCE019B
:100D20000E940706E9CFDF91CF91089580E090E01F
:100D3000892B29F00E94FD0581110E94000080E0AE
:100D400090E0892B29F00E94F30581110E94000098
:100D500080E090E0892B29F00E94E90581110E9432
:100D6000000080E090E0892B49F080E090E0892B42
:100D700029F00E94000081110C9400000895AF92A8
:100D8000BF92CF92DF92EF92FF920F931F93CF9378
:100D9000DF934091D4055091D5056091D6057091AF
:100DA000D705141615061606170644F49091D305B8
:100DB000981709F40AC1992309F407C1182FE09183
:100DC0000000F09101000084F185E02D90E080E0CA
:100DD0001995892BB9F550E040E0F7C0C1E0D0E0AB
:100DE0000E949704609308007093090080930A00A2
:100DF00090930B00E0910000F09101000284F385D4
:100E0000E02D90E080E0199597FF50C00E94970474
:100E1000C0900800D0900900E0900A00F0900B000C
:100E20006C197D098E099F09C0900400D0900500BF
:100E3000E0900600F09007006C157D058E059F057B
:100E4000C8F2C9CFD0E0C0E0CBCF5F014BEA52E09F
:100E5000209731F2BE012197F50122915F01022E08
:100E6000000C330B8217930731F0209709F4B8CFA9
:100E70004F5F5F4FEFCF209709F4B0CFDA011196A3
:100E80002BEAE22E22E0F22E30E020E0F701D190B2
:100E90007F010D91D01205C02F5F3F4F2C173D07EA
:100EA000A8F3C217D30721F7EB019ACFFE01E5554E
:100EB000FD4F2081022E000C330B2817390729F62D
:100EC0002196C530D10509F08BCF90E080E00E94DB
:100ED000D1046093D305E0910000F09101000284F9
:100EE000F385E02D90E080E0199590E080E00E948D
:100EF000D1046093D4057093D5058093D605909363
:100F0000D705E0910000F09101000284F385E02D07
:100F100090E080E0199590E080E00E94D104E0919B
:100F20000000F09101000284F385E02D90E080E064
:100F3000199590E080E00E94D104E0910000F091CA
:100F400001000284F385E02D90E080E0199590E0A7
:100F500080E00E94D104E0910000F0910100028441
:100F6000F385E02D90E080E0199590E080E00E940C
:100F7000D104E0910000F09101000284F385E02D9E
:100F800090E080E01995E0910000F091010002846A
:100F9000F385E02D90E080E0199590E080E00E94DC
:100FA000D104E0910000F09101000284F385E02D6E
:100FB00090E080E019958091D305181711F0111178
:100FC0000ACF4091D4055091D505CA01DF91CF9148
:100FD0001F910F91FF90EF90DF90CF90BF90AF9057
:100FE000089521E0FC0184858F3F09F420E0822FE1
:100FF0000895CF93DF93EC01E881F9810084F185B6
:10100000E02DCE011995892B41F0E881F981028408
:10101000F385E02DCE011995EFCFDF91CF910895A3
:101020008F929F92AF92BF92EF92FF920F931F9376
:10103000CF93DF93EC017B018A01E881F981008481
:10104000F185E02D1995892B69F48FEF9FEFDF91E2
:10105000CF911F910F91FF90EF90BF90AF909F9015
:101060008F9008959C858091D305981335C0809109
:10107000D4059091D505A091D605B091D705A801CA
:1010800070E060E084179507A607B7070CF48C01A1
:10109000E701E00EF11ECE15DF05E1F00E94970496
:1010A0004B015C01E0910000F09101000284F385A6
:1010B000E02D90E080E0199597FF11C00E94970401
:1010C000681979098A099B09683E73408105910571
:1010D00048F3BBCFC801BBCF80E090E0B8CF899385
:1010E0008091D4059091D505A091D605B091D705F2
:1010F0000197A109B1098093D4059093D505A093D8
:10110000D605B093D705C7CFFC0184858F3F21F06A
:101110000E94BF0697FF02C090E080E00895CF9341
:10112000DF931F92CDB7DEB76983DC01ED91FC91AF
:101130000280F381E02D41E050E0BE016F5F7F4F00
:1011400019950F90DF91CF9108952091E807309184
:10115000E9072817390771F490918F0480918E0464
:10116000981741F0E0918F04F0E0E25BFB4F808143
:1011700090E008958FEF9FEF08950895EF92FF920A
:101180000F931F93CF93DF93DC015C96ED90FC905F
:101190005D97E114F10479F481E090E013969C935B
:1011A0008E93129790E080E0DF91CF911F910F9185
:1011B000FF90EF9008955196ED91FC9152975096C3
:1011C0008C915097982F90950FB75E962C915E97C3
:1011D000122F127021FD6095F8942081112319F1CE
:1011E000282B2083E7012197F1F728E0462F50E0D4
:1011F000308160FF1AC0382B3083E7012197F1F767
:10120000BA0175956795215089F7112381F0808186
:10121000892380830FBF5C968D919C910197F1F794
:1012200081E090E0C1CF2923DCCF3923E5CF908145
:10123000892BEFCF2091E8073091E907281739076C
:1012400061F480918E0420918F0490E0805C9F4F28
:10125000821B91098F739927089590E080E008958B
:101260002091E8073091E90728173907B9F49091E0
:101270008F0480918E04981789F0E0918F04F0E03C
:10128000E25BFB4F808120918F0430E02F5F3F4F66
:101290002F73332720938F0490E008958FEF9FEFF3
:1012A0000895EF92FF920F931F93CF93DF93EC017A
:1012B0008B017A010E949704688B798B8A8B9B8BB8
:1012C0008C819D81DC01ED91FC910280F381E02D08
:1012D000A701B801DF91CF911F910F91FF90EF907F
:1012E00019941F93CF93DF93EC01162F0E9497045C
:1012F000688B798B8A8B9B8B8C819D81DC01ED9136
:10130000FC910190F081E02D612FDF91CF911F9131
:101310001994089590E080E00895CF92DF92EF92C3
:10132000FF92CF93DF93EC01603282E07807CCF537
:10133000653B710514F064EB70E0898128E830E0CA
:10134000281B310987FD3395220F331F220F331FCE
:101350006901330FEE08FF088A8128E532E0281B77
:10136000310987FD3395220F331F220F331F032EC0
:10137000000C440B550B2C193D094E095F09DB018C
:1013800077FF02C0B0E0A0E00E94583324EB30E0C9
:1013900040E050E00E942E33C20ED31EE41EF51E24
:1013A000B601E881E03370F5298188E890E0821B7E
:1013B000910927FD9395880F991F880F991F68172A
:1013C00079077CF02A8188E592E0821B910927FD4C
:1013D0009395880F991F880F991F681779070CF448
:1013E000CB010297880F991F4FB7F8942E2F30E04A
:1013F000F901EE0FFF1FE20FF31FE057FB4F92833F
:1014000081834FBFDF91CF91FF90EF90DF90CF901E
:101410000895AF92BF92CF92DF92EF92FF920F9317
:101420001F93CF93DF936B017A01EC01C65BDB4F17
:1014300028813CE0389F8001399F100D1124A09035
:101440002005B12C27FF1FC0FB011182108288816B
:101450008F5F888388819801280F311D87FD3A9519
:10146000F6012A153B051CF488818C30C4F180817B
:101470009181049680349C4908F473C0F601808100
:101480009181049670C088819801280F311D87FDD5
:101490003A952A153B05DCF68881A801480F511DB5
:1014A00087FD5A95FA01EE0FFF1FE40FF51FE05775
:1014B000FB4F808186FFCBCF8881F801E80FF11DBB
:1014C00087FDFA95CF01EE0FFF1FE80FF91FE057D8
:1014D000FB4F808160E08F730E94AC02B8CF8081A7
:1014E00091812881A801420F511D27FD5A959A012B
:1014F000FA01EE0FFF1FE20FF31FE057FB4F2181B0
:101500003281820F931FF701918380838881980134
:10151000280F311D87FD3A95F901EE0FFF1FE20FED
:10152000F31FE057FB4F808186FF22C08881080FA0
:10153000111D87FD1A95F801EE0FFF1FE00FF11F37
:10154000E057FB4F808161E08F73DF91CF911F9156
:101550000F91FF90EF90DF90CF90BF90AF900C94E1
:10156000AC0280E49CE9F701918380838FEF88834C
:10157000DF91CF911F910F91FF90EF90DF90CF906F
:10158000BF90AF9008954F925F926F927F928F922B
:101590009F92AF92BF92CF92DF92EF92FF920F9302
:1015A0001F93CF93DF93EC01F62E8C010C5F1F4F3E
:1015B0008C81282F30E0F901EE0FFF1FE20FF31F9F
:1015C000E057FB4F908196FD54C0803308F051C026
:1015D000EF8061E08E2D0E9438038C81282F30E04F
:1015E000F901EE0FFF1FE20FF31FE057FB4F2E2D07
:1015F0002F739081907C922B90831D821E822CE011
:10160000622F0E946835829FB001112430E020E0F3
:10161000AB01420F531FFA01EE0FFF1FE40FF51F3E
:10162000E057FB4F908196FD17C02F5F3F4F2C3046
:10163000310571F7813009F06AC01092800082E0B4
:10164000809381001092850010928400B19A80915D
:101650006F00826080936F00EC818E2F90E0FC0120
:10166000EE0FFF1FE80FF91FE057FB4F80818064EA
:1016700080838A80912C919481949108EB818E2FA4
:1016800090E06F2DFF0C770B861797070CF4BC01C9
:10169000681579050CF4B401362F698570E03323A1
:1016A00019F1462E512C712C612C632F032E000C46
:1016B000770B880B990B13160CF055C02A8530E078
:1016C00050E040E024193509460957090E94FC32D0
:1016D0002E2F30E050E040E00E942E33CA01B901C5
:1016E000640D751D861D971DC801DF91CF911F9157
:1016F0000F91FF90EF90DF90CF90BF90AF909F90B1
:101700008F907F906F905F904F900C948D098230F6
:1017100061F41092900080939100109295001092C5
:10172000940088BB8093710097CF833069F4109246
:10173000A00082E08093A1001092A5001092A40066
:1017400089BB8093720088CF811186CF10922001CF
:1017500082E08093210110922501109224018ABB1E
:101760008093730079CFC884D12CF12CE12C092C03
:10177000000CAA08BB089B01AC01281939094A09C9
:101780005B09C301B2016C197D098E099F090E9492
:10179000FC3222273327A901281939094A095B0994
:1017A0000E942E33CA01B9016C0D7D1D8E1D9F1D37
:1017B0009BCF0F931F93CF93DF938C01EB01FC0121
:1017C0008781209789F460E00E94AC0260E0F80114
:1017D00080850E94AC0261E0F8018681DF91CF91A3
:1017E0001F910F910C94AC0277FF12C060E00E9431
:1017F000AC0261E0F80180850E94AC026627772781
:101800006C1B7D0BC130DF4F84F46FEF70E00DC0B7
:1018100061E00E94AC0260E0F80180850E94AC02A9
:10182000BE01CF3FD10509F084F7F8018681DF9131
:10183000CF911F910F910C946903CF93DF93EC012B
:10184000CA012A813B8121303105C9F0223031059E
:1018500021F1BC0161308FEF780714F461E07FEF74
:101860006F3F710519F014F06FEF70E0E881F981B6
:101870000190F081E02DCE01DF91CF911994AC81E0
:10188000BD81109731F3ED91FC9111970190F0819A
:10189000E02DBA01CD011995DCCFAC81BD81109747
:1018A000C1F2ED91FC9111970680F781E02DF1CF07
:1018B000FC01828108952F923F924F925F926F9226
:1018C0007F928F929F92AF92BF92CF92DF92EF92D0
:1018D000FF920F931F93CF93DF9300D01F92CDB74A
:1018E000DEB78C017B016B011C821B82242F30E050
:1018F0003A832983D80112968C911297EB81FC814F
:101900008E171F0609F008F489C029813A81E21771
:10191000F30708F083C01396ED91FC918B819C81B5
:10192000E80FF91F8081863308F0865320917B00F1
:10193000982F9870277F922B90937B0087708064FC
:1019400080937C0080917A00806480937A008091FB
:101950007A0086FDFCCF8091780090917900D801C3
:1019600017962D913C9116012E183F08211531052F
:10197000B1F04B815C81440F551F240F351FD901F5
:10198000ED91FC911995D6016D937D938D939D9367
:101990006D01EB81FC813196FC83EB83ABCFBC0105
:1019A00090E080E00E94DD314B015C01F80185810F
:1019B0009681009751F1280E391ED1016D917C91CD
:1019C00090E080E00E94DD312B013C01AC019B01E5
:1019D000C501B4010E946F334B015C01F1016281CA
:1019E000738190E080E00E94DD31A30192010E94AA
:1019F0006F339B01AC01C501B4010E94DC3320E0D0
:101A000030E0A9010E947033BECF20E030E040E812
:101A10005AE3C501B4010E943E32F1CF8B810F9091
:101A20000F900F900F90DF91CF911F910F91FF902A
:101A3000EF90DF90CF90BF90AF909F908F907F906E
:101A40006F905F904F903F902F90089580E00895A1
:101A50000895E091C005F091C10590E0880F991FAD
:101A600024813581820F931FDC018D919C91DC01D3
:101A7000ED91FC910190F081E02D19940F931F934B
:101A8000CF93DF93EC010E9497048B019C010883A4
:101A900019838A833B831C821D821E821F82DF91F1
:101AA000CF911F910F9108951F93CF93DF93EC0176
:101AB00088E290E0A0E0B0E08BA39CA3ADA3BEA31E
:101AC00087E390E0A0E0B0E08FA398A7A9A7BAA70A
:101AD0001BA61CA61DA61EA686E490E0A0E0B0E012
:101AE0008FA798ABA9ABBAAB81E090E09B838A83C8
:101AF00082E090E09D838C8311E01987CE010B96E4
:101B00000E943E0DCE0143960E943E0DCE014B96A3
:101B10000E943E0D85E090E09F838E831A87DF91BF
:101B2000CF911F910895DC011296ED91FC91808177
:101B30009181029709F50480F581E02DDF01248170
:101B4000358190E080E082179307D1F014961296C9
:101B50004D915C911397452B89F40296880F991F3C
:101B6000880F991FE80FF91F0190F081E02D81E0A7
:101B700026813781232B09F480E008950196E3CF75
:101B8000F0E0E0E0F4CFCF93DF93EC0180E00E943F
:101B9000290DB0E0A0E088839983AA83BB83DF91FD
:101BA000CF910895CF93DF93EC0181E00E94290D3E
:101BB000B0E0A0E088839983AA83BB83DF91CF91B3
:101BC0000895E091C005F091C1050190F081E02DEC
:101BD0002481022E000C330BFC01318320830895F5
:101BE0000F931F93CF93DF938C01EB0182E090E082
:101BF0009983888386E090E00E94A2359D838C8340
:101C0000F801268D378DFC0131832083F80120A156
:101C100031A1FC0133832283CE01DF91CF911F914B
:101C20000F9108950F931F93CF93DF938C01EB01D6
:101C300082E090E09983888386E090E00E94A2355C
:101C40009D838C83F80126A137A1FC013183208379
:101C5000F80120A531A5FC0133832283CE01DF9159
:101C6000CF911F910F910895CF92DF92EF92FF9243
:101C70000F931F93CF93DF937C016B01142F8FE0A1
:101C800090E00E94A235EC01892BD9F0D986C88654
:101C9000FD82EC821E87CE9C8001CF9C100DDE9CC5
:101CA000100D1124C8010E94A23599838883080F62
:101CB000191F1B830A839B878A879D878C871F82B6
:101CC0001E82CE01DF91CF911F910F91FF90EF9077
:101CD000DF90CF9008950F931F93CF93DF938C01E4
:101CE000EB0182E090E09983888386E090E00E9497
:101CF000A2359D838C83F80126813781FC013183D5
:101D00002083F80120853185FC0133832283CE01B5
:101D1000DF91CF911F910F910895BF92CF92DF92E3
:101D2000EF92FF920F931F93CF93DF93CDB7DEB760
:101D30002C970FB6F894DEBF0FBECDBF9E012F5F6C
:101D40003F4F69012CE0F60111922A95E9F78430A2
:101D5000910509F464C083E090E09A83898323ECC1
:101D60003DE03C872B879C838B838BE69EE09E83A4
:101D70008D838CE29FE898878F838EE69EEA9A8710
:101D80008987809148049091490426E1B22EB89E3B
:101D90008001B99E100D11249801245E3B4F7901FA
:101DA00089819A81F901918380838B859C859787AE
:101DB000868783E090E09383828386E090E00E94B0
:101DC000A235F70195838483025E1B4FFC011383C8
:101DD0000283ED81FE81BC01C60119952091480462
:101DE00030914904C90101969093490480934804B5
:101DF000B29EC001B39E900D1124845E9B4F2C9621
:101E00000FB6F894DEBF0FBECDBFDF91CF911F910B
:101E10000F91FF90EF90DF90CF90BF9008959A833D
:101E2000898382ED9DE09C878B8783E090E09C8393
:101E30008B838BE69EE09E838D8384E99AE7988767
:101E40008F8383E793E19BCFAF92BF92CF92DF92D4
:101E5000EF92FF920F931F93CF93DF937C018B013F
:101E600081E090E0FB01918380838BE090E00E9411
:101E7000A235EC0182E08A836E01F3E0CF0ED11C23
:101E800040E062E070E085E090E00E94340E9E83C6
:101E90008D8381EB92E09C838B83E0911A04F09117
:101EA0001B049AE1A92E94E0B92E309741F05F010E
:101EB00082E0A80EB11C0280F381E02DF6CF84E011
:101EC00090E00E94A235FC01D182C082138212826E
:101ED000F501918380836E01F7E0CF0ED11C40E0C5
:101EE00062E070E085E090E00E94340E9A87898776
:101EF0008DED92E098878F83E0911A04F0911B0496
:101F00008AE1A82E84E0B82E309741F05F0182E08C
:101F1000A80EB11C0280F381E02DF6CF84E090E0A2
:101F20000E94A235FC01D182C08213821282F50187
:101F300091838083F70186898883808D8983F80166
:101F4000D583C483C801DF91CF911F910F91FF907A
:101F5000EF90DF90CF90BF90AF9008952F923F9277
:101F60004F925F926F927F928F929F92AF92BF92A9
:101F7000CF92DF92EF92FF920F931F93CF93DF9355
:101F800000D01F921F92CDB7DEB75C016B017A8340
:101F90006983E090D805F090D905E114F10409F4C3
:101FA0009AC0CB019927815F9E4B2D2D30E0322FB7
:101FB0002227820F931F25E0822748EC5AEB481B0B
:101FC000590B382F22274227532721EF3EEB281B9E
:101FD000390B241B350BBA01672F7727629566955D
:101FE000677026273727841B950B821B930BF901FB
:101FF000EF2FFF27E295EF70E827F927BA01621B60
:10200000730BAB014E1B5F0B261B370BCA01B5E0F0
:1020100096958795BA95E1F728273927E41BF50BA4
:10202000CF01821B930BF90113E0F695E7951A9502
:10203000E1F7E827F927421B530B4E1B5F0BCF013B
:10204000982F8827990F990F842795272E1B3F0BD0
:10205000281B390BD7011496ED91FC918827990F15
:10206000881F9927822793272281338121503109A4
:102070008223932346E0489F9001499F300D11240D
:10208000A081B181A20FB31F0D911C910115110503
:1020900011F182849384919481949108080D191D03
:1020A00001151105C1F0F80180899189029761F449
:1020B00042E050E0BE016F5F7F4F868597850E94AA
:1020C000CC36892B09F43FC2D8011C960D911C9186
:1020D0000115110519F784E190E00E94A2358C01E9
:1020E000FC01D182C08284E090E00E94A235DC0134
:1020F0001196BC92AE9213961C921E921297F80102
:1021000093838283118610861787068782E090E08A
:10211000918B808B98012C5F3F4F6901E114F10492
:1021200009F085C11093D9050093D805178216824E
:1021300088E190E00E94A2357C01D80115969C931D
:102140008E931497892B21F48FEF9FEF0E94013714
:1021500082E1F7013696DF011D928A95E9F7F701D2
:10216000D186C08680E290E09383828385E090E010
:102170009583848384E090E09387828780EC90E06D
:102180000E94A235D7018D939C930097E9F220EC31
:10219000FC0111922A95E9F781EE9FE1A1E1B0EAF5
:1021A000F701848B958BA68BB78BE091D805F091C6
:1021B000D905E480F580D70116968D919C911797EB
:1021C000019617969C938E931697D8011596FC92BC
:1021D000EE92149711962C91119730E0322F22270E
:1021E0008C9190E0815F9E4B280F391FB5E02B2723
:1021F00068EC7AEB621B730B922F8827682779278C
:1022000081EF9EEB821B930B861B970BAB01452F37
:10221000552742954695477084279527261B370BEF
:10222000281B390BAC01452F552742954F702427A9
:102230003527681B790BAB01421B530B861B970B91
:10224000BA01B5E076956795BA95E1F786279727A5
:10225000241B350B281B390BBC01A3E07695679531
:10226000AA95E1F726273727481B590B421B530B2A
:10227000B901762F6627770F770F46275727821BDE
:10228000930B841B950B4427550F441F5527842718
:102290009527D80153969C938E935297A481B5812C
:1022A00012962D913C91139721503109822393234B
:1022B00046E0489F9001499F300D1124ED91FC911B
:1022C000E20FF31F828193810196938382832081A1
:1022D0003181D8011D963C932E931C971B961C921E
:1022E0001E921A972115310529F0D9011796DC9213
:1022F000CE921697D182C082248135812F5F3F4FC5
:102300006AE0629FA001639F500D11248417950716
:1023100008F475C0F70182899389019709F46FC0A9
:10232000828193812CE0289F5001299FB00C1124B9
:10233000C5010E94A2356C01009709F405CFA501E3
:1023400070E060E00E94E236D70116968D919C9174
:1023500017971296ED91FC911397FC83EB831F0165
:10236000220C331CF1E02F1A310814962D913C9168
:102370002F5F3F4F5C0102C0B694A7942A95E2F705
:102380008221932121E030E0892B11F430E020E01C
:10239000A20EB31ED7011D96BC92AE921C971F963B
:1023A0001C921E921E974D905C90912C812C712C4A
:1023B000612C2B813C812615370509F050C0C201E4
:1023C0000E943E36D8011496ED91FC918281938152
:1023D000880F991F938382838481958101969583C9
:1023E0008483D182C0828681978196958795268540
:1023F00037858217930708F484C0118A108A0F90DA
:102400000F900F900F900F90DF91CF911F910F9130
:10241000FF90EF90DF90CF90BF90AF909F908F9004
:102420007F906F905F904F903F902F900895F701AD
:10243000A481B5811896ED91FC91199715830483B9
:102440001A968D919C911B979F01281B390BF801BF
:10245000378326831996DC92CE921897A6CEF20186
:10246000E80DF91D0190F081E02D309739F4BFEFB0
:102470006B1A7B0AE6E08E0E911C9BCF408521856E
:102480002D83868597858221932156E0589F900160
:10249000599F300D11242C0D3D1DD90112968D919F
:1024A0009C911397019613969C938E931297A8165E
:1024B000B90698F4D7011E966D917C911F976F5FB6
:1024C0007F4F1F967C936E931E97B5010E947435C3
:1024D000D90115967C936E93149717821682D901B1
:1024E0008D919C9191878087009729F0DC01179648
:1024F000FC93EE931697D901ED93FC93E42FFD81A5
:10250000B4CF808991890196918B808B029708F4D2
:1025100076CF81E090E0938B828B71CF8F010E5F3D
:102520001F4F0280F381E02D3097C1F784E090E0E7
:102530000E94A235FC01B182A08213821282D801CE
:102540008D939C935CCF87010E5F1F4FD70112962E
:10255000ED91FC91E9CFEF92FF920F931F93CF93F0
:10256000DF937C018B0182E090E0FB01918380830B
:102570008AE090E00E94A235EC01F8019583848303
:10258000F7018681978199838883E084F184FB82B7
:10259000EA8281E090E09D838C8341E064E070E01A
:1025A0000E94340E998788871F821E82B701CE0150
:1025B00006960E94AE0FC801DF91CF911F910F9137
:1025C000FF90EF900895EF92FF920F931F93CF9398
:1025D000DF937C018B0182E090E0FB01918380839B
:1025E0008AE090E00E94A235EC01F8019583848393
:1025F000F7018685978599838883E088F188FB8237
:10260000EA8281E090E09D838C8341E062E070E0AB
:102610000E94340E998788871F821E82B701CE01DF
:1026200006960E94AE0FC801DF91CF911F910F91C6
:10263000FF90EF900895EF92FF920F931F93CF9327
:10264000DF937C018B0182E090E0FB01918380832A
:102650008AE090E00E94A235EC01F8019583848322
:10266000F7018681978199838883E084F184FB82D6
:10267000EA8281E090E09D838C8341E062E070E03B
:102680000E94340E998788871F821E82B701CE016F
:1026900006960E94AE0FC801DF91CF911F910F9156
:1026A000FF90EF900895EF92FF920F931F93CF93B7
:1026B000DF937C018B0182E090E0FB0191838083BA
:1026C0008AE090E00E94A235EC01F80195838483B2
:1026D000F7018685978599838883E088F188FB8256
:1026E000EA8281E090E09D838C8341E064E070E0C9
:1026F0000E94340E998788871F821E82B701CE01FF
:1027000006960E94AE0FC801DF91CF911F910F91E5
:10271000FF90EF900895CF92DF92EF92FF920F9388
:102720001F93CF93DF931F921F92CDB7DEB79A838B
:102730008983E091D805F091D905309709F49BC0C1
:102740009C013327215F3E4B892F90E0982F8827EB
:10275000820F931F25E08227A8ECBAEBA81BB90BC8
:10276000382F2227A227B32721EF3EEB281B390B56
:102770002A1B3B0BAD01452F5527429546954770C7
:10278000242735278A1B9B0B821B930BA901452FFE
:10279000552742954F7048275927A21BB30BCD01EF
:1027A000841B950B2A1B3B0BDC0115E0B695A79506
:1027B0001A95E1F72A273B27481B590B421B530B5D
:1027C000D90103E0B695A7950A95E1F74A275B275B
:1027D000821B930BDC01A41BB50BCA01982F882721
:1027E000990F990F8A279B27241B350B281B390B20
:1027F0000480F581E02D8827990F881F992782276B
:10280000932722813381215031098223932346E08B
:10281000489F9001499F300D1124A081B181A20FE2
:10282000B31F0D911C910115110529F17B01C28483
:10283000D384D194C194D1080C0D1D1D011511052F
:10284000D1F0D80150968D919C915197029769F4DF
:1028500042E050E0BE016F5F7F4F1E968D919C91CC
:102860000E94CC36892B09F478C0F80104851585BF
:102870000115110509F70F900F90DF91CF911F916E
:102880000F91FF90EF90DF90CF900895D601ED91DA
:10289000FC9102811381F801268137818481958121
:1028A00028173907B0F540855185B701848595858E
:1028B0000E94D936D8011C968D919C911D9718962F
:1028C0002D913C911997820F931F1D969C938E9387
:1028D0001C9716962D913C9117972F5F3F4F179697
:1028E0003C932E93169712962D913C911397821735
:1028F000930739F48D919C9111971D969C938E931B
:102900001C97F601C280D380C114D10409F0BECF58
:10291000B2CF86858823A9F340855185B701848588
:1029200095850E94D936D80118964D915C911997DA
:102930001C962D913C911D97240F351F1D963C939D
:102940002E931C971A968D919C911B97840F951F1F
:102950001B969C938E931A97D4CFD8011296CD9044
:10296000DC90D2CF2F923F924F925F926F927F92E4
:102970008F929F92AF92BF92CF92DF92EF92FF928F
:102980000F931F93CF93DF93EC01AE80BF80C88479
:10299000D984EA84FB840C851D850E9497041B0161
:1029A0002C019501A601B701C80151016201E12C7A
:1029B000F12C00E010E00E94993559F18E01005F82
:1029C0001F4FEE85FF85C8011995EC81FD8180813F
:1029D0009181029741F40480F581E02DB801808156
:1029E00091810E948B13CE010696DF91CF911F91AA
:1029F0000F91FF90EF90DF90CF90BF90AF909F909E
:102A00008F907F906F905F904F903F902F900C949D
:102A10003E0DDF91CF911F910F91FF90EF90DF90CE
:102A2000CF90BF90AF909F908F907F906F905F906E
:102A30004F903F902F900895DC011296ED91FC91FC
:102A400080819181029739F40480F581E02D8081A5
:102A500091810E948B1380E00895DC011296ED9124
:102A6000FC9180819181029739F40480F581E02DF9
:102A7000808191810C948B130895DC011296ED9165
:102A8000FC9180819181029739F40480F581E02DD9
:102A9000808191810E948B1380E00895FC01019058
:102AA0000020E9F731979F01281B390BE0914A0874
:102AB000F0914B08E21BF30B4091460850914708F8
:102AC000E417F50730F46091440870914508E60F6B
:102AD000F71F280F391F6091480870914908DC01E1
:102AE0008217930758F40196BC91A081BA1308C0CD
:102AF0003196E617F70799F7FA01F1CF81E00895CB
:102B000080E00895FB0101900020E9F73197AF01C3
:102B1000461B570BDC01ED91FC910280F381E02D07
:102B200019948F929F92AF92BF92EF92FF920F9360
:102B30001F93CF93DF93CDB7DEB7A1970FB6F8946D
:102B4000DEBF0FBECDBF7C01FA01CB0119A222303E
:102B500008F42AE08E010F5D1F4F822E912CB12CBC
:102B6000A12CBF01A50194010E940C33F901CA01F7
:102B70006A300CF5605DD8016E938D01232B242BF8
:102B8000252B79F790E080E0109721F0BD01C70177
:102B90000E948215A1960FB6F894DEBF0FBECDBF7E
:102BA000DF91CF911F910F91FF90EF90BF90AF9069
:102BB0009F908F900895695CDECFCF92DF92EF9265
:102BC000FF92CF93DF93AB01BC0177FF1DC06A0179
:102BD0007C016DE284E197E00E942906EC01442724
:102BE0005527BA014C195D096E097F092AE084E175
:102BF00097E00E9491158C0F9D1FDF91CF91FF9060
:102C0000EF90DF90CF9008952AE084E197E0DF9184
:102C1000CF91FF90EF90DF90CF900C949115CF93D0
:102C2000DF93BC01990F880B990B0E94DD15EC0115
:102C300067E673E084E197E00E9482158C0F9D1F88
:102C4000DF91CF9108958F929F92AF92BF92CF92D2
:102C5000DF92EF92FF920F931F93CF93DF937C014C
:102C6000EB016C0182E0C80ED11C4701E5E08E0E3D
:102C7000911C10E000E0F60141916F0150E070E01E
:102C800060E02AE0CE010E9491155C01E881F981A3
:102C90000190F081E02D6EE2CE0119958A0D9B1D09
:102CA000080F191FC814D90431F7F701458150E006
:102CB00070E060E02AE0CE010E949115800F911F24
:102CC000DF91CF911F910F91FF90EF90DF90CF9008
:102CD000BF90AF909F908F9008950F931F93CF93C5
:102CE000DF938C01D0E0C0E06115710519F00E94FE
:102CF0008215EC0167E673E0C8010E9482158C0F13
:102D00009D1FDF91CF911F910F9108950F931F93F6
:102D1000CF93DF93EC010E9442058C0167E673E0DC
:102D2000CE010E948215800F911FDF91CF911F91DC
:102D30000F9108950C948215EF92FF920F931F93B9
:102D4000CF93DF938C017B01EC0109900020E9F720
:102D50002197C81BD90BCA30D10510F0CAE0D0E0CA
:102D600068E073E084E197E00E949A16AE014D5F3F
:102D70005F4F70E060E02AE084E197E00E949115E7
:102D800063E084E197E00E9429066C2F6D5F84E187
:102D900097E00E942906AE01B80184E197E00E9405
:102DA000660560E084E197E00E94290642E050E079
:102DB000B70184E197E0DF91CF911F910F91FF90D0
:102DC000EF900C946605DC011296ED91FC918081E8
:102DD0009181019721F486E293E00C949C1608956A
:102DE0003F924F925F926F927F928F929F92AF929B
:102DF000BF92CF92DF92EF92FF920F931F93CF93E8
:102E0000DF936C012B01342E809146089091470886
:102E100090934B0880934A080E9497044B015C01F1
:102E200066246A94762C0D2C000CEE08FF080E9494
:102E30009704681979098A099B096C157D058E0527
:102E40009F0508F059C08FEF6816780609F054C046
:102E5000E0910000F09101000084F185E02D90E008
:102E600080E01995892B19F3E0910000F0910100A1
:102E70000284F385E02D90E080E01995E0914A0806
:102E8000F0914B08808380914A0890914B080196FD
:102E900090934B0880934A08209148083091490844
:102EA0008217930740F080914608909147089093CD
:102EB0004B0880934A084114510441F0C2010E941A
:102EC0004E15882319F085E0682E712C332009F403
:102ED000AECF0DE112E0D0E0C0E0F8018191919118
:102EE0008F010E944E15811105C02196C530D10574
:102EF000A1F79DCF3E019BCF0E94970468197909E5
:102F00008A099B096C157D058E059F0560F065E5B6
:102F100073E084E197E00E949A166EE273E084E128
:102F200097E00E948616C301DF91CF911F910F9108
:102F3000FF90EF90DF90CF90BF90AF909F908F90D9
:102F40007F906F905F904F903F900895AF92BF92A7
:102F5000CF92DF92EF92FF920F931F93CF93DF9365
:102F6000B82EEB01A42E89010E9497046B017C010D
:102F7000E0910000F09101000084F185E02D90E0E7
:102F800080E01995892B09F47DC0E0910000F09153
:102F90000100AA20F9F00484F585E02D90E080E09E
:102FA000199588838091D4059091D505A091D60577
:102FB000B091D705892B8A2B8B2B39F181E0DF91DA
:102FC000CF911F910F91FF90EF90DF90CF90BF9026
:102FD000AF9008950284F385E02D90E080E019958C
:102FE00088838091D4059091D505A091D605B091A4
:102FF000D7050197A109B1098093D4059093D50510
:10300000A093D605B093D705CDCF65E070E080E002
:1030100090E00E946504E0910000F09101000084BE
:10302000F185E02D90E080E01995892B39F2E0914F
:103030000000F09101000484F585E02D90E080E02F
:1030400019952B2D30E0205D3F4F8217930709F033
:10305000B5CF40E060E673E084EF91E00E94F016A7
:10306000059761F065E573E084E197E00E949A16A8
:1030700066EE73E084E197E00E94861681E0F80135
:1030800080839DCF0E9497046C197D098E099F094A
:10309000603D77408105910508F46ACF65E573E0EE
:1030A00084E197E00E949A166DED73E084E197E069
:1030B0000E94420568E773E084E197E00E949A1657
:1030C0006091D4057091D5058091D6059091D70572
:1030D0000E94DD1567E673E084E197E00E948215A7
:1030E0001092D4051092D5051092D6051092D705EE
:1030F0001092D305188280E062CF0F931F93CF9375
:10310000DF931F921F92CDB7DEB78C01DC01ED91EA
:10311000FC910084F185E02D1995892B59F11A82D3
:10312000F80184859091D305891309C09E012E5F13
:103130003F4F41E0BE016F5F7F4F0E94A6178A811B
:10314000882379F0D8011C96EC911C97F0E0EE0FE3
:10315000FF1FE15FFD4F8FEF9FEF918380831C96F0
:103160008C93898190E00F900F90DF91CF911F9108
:103170000F9108958FEF9FEFF6CF0F931F93CF938B
:10318000DF931F921F92CDB7DEB78C01DC01ED916A
:10319000FC910084F185E02D1995892B59F11A8253
:1031A000F80184859091D305891309C09E012E5F93
:1031B0003F4F40E0BE016F5F7F4F0E94A6178A819C
:1031C000882379F0D8011C96EC911C97F0E0EE0F63
:1031D000FF1FE15FFD4F8FEF9FEF918380831C9670
:1031E0008C93898190E00F900F90DF91CF911F9188
:1031F0000F9108958FEF9FEFF6CFCF93DF93EC0100
:103200006AE673E084E197E00E949A166A817B8106
:10321000072E000C880B990B0E94DD156AE773E0FE
:1032200084E197E00E949A168D819E810E940F167C
:103230008D819E81029729F48A819B81DF91CF91B4
:10324000089590E080E0FACF0F931F93CF93DF9320
:10325000EC018B859C85DC01ED91FC910190F08166
:10326000E02D1995E881F98102811381CE010E9438
:10327000FD18BC01CE01F801DF91CF911F910F9194
:103280001994CF93DF93EC01E091C005F091C10553
:10329000808191810E94FD1899838883DF91CF916D
:1032A00008950F931F93CF93DF938C01E091C00596
:1032B000F091C105C081D18166E873E084E197E0B7
:1032C0000E949A16C8010E940F161B830A83E88188
:1032D000F9810280F381E02DB801CE0119958A8130
:1032E0009B81892B49F082E090E09E838D83DF9162
:1032F000CF911F910F91089590E080E0F6CF2F922B
:103300003F924F925F926F927F928F929F92AF9275
:10331000BF92CF92DF92EF92FF920F931F93CF93C2
:10332000DF9300D0CDB7DEB75C012DB73EB73B834E
:103330002A83FC015580852D90E07C01F1E0EF1A95
:10334000F108880F991F880F991F281B390B0FB69A
:10335000F8943EBF0FBE2DBF0DB71EB70F5F1F4FB6
:103360003B01F501F781F983D12CC12C4701C5142C
:1033700078F16801712C88248A9499249A945714BE
:1033800009F448C02FEF82120DC026E636E646E665
:103390005FE3F60160817181828193810E94C23472
:1033A00087FF872CFFEF9F120EC02DEC3CEC4CECFE
:1033B0005DE3F60160817181828193810E94C23454
:1033C00018160CF4972C7394F4E0CF0ED11CD7CFC1
:1033D000F30121913191419151913F01F981C40152
:1033E0008C199D09F111C601880F991F880F991F2B
:1033F0001801280E391E60E070E080E89FE30E940B
:103400006F33F1016083718382839383FFEFCF1A5F
:10341000DF0AADCF682D70E0C92CD12C36012FEF1B
:10342000621A720A66157705A1F4072E000C880B44
:10343000990B0E94DF31CC0CDD1CCC0CDD1C0C0D7B
:103440001D1DF80120813181428153810E946F331B
:1034500011C0FFEF9F1609F48FC08F1609F463C0E7
:10346000882009F485C08910E0CF70E090E080E00A
:103470000E94DD312B013C01B701FF0C880B990B39
:103480000E94DF3120E030E040E05FE30E943E3206
:103490009B01AC01C301B2010E946F336B017C013F
:1034A000F981F11104C0F7FAF094F7F8F094F501FE
:1034B000668170E090E080E00E94DF31A701960114
:1034C0000E943E326B017C0120E030E0A9010E94A5
:1034D000C23420E030E040E05FE387FD54C0C70124
:1034E000B6010E9470330E944E34862F2A813B81A0
:1034F0000FB6F8943EBF0FBE2DBF0F900F900F90E8
:10350000DF91CF911F910F91FF90EF90DF90CF90BF
:10351000BF90AF909F908F907F906F905F904F90F3
:103520003F902F900895CE14DF04FCF4CC0CDD1CEA
:10353000CC0CDD1CF801EC0DFD1D2080318042809B
:10354000538020E030E0A9016481758186819781F4
:103550000E94C23418164CF4B301770C880B990BF7
:103560000E94DF31A201910171CF692D91107DCFB1
:10357000412C512C320180CF412C512C80EC682EF3
:103580008FE7782E79CFC701B6010E946F33ABCF9A
:103590004F925F926F927F928F929F92AF92BF9263
:1035A000CF92DF92EF92FF920F931F93CF93DF930F
:1035B000CDB7DEB77C016B01142F8DB69EB6DC0152
:1035C00015968C91EDB7FEB724E0829FE019F109C2
:1035D00011240FB6F894FEBF0FBEEDBF8DB79EB796
:1035E00001965C0100E0412C512C3201D701149668
:1035F0008C911497081718F5802F90E0880F991F69
:103600001296ED91FC911397E80FF91F808191813B
:1036100015964C914419B201660F771F660F771FFC
:103620006A0D7B1DDC01ED91FC910190F081E02D94
:103630001995480E511C611C711C0F5FD7CFB50145
:10364000C7010E947F19803809F1112341F0F6016A
:10365000808311821230E0F08283138212E0812F86
:103660000FB6F8949EBE0FBE8DBEDF91CF911F9115
:103670000F91FF90EF90DF90CF90BF90AF909F9011
:103680008F907F906F905F904F90089510E0E7CFFC
:1036900011E0E5CF4F925F926F927F92AF92BF920F
:1036A000CF92DF92FF920F931F93CF93DF93CDB70B
:1036B000DEB78C01ADB6BEB6DC0115968C91EDB7C8
:1036C000FEB724E0829FE019F10911240FB6F894A7
:1036D000FEBF0FBEEDBF8DB79EB701966C01F12CFA
:1036E000412C512C3201D80114968C911497F81664
:1036F00018F58F2D90E0880F991F1296ED91FC918F
:103700001397E80FF91F8081918115964C91441908
:10371000B201660F771F660F771F6C0D7D1DDC01F0
:10372000ED91FC910190F081E02D1995480E511C0E
:10373000611C711CF394D7CFB601C8010E947F1998
:103740000FB6F894BEBE0FBEADBEDF91CF911F91F4
:103750000F91FF90DF90CF90BF90AF907F906F90D0
:103760005F904F900895AF92BF92CF92DF92EF9209
:10377000FF920F931F93CF93DF93DC011296ED918D
:10378000FC9180819181019709F04BC08B01C4802D
:10379000D580F601E280F12C5601D0E0C0E0CE15D4
:1037A000DF05E4F561EB72E0D50113968D919C91F4
:1037B0000E94E936B4E0AB0EB11C892B69F5CC0F41
:1037C000DD1FCC0FDD1FCC0DDD1D0D80DE81C02D7A
:1037D0008E819F81892B29F16A857B854885598552
:1037E000C8010E94D9368A859B8528853985820F34
:1037F000931F9B878A872E813F81215031093F8308
:103800002E832A813B818217930721F48881998135
:103810009B878A8781E006C02196C1CFD0E0C0E0B7
:10382000D7CF80E0DF91CF911F910F91FF90EF9064
:10383000DF90CF90BF90AF900895CF92DF92EF923C
:10384000FF920F931F93CF93DF93DC011296ED91BC
:10385000FC9180819181019729F504811581F801FE
:10386000C280D12C7801D0E0C0E0CC15DD0534F564
:1038700061EB72E0D70113968D919C910E94E9361D
:10388000B4E0EB0EF11C892BB9F4CC0FDD1FCC0F8B
:10389000DD1FC00FD11FED81FE8181E026813781C0
:1038A000232B09F480E0DF91CF911F910F91FF90BE
:1038B000EF90DF90CF9008952196D7CFF0E0E0E031
:1038C000ECCF0E94C736CF93DF93CDB7DEB7C85C8D
:1038D000D1090FB6F894DEBF0FBECDBF9E012E52A8
:1038E0003F4FC253DF4F48815981CE5CD04068ECD6
:1038F00070E0CE0101960E94092F0E949302BE0142
:103900006F5F7F4F90E080E00E946D1641E070E0B5
:1039100060E0C053DF4F88819981C05DD0400E9434
:10392000F016C853DF4F0FB6F894DEBF0FBECDBF01
:10393000DF91CF910895EF92FF920F931F93CF9352
:10394000DF93EC01162F072FF42EE52E65E573E0CB
:1039500084E197E00E949A166FEC73E084E197E0AF
:103960000E94420568E773E084E197E00E949A169E
:10397000612F702F84E197E00E946D16EFE0F2E076
:1039800083E090E0268137812F3F3F4F31F0019750
:1039900032978F3F9807B1F78FEF8C878F3F69F190
:1039A000EF92FF920F931F931F928F9383E18F9358
:1039B00088E88F9382EB93E09F938F930E94631C20
:1039C0002DB73EB7265F3F4F0FB6F8943EBF0FBEF0
:1039D0002DBF892BF1F48C8590E0FC01EE0FFF1FC9
:1039E000E15FFD4F9183808381E090E0DF91CF9193
:1039F0001F910F91FF90EF90089565E573E084E1CA
:103A000097E00E949A166EE973E084E197E00E94C5
:103A1000861690E080E0EACF0C949B1CCF93DF9356
:103A2000FC0124852F3F09F440C0EC0165E573E0FB
:103A300084E197E00E949A1664EE72E084E197E0D8
:103A40000E94420568E773E084E197E00E949A16BD
:103A50004C8550E070E060E02AE084E197E00E944D
:103A6000911567E673E084E197E00E9482158C85EA
:103A70001F928F938FE08F9380EA8F9385ED92E072
:103A80009F938F930E94631CEC85F0E0EE0FFF1F65
:103A9000E15FFD4F8FEF9FEF918380838C870F90C5
:103AA0000F900F900F900F900F90DF91CF9108958E
:103AB000AF92BF92CF92DF92EF92FF920F931F933C
:103AC000CF93DF93CDB7DEB764970FB6F894DEBF20
:103AD0000FBECDBF7C015B018A01DC011C968C917D
:103AE000843018F441155105C9F481E090E0F701E4
:103AF0009383828310E000E0C80164960FB6F894C7
:103B0000DEBF0FBECDBFDF91CF911F910F91FF9010
:103B1000EF90DF90CF90BF90AF9008951F934F9399
:103B20001F928F938AEA92E09F938F939E012F5F5B
:103B30003F4F69013F932F930E94D92EB60190E029
:103B400080E00E946D1640E066E973E088EE93E045
:103B50000E94F0160FB6F894DEBF0FBECDBF0597DA
:103B600009F443C065E573E084E197E00E949A168A
:103B70006FE872E084E197E00E94861681E090E0B1
:103B8000F7019383828365E573E084E197E00E9407
:103B90009A166BEB72E084E197E00E94420568E7B9
:103BA00073E084E197E00E949A16D7011C964C912D
:103BB00050E070E060E02AE084E197E00E94911517
:103BC00067E673E084E197E00E94821560EA7FE097
:103BD00080E090E00E946504D701ED91FC9104889B
:103BE000F589E02DC701199585CFE0910000F0918E
:103BF00001000280F381E02DA801B50190E080E092
:103C0000199541E070E060E080ED97E00E94F016C9
:103C1000039709F471CF65E573E084E197E00E94B2
:103C20009A1664E772E0A6CFCF92DF92EF92FF92EE
:103C30000F931F93CF93DF93CDB7DEB760970FB687
:103C4000F894DEBF0FBECDBF7C01FB016A01858108
:103C50001F928F9384811F928F9383811F928F93E2
:103C600082811F928F9388E692E09F938F938E01BB
:103C70000F5F1F4F1F930F930E94D92EA601B8010B
:103C8000C7010E949B1C0FB6F894DEBF0FBECDBFCC
:103C900060960FB6F894DEBF0FBECDBFDF91CF9117
:103CA0001F910F91FF90EF90DF90CF900895EF92CA
:103CB000FF920F931F93CF93DF93CDB7DEB76E972D
:103CC0000FB6F894DEBF0FBECDBFFC0184858F3FD9
:103CD00009F483C08F010E94BF06892B09F060C0E0
:103CE000D8011C968C911F928F938FE193E09F9344
:103CF0008F93FE0131967F01FF93EF930E94D92E9F
:103D00001D8A0E94930262E173E090E080E00E94CD
:103D1000861641E0B70188EE93E00E94F0160F90FE
:103D20000F900F900F900F900F908530910509F034
:103D300066C0809146089091470890934B08809305
:103D40004A0840914408509145084F5F5F4F70E02A
:103D500060E00E94E23641E06FEA72E084EF91E0B9
:103D60000E94F0160597F1F460914608709147089B
:103D700040914A0850914B08461B570B415051093E
:103D80004A30510510F049E050E0CE0145960E94BE
:103D9000F23641E070E060E080ED97E00E94F016BE
:103DA00094E01CC065E573E084E197E00E949A16F8
:103DB00063EF72E084E197E00E948616D8011C96BA
:103DC000EC911C97F0E0EE0FFF1FE15FFD4F8FEFCE
:103DD0009FEF918380831C968C9390E081E09430D8
:103DE00009F080E06E960FB6F894DEBF0FBECDBF2F
:103DF000DF91CF911F910F91FF90EF90089505975C
:103E0000E8F265E573E084E197E00E949A1665E0C8
:103E100073E0D0CF3F924F925F926F927F928F92DA
:103E20009F92AF92BF92CF92DF92EF92FF920F9349
:103E30001F93CF93DF9300D000D0CDB7DEB79E8322
:103E40008D83FC013480078110856B01770FEE08AC
:103E5000FF08311024C0B701A601C8010E941D0C43
:103E6000B701A601ED81FE818185928526960FB668
:103E7000F894DEBF0FBECDBFDF91CF911F910F91A0
:103E8000FF90EF90DF90CF90BF90AF909F908F907A
:103E90007F906F905F904F903F900C941D0C632D1E
:103EA000032C000C770B77FF03C0719561957109A6
:103EB000072E000C880B990B0E94DF319B01AC018F
:103EC00060E070E084EB92E40E946F332BED3FE002
:103ED00049E450E40E943E3220E030E044E353E401
:103EE0000E94DC330E94C7344B015C01ED81FE81EE
:103EF000668570E090E080E00E94DF31A5019401CA
:103F00000E943E324B015C01ED81FE817584672D7C
:103F1000669570E090E080E00E94DF31A501940199
:103F20000E94703369837A838B839C83672D70E052
:103F300090E080E00E94DF31A50194010E9470337F
:103F400029813A814B815C810E94DC332B013C0149
:103F500029813A814B815C81C501B4010E94DC3327
:103F60004B015C01C701B6010E94DF316B017C018E
:103F7000AC019B011314B4F4C301B2010E943E32A0
:103F80000E944E34AB01BC01C8010E941D0CA70168
:103F90009601C501B4010E943E320E944E34AB012D
:103FA000BC0160CFC501B4010E943E320E944E3474
:103FB000AB01BC01C8010E941D0CA7019601C30101
:103FC000B201E9CF0F931F93CF93DF93EC018A8166
:103FD0009B8161E0891358C00E94380360E08B81A7
:103FE0000E94380360E08A810E94AC028FE090E07A
:103FF0000197F1F761E08A810E94AC0283E290E0D0
:104000000197F1F760E08A810E94AC028B8190E019
:10401000FC01EB58FB4F6491FC01E15DFB4FE49127
:10402000F0E0EE0FFF1FE550FC4F859194910C815D
:104030001D8130E020E0462F0E94DC2261157105D1
:104040008105910509F43BC09B01AC012F5F3F4FF7
:104050004F4F5F4F5F70211531054105510579F1D3
:10406000A4E5B1E00E944D3368547D408109910977
:1040700020ED37E040E050E00E940C33C901DF91B1
:10408000CF911F910F9108950E94380360E08A81BB
:104090000E94AC028FE090E00197F1F761E08A8125
:1040A0000E94AC0283E290E00197F1F760E08A8120
:1040B0000E94AC0260E08B810E943803A7CF8FEF93
:1040C0009FEFDDCF1F920F920FB60F9211242F9307
:1040D0003F938F939F93AF93BF938091CB05909124
:1040E000CC05A091CD05B091CE053091CA0523E055
:1040F000230F2D3758F50196A11DB11D2093CA0538
:104100008093CB059093CC05A093CD05B093CE05BD
:104110008091CF059091D005A091D105B091D205A5
:104120000196A11DB11D8093CF059093D005A0935A
:10413000D105B093D205BF91AF919F918F913F91DF
:104140002F910F900FBE0F901F90189526E8230F08
:104150000296A11DB11DD2CF1F920F920FB60F92E2
:1041600011240BB60F922F933F934F935F936F934E
:104170007F938F939F93AF93BF93EF93FF938AEDBA
:1041800095E00E940706FF91EF91BF91AF919F913B
:104190008F917F916F915F914F913F912F910F90F0
:1041A0000BBE0F900FBE0F901F9018951F920F928D
:1041B0000FB60F9211240BB60F922F933F934F938C
:1041C0005F936F937F938F939F93AF93BF93EF937F
:1041D000FF938AED95E00E949305FF91EF91BF91C7
:1041E000AF919F918F917F916F915F914F913F918F
:1041F0002F910F900BBE0F900FBE0F901F90189530
:104200001F920F920FB60F9211240BB60F922F939D
:104210003F934F935F936F937F938F939F93AF934E
:10422000BF93EF93FF9387E796E00E940706FF9105
:10423000EF91BF91AF919F918F917F916F915F911E
:104240004F913F912F910F900BBE0F900FBE0F908B
:104250001F9018951F920F920FB60F9211240BB654
:104260000F922F933F934F935F936F937F938F930F
:104270009F93AF93BF93EF93FF9387E796E00E94DE
:104280009305FF91EF91BF91AF919F918F917F9196
:104290006F915F914F913F912F910F900BBE0F90B7
:1042A0000FBE0F901F9018951F920F920FB60F928E
:1042B00011240BB60F922F933F934F935F936F93FD
:1042C0007F938F939F93AF93BF93EF93FF9384E17B
:1042D00097E00E940706FF91EF91BF91AF919F91E8
:1042E0008F917F916F915F914F913F912F910F909F
:1042F0000BBE0F900FBE0F901F9018951F920F923C
:104300000FB60F9211240BB60F922F933F934F933A
:104310005F936F937F938F939F93AF93BF93EF932D
:10432000FF9384E197E00E949305FF91EF91BF9185
:10433000AF919F918F917F916F915F914F913F913D
:104340002F910F900BBE0F900FBE0F901F901895DE
:104350001F920F920FB60F9211240BB60F922F934C
:104360003F934F935F936F937F938F939F93AF93FD
:10437000BF93EF93FF93E091E807F091E90730973F
:1043800049F0A685B7858585968D91FF16C09C91CD
:104390008923B1F4FF91EF91BF91AF919F918F91DC
:1043A0007F916F915F914F913F912F910F900BBE35
:1043B0000F900FBE0F901F9018959C91892351F775
:1043C000A389B4899C918589809589238C9386895A
:1043D00097890197F1F7608D718DA685B785558511
:1043E00038E020E0CB010197F1F7822F90E095951E
:1043F0008795282F4C91452309F02068315091F77B
:10440000868D81FD209580918E0490E001968F73BA
:10441000992730918F04381799F0A0918E04B0E05D
:10442000A25BBB4F2C9380938E04828D938D01975A
:10443000F1F7A389B4898C919589892B8C93AACFA4
:10444000868D8160868FF1CF1F920F920FB60F92EB
:1044500011240BB60F922F933F934F935F936F935B
:104460007F938F939F93AF93BF93EF93FF9348E214
:1044700051E064E271E090E080E00E94090AFF915F
:10448000EF91BF91AF919F918F917F916F915F91CC
:104490004F913F912F910F900BBE0F900FBE0F9039
:1044A0001F9018951F920F920FB60F9211240BB602
:1044B0000F922F933F934F935F936F937F938F93BD
:1044C0009F93AF93BF93EF93FF9348EA50E064EA62
:1044D00070E083E090E00E94090AFF91EF91BF91A4
:1044E000AF919F918F917F916F915F914F913F918C
:1044F0002F910F900BBE0F900FBE0F901F9018952D
:104500001F920F920FB60F9211240BB60F922F939A
:104510003F934F935F936F937F938F939F93AF934B
:10452000BF93EF93FF9348E950E064E970E082E0C5
:1045300090E00E94090AFF91EF91BF91AF919F9186
:104540008F917F916F915F914F913F912F910F903C
:104550000BBE0F900FBE0F901F9018951F920F92D9
:104560000FB60F9211240BB60F922F933F934F93D8
:104570005F936F937F938F939F93AF93BF93EF93CB
:10458000FF9348E850E064E870E081E090E00E942A
:10459000090AFF91EF91BF91AF919F918F917F9108
:1045A0006F915F914F913F912F910F900BBE0F90A4
:1045B0000FBE0F901F901895CF92DF92EF92FF924F
:1045C0000F931F93E82FF92F05C0015011092109FE
:1045D000310961F1908196239417B9F305C0015018
:1045E00011092109310911F1908196239413F7CF14
:1045F000C12CD12CE12CF12C0AC08FEFC81AD80A9B
:10460000E80AF80A0C151D052E053F0579F0808192
:104610008623841791F36C2D7D2D8E2D9F2D1F9158
:104620000F91FF90EF90DF90CF90089560E070E0E1
:1046300080E090E01F910F91FF90EF90DF90CF907E
:104640000895CF938DE992E0909314088093130816
:104650008091E8079091E9078351984071F4E091C7
:104660002608F09127089081809128088095892359
:1046700080831092E9071092E8078091F0079091EB
:10468000F1070E943E3680913208909133080097DE
:1046900011F00E943E3680913408909135080097C1
:1046A00011F00E943E368091390890913A080097A7
:1046B00011F00E943E368091410890914208009787
:1046C00011F00E943E368091360890913708892B70
:1046D000D1F0C0E0809136089091370820913808D9
:1046E000C21778F42C2F30E0220F331F820F931F54
:1046F000FC0180819181009711F00E943E36CF5FCE
:10470000E9CF0E943E3680913B0890913C08892B6E
:10471000D1F0C0E080913B0890913C0820913D0889
:10472000C21778F42C2F30E0220F331F820F931F13
:10473000FC0180819181009711F00E943E36CF5F8D
:10474000E9CF0E943E3680913E0890913F08892B28
:10475000D9F0C0E080913E0890913F082091400838
:10476000C21778F42C2F30E0220F331F820F931FD3
:10477000FC0180819181009711F00E943E36CF5F4D
:10478000E9CFCF910C943E36CF910895CF92DF922E
:10479000EF92FF92CF93DF931092DD051092DC052C
:1047A00098EEC92E93E0D92EE12CF12CC092DE05B3
:1047B000D092DF05E092E005F092E1058BE592E012
:1047C0009093DB058093DA0525ED30E03093E70523
:1047D0002093E60524ED30E03093E9052093E805C9
:1047E00020ED30E03093EB052093EA0521ED30E039
:1047F0003093ED052093EC0522ED30E03093EF058A
:104800002093EE0526ED30E03093F1052093F0057E
:104810001092F3051092F4051092F5051092F6052A
:1048200010927A0610927906C0927B06D0927C068E
:10483000E0927D06F0927E0690937806809377064C
:104840002DEC30E030938406209383062CEC30E08E
:10485000309386062093850628EC30E03093880656
:104860002093870629EC30E030938A06209389064E
:104870002AEC30E030938C0620938B062EEC30E04F
:1048800030938E0620938D0610929006109291061A
:104890001092920610929306109217071092160724
:1048A000C0921807D0921907E0921A07F0921B07DE
:1048B000909315078093140785EC90E0909321075F
:1048C0008093200784EC90E0909323078093220745
:1048D00080EC90E0909325078093240781EC90E092
:1048E000909327078093260782EC90E09093290706
:1048F0008093280786EC90E090932B0780932A07FB
:1049000010922D0710922E0710922F071092300749
:10491000C7E9D2E0D093B207C093B1071092B307B2
:104920001092B4071092B5071092B60780E290E09B
:10493000909345088093440881E290E00E94A2355C
:1049400090934708809346089C01205E3F4F309328
:1049500049082093480890934B0880934A0821E225
:10496000FC0111922A95E9F7D093B807C093B707D5
:104970001092B9071092BA071092BB071092BC07A9
:10498000D093BE07C093BD071092BF071092C00717
:104990001092C1071092C207D093C407C093C307F7
:1049A0001092C5071092C6071092C7071092C80749
:1049B000D093CA07C093C9071092CB071092CC07B7
:1049C0001092CD071092CE07D093D007C093CF0797
:1049D0001092D1071092D2071092D3071092D407E9
:1049E0001092330810923208109235081092340851
:1049F00010923A0810923908109242081092410819
:104A0000109237081092360810923C0810923B081A
:104A100010923F0810923E08109243080E9497049B
:104A2000D093E307C093E2071092E4071092E507E2
:104A30001092E6071092E7071092D8071092D70756
:104A4000C092D907D092DA07E092DB07F092DC0738
:104A500089E792E09093D6078093D5078FEF8093F4
:104A6000E1071092ED071092EC078DE692E090932B
:104A7000EB078093EA07D0930608C09305081092CD
:104A80000708109208081092090810920A088FEF80
:104A90009FEF90931208809311081092EF071092E5
:104AA000EE071092100810920F081092040810924E
:104AB000030880E091E00E94A2359093F107809373
:104AC000F00780E091E09093F3078093F2078FE086
:104AD00090E09093F5078093F4079093F707809305
:104AE000F6071092160810921508C0921708D09277
:104AF0001808E0921908F0921A088DE992E0909354
:104B000014088093130810922A0810922908109212
:104B10002C0810922B0810922E0810922D0810923B
:104B2000300810922F08609131086E7F6D7F60937E
:104B300031086695617081E0682783E00E94AC02CD
:104B400061E083E00E943803E8E7F4E0E491E09359
:104B50002308E2E3F4E0E491F0E0EE0FFF1FEB5EE8
:104B6000FB4F85919491909325088093240860E0F1
:104B700082E00E9438038091310881FD04C061E029
:104B800082E00E94AC0282E080931F08E7E7F4E035
:104B9000E491E0932008E1E3F4E0E491F0E0EE0F2B
:104BA000FF1FE550FC4F85919491909322088093CC
:104BB0002108DF91CF91FF90EF90DF90CF90089583
:104BC000CF93DF93CDB7DEB7E3970FB6F894DEBF90
:104BD0000FBECDBF789484B5826084BD84B58160FA
:104BE00084BD85B5826085BD85B5816085BD8091B8
:104BF0006E00816080936E00109281008091810030
:104C00008260809381008091810081608093810027
:104C1000809180008160809380008091B1008460E9
:104C20008093B1008091B00081608093B00080914A
:104C300091008260809391008091910081608093C7
:104C40009100809190008160809390008091A100FC
:104C500082608093A1008091A10081608093A10077
:104C60008091A00081608093A000809121018260EA
:104C700080932101809121018160809321018091A5
:104C8000200181608093200180917A00846080936C
:104C90007A0080917A00826080937A0080917A0015
:104CA000816080937A0080917A00806880937A0096
:104CB0001092C10082E398E09093C1058093C005F3
:104CC0008091430881117EC189E090E00E94A23565
:104CD0008C0183E592E0D80111969C938E9383E03A
:104CE00012968C93129780E092E016969C938E9386
:104CF000159718961C921E92179783E090E00E94D9
:104D0000A235F8019483838320910C0230910D0227
:104D100040910E02DC012D933D934C9310933A0881
:104D20000093390888E090E00E94A2357C0189E474
:104D300092E0F70191838083BB24B394B48280E135
:104D40008683178282E090E00E94A235D7011396F5
:104D50009C938E931297FC0111830083C8010E94DB
:104D6000580CD70115968C93F0923508E0923408D0
:104D7000B2E0AB2EA092380884E090E00E94A23509
:104D80008C01909337088093360886E090E00E946B
:104D9000A235FC0181E4C82E82E0D82ED182C082E7
:104DA00090E3892E828221E3922E93823AEFE32EC2
:104DB00036E1F32EF582E482D801ED93FC9386E090
:104DC00090E00E94A235FC01D182C082828293824F
:104DD000F582E482D80113969C938E931297A09249
:104DE0003D0884E090E00E94A23590933C088093B7
:104DF0003B0889E090E00E94A2358C0142E0C42E7D
:104E0000D12CFC01D382C282158214825BE3E52E91
:104E100052E0F52EF182E0828DE086838CE087837C
:104E20008BE0808761E08DE00E94380361E0D8016B
:104E300017968C910E94380361E0F80180850E94EA
:104E40003803E0913B08F0913C081183008389E02E
:104E500090E00E94A2358C01DC011396DC92CE9288
:104E6000129715961C921E9214971196FC92EE9230
:104E700088E016968C93169789E017968C9317976F
:104E80008AE018968C9361E088E00E94380361E024
:104E9000F80187810E94380361E0D80118968C914F
:104EA0000E943803C0903B08D0903C08F601138361
:104EB0000283B092400882E090E00E94A2358C010B
:104EC00090933F0880933E088BE090E00E94A235CB
:104ED0007C0188E2D70112968C93129787E2139691
:104EE0008C93139785E392E011969C938E93809117
:104EF0002005803308F02EC491E0980F9093200590
:104F000014968C9390E0FC01EE0FFF1FE80FF91F41
:104F1000E057FB4F88EB9BE09283818384E3D701CA
:104F200017968C93179783E118968C93189782E4C1
:104F300019968C9319978DE61A968C93F801F18245
:104F4000E0828FE090E00E94A2358C01D60112969B
:104F50008D919C9113972D913C91F80113821282AF
:104F60001482168215824BE252E0518340833087CF
:104F7000278392878187F486E38688E7858784E69E
:104F80008687109333080093320887E090E00E94F0
:104F9000A235FC01A0913608B09137088D919C9103
:104FA00020913408309135083183208313830283A4
:104FB000958384831682F0934208E093410881E050
:104FC0008093430821E030E03A83298383E090E036
:104FD0009C8B8B8B44E25FE05E8B4D8B4AE050E014
:104FE000588F4F8B42E050E05A8F498F9C838B83C0
:104FF0004BEA52E15E834D834EE65EEA58874F836B
:105000004CE25FE85A8749879C8F8B8F40EF5DE0C9
:105010005E8F4D8F45E755E258A34F8F4FEF54E811
:105020005AA349A39CA38BA342E15EE05EA34DA3D8
:1050300040ED5FEF58A74FA34DEE57E45AA749A79D
:105040009C878B8783E593E19E878D8783E793E138
:10505000988B8F8784E99AE79A8B898BE0905B0520
:10506000F0905C058AE38E9D80018F9D100D1124C8
:10507000A8014F5D5A4F5A01DA012D933C938FE3FB
:1050800090E00E94A2356C01009729F0FC01B182EA
:10509000A0820E94540D2AE32E9DC0012F9D900DE9
:1050A00011249C012F5D3A4F7901D9011396DC92AE
:1050B000CE921297C6010E94540DC801875C9A4F88
:1050C0000E943E0DC8018F5B9A4F0E943E0DC801A1
:1050D000875B9A4F0E943E0DC8018F5A9A4F0E94DB
:1050E0003E0D8B819C810097B9F0F70195838483F5
:1050F00086E090E00E94A235D70117969C938E938C
:1051000016970B5D1A4FFC0113830283ED81FE811C
:10511000BC01CE01019619958B859C85009739F1CC
:1051200020915B0530915C054AE3429F8001439FDB
:10513000100D112498012F5D3A4F7901D90119966C
:105140009C938E93189786E090E00E94A235F70119
:1051500093878287075D1A4FDC0113961C930E9389
:105160001297ED85FE85BC01CE01019619958B89BC
:105170009C89009721F120915B0530915C054AE301
:10518000429F8001439F100D1124F801EF5DFA4FFB
:105190007F019587848786E090E00E94A235D70141
:1051A0001F969C938E931E97035D1A4FFC011383E9
:1051B0000283ED89FE89BC01CE01019619958B8D84
:1051C0009C8D009739F120915B0530915C054AE395
:1051D000429F8001439F100D112498012F5D3A4F8B
:1051E0007901D90151969C938E93509786E090E077
:1051F0000E94A235F701938B828B0F5C1A4FDC0162
:1052000013961C930E931297ED8DFE8DBC01CE016B
:10521000019619958BA19CA1009721F120915B0526
:1052200030915C054AE3429F8001439F100D112499
:10523000F801EF5DFA4F7F01958B848B86E090E05B
:105240000E94A235D70157969C938E9356970B5C7C
:105250001A4FFC0113830283EDA1FEA1BC01CE0114
:105260000196199520915B0530915C05C901019665
:1052700090935C0580935B054AE3429FC001439F86
:10528000900D11248F5D9A4F9093C9058093C805A6
:1052900062E070E07A83698341E459E15C8B4B8B77
:1052A00021EE3DE03E8B2D8B83E090E09C838B8351
:1052B000EBE1F3E1FE83ED83EFEFF4E8F887EF83B2
:1052C000E5E7F5E2FA87E9879C878B87E3EEF2E171
:1052D000FE87ED87EDEEF7E4F88BEF87E0EDFFEF6B
:1052E000FA8BE98BE0918105F0918205A4E2AE9FF3
:1052F0007001AF9FF00C11248701035A1A4FD80197
:1053000011967C936E935B965C934E935A975D9641
:105310003C932E935C9713969C938E93129786E002
:1053200090E00E94A235F801958384839701215A69
:105330003A4FDC0113963C932E931297BC01CE0199
:1053400001960E941B138B859C850097C1F0F80184
:105350009783868386E090E00E94A235D801199653
:105360009C938E93189797012D593A4FFC013383E4
:105370002283ED85FE85BC01CE0101961995209111
:10538000810530918205C901019690938205809331
:10539000810544E2429FC001439F900D1124835A2E
:1053A0009A4F9093C7058093C60583E090E00E94D2
:1053B0008D0E9093C5058093C40584E090E00E9413
:1053C0008D0E9093C3058093C205E0912407F09160
:1053D000250782E08083E0912007F0912107108269
:1053E000E0912207F091230780E1808310922C073F
:1053F000E0912807F091290786E08083E091260755
:10540000F0912707808180618083E0912607F091E9
:105410002707808188608083E0912607F091270725
:10542000808180688083E0912607F0912707808142
:105430008F7D8083E3E8F5E08DE3DF011D928A959F
:10544000E9F7332433948091320890913308009720
:1054500039F0DC01ED91FC910190F081E02D19957E
:10546000E0904108F0904208E114F10409F487C08B
:10547000F70184819581DC01ED91FC910190F0812F
:10548000E02D19958C0168E973E084E197E00E94B2
:105490009A16A80170E060E02AE084E197E00E949B
:1054A000911567E673E084E197E00E948215043667
:1054B000110508F053C1F701828193810E94FD1804
:1054C000892B99F0D70112960D911C91D801ED917D
:1054D000FC910280F381E02D70E060E0C801199535
:1054E00021E030E0F80136832583F7018081918146
:1054F000DC01ED91FC910480F581E02D42E0BE01DC
:105500006F5F7F4F19958823D1F1F70102811381D5
:10551000268130E08150990B281739070CF4C90116
:10552000880F991FE1E0F0E0EC0FFD1FE80FF91F75
:105530006081F4E16F0270011124F7FE03C02FE0D7
:10554000E20EF11C74E0F594E7947A95E1F76BEACA
:1055500073E084E197E00E949A168E2D0E2C000CC9
:10556000990B0E940F16D8011496EC921497ED91A6
:10557000FC910480F581E02D6E2DC80119954090B5
:10558000C8055090C905F20182809380D401189615
:105590003C92189719963C9219971A963C921A9732
:1055A00012968D919C911397019709F03AC2169625
:1055B0008D919C9117978630910509F435C18730FC
:1055C000910509F47EC10597B1F514968D919C91D2
:1055D0001597039709F0EEC00D911C91045F1F4FC2
:1055E000C8010E941D1C882331F1BE016F5F7F4FEF
:1055F000C8010E94B31BF40187A190A594AF83AFAB
:1056000064E0E62EF12CF582E482E091C005F09191
:10561000C1050784F089E02D1682E6E0F0E0D401B0
:105620001796FC93EE931697C40143960E943E0D85
:10563000D40119961C92F40112868185882309F4FD
:10564000F0C1848195818230910509F4B9C1039735
:1056500009F0E4C10190F081E02D0684F785E02D8A
:1056600080819181019709F0D9C1E480F580F7012B
:105670006280712C6701570110E000E006151705E4
:105680000CF07FC36DED72E0D50113968D919C9166
:105690000E94E936B4E0AB0EB11C892B09F06EC351
:1056A000000F111F000F111FF701E00FF11F058000
:1056B000F681E02D86819781892B09F4AFC110E036
:1056C00000E0061517050CF062C36DED72E0F601FF
:1056D000838194810E94E936F4E0CF0ED11C892B9E
:1056E00009F052C3000F111F000F111FE00EF11E31
:1056F000D70115960D911C91F801C680D780C11471
:10570000D10401F1A084B184E284F384A501B7013E
:10571000CE0101960E94D936EA0CFB1CD8011B96DB
:10572000FC92EE921A97B1E0CB1AD108F801D78219
:10573000C68282819381E816F90621F480819181E5
:1057400093878287E2E0F0E0D4011596FC93EE9314
:10575000149764C18FEFF7018483E0CB0436110501
:1057600009F4C3CED70112968D919C910E94FD1829
:10577000892B09F0BACEF70102811381D801129664
:105780006D917C911397ED91FC910280F381E02D56
:10579000C8011995F80182819381892B41F490E029
:1057A00080E0D80116969C938E9315979ECE82E04A
:1057B00090E0F7CFF401A384B484C584D6847784C1
:1057C0006088218812891BAB0E9497047B018C01A1
:1057D00020E030E0A9016BA7FCA68DA71EA72FA78C
:1057E00038AB49AB5AAB9B01AC0160E070E080E0A4
:1057F00090E0E72CF62C022D1BA90E9490350E9408
:10580000843420E030E040E85FE30E94C23487FD4A
:1058100012CFD40197968D919C910E945119C40189
:105820000B960E943E0D07CFF40147A950AD61AD24
:1058300072AD87A590A9A1A9B2A9481759076A070F
:105840007B0744F457E0E52EF12CF782E682C40191
:105850004B96E7CFA388B488C588D6887788608CB4
:10586000218C128D1BAB0E9497047B018C0120E0E0
:1058700030E0A9016BA7FCA68DA71EA72FA738AB08
:1058800049AB5AAB9B01AC0160E070E080E090E076
:10589000E72CF62C022D1BA90E9490350E9484341F
:1058A00020E030E040E85FE30E94C23487FDC3CED1
:1058B000D40197968D919C910E945119C4014396F1
:1058C000B0CFF401848195810497B1F583A194A1AF
:1058D000A5A1B6A1880F991FAA1FBB1F47A950AD4C
:1058E00061AD72AD84179507A607B7070CF0A3CE7C
:1058F000E091C005F091C1050784F089E02D368262
:10590000E5E0F0E0D4011796FC93EE931697C401FE
:105910000B960E943E0DD4018D919C91BE016F5F4C
:105920007F4F0C960E94E31632E0E32EF12CF40137
:10593000F582E48211867FCE5B96AC905B975C9695
:10594000BC905C975D96CC905D975E96DC905E9780
:105950005F967C905F9790966C90909791962C9024
:10596000919792961C911BAB0E9497047B018C012E
:1059700020E030E0A9016BA7FCA68DA71EA72FA7EA
:1059800038AB49AB5AAB9B01AC0160E070E080E002
:1059900090E0E72CF62C022D1BA90E9490350E9466
:1059A000843420E030E040E85FE30E94C23487FDA9
:1059B00042CED40197968D919C910E94511947CF68
:1059C00043A954A965A976A983A194A1A5A1B6A1CB
:1059D000481759076A077B070CF563A574A585A5C9
:1059E00096A50E944E34D401DC967C936E93DB978F
:1059F000ED91FC910684F785E02D808191810197DE
:105A000039F4BE016F5F7F4F8BEB93E00E949C16D1
:105A100023E0E22EF12CF401F582E482D401199600
:105A20001C92F4011086D2019896AC9098979996A2
:105A3000BC9099979A96CC909A979B96DC909B975E
:105A40009C969C909C979D968C909D979E967C9002
:105A50009E979F966C900E9497047B018C0120E09A
:105A600030E0A9016BA7FCA68DA71EA72FA738AB16
:105A700049AB5AAB9B01AC0160E070E080E090E084
:105A8000E92CF82C072D162D0E9490350E948434A5
:105A900020E030E040EF51E40E94C23487FD0EC0A8
:105AA000D20112966D917C91655C7F4FC201409648
:105AB0000E942D15C20188960E943E0DF201A0A8F9
:105AC000B1A8C2A8D3A894A885A876A867A80E9460
:105AD00097047B018C0120E030E0A9016BA7FCA6B4
