:100000000C9485010C94AD010C94AD010C94531922
:100010000C9453190C9453190C94AD010C94AD012C
:100020000C94AD010C94AD010C94AD010C94AD0198
:100030000C94AD010C94AD010C94AD010C94AD0188
:100040000C94B1180C94AD010C9421190C94FB186C
:100050000C94AD010C94AD010C94AD010C94AD0168
:100060000C94CB190C94AD0125642E25642E2564C7
:100070002E25640044617461207061636B65742097
:1000800073656E64206572726F7220283229004495
:10009000617461207061636B65742073656E6420A8
:1000A0006572726F72202831290041542B434950E8
:1000B00053454E443D25642C2575004661696C65A9
:1000C0006420746F20777269746520746F20736F79
:1000D000636B65740041542B434950434C4F534567
:1000E0003D256400446973636F6E6E656374696E69
:1000F00067200041542B43495053544154555300F9
:100100002B4349505354415455533A25642C0045D0
:100110006E6420746167206E6F7420666F756E6404
:10012000004E6F2074616720666F756E64003E3EFE
:100130003E2054494D454F5554203E3E3E000D0A49
:100140000053444B2076657273696F6E3A004154D8
:100150002B474D520041542B4357444843503D31A7
:100160002C310041542B43574155544F434F4E4E71
:100170003D300041542B43495044494E464F3D3198
:100180000041542B4349504D55583D310041542BAB
:1001900043574D4F44453D31004154453000415493
:1001A0002B52535400496E6974696C697A617469A1
:1001B0006F6E207375636365737366756C202D00B5
:1001C0005761726E696E673A20556E737570706F05
:1001D00072746564206669726D776172650043614F
:1001E0006E6E6F7420696E697469616C697A6520DE
:1001F000455350206D6F64756C6500415400496E25
:10020000697469616C697A696E6720455350206D25
:100210006F64756C6500436F6E6E65637465642012
:10022000746F004661696C656420636F6E6E656310
:1002300074696E6720746F0041542B43574A4150D4
:100240005F4355523D222573222C22257322000044
:100250000000080002010000030407000000000085
:100260000000004E6F20736F636B657420617661D0
:10027000696C61626C650041542B43495053544191
:1002800052543D25642C22544350222C22257322A3
:100290002C257500436F6E6E656374696E672074FC
:1002A0006F0054494D454F55543A005461672043FF
:1002B0004C4F534544206E6F7420666F756E64001A
:1002C0000000000023002600290000000000240098
:1002D00027002A0000000000250028002B0004044D
:1002E00004040404040402020202020203030303DE
:1002F00003030102040810204080010204081020BA
:100300000102040810200B1BEA1A11241FBECFEFB4
:10031000D8E0DEBFCDBF26E0AEE4B4E001C01D9260
:10032000A03CB207E1F714E0A0E0B1E0E6EFF6E5AB
:1003300002C005900D92AE34B107D9F711E0C4E8C0
:10034000D1E004C02197FE010E94F729C338D107EC
:10035000C9F70E94F31C0C946E2B0C940000CF93F1
:10036000DF93EC01FA013296E60FF71FDC019D01E5
:100370002C1B3D0BCF01861B970B4D91442311F095
:100380004193F5CFAC01421B530B640F751FFB016A
:100390003297308361507109FB012083DF91CF9147
:1003A00008958091700690917106009711F480E095
:1003B0002FC0DC01ED91FC910688F789E02D0995AD
:1003C000209193063091940681111FC0232B79F759
:1003D0008DEF9FEF90939406809393068091700623
:1003E00090917106DC01ED91FC910680F781E02D82
:1003F00009958091700690917106DC01ED91FC9158
:100400000488F589E02D0995D2CF81E0232B79F678
:10041000089580912A0590912B05DC01ED91FC91C6
:100420000084F185E02D09951816190664F4809171
:100430002A0590912B05DC01ED91FC910284F38556
:10044000E02D0995E6CF0895FC01538D448D252FAD
:1004500030E0842F90E0821B930B541710F0CF965E
:10046000089501970895FC01918D828D981761F090
:10047000A28DAE0FBF2FB11D5D968C91928D9F5FA7
:100480009F73928F90E008958FEF9FEF0895FC0186
:10049000918D828D981731F0828DE80FF11D858D39
:1004A00090E008958FEF9FEF0895FC01918D228DCC
:1004B000892F90E0805C9F4F821B91098F73992751
:1004C0000895FC01A48DA80FB92FB11DA35ABF4FE9
:1004D0002C91848D90E001968F739927848FA68943
:1004E000B7892C93A089B1898C91837080648C9397
:1004F000938D848D981306C00288F389E02D808146
:100500008F7D80830895EF92FF920F931F93CF9377
:10051000DF93EC0181E0888F9B8D8C8D98131AC03E
:10052000E889F989808185FF15C09FB7F894EE8925
:10053000FF896083E889F989808183708064808382
:100540009FBF81E090E0DF91CF911F910F91FF90CD
:10055000EF900895F62E0B8D10E00F5F1F4F0F7375
:100560001127E02E8C8D8E110CC00FB607FCFACF30
:10057000E889F989808185FFF5CFCE010E9461026B
:10058000F1CFEB8DEC0FFD2FF11DE35AFF4FF08201
:100590009FB7F8940B8FEA89FB8980818062CFCF67
:1005A000CF93DF93EC01888D8823B9F0AA89BB89AA
:1005B000E889F9898C9185FD03C0808186FD0DC095
:1005C0000FB607FCF7CF8C9185FFF2CF808185FFB6
:1005D000EDCFCE010E946102E9CFDF91CF91089566
:1005E0008EE795E00E94550221E0892B09F420E076
:1005F000822F089580E090E0892B29F00E94F0027C
:1006000081110C940000089590E0FC01E15BFD4F26
:100610002491FC01EE50FD4F3491FC01E252FD4F5C
:10062000E491EE23C9F0222339F0233001F1A8F43C
:10063000213019F1223029F1F0E0EE0FFF1FEC52CA
:10064000FD4FA591B4918FB7F894EC91611126C03C
:1006500030953E233C938FBF08952730A9F0283072
:10066000C9F0243049F7809180008F7D03C08091CC
:1006700080008F7780938000DFCF84B58F7784BD33
:10068000DBCF84B58F7DFBCF8091B0008F778093D7
:10069000B000D2CF8091B0008F7DF9CF3E2BDACF62
:1006A0003FB7F8948091210590912205A0912305F0
:1006B000B091240526B5A89B05C02F3F19F00196DF
:1006C000A11DB11D3FBFBA2FA92F982F8827BC01AC
:1006D000CD01620F711D811D911D42E0660F771FD4
:1006E000881F991F4A95D1F708958F929F92AF92D4
:1006F000BF92CF92DF92EF92FF924B015C010E947A
:1007000050036B017C010E9450036C197D098E0916
:100710009F09683E734081059105A8F321E0821A84
:100720009108A108B10888EEC80E83E0D81EE11C2C
:10073000F11C81149104A104B10429F7FF90EF90FA
:10074000DF90CF90BF90AF909F908F9008952FB77C
:10075000F89460911D0570911E0580911F05909180
:1007600020052FBF0895EF92FF920F931F93CF9311
:10077000DF9300D000D0CDB7DEB7FA0120E08E01C4
:100780000F5F1F4F9E2F9F77EE0FEF2FEE1FFF0B78
:10079000F195309709F09068D801A20FB11D9C9394
:1007A0002F5F309779F730E0FB01E21BF30B848376
:1007B000FB01E21BF30B3596D801CD01801B910B99
:1007C000821793071CF48D918193F7CF2F5F3F4FD2
:1007D00080917006909171068901040F151F621BAC
:1007E000730B6B5F7F4FDC01ED91FC910280F38115
:1007F000E02DA80109957C010E94A70360937C0667
:1008000070937D0680937E0690937F0681E00E159F
:100810001F0509F080E00F900F900F900F90DF916F
:10082000CF911F910F91FF90EF9008958F929F921B
:10083000AF92BF92CF92DF92EF92FF92CF93DF936E
:10084000EC010E94A7034B015C018091700690911E
:100850007106DC01ED91FC910084F185E02D099594
:10086000892BB9F40E94A7036B017C01C818D90831
:10087000EA08FB082091780630917906A8EEB3E0EB
:100880000E949C29C616D706E806F906F0F280E019
:100890000DC08091700690917106DC01ED91FC9184
:1008A0000284F385E02D0995888381E0DF91CF9163
:1008B000FF90EF90DF90CF90BF90AF909F908F9080
:1008C00008952F923F924F925F926F927F928F92F4
:1008D0009F92AF92BF92CF92DF92EF92FF920F93CF
:1008E0001F93CF93DF93CDB7DEB72A970FB6F89457
:1008F000DEBF0FBECDBF1C018091720690917306C2
:100900000E94160481111CC060E070E0CB012A96A1
:100910000FB6F894DEBF0FBECDBFDF91CF911F9110
:100920000F91FF90EF90DF90CF90BF90AF909F908E
:100930008F907F906F905F904F903F902F90089591
:10094000E0917206F0917306D0801982EE24E39450
:10095000F12C812C912C5401412C512C32014394C7
:10096000CE0101960E941604882371F287010F5F61
:100970001F4F8981E0917206F0917306EE0DFF1D05
:100980008083E981AE2FAF77B0E0A30192010E948E
:100990005A29860E971EA81EB91E37E0440C551C16
:1009A000661C771C3A95D1F7E7FD3FC0BD2DB07F9F
:1009B000BE838FEF800FF1018083B03309F04CC00C
:1009C0008091720690917306800F911F0E94160409
:1009D000882309F499CF2091720630917306C701DC
:1009E0000296820F931F0E941604882309F48CCF6D
:1009F0000E5F1F4FE0917206F0917306D1018C914A
:100A0000DF01A80FB11D11968C91119790E0982FDE
:100A1000882712962C91820F911D208121FD02962C
:100A2000F2E0E0E030E020E01DC078010530110583
:100A300009F096CF8FEF9FEF9093940680939306E3
:100A40008091700690917106DC01ED91FC91048813
:100A5000F589E02D099558CFF0E0E0E030E020E0A6
:100A600090E080E070E060E0CF2EDE2EE32EF22EEC
:100A700028013B014C185D086E087F084A825B82A2
:100A80006C827D822C01712C612C4F825886698684
:100A90007A864A805B806C807D804C0C5D1C6E1C6D
:100AA0007F1CC814D904EA04FB0408F046C0CE0138
:100AB00001960E941604882309F426CF809191069E
:100AC00090919206009711F12E812033F9F4D10113
:100AD0002C914EEF5FEF6FEF7FEF421B51096109E1
:100AE0007109440E551E661E771E2F813885498573
:100AF0005A85241535054605570540F4DC01ED916E
:100B0000FC910190F081E02D698109958091740636
:100B1000909175060817190750F48981E0917206C3
:100B2000F0917306E00FF11F80830F5F1F4FBFEF3F
:100B3000CB1ADB0AEB0AFB0AACCF809191069091AD
:100B40009206892B69F48091740690917506B0E045
:100B5000A0E084159505A605B70510F410E000E0A7
:100B6000B80190E080E0D3CE0895CF93DF93AC013D
:100B7000E0910805F09109053097F1F090910F058B
:100B800080910E059817C0F090E0292F30E02617CD
:100B9000370754F4D901A05BBB4F240F351FE9017F
:100BA00028812C939F5FF1CF10920F0560930E0563
:100BB000CB01DF91CF910994DF91CF9108950F93ED
:100BC0001F93CF93DF93EC010E94A7036887798777
:100BD0008A879B87E881F9810484F585E02DCE0121
:100BE000099597FF15C00E94A703088519852A85D6
:100BF0003B85601B710B820B930B0C811D812E8139
:100C00003F81601771078207930720F38FEF9FEFF3
:100C1000DF91CF911F910F910895BF92CF92DF92F4
:100C2000EF92FF920F931F93CF93DF938C01C80134
:100C30000E94DF05EC0197FD5DC0D801ED91FC91AC
:100C40000284F385E02D8D32910521F0C0970A973B
:100C500008F04AC0C12CD12C7601B12CC130D1058D
:100C6000D9F0CD32D10509F442C0CE01C0970A9720
:100C700098F4AAE0B0E0A70196010E945A296E01FB
:100C8000DD0FEE08FF08C60ED71EE81EF91EB0E302
:100C9000CB1AD108E108F108D801ED91FC9102844A
:100CA000F385E02DC8010995C8010E94DF05EC011C
:100CB000C0970A9798F2C130D10581F2BB2041F06C
:100CC000F094E094D094C094C11CD11CE11CF11CA0
:100CD000C701B601DF91CF911F910F91FF90EF9067
:100CE000DF90CF90BF900895C8010995A0CFBB2495
:100CF000B394D2CFC12CD12C7601EACF0F931F939E
:100D0000CF93DF93EC010E94A703688779878A87D6
:100D10009B87E881F9810284F385E02DCE01099556
:100D200097FF15C00E94A703088519852A853B8572
:100D3000601B710B820B930B0C811D812E813F81F7
:100D4000601771078207930720F38FEF9FEFDF9102
:100D5000CF911F910F910895EF92FF920F931F93E0
:100D6000CF93DF938C017B01D0E0C0E0F701EC0F63
:100D7000FD1F6491662361F0D801ED91FC91019013
:100D8000F081E02DC8010995892B11F02196EECF55
:100D9000CE01DF91CF911F910F91FF90EF900895B9
:100DA000AF92BF92CF92DF92EF92FF920F931F9379
:100DB000CF93DF936C017B018B01040F151FEB01B7
:100DC0005E01AE18BF08C017D10759F06991D6016E
:100DD000ED91FC910190F081E02DC6010995892BE0
:100DE00079F7C501DF91CF911F910F91FF90EF909F
:100DF000DF90CF90BF90AF90089520916A06309118
:100E00006B062817390771F4909110058091110530
:100E1000981741F0E0911005F0E0EC54FB4F808111
:100E200090E008958FEF9FEF08950895EF92FF925D
:100E30000F931F93CF93DF93DC015C96ED90FC90B2
:100E40005D97E114F10479F481E090E013969C93AE
:100E50008E93129790E080E0DF91CF911F910F91D8
:100E6000FF90EF9008955196ED91FC915297509616
:100E70008C915097982F90950FB75E962C915E9716
:100E8000122F127021FD6095F8942081112319F121
:100E9000282B2083E7012197F1F728E0462F50E027
:100EA000308160FF1AC0382B3083E7012197F1F7BA
:100EB000BA0175956795215089F7112381F08081DA
:100EC000892380830FBF5C968D919C910197F1F7E8
:100ED00081E090E0C1CF2923DCCF3923E5CF908199
:100EE000892BEFCF20916A0630916B0628173907BE
:100EF00061F4809111052091100590E0805C9F4F76
:100F0000821B91098F739927089590E080E00895DE
:100F100020916A0630916B0628173907B9F4909131
:100F2000100580911105981789F0E0911005F0E007
:100F3000EC54FB4F80812091100530E02F5F3F4F34
:100F40002F7333272093100590E008958FEF9FEFC4
:100F500008958F929F92BF92CF92DF92EF92FF926D
:100F60000F931F93CF93DF93409126055091270550
:100F700060912805709129051416150616061706A6
:100F800034F490912505981791F0992381F0182F4A
:100F900080912A0590912B05DC01ED91FC91008454
:100FA000F185E02D0995892B79F450E040E0CA01E4
:100FB000DF91CF911F910F91FF90EF90DF90CF9035
:100FC000BF909F908F900895E0902A05F0902B0598
:100FD000D0E0C0E0C7010E947E0697FDE6CFFE018B
:100FE000E557FE4F2081022E000C330B821793072A
:100FF00091F14F014BE851E0209761F3BE01219739
:10100000F40122914F01022E000C330B821793073B
:1010100041F02097F9F24F5F5F4FF0CFC1E0D0E091
:10102000D9CF2097D9F3DA0111962BE8C22E21E00F
:10103000D22E30E020E0F601B1906F010D91B01298
:1010400005C02F5F3F4F2C173D07A8F3C217D307EA
:1010500011F7EB01BFCF2196C530D10509F0BACF0A
:1010600080912A0590912B050E940D06609325051D
:1010700080912A0590912B05DC01ED91FC91028471
:10108000F385E02D099580912A0590912B050E940A
:101090000D0660932605709327058093280590938D
:1010A000290580912A0590912B05DC01ED91FC9199
:1010B0000284F385E02D099580912A0590912B05F6
:1010C0000E940D0680912A0590912B05DC01ED917F
:1010D000FC910284F385E02D099580912A05909179
:1010E0002B050E940D0680912A0590912B05DC01AD
:1010F000ED91FC910284F385E02D099580912A05FC
:1011000090912B050E940D0680912A0590912B0548
:10111000DC01ED91FC910284F385E02D099580912D
:101120002A0590912B050E940D0680912A05909129
:101130002B05DC01ED91FC910284F385E02D0995EE
:1011400080912A0590912B05DC01ED91FC910284A0
:10115000F385E02D099580912A0590912B050E9439
:101160000D0680912A0590912B05DC01ED91FC91F3
:101170000284F385E02D099580912505181305C09B
:10118000409126055091270512CF1123C9F30DCFA9
:1011900021E0FC0184858F3F09F420E0822F08952F
:1011A000CF93DF93EC01E881F9810084F185E02D94
:1011B000CE010995892B41F0E881F9810284F385FC
:1011C000E02DCE010995EFCFDF91CF9108958F9259
:1011D0009F92AF92BF92EF92FF920F931F93CF9384
:1011E000DF93EC017B018A01E881F9810084F185BC
:1011F000E02D0995892B69F48FEF9FEFDF91CF9157
:101200001F910F91FF90EF90BF90AF909F908F90A4
:1012100008959C8580912505981336C080912605F8
:1012200090912705A0912805B0912905A80170E0AB
:1012300060E084179507A607B7070CF48C01E70157
:10124000E00EF11EEC16FD06E9F00E94A7034B012B
:101250005C0180912A0590912B05DC01ED91FC91B8
:101260000284F385E02D099597FF11C00E94A70322
:10127000681979098A099B09683E734081059105BF
:1012800040F3BACFC801BACF80E090E0B7CF8993DE
:101290008091260590912705A0912805B0912905F8
:1012A0000197A109B1098093260590932705A09382
:1012B0002805B0932905C6CFFC0184858F3F21F016
:1012C0000E94A90797FF02C090E080E00895CF93A5
:1012D000DF931F92CDB7DEB76983DC01ED91FC91FE
:1012E0000280F381E02D41E050E0BE016F5F7F4F4F
:1012F00009950F90DF91CF910895EF92FF920F9390
:101300001F93CF93DF93EC018B017A010E94A70317
:10131000688B798B8A8B9B8B8C819D81DC01ED9115
:10132000FC910280F381E02DA701B801DF91CF91FC
:101330001F910F91FF90EF9009941F93CF93DF932C
:10134000EC01162F0E94A703688B798B8A8B9B8BED
:101350008C819D81DC01ED91FC910190F081E02D6B
:10136000612FDF91CF911F910994089520919104ED
:10137000260F3327331F21323105ECF42091540519
:10138000FC0190E080E0243069F082E00895A091B3
:1013900091042191AC014F585B4FA40FB52FB11DA3
:1013A0002C930196861798F380919104680F6093AF
:1013B000910480E0089581E008951092540581E041
:1013C0008093530510922E0561E082E10E94040390
:1013D00061E083E10E940403E9EBF0E080818E7F0D
:1013E000808380818D7F808388E48093B80085E44A
:1013F0008093BC000895CF93DF9391E090937004A5
:101400008823B9F0C091B800D091BA008091BC0097
:101410008A7B8093BC0060E082E10E94040360E06C
:1014200083E10E9404030E94DD09D093BA00C093B7
:10143000B800DF91CF910895E0910F0580910E05DE
:10144000E81730F4F0E0E05BFB4F808190E0089516
:101450008FEF9FEF089590910F0580910E052FEF6C
:101460003FEF981748F4E92FF0E0E05BFB4F208155
:1014700030E09F5F90930F05C901089580910E059C
:1014800090910F05891B990B0895CF92DF92EF92EF
:10149000FF920F931F93CF93DF937C01CB018A01BF
:1014A00020917D05222389F0EB016B01C40ED51E2E
:1014B000CC15DD0569F06991D701ED91FC910190A2
:1014C000F081E02DC7010995F3CF642F0E94B60982
:1014D000C801DF91CF911F910F91FF90EF90DF90A6
:1014E000CF900895CF93DF931F92CDB7DEB7698376
:1014F00020917D052223F9F020917A05203258F0C1
:1015000021E030E0FC013383228390E080E00F9003
:10151000DF91CF91089580917B05E82FF0E0E65AA6
:10152000FA4F998190838F5F80937B0580937A0532
:1015300081E090E0ECCF61E0CE0101960E94B60917
:10154000F7CF90E080E008950F931F93CF93DF9340
:101550008C018FE090E00E94FD29EC01892BC1F005
:1015600082E090E0998788871D830C831E86000F98
:10157000111FC8010E94FD2999838883080F191F34
:101580001B830A839B878A879D878C871F821E8285
:10159000CE01DF91CF911F910F910895AF92BF922D
:1015A000CF92DF92EF92FF920F931F93CF93DF932F
:1015B0007C018B0181E090E0FB01918380838EE0D0
:1015C00090E00E94FD29EC0182E090E09D838C83F5
:1015D0006E01F6E0CF0ED11C85E090E00E94A40AD7
:1015E0009987888781E991E09F838E83E0914E04FB
:1015F000F0914F049EE4A92E94E0B92E309741F06B
:101600005F0182E0A80EB11C0280F381E02DF6CFCD
:1016100084E090E00E94FD29FC01D182C082138207
:101620001282F501918380836E01FAE0CF0ED11C06
:1016300085E090E00E94A40A9D878C878FEB91E063
:101640009B878A87E0914E04F0914F048EE4A82E88
:1016500084E0B82E309741F05F0182E0A80EB11C03
:101660000280F381E02DF6CF84E090E00E94FD2916
:10167000FC01D182C08213821282F50191838083A2
:10168000F7018681978199838883808591859B83E3
:101690008A83F801D583C483C801DF91CF911F915C
:1016A0000F91FF90EF90DF90CF90BF90AF90089593
:1016B000FC0101900020E9F731979F01281B390BAD
:1016C000E091BA06F091BB06E21BF30B4091B6061F
:1016D0005091B706E417F50730F46091B4067091A5
:1016E000B506E60FF71F280F391F6091B8067091F5
:1016F000B906DC018217930758F40196BC91A081CA
:10170000BA1308C03196E617F70799F7FA01F1CF37
:1017100081E0089580E00895FB0101900020E9F741
:101720003197AF01461B570BDC01ED91FC91028014
:10173000F381E02D09948F929F92AF92BF92EF9226
:10174000FF920F931F93CF93DF93CDB7DEB7A1978F
:101750000FB6F894DEBF0FBECDBF7C01FA01CB01FE
:1017600019A2223008F42AE08E010F5D1F4F822E4D
:10177000912CB12CA12CBF01A50194010E94382904
:10178000F901CA016A300CF5605DD8016E938D01D4
:10179000232B242B252B79F790E080E0109721F064
:1017A000BD01C7010E948C0BA1960FB6F894DEBF55
:1017B0000FBECDBFDF91CF911F910F91FF90EF90A2
:1017C000BF90AF909F908F900895695CDECF8F920D
:1017D0009F92AF92BF92CF92DF92EF92FF920F93C0
:1017E0001F93CF93DF937C01EB016C0182E0C80E65
:1017F000D11C4701E5E08E0E911C10E000E0F601DF
:1018000041916F0150E070E060E02AE0CE010E945B
:101810009B0B5C01E881F9810190F081E02D6EE283
:10182000CE0109958A0D9B1D080F191FC814D904F4
:1018300031F7F701458150E070E060E02AE0CE0129
:101840000E949B0B800F911FDF91CF911F910F91F1
:10185000FF90EF90DF90CF90BF90AF909F908F90D0
:1018600008950F931F93CF93DF938C01D0E0C0E0D6
:101870006115710519F00E948C0BEC0160E072E0BB
:10188000C8010E948C0B8C0F9D1FDF91CF911F917F
:101890000F9108950F931F93CF93DF93EC010E9454
:1018A000AC068C0160E072E0CE010E948C0B800FD0
:1018B000911FDF91CF911F910F9108950C948C0B84
:1018C0003F924F925F926F927F928F929F92AF92D0
:1018D000BF92CF92DF92EF92FF920F931F93CF931D
:1018E000DF936C012B01342E8091B6069091B706E0
:1018F0009093BB068093BA060E94A7034B015C013C
:1019000066246A94762C0D2C000CEE08FF080E94C9
:10191000A703681979098A099B096C157D058E054D
:101920009F0508F05BC08FEF6816780609F056C077
:1019300080912A0590912B05DC01ED91FC910084AA
:10194000F185E02D0995892B11F380912A0590915D
:101950002B05DC01ED91FC910284F385E02D0995C6
:10196000E091BA06F091BB0680838091BA0690910F
:10197000BB0601969093BB068093BA062091B806E9
:101980003091B9068217930740F08091B606909186
:10199000B7069093BB068093BA064114510441F0F8
:1019A000C2010E94580B882319F085E0682E712C23
:1019B000332009F4ACCF0BE111E0D0E0C0E0F80136
:1019C000819191918F010E94580B811105C0219640
:1019D000C530D105A1F79BCF3E0199CF0E94A70347
:1019E000681979098A099B096C157D058E059F0583
:1019F00060F06EEE71E08EE795E00E945E0C6EE2A4
:101A000071E08EE795E00E944A0CC301DF91CF910F
:101A10001F910F91FF90EF90DF90CF90BF90AF900C
:101A20009F908F907F906F905F904F903F90089520
:101A3000CF93DF93EC010E940902BE0180912A0539
:101A400090912B050E944A0C41E070E060E088EE26
:101A500093E0DF91CF910C94600C8F929F92AF92A4
:101A6000BF92CF92DF92EF92FF92CF93DF93D82E67
:101A7000EB01C42E79010E94A7034B015C01809108
:101A80002A0590912B05DC01ED91FC910084F185F4
:101A9000E02D0995892B09F47EC080912A0590914B
:101AA0002B05DC01ED91FC91CC20E9F00484F58557
:101AB000E02D099588838091260590912705A091B6
:101AC0002805B0912905892B8A2B8B2B29F181E0E0
:101AD000DF91CF91FF90EF90DF90CF90BF90AF90CC
:101AE0009F908F9008950284F385E02D0995888357
:101AF0008091260590912705A0912805B091290590
:101B00000197A109B1098093260590932705A09319
:101B10002805B0932905CFCF65E070E080E090E024
:101B20000E94750380912A0590912B05DC01ED91AF
:101B3000FC910084F185E02D0995892B41F280917B
:101B40002A0590912B05DC01ED91FC910484F5852B
:101B5000E02D09952D2D30E0205D3F4F8217930732
:101B600009F0B5CF40E069EF71E084EF91E00E94A9
:101B7000600C059761F06EEE71E08EE795E00E94D3
:101B80005E0C6BEA72E08EE795E00E944A0C81E001
:101B9000F70180839DCF0E94A703681979098A09FC
:101BA0009B09603D77408105910508F468CF6EEE92
:101BB00071E08EE795E00E945E0C62EA72E08EE7CB
:101BC00095E00E94AC0667EF71E08EE795E00E9419
:101BD0005E0CC0902605D0902705E0902805F09077
:101BE00029052AE0B701A601F7FE0DC06DE28EE7D8
:101BF00095E00E94830244275527BA014C195D09DC
:101C00006E097F092AE08EE795E00E949B0B60E059
:101C100072E08EE795E00E948C0B109226051092E0
:101C20002705109228051092290510922505188283
:101C300080E04ECF0F931F93CF93DF9300D0CDB7AB
:101C4000DEB78C01DC01ED91FC910084F185E02D83
:101C50000995892B59F11A82F801848590912505FF
:101C6000891309C09E012E5F3F4F41E0BE016F5FA7
:101C70007F4F0E942D0D8A81882379F0D8011C9610
:101C8000EC911C97F0E0EE0FFF1FE050FF4F8FEF3D
:101C90009FEF918380831C968C93898190E00F90B5
:101CA0000F90DF91CF911F910F9108958FEF9FEFCC
:101CB000F6CF0F931F93CF93DF9300D0CDB7DEB74E
:101CC0008C01DC01ED91FC910084F185E02D0995FA
:101CD000892B59F11A82F801848590912505891381
:101CE00009C09E012E5F3F4F40E0BE016F5F7F4FF6
:101CF0000E942D0D8A81882379F0D8011C96EC91E1
:101D00001C97F0E0EE0FFF1FE050FF4F8FEF9FEFAB
:101D1000918380831C968C93898190E00F900F9023
:101D2000DF91CF911F910F9108958FEF9FEFF6CF25
:101D30008F929F92AF92BF92CF92DF92EF92FF92DB
:101D40000F931F93CF93DF93D82EEB017A01DB0122
:101D50000D900020E9F7CD01861B970B02960E949B
:101D6000FD298C01BE010E94582BFE01019000202C
:101D7000E9F7EC1BFD0BE00FF11FD7018D919C9152
:101D80009183808381E080937D05D0927C051092C1
:101D90007B0510927A05FE0101900020E9F7AF0162
:101DA0004C1B5D0B4E5F5F4FB8018FE396E00E94C6
:101DB000450AD0917A05D13208F094C0C0917C05D3
:101DC0000E9450036B017C0180915405811165C014
:101DD00082E08093540581E0809353058FEF8093D8
:101DE000520510925105D0935005AAE5B5E0E0E305
:101DF000F5E080E0D8138BC010922F0580912F055D
:101E0000CC0FC82BC0932F0580912E05813009F08F
:101E100082C010922E050E9450036B017C018091BC
:101E20002F058093BB008091560590915705A09196
:101E30005805B0915905892B8A2B8B2B99F00E945C
:101E400050038090560590905705A0905805B0908B
:101E500059056C197D098E099F0986169706A806F3
:101E6000B906E0F18091BC0083FDD9CF85EC809369
:101E7000BC000E9450036B017C01809154058230AC
:101E800009F44BC0809152058F3F61F1809152055A
:101E9000803241F18091520525C080915605909184
:101EA0005705A0915805B0915905892B8A2B8B2B8A
:101EB00009F48ACF0E9450038090560590905705F0
:101EC000A0905805B09059056C197D098E099F099D
:101ED00086169706A806B90608F076CF80915505B4
:101EE0000E94FB0910927B0510927A0510927D05E5
:101EF000C801DF91CF911F910F91FF90EF90DF907C
:101F0000CF90BF90AF909F908F900C94992A9D9105
:101F100091938F5F6FCF85EEAACF809156059091F8
:101F20005705A0915805B0915905892B8A2B8B2B09
:101F300009F4A3CF0E945003809056059090570556
:101F4000A0905805B09059056C197D098E099F091C
:101F500086169706A806B90608F08FCFBFCFAB014B
:101F6000DC011296ED91FC9180819181019749F4F9
:101F70000480F581E02D63E072E0828193810C940E
:101F8000980E0895AB01DC011296ED91FC918081D1
:101F90009181019749F40480F581E02D6EE272E0B1
:101FA000828193810C94980E0895CF93DF93FC0166
:101FB00026813781232B11F19B01EC01628573850A
:101FC00040855185C9010E94222B8A859B852885E1
:101FD0003985820F931F9B878A872E813F812150ED
:101FE00031093F832E832A813B818217930721F495
:101FF000888199819B878A8781E001C080E0DF9199
:10200000CF910895CF93DF93EC012E813F818C8196
:102010009D812817390708F5488559858C859D8548
:102020000E94222B8C859D8528853985820F931FE0
:102030009D878C872E813F812F5F3F4F3F832E836B
:102040002A813B818217930721F4888199819D879A
:102050008C8781E0DF91CF9108958E858823A9F048
:10206000488559858C859D850E94222B48855985F8
:102070002C853D85240F351F3D872C878A859B85C0
:10208000840F951F9B878A87E4CF80E0E3CF3F9240
:102090004F925F926F927F928F929F92AF92BF9278
:1020A000CF92DF92EF92FF920F931F93CF93DF9324
:1020B000CDB7DEB728970FB6F894DEBF0FBECDBF01
:1020C0007C0182E0382E9EEF492E55245A9427E752
:1020D000622E21E0722E3CEF832E99249A940E9466
:1020E000D101811108C10E94D1018111F8CF8091E5
:1020F000700690917106DC01ED91FC910688F789DC
:10210000E02D0995882309F44AC0E1E0F0E0F0935E
:102110007B06E0937A0687E0EEE0F1E0DE011196BF
:1021200001900D928A95E1F7DE01119685E090E02D
:102130002D91E0917206F0917306E80FF91F20834C
:1021400001968C309105A1F70091720610917306EB
:10215000F801348680917706858780917606868798
:10216000C0907406D0907506B601C7010E944C2538
:102170004196C816D90608F045C080917006909126
:102180007106DC01ED91FC910488F589E02D09953B
:1021900068EE73E080E090E00E947503A0CF60914C
:1021A0008D0670918E068091700690917106DC010B
:1021B000ED91FC9140918F0650919006611571054B
:1021C00061F00088F189E02D0995019709F49DCF10
:1021D0005092940640929306DBCF0684F785E02D5B
:1021E0007A8269820091890610918A0620918B0675
:1021F00030918C060B831C832D833E83BE016F5F61
:102200007F4FE2CF4FE050E0B801C7010E94AF011D
:10221000AC0145505109609172067091730680E1DE
:102220000E94B3030E94A70360937C0670937D060F
:1022300080937E0690937F0660938006709381065C
:102240008093820690938306809170069091710628
:10225000DC01ED91FC910084F185E02D0995892B3D
:1022600011F50E94A703009180061091810620912C
:102270008206309183065B016C01A01AB10AC20A82
:10228000D30A2091780630917906A8EEB3E00E9437
:102290009C29A616B706C806D906B0F290929406F5
:1022A000809293066ACFCE0108960E946104643042
:1022B00071058105910509F060CFE0917206F091FA
:1022C00073068381811111C00E94A7036093800669
:1022D0007093810680938206909383061092840601
:1022E0001092940610929306FACE90E09093940682
:1022F0008093930642CF28960FB6F894DEBF0FBEA8
:10230000CDBFDF91CF911F910F91FF90EF90DF90A4
:10231000CF90BF90AF909F908F907F906F905F9085
:102320004F903F900895CF92DF92EF92FF920F93DC
:102330001F93CF93DF936C017B01C0912C05D0914B
:102340002D05209779F008811981F801608171814C
:10235000C6010E944F2B892B71F4F801848195816D
:10236000009769F4DF91CF911F910F91FF90EF904B
:10237000DF90CF9008950A80DB81C02DE2CFB701B6
:10238000DF91CF911F910F91FF90EF90DF90CF9051
:102390000C940210AF92BF92CF92DF92EF92FF9215
:1023A0000F931F93CF93DF93DC011296ED91FC9175
:1023B00080819181892BB1F58B01E480F5806701E3
:1023C000F701A480B580D0E0C0E0CA15DB0539F183
:1023D0006AE572E0D60118968D919C910E944F2B70
:1023E000B6E0CB0ED11C892BC1F426E02C9FC00196
:1023F0002D9F900D1124E80EF91EF701828593851B
:10240000B801DF91CF911F910F91FF90EF90DF9076
:10241000CF90BF90AF900C94D50F2196D6CF90E07F
:1024200080E0EECF80E0DF91CF911F910F91FF9080
:10243000EF90DF90CF90BF90AF900895CF92DF9252
:10244000EF92FF920F931F93CF93DF93DC011296CD
:10245000ED91FC9180819181892B29F5C481D581F1
:102460007E01CC80DD8010E000E00C151D0541F1FF
:102470006AE572E0F701808591850E944F2BF6E0B6
:10248000EF0EF11C892BC9F426E0209FC001219F8B
:10249000900D1124C80FD91FEA85FB8581E02681A4
:1024A0003781232B09F480E0DF91CF911F910F91A9
:1024B000FF90EF90DF90CF9008950F5F1F4FD5CF23
:1024C000F0E0E0E0EBCFAF92BF92CF92DF92EF92DD
:1024D000FF920F931F93CF93DF93DC011296ED9140
:1024E000FC91808191810197A1F58B01E480F580B9
:1024F0006701F701A480B580D0E0C0E0CA15DB0514
:1025000029F16FEB71E0D60116968D919C910E9496
:102510004F2BB4E0CB0ED11C892BB1F42296CC0FFB
:10252000DD1FCC0FDD1FCE0DDF1D88819981B80125
:10253000DF91CF911F910F91FF90EF90DF90CF909F
:10254000BF90AF900C94D50F2196D8CF90E080E04B
:10255000EECF80E0DF91CF911F910F91FF90EF9030
:10256000DF90CF90BF90AF900895CF92DF92EF921F
:10257000FF920F931F93CF93DF93DC011296ED919F
:10258000FC9180819181019731F504811581780159
:10259000F801C480D580D0E0C0E0CC15DD0539F16C
:1025A0006FEB71E0D70116968D919C910E944F2B95
:1025B000B4E0EB0EF11C892BC1F42296CC0FDD1F89
:1025C000CC0FDD1FC00FD11FE881F98181E026818A
:1025D0003781232B09F480E0DF91CF911F910F9178
:1025E000FF90EF90DF90CF9008952196D6CFF0E046
:1025F000E0E0ECCFAF92BF92CF92DF92EF92FF92EA
:102600000F931F93CF93DF93DC011296ED91FC9112
:10261000808191810197A1F58B01E480F5806701AC
:10262000F701A480B580D0E0C0E0CA15DB0529F130
:1026300061E971E0D60116968D919C910E944F2B15
:10264000B4E0CB0ED11C892BB1F42296CC0FDD1F48
:10265000CC0FDD1FCE0DDF1D88819981B801DF9180
:10266000CF911F910F91FF90EF90DF90CF90BF908F
:10267000AF900C94D50F2196D8CF90E080E0EECFAC
:1026800080E0DF91CF911F910F91FF90EF90DF904D
:10269000CF90BF90AF900895CF92DF92EF92FF92CC
:1026A0000F931F93CF93DF93DC011296ED91FC9172
:1026B00080819181019731F5048115817801F801BC
:1026C000C480D580D0E0C0E0CC15DD0539F161E9EA
:1026D00071E0D70116968D919C910E944F2BB4E02A
:1026E000EB0EF11C892BC1F42296CC0FDD1FCC0F11
:1026F000DD1FC00FD11FE881F98181E0268137817C
:10270000232B09F480E0DF91CF911F910F91FF906F
:10271000EF90DF90CF9008952196D6CFF0E0E0E0E3
:10272000ECCF8F929F92AF92BF92CF92DF92EF92B7
:10273000FF920F931F93CF93DF93CDB7DEB77C014A
:10274000ADB6BEB68DB79EB78E199F090FB6F89479
:102750009EBF0FBE8DBF0DB71EB70F5F1F4F680125
:1027600048018E0C9F1CC814D90451F08FE396E0E9
:102770000E947E0697FD04C0F60181936F01F3CF9E
:10278000C7010E94FD297C01B8010E94582BC0900E
:102790004E04D0904F04C114D10481F0F601808022
:1027A0009180B701F401808191810E944F2B892B88
:1027B000D1F4F401828193810097C9F4C7010E948A
:1027C000992A0FB6F894BEBE0FBEADBEDF91CF9171
:1027D0001F910F91FF90EF90DF90CF90BF90AF903F
:1027E0009F908F900895F601C280D380D4CFF701D7
:1027F00001900020E9F7BF016E197F09600F711F7A
:102800000E940210DBCFCF93DF93CDB7DEB7C85C59
:10281000D1090FB6F894DEBF0FBECDBF9E012F5277
:102820003F4FC353DF4F48815981CD5CD04068ECA6
:1028300070E0CE0101960E947A250E940902BE0135
:102840006F5F7F4F80912A0590912B050E94310C7C
:1028500041E070E060E0C153DF4F88819981CF5C37
:10286000D0400E94600CC853DF4F0FB6F894DEBF13
:102870000FBECDBFDF91CF910895EF92FF920F93DE
:102880001F93CF93DF93EC01162F072FF42EE52E25
:102890006EEE71E08EE795E00E945E0C64E972E0F6
:1028A0008EE795E00E94AC0667EF71E08EE795E059
:1028B0000E945E0C612F702F8EE795E00E94310C14
:1028C000E0E0F1E083E090E0268137812F3F3F4F49
:1028D00031F0019732978F3F9807B1F78FEF8C87D0
:1028E0008F3F69F1EF92FF920F931F931F928F9387
:1028F00083E18F9388E88F9387E792E09F938F938C
:102900000E9403142DB73EB7265F3F4F0FB6F894D1
:102910003EBF0FBE2DBF892BF1F48C8590E0FC01EA
:10292000EE0FFF1FE050FF4F9183808381E090E026
:10293000DF91CF911F910F91FF90EF9008956EEE70
:1029400071E08EE795E00E945E0C63E672E08EE730
:1029500095E00E944A0C90E080E0EACF0C943D1490
:10296000CF93DF93FC0124852F3F09F440C0EC0195
:102970006EEE71E08EE795E00E945E0C64EE70E012
:102980008EE795E00E94AC0667EF71E08EE795E078
:102990000E945E0C4C8550E070E060E02AE08EE71B
:1029A00095E00E949B0B60E072E08EE795E00E944C
:1029B0008C0B8C851F928F938FE08F9380EA8F937F
:1029C00085ED90E09F938F930E940314EC85F0E0D7
:1029D000EE0FFF1FE050FF4F8FEF9FEF918380833B
:1029E0008C870F900F900F900F900F900F90DF91AA
:1029F000CF910895AF92BF92CF92DF92EF92FF9264
:102A00000F931F93CF93DF935C016B017A01E90170
:102A100018820E940902B50180912A0590912B0528
:102A20000E944A0C41E0B60188EE93E00E94600CDF
:102A30008530910509F058C08091B6069091B7068F
:102A40009093BB068093BA064091B4065091B506A8
:102A50004F5F5F4F70E060E00E943D2B41E0B701A7
:102A600084EF91E00E94600C059781F5A801415028
:102A70005109F70101900020E9F73197EE19FF099C
:102A80006091B6067091B7068091BA069091BB0628
:102A9000861B970B8E1B9F0B4817590708F0AC013C
:102AA000CE010E945F2B41E070E060E080ED97E096
:102AB0000E94600C81E0DF91CF911F910F91FF90F8
:102AC000EF90DF90CF90BF90AF9008956EEE71E0E1
:102AD0008EE795E00E945E0C6FE071E08EE795E076
:102AE0000E944A0C80E0E7CF0597E0F36EEE71E0BC
:102AF0008EE795E00E945E0C61E271E0EFCFCF922D
:102B0000DF92EF92FF920F931F93CF93DF93CDB796
:102B1000DEB76E970FB6F894DEBF0FBECDBFFC01D7
:102B200084858F3FD1F17F010E94A907892B21F570
:102B3000D7011C968C911F928F9380E091E09F9318
:102B40008F93FE0131966F01FF93EF930E945725FB
:102B50000AE010E09E012B5E3F4F4FE851E0B601C6
:102B600083EF90E00E94FA140F900F900F900F9057
:102B70000F900F90882311F094E010C0D7011C969D
:102B8000EC911C97F0E0EE0FFF1FE050FF4F8FEF2E
:102B90009FEF918380831C968C9390E081E094302A
:102BA00009F080E06E960FB6F894DEBF0FBECDBF81
:102BB000DF91CF911F910F91FF90EF90DF90CF9019
:102BC0000895AF92BF92CF92DF92EF92FF920F9350
:102BD0001F93CF93DF93CDB7DEB764970FB6F8940A
:102BE000DEBF0FBECDBF7C015B018A01DC011C96FC
:102BF0008C91843018F441155105C9F481E090E0BE
:102C0000F7019383828310E000E0C80164960FB659
:102C1000F894DEBF0FBECDBFDF91CF911F910F9112
:102C2000FF90EF90DF90CF90BF90AF9008951F93EB
:102C30004F931F928F938AEA90E09F938F939E0108
:102C40002F5F3F4F69013F932F930E945725B60195
:102C500080912A0590912B050E94310C40E069E893
:102C600072E088EE93E00E94600C0FB6F894DEBF2D
:102C70000FBECDBF059709F443C06EEE71E08EE73D
:102C800095E00E945E0C6FE870E08EE795E00E9490
:102C90004A0C81E090E0F701938382836EEE71E04D
:102CA0008EE795E00E945E0C6BEB70E08EE795E09E
:102CB0000E94AC0667EF71E08EE795E00E945E0C23
:102CC000D7011C964C9150E070E060E02AE08EE75E
:102CD00095E00E949B0B60E072E08EE795E00E9419
:102CE0008C0B60EA7FE080E090E00E947503D701E2
:102CF000ED91FC910488F589E02DC701099583CFFA
:102D000080912A0590912B05DC01ED91FC910280C8
:102D1000F381E02DA801B501099541E070E060E084
:102D200080ED97E00E94600C039709F46ECF6EEE81
:102D300071E08EE795E00E945E0C64E770E0A5CF3D
:102D4000CF92DF92EF92FF920F931F93CF93DF9377
:102D5000CDB7DEB760970FB6F894DEBF0FBECDBF1C
:102D60007C01FB016A0185811F928F9384811F92F0
:102D70008F9383811F928F9382811F928F9388E616
:102D800090E09F938F938E010F5F1F4F1F930F93C0
:102D90000E945725A601B801C7010E943D140FB635
:102DA000F894DEBF0FBECDBF60960FB6F894DEBFBD
:102DB0000FBECDBFDF91CF911F910F91FF90EF908C
:102DC000DF90CF90089585ED8093BC0080915605EB
:102DD00090915705A0915805B09159050796A11DEE
:102DE000B11D23E0B695A795979587952A95D1F7BC
:102DF0002091BC0024FD03C0109254050895409119
:102E00005605509157056091580570915905452B0D
:102E1000462B472B69F30097A105B10541F02AE243
:102E20002A95F1F700C00197A109B109E1CF80917E
:102E300055050C94FB09EF92FF920F931F93CF93CC
:102E4000DF937C018B01FC0101900020E9F7CF01A9
:102E5000FB0101900020E9F73197E61BF70BEE1913
:102E6000FF098E0F9F1F0E94FD29EC01B7010E94F0
:102E7000582BB801CE010E94442BCE01DF91CF9197
:102E80001F910F91FF90EF900895EF92FF920F9393
:102E90001F93CF93DF938C01EB017A01C9010E944C
:102EA000A40AF80195838483B701CE010E941B1701
:102EB000EC01F80191838083F382E282E0912C059A
:102EC000F0912D058CE2E82E85E0F82E309741F048
:102ED0007F0182E0E80EF11C0280F381E02DF6CF45
:102EE00084E090E00E94FD29FC011183008313829D
:102EF0001282F70191838083009174061091750608
:102F0000B801CE010E944C25209709F444C00996CF
:102F10000817190708F43FC00E94D1018823D9F18E
:102F200080917A0690917B06019691F190937B06B1
:102F300080937A06E0917206F091730680917B0689
:102F40008583E0917206F091730680917A068683FC
:102F5000609172067091730647E050E0CE010E94C6
:102F6000AF01E0917206F0917306E80FF91F10822D
:102F7000AC0144505109609172067091730682E869
:102F8000DF91CF911F910F91FF90EF900C94B303BD
:102F900081E090E0CBCFDF91CF911F910F91FF9017
:102FA000EF900895EF92FF920F931F93CF93DF93CB
:102FB0008C017B01FB011182108282E190E00E9472
:102FC000FD29EC0182E090E09D838C83F801608D07
:102FD000718D25E030E04BE852E0CE0106960E946C
:102FE0004517F801608D718D25E030E04BEB52E024
:102FF000CE010C960E944517F8018689978999831E
:103000008883808D918D9B838A83F701D583C483C8
:10301000C701DF91CF911F910F91FF90EF9008951D
:10302000EF92FF920F931F93CF93DF937C018B015D
:10303000FB01118210828CE090E00E94FD29EC01DE
:1030400081E090E09D838C83F7016089718921E0A4
:1030500030E04AE552E0CE0106960E944517F7019E
:103060008685978599838883808991899B838A83C4
:10307000F801D583C483C801DF91CF911F910F91CF
:10308000FF90EF900895EF92FF920F931F93CF93CD
:10309000DF938A010E941B17EC010E94D101882353
:1030A00089F1E0907406F0907506B701CE010E9498
:1030B0004C250996E816F90628F160917206709180
:1030C000730645E050E0CE010E94AF01F801208177
:1030D000E0917206F0917306E80FF91F2083F80162
:1030E0002181E0917206F0917306E80FF91F2183A8
:1030F000AC0143505109609172067091730680E3F0
:103100000E94B303CE01DF91CF911F910F91FF90E9
:10311000EF900C94992AAB01DC011296ED91FC9191
:1031200080819181892B49F40480F581E02D6BEB3E
:1031300072E0808191810C9443180895AB01DC0109
:103140001296ED91FC9180819181892B49F4048044
:10315000F581E02D6BE872E0808191810C94431839
:1031600008951F920F920FB60F9211242F933F9341
:103170008F939F93AF93BF9380911D0590911E05F0
:10318000A0911F05B091200530911C0523E0230F6D
:103190002D3758F50196A11DB11D20931C05809374
:1031A0001D0590931E05A0931F05B09320058091E7
:1031B000210590912205A0912305B0912405019647
:1031C000A11DB11D8093210590932205A093230595
:1031D000B0932405BF91AF919F918F913F912F9113
:1031E0000F900FBE0F901F90189526E8230F0296A0
:1031F000A11DB11DD2CF1F920F920FB60F921124B5
:103200002F933F934F935F936F937F938F939F93EE
:10321000AF93BF93EF93FF938EE795E00E94610217
:10322000FF91EF91BF91AF919F918F917F916F919E
:103230005F914F913F912F910F900FBE0F901F9074
:1032400018951F920F920FB60F9211242F938F9300
:103250009F93EF93FF93E0918E05F0918F0580810E
:10326000E0919405F091950582FD1BC090818091BD
:1032700097058F5F8F7320919805821741F0E09139
:103280009705F0E0E258FA4F958F80939705FF91EC
:10329000EF919F918F912F910F900FBE0F901F90E4
:1032A00018958081F4CF1F920F920FB60F921124C0
:1032B0002F933F934F935F936F937F938F939F933E
:1032C000AF93BF93EF93FF93E0916A06F0916B0683
:1032D000309749F0A685B7858585968D91FF14C0F6
:1032E0009C918923A1F4FF91EF91BF91AF919F91A0
:1032F0008F917F916F915F914F913F912F910F909F
:103300000FBE0F901F9018959C91892361F7A38998
:10331000B4899C918589809589238C938689978926
:103320000197F1F7608D718DA685B785558538E0D9
:1033300020E0CB010197F1F7822F90E095958795DA
:10334000282F4C91452309F02068315091F7868D44
:1033500081FD20958091110590E001968F7399274A
:1033600030911005381799F0A0911105B0E0AC54D8
:10337000BB4F2C9380931105828D938D0197F1F7AC
:10338000A389B4898C919589892B8C93ACCF868D38
:103390008160868FF1CF1F920F920FB60F9211248A
:1033A0002F933F934F935F936F937F938F939F934D
:1033B000AF93BF93EF93FF938091B900887F8036DE
:1033C00009F44AC0F0F5883209F4A7C018F5803135
:1033D00009F49BC0B8F4882309F4F9C0883009F4D3
:1033E00094C0FF91EF91BF91AF919F918F917F9189
:1033F0006F915F914F913F912F910F900FBE0F9062
:103400001F901895883109F488C0803251F7809355
:10341000520514C0803409F49DC040F48033B9F3E0
:103420008833F9F68093520585ECB0C0803509F4F5
:1034300085C0883509F496C0883499F60E94E31651
:10344000D0CF883909F48CC038F5883729F050F48A
:10345000883611F0803729F683E080935405109266
:10346000B30457C0883809F47BC0803919F080381C
:1034700009F0B7CF8091B304803208F071C0E091B9
:10348000B30481E08E0F8093B3048091BB00F0E021
:10349000ED56FB4F80833DC0803B39F0E0F4803A2D
:1034A00009F479C0883A09F09CCF84E080935405F0
:1034B0001092920410929104E0910C05F0910D0588
:1034C00009958091910481110FC081E0809391044E
:1034D0001092710409C0803C09F4A6CF883C09F41D
:1034E000A3CF883B09F07DCFE091920481E08E0F5D
:1034F00080939204F0E0EF58FB4F80818093BB00F3
:10350000909192048091910429C080912F0580931D
:10351000BB0085EC8093BC0064CF909151058091F5
:103520005005981758F5E091510581E08E0F809372
:103530005105F0E0E05DFA4F8081E9CFE09151055F
:1035400081E08E0F809351058091BB00F0E0E05D3B
:10355000FA4F808390915105809150059817C8F2D9
:1035600085E8D8CFE091510581E08E0F8093510519
:103570008091BB00F0E0E05DFA4F808380915305BD
:1035800081115CCF81E080932E0584EA8093BC009A
:103590001092540526CF85EC8093BC001092540500
:1035A0008091B304803230F4E091B304F0E0ED5642
:1035B000FB4F10826091B30470E0E0910A05F09136
:1035C0000B0583E994E009951092B3040ACF109299
:1035D000520534CF8DE791E090939606809395063F
:1035E00080916A0690916B068559964071F4E0913E
:1035F000A806F091A90690818091AA06809589235A
:10360000808310926B0610926A06809172069091E8
:1036100073060C94992ACF92DF92EF92FF920F9348
:103620001F93CF93DF931092810510928005E8EEEF
:10363000CE2EE3E0DE2EE12CF12CC0928205D0925A
:103640008305E0928405F092850589E291E09093EC
:103650007F0580937E0585EC90E090938B058093A9
:103660008A0584EC90E090938D0580938C0580EC26
:1036700090E090938F0580938E0581EC90E090937D
:1036800091058093900582EC90E090939305809350
:10369000920586EC90E090939505809394051092A6
:1036A0009705109298051092990510929A05C7E710
:1036B000D1E0D0931C06C0931B0610921D061092F9
:1036C0001E0610921F061092200680E290E0909352
:1036D000B5068093B40681E290E00E94FD299093A4
:1036E000B7068093B6069C01205E3F4F3093B90623
:1036F0002093B8069093BB068093BA0621E2FC01A2
:1037000011922A95E9F7D0932206C09321061092D0
:103710002306109224061092250610922606D093B6
:103720002806C09327061092290610922A061092A6
:103730002B0610922C06D0932E06C0932D061092C5
:103740002F06109230061092310610923206D09356
:103750003406C09333061092350610923606109246
:10376000370610923806D0933A06C0933906109265
:103770003B0610923C0610923D0610923E061092B7
:10378000420610924106C0924306D0924406E0924F
:103790004506F09246068BE391E0909340068093B5
:1037A0003F06D0934C06C0934B0610924D061092E4
:1037B0004E0610924F0610925006D0935F06C093AB
:1037C0005E061092600610926106109262061092D8
:1037D00063061092540610925306C0925506D0927A
:1037E0005606E0925706F092580689E591E09093CC
:1037F0005206809351068FEF80935D0610926F06FC
:1038000010926E068DE491E090936D0680936C06A5
:10381000D0938806C09387061092890610928A0674
:1038200010928B0610928C068FEF9FEF9093940668
:103830008093930610927106109270061092920671
:1038400010929106109286061092850680E091E013
:103850000E94FD29909373068093720680E091E0A8
:1038600090937506809374068FE090E090937706AE
:103870008093760690937906809378061092980646
:1038800010929706C0929906D0929A06E0929B06F3
:10389000F0929C068DE791E09093960680939506B2
:1038A0001092AC061092AB061092AE061092AD06C6
:1038B0001092B0061092AF061092B2061092B106A6
:1038C0006091B3066E7F6D7F6093B30666956170FD
:1038D00081E0682783E00E94040345EF52E0FA018B
:1038E000649181EE92E0FC012491222399F030E072
:1038F000220F331FF901E653FD4FA591B491F90151
:10390000EC52FD4F259134912FB7F8943C91632BE5
:103910006C932FBFFA0144914093A506FC0184915A
:10392000E82FF0E0EE0FFF1FEC52FD4F85919491D0
:103930009093A7068093A60604EF12E0F801249165
:10394000C0EED2E0FE0184918823C9F090E0880F98
:10395000991FFC01E653FD4FA591B491FC01EC5277
:10396000FD4F459154913FB7F8949C91822F8095DB
:1039700098239C93FA019081892380833FBF809193
:10398000B30681FD04C061E082E00E94040382E08E
:103990008093A106F80104910093A206FE01C49150
:1039A000EC2FF0E0EE0FFF1FE054FD4F8591949156
:1039B0009093A4068093A30687E791E09093650611
:1039C000809364061092660610926706109268064D
:1039D00010926906DF91CF911F910F91FF90EF90A8
:1039E000DF90CF900895CF93DF93CDB7DEB7AD973B
:1039F0000FB6F894DEBF0FBECDBF789484B5826059
:103A000084BD84B5816084BD85B5826085BD85B582
:103A1000816085BD80916E00816080936E00109200
:103A2000810080918100826080938100809181007B
:103A3000816080938100809180008160809380000C
:103A40008091B10084608093B1008091B00081606A
:103A50008093B00080917A00846080937A00809196
:103A60007A00826080937A0080917A0081608093EE
:103A70007A0080917A00806880937A001092C10069
:103A8000EE24E394F12CFA82E98283E090E09C8BAF
:103A90008B8B22ED37E13E8B2D8B2CEE32E0388F75
:103AA0002F8B27E233E03A8F298F9C878B8720E189
:103AB00038E13E872D8722E633E0388B2F872DE9CA
:103AC00033E03A8B298B9C838B838EEC9AE09E8328
:103AD0008D8302E0A02EB12CB886AF828AE090E000
:103AE0009A878987C0900605D090070582E18C9D52
:103AF00030018D9D700C112483010C501B4F480127
:103B0000D801ED92FC928BE190E00E94FD298C019E
:103B10000097A9F1FC01918280820E94A7039B017A
:103B2000AC01D8011E966C931E971F963C931F976D
:103B300050968C93509751965C93519752961C9245
:103B4000529753961C92539754961C92549755969D
:103B50001C92F801168A178A108E118E128EF3822B
:103B6000E282B582A48281E0838725E030E037835A
:103B70002683848728E030E031872087858722E10B
:103B80002C9DC0012D9D900D11249C012C503B4F6C
:103B90007901D90113961C930E9312970E94A703E3
:103BA0009B01AC01F80166873787808B518B128AA5
:103BB000138A148A158A168A178A108E118E128E0D
:103BC00081E090E09383828382E090E09583848318
:103BD00081E0838725E030E037832683848728E0EF
:103BE00030E03187208785878B819C810097C1F0E9
:103BF000F7019583848386E090E00E94FD29D70138
:103C000017969C938E931697930128503B4FFC0177
:103C100033832283ED81FE81BC01CE01019609959B
:103C20008B859C85009739F1209106053091070519
:103C300042E1429F8001439F100D112498012C50B6
:103C40003B4F7901D90119969C938E93189786E082
:103C500090E00E94FD29F7019387828704501B4F53
:103C6000DC0113961C930E931297ED85FE85BC0123
:103C7000CE01019609958B899C89009721F12091AD
:103C800006053091070542E1429F8001439F100DD8
:103C90001124F801EC50FB4F7F019587848786E063
:103CA00090E00E94FD29D7011F969C938E931E974A
:103CB00000501B4FFC0113830283ED89FE89BC0178
:103CC000CE01019609952091060530910705C9019D
:103CD0000196909307058093060542E1429FC0013B
:103CE000439F900D11248C509B4F90931905809306
:103CF000180510920F0510920E0510927B05109278
:103D00007A050E94DD0984EB95E090930D05809380
:103D10000C0585EB95E090930B0580930A0584E0F4
:103D20008093BA0081E993E1909309058093080597
:103D300086E0E5E1F1E0DE015B9601900D928A9567
:103D4000E1F71E01FBE12F0E311C30921B05209282
:103D50001A051092B0061092AF061092AE0610929D
:103D6000AD061092AC061092AB068DE991E09093EF
:103D7000B2068093B1069091A106963108F047C033
:103D80002DEB30E03093AC062093AB062BE931E00D
:103D90003093AE062093AD062CE231E03093B006AE
:103DA0002093AF062091680084E0983048F031E01D
:103DB0009E3008F430E081E001C0880F3A95EAF7C0
:103DC000822B809368002DE630E0983050F02BE68F
:103DD00030E09E3030F02CE630E0963110F030E0EC
:103DE00020E03093A9062093A806292F30E09830D0
:103DF00008F071C081E001C0880F9A95EAF78093BE
:103E0000AA068091B1069091B2060197F1F78091D0
:103E1000AF069091B006892B49F1E0916A06F091C6
:103E20006B0606E0E539F00709F1309739F0A38910
:103E3000B4899C918589809589238C938091B30660
:103E40008E7F8093B306109211051092100585E9BC
:103E500096E090936B0680936A06E091A806F09135
:103E6000A90680819091AA06892B80836EEE71E06D
:103E70008EE795E00E945E0C6EEF71E08EE795E0B4
:103E80000E944A0C85E996E090932B0580932A05C1
:103E900005E010E08BEF91E00E94180D892B09F4EA
:103EA0007FC568EE73E080E090E00E9475030150EA
:103EB000110981F76EEE71E08EE795E00E945E0CCD
:103EC0006EED71E08EE795E00E944A0C68E873E1C0
:103ED00080E090E0D7C59E3040F42850310981E061
:103EE00001C0880F2A95EAF78ACF2E503109F7CF03
:103EF0006EEE71E08EE795E00E945E0C65EA71E07F
:103F00008EE795E00E94AC0667EF71E08EE795E0E2
:103F10000E945E0C62E175E08EE795E00E94310C34
:103F200008ED13E0E1EEEE2EE3E0FE2EFEE4BF2E00
:103F3000A0E2AA2EB8E3CB2EB2E0DB2E1F930F93A4
:103F4000FF92EF92BF92AF92DF92CF920E94031442
:103F50000FB6F894DEBF0FBECDBF6EEE71E0892BB9
:103F600009F013C28EE795E00E945E0C66E172E0F4
:103F70008EE795E00E94AC0667EF71E08EE795E072
:103F80000E945E0C61EE73E08EE795E00E94310CBA
:103F900068EE73E080E090E00E94750381E596E0B2
:103FA00090937106809370068D8D9E8D2B8D3C8D28
:103FB00030938E0620938D069093900680938F0603
:103FC00083E991E1909386068093850684E190E0F1
:103FD00090937706809376068F8D98A10E94471064
:103FE00000911A0510911B050E94D101811106C094
:103FF000D80114968D919C910E9447100E94D10186
:10400000882309F44FC00E94A7036B017C01209113
:10401000760630917706A8EEB3E00E949C290091C5
:104020008006109181062091820630918306460118
:104030005701801A910AA20AB30A950184016017F8
:10404000710782079307B0F000917C0610917D06FE
:1040500020917E0630917F0646015701801A910A11
:10406000A20AB30A950184016017710782079307BA
:1040700008F0D9C180918406882309F4A5C17CEF9A
:10408000A72EBB24BA94B0929406A0929306809176
:10409000700690917106DC01ED91FC910488F58920
:1040A000E02D0995E0911805F09119058280938023
:1040B000AA24A394F401A286A386A486A58682815D
:1040C0009381019709F050C18085918589309105D0
:1040D00009F4AAC28A30910509F4C3C2089709F00D
:1040E00067C00190F081E02D0684F785E02D808186
:1040F0009181892B09F05CC0048115816801D80188
:1041000014966D907C905801F12CE12CE614F70484
:1041100009F480C26BE872E0F501808591850E9408
:104120004F2BF6E0AF0EB11C892B09F06FC286E071
:104130008E9DF0018F9DF00D1124E00FF11F028480
:10414000F385E02D86819781892B91F1D4015A96D0
:104150008C9181112DC0F12CE12CE614F70409F4A7
:1041600060C26BE872E0F601808591850E944F2B5A
:10417000F6E0CF0ED11C892B09F04FC226E02E9D10
:10418000C0012F9D900D1124080F191FD8011A96F8
:104190008D919C91BE016F5F7F4F0E94D50FAA2425
:1041A000A394F401A28E49E0E42EF12CF186E0867E
:1041B000D4011D961C921D971C968C911C978823E8
:1041C00009F46BC01B968C911B9716962D913C9110
:1041D00017972630310509F4B3C22730310509F4A9
:1041E00018C32530310509F055C0882309F452C0A1
:1041F00014968D919C911597029709F04BC00D91E3
:104200001C910C5F1F4FC8010E944C13882309F4B6
:1042100041C0F401828D81113DC0B101C8010E94ED
:10422000FA12E3E0F0E0D4011596FC93EE931497B4
:10423000F1E05A96FC935A978D919C91BE016F5F65
:104240007F4F08960E949E18E6E0F0E0D401179692
:10425000FC93EE9316970E94A7038B019C01D40157
:104260001E966C931E971F961C931F9750968C93C7
:10427000509751963C93519752961C925297539651
:104280001C92539754961C92549755961C9255978E
:104290001B961C92D4011C961C92F40183858823E2
:1042A00009F462C0848195818330910509F4E0C2EC
:1042B0008430910509F445C3029709F052C0848502
:1042C000882309F44EC086819781059709F049C07B
:1042D000828D811146C0008111810C5F1F4FC80182
:1042E0000E944C138823E9F1B101C8010E94FA121F
:1042F000E3E0F0E0D4011596FC93EE931497F1E01F
:104300005A96FC935A978D919C91BE016F5F7F4F97
:1043100008960E949E18E6E0F0E0D4011796FC9300
:10432000EE9316970E94A7038B019C01D4011E9661
:104330006C931E971F961C931F9750968C935097C3
:1043400051963C93519752961C92529753961C92B9
:10435000539754961C92549755961C9255971C96B9
:104360001C92D4011B961C92F401128680E0882EC8
:1043700080E0982E892809F433CE0E94F002882329
:1043800009F42ECE0E9400002BCE8EE795E00E940D
:104390005E0C63E272E08EE795E00E94AC0667EF88
:1043A00071E08EE795E00E945E0C61EE73E08EE7AF
:1043B00095E00E94310C68EE73E080E090E00E948E
:1043C00075030E940902BACDE0917206F09173065E
:1043D00080EC8083E0917206F091730611828091E7
:1043E0007006909171066091720670917306DC01FF
:1043F000ED91FC910280F381E02D42E050E00995BF
:10440000C0927C06D0927D06E0927E06F0927F06F6
:10441000C0928006D0928106E0928206F0928306D6
:10442000B1E0B09384068091700690917106DC0132
:10443000ED91FC910084F185E02D0995892B09F41B
:1044400031CECE0101960E9461044B01672B09F425
:10445000DAC0C0928006D0928106E0928206F09285
:104460008306E0917206F09173068081807F80332D
:1044700009F0A8C08091850690918606892B09F4E1
:1044800011CE498150E0CA0102968E0F9F1FDF01B5
:10449000A40FB51F11966C90712C762C6624DC014C
:1044A0006C91660E711C4D5F5F4FBF01640F751FED
:1044B000A3010E942B2BE9818091720690917306D3
:1044C000860D971DE80FF92FF11D1282A09172063B
:1044D000B0917306298130E02901E2E04E0E511CB3
:1044E0004A0E5B1E1C911670E0918506F0918606BF
:1044F000FDA7ECA7123009F051C0C301820F931F32
:10450000FD01E80FF91F638170E0762F6627448173
:10451000FB01E40FF11DFDA3ECA34BEF5FEF421B8A
:10452000530B46195709480D591D0596BD01680FD3
:10453000791FC201ECA5FDA50995E0917206F091E5
:10454000730680E48083E0917206F0917306118314
:10455000E0917206F09173068DA08282E09172065E
:10456000F09173069CA093828091700690917106E1
:104570006091720670917306DC01ED91FC910280EE
:10458000F381E02D44E050E00995C0927C06D09282
:104590007D06E0927E06F0927F0684CD4DEF5FEFC0
:1045A000421B530B46195709480D591D2D5F3F4FAC
:1045B000620E731EBD01660D771DC201ECA5FDA53F
:1045C000099570CD803CC9F480ED8083E09172063E
:1045D000F09173061182809170069091710660913E
:1045E000720670917306DC01ED91FC910280F381FB
:1045F000E02D42E050E0099555CD803D09F052CDC7
:10460000109284064FCD0E94D1014CCD2FEFE21ABB
:10461000F20A7CCDF0E0E0E095CDBFEFEB1AFB0AAB
:104620009CCD90E080E0B6CD0190F081E02D068435
:10463000F785E02D80819181892B61F40480F581DB
:10464000E02DAE014F5F5F4F6AE572E0808191819E
:104650000E9443183AE0A32EB12CF401B186A08643
:10466000A7CD0190F081E02D0684F785E02D8081B3
:104670009181892B09F09CCD048115816801F80195
:10468000648075805801F12CE12CE614F70409F4DC
:104690004DC06BEB72E0D50118968D919C910E94F4
:1046A0004F2BB6E0AB0EB11C892BE1F586E08E9D59
:1046B000F0018F9DF00D1124E00FF11F0284F385AE
:1046C000E02D86819781892B09F472CDF12CE12CA4
:1046D000E614F70491F16BEB72E0D60118968D9118
:1046E0009C910E944F2BB6E0CB0ED11C892B09F573
:1046F00026E02E9DC0012F9D900D1124080F191F3B
:10470000F80182859385BE016F5F7F4F0E94D50FB0
:10471000E8E0F0E0D4011996FC93EE9318975A96CE
:104720001C9246CDEFEFEE1AFE0AAFCFF0E0E0E0CC
:10473000C8CFFFEFEF1AFF0ACBCF90E080E0E3CFC6
:10474000882309F4A7CDF40184819581039709F0AA
:10475000A1CDA684B784C088D18872886388548824
:1047600045880E94A7037B018C0120E030E0A9016D
:104770006CA3FDA28EA31FA328A739A74AA75BA7F6
:104780009B01AC0160E070E080E090E0E72CF62C4B
:10479000052D142D0E94EE290E94AB296B017C018E
:1047A000D40156966D917D918D919C9159970E945F
:1047B0001B2820E030E04AE754E40E947A289B015D
:1047C000AC01C701B6010E94E92918160CF062CDB0
:1047D000F40180819181B10108960E948B18E5E077
:1047E000F0E0D4011796FC93EE9316975A961C921C
:1047F0005A978D919C91BE016F5F7F4F04960E94E6
:10480000C20F84E090E0D40115969C938E93149788
:104810003FCD882309F43ECDF4018481958104972E
:1048200009F038CD008111810C5F1F4FC8010E9433
:10483000B512882309F42ECDB101C8010E9463127C
:1048400082E090E0D40115969C938E9314978D91FD
:104850009C91BE016F5F7F4F08960E948B1825E0E8
:10486000A22EB12CF401B782A682128E138612CD2D
:104870008485882309F475CD86819781069709F090
:1048800070CDA684B784C088D18872886388548824
:1048900045880E94A7037B018C0120E030E0A9013C
:1048A0006CA3FDA28EA31FA328A739A74AA75BA7C5
:1048B0009B01AC0160E070E080E090E0E72CF62C1A
:1048C000052D142D0E94EE290E94AB296B017C015D
:1048D000D40156966D917D918D919C9159970E942E
:1048E0001B2820E030E04AE754E40E947A289B012C
:1048F000AC01C701B6010E94E92918160CF031CDB0
:10490000F40180819181B10108960E948B18E5E045
:10491000F0E0D4011796FC93EE9316975A961C92EA
:104920005A978D919C91BE016F5F7F4F04960E94B4
:10493000C20F84E090E0D40115969C938E93149757
:104940000ECD8485882309F40CCD86819781079745
:1049500009F007CD008111810C5F1F4FC8010E9433
:10496000B512882309F4FDCCB101C8010E9463127D
:1049700082E090E0D40115969C938E9314978D91CC
:104980009C91BE016F5F7F4F08960E948B1895E047
:10499000A92EB12CF401B782A682128E1486E1CC26
:1049A0008EE991E00E94180D68EB7BE080E090E0DA
:1049B0000E9475030E94090289E991E00E94180D86
:1049C0008DE891E00E94180D68EC70E080E090E0C6
:1049D0000E94750381E891E00E94180D83E791E041
:1049E0000E94180D83E691E00E94180D85E591E084
:1049F0000E94180D68EC70E080E090E00E94750362
:104A00001092120561E471E0CE0101960E944525E5
:104A10006EE371E0CE0181960E94452506E010E02C
:104A200022E135E0AE014F5D5F4FBE016F5F7F4F0A
:104A30008EE491E00E94FA14809112058153823035
:104A400028F4809113058E3209F452CA6EEE71E09B
:104A50008EE795E00E945E0C60EC71E08EE795E0D9
:104A60000E94AC0667EF71E08EE795E00E945E0C55
:104A700062E175E08EE795E00E94310C60EA7FE02C
:104A800080E090E00E9475034BCAFB01DC010590B9
:104A90000D920020E1F70895FC01615070400190F3
:104AA0000110D8F7809590958E0F9F1F0895AEE066
:104AB000B0E0EDE5F5E20C9473290D891E898EE0D6
:104AC0008C831A8309838FEF9FE79E838D83AE01CA
:104AD000475E5F4F6F89788DCE0101960E94A625B3
:104AE0002F813885020F131FF80110822E96E4E003
:104AF0000C948F29AEE0B0E0E0E8F5E20C94732965
:104B00008C01FA018EE08C831A83098377FF02C03F
:104B100060E070E8615071097E836D83A901BF0177
:104B2000CE0101960E94A6254D815E8157FD0AC0E7
:104B30002F813885421753070CF49A01020F131F77
:104B4000F80110822E96E4E00C948F29ABE0B0E0DF
:104B5000ECEAF5E20C9465297C013B018A01FC0139
:104B600017821682838181FFC8C1CE0101965C0144
:104B7000F7019381F30193FD859193FF81913F01AB
:104B8000882309F453C1853239F493FD859193FF4D
:104B900081913F01853229F4B70190E00E948B2773
:104BA000E7CF912C212C312CFFE1F31538F08B321B
:104BB00011F190F4803209F1833229F137FC3CC0C5
:104BC00020ED280F2A3050F536FE20C08AE0989E4E
:104BD000200D1124922E06C08D3291F0803371F792
:104BE000689430F8F30193FD859193FF81913F0123
:104BF0008111DACF21C0689431F8689432F8F2CF8D
:104C0000689433F8EFCF689434F8ECCFEAE02E9E46
:104C1000200D1124222E689435F8E4CF8E3229F429
:104C200036FC04C1689436F8DDCF8C3619F46894EC
:104C300037F8D8CF8836B1F2982F9F7D95549330AE
:104C4000E0F08336A1F18337C1F1833509F063C009
:104C50002801F2E04F0E511CF801C080D180692D6F
:104C600070E036FC02C06FEF7FEFC6010E94802724
:104C70004C01689437F882010AC00C5F1F4FFFE3B4
:104C8000F98388248394912C6501E89437F833FEE6
:104C90002DC0522C8114910471F5552009F468CF70
:104CA000B70180E290E00E948B275A94F6CFF8017A
:104CB000808189830E5F1F4FE4CF2801F2E04F0E01
:104CC000511CF801C080D180692D70E036FC02C013
:104CD0006FEF7FEFC6010E944C254C018201D5CFBA
:104CE000B70180E290E00E948B272A9428141904CF
:104CF00009F0B0F7CECFF60137FC859137FE8191F0
:104D00006F01B70190E00E948B2751105A94F1E097
:104D10008F1A9108BFCF843619F0893609F077C011
:104D2000F80137FE6BC060817181828193810C5FD5
:104D30001F4FF32DFF763F2E97FF09C0909580956A
:104D4000709561957F4F8F4F9F4F689437F82AE099
:104D500030E0A5010E94BB27C82ECA188C2C432C1A
:104D600036FE0CC0E89440F8C91440F434FE05C087
:104D700032FC03C0F32DFE7E4F2E892C44FE95C0DD
:104D8000FE01EC0DF11D8081803309F087C0242DD8
:104D9000297E422E842D8870582E43FC95C040FEFB
:104DA0008FC09C2C821418F42C0C922C981844FE62
:104DB00091C0B70180E390E00E948B2742FE09C0BA
:104DC00088E790E041FE02C088E590E0B7010E94CC
:104DD0008B27C91408F48AC0CA94D12C9FEFC91A32
:104DE000D90ACA0CDB1CF60182916F01B70190E071
:104DF0000E948B27AC14BD04B1F74FCF6081718145
:104E0000072E000C880B990B0E5F1F4F92CFD32CEF
:104E1000E894D4F82AE030E0853739F1232D297F52
:104E2000D22E8F3601F148F48835A9F0F70186813A
:104E300097812B96E2E10C948129803749F08837DD
:104E4000A9F7D4FE02C06894D2F820E130E00DC08A
:104E50006894D4F8F6CF34FE03C0822F8660D82E33
:104E600020E132E002C028E030E0F801D7FE0FC0B8
:104E700060817181828193810C5F1F4FA5010E9427
:104E8000BB27C82ECA183D2CE89437F867CF60813D
:104E9000718190E080E00E5F1F4FF0CF42FC02C0B6
:104EA000839478CF8394839475CF842D867809F486
:104EB00071CFF6CFB70180E290E00E948B278394F8
:104EC0008214C0F3512C73CF522C5818821408F45A
:104ED0006ECFF8CF842D867809F47BCF8BE241FE2C
:104EE00080E247FC8DE2B70190E071CFB70180E32B
:104EF00090E00E948B279A946CCF8FEF9FEF99CF11
:104F0000FC010590615070400110D8F78095909594
:104F10008E0F9F1F08950F931F93CF93DF93182F2A
:104F2000092FEB018B8181FD09C01FEF0FEF812F4E
:104F3000902FDF91CF911F910F91089582FF14C0A0
:104F40002E813F818C819D81281739073CF4E881AF
:104F5000F981CF0101969983888310838E819F8187
:104F600001969F838E83E3CFE885F985812F09958C
:104F7000892BA1F3DACFFA01AA27283051F1203189
:104F800081F1E8946F936E7F6E5F7F4F8F4F9F4FDD
:104F9000AF4FB1E03ED0B4E03CD0670F781F891F1F
:104FA0009A1FA11D680F791F8A1F911DA11D6A0FED
:104FB000711D811D911DA11D20D009F468943F91A0
:104FC0002AE0269F11243019305D3193DEF6CF019F
:104FD0000895462F4770405D4193B3E00FD0C9F765
:104FE000F6CF462F4F70405D4A3318F0495D31FDD2
:104FF0004052419302D0A9F7EACFB4E0A695979525
:10500000879577956795BA95C9F7009761057105FA
:1050100008959B01AC010A2E069457954795379544
:105020002795BA95C9F7620F731F841F951FA01D9E
:105030000895E89409C097FB3EF49095809570958B
:1050400061957F4F8F4F9F4F9923A9F0F92F96E9D4
:10505000BB279395F695879577956795B795F11149
:10506000F8CFFAF4BB0F11F460FF1BC06F5F7F4FE6
:105070008F4F9F4F16C0882311F096E911C07723F8
:1050800021F09EE8872F762F05C0662371F096E801
:10509000862F70E060E02AF09A95660F771F881FD0
:1050A000DAF7880F9695879597F90895990F000874
:1050B000550FAA0BE0E8FEEF16161706E807F907EA
:1050C000C0F012161306E407F50798F0621B730B85
:1050D000840B950B39F40A2661F0232B242B252B06
:1050E00021F408950A2609F4A140A6958FEF811DA9
:1050F000811D08950E948D280C94FE280E94F0289E
:1051000038F00E94F72820F0952311F00C94E7283E
:105110000C94ED2811240C9432290E940F2970F36D
:10512000959FC1F3950F50E0551F629FF001729F4C
:10513000BB27F00DB11D639FAA27F00DB11DAA1F5B
:10514000649F6627B00DA11D661F829F2227B00DA8
:10515000A11D621F739FB00DA11D621F839FA00D33
:10516000611D221F749F3327A00D611D231F849F83
:10517000600D211D822F762F6A2F11249F575040DA
:105180009AF0F1F088234AF0EE0FFF1FBB1F661F55
:10519000771F881F91505040A9F79E3F510580F01E
:1051A0000C94E7280C9432295F3FE4F3983ED4F343
:1051B000869577956795B795F795E7959F5FC1F7C2
:1051C000FE2B880F911D9695879597F9089597F96D
:1051D0009F6780E870E060E008959FEF80EC08959D
:1051E00000240A94161617061806090608950024C6
:1051F0000A9412161306140605060895092E039440
:10520000000C11F4882352F0BB0F40F4BF2B11F4B3
:1052100060FF04C06F5F7F4F8F4F9F4F089557FD12
:105220009058440F551F59F05F3F71F04795880F14
:1052300097FB991F61F09F3F79F0879508951216AB
:1052400013061406551FF2CF4695F1DF08C0161657
:1052500017061806991FF1CF869571056105089408
:105260000895E894BB2766277727CB0197F908951F
:10527000A1E21A2EAA1BBB1BFD010DC0AA1FBB1F5A
:10528000EE1FFF1FA217B307E407F50720F0A21BCC
:10529000B30BE40BF50B661F771F881F991F1A9439
:1052A00069F760957095809590959B01AC01BD0163
:1052B000CF0108950E949C29A59F900DB49F900D49
:1052C000A49F800D911D112408952F923F924F921B
:1052D0005F926F927F928F929F92AF92BF92CF9286
:1052E000DF92EF92FF920F931F93CF93DF93CDB78F
:1052F000DEB7CA1BDB0B0FB6F894DEBF0FBECDBF07
:1053000009942A88398848885F846E847D848C84D7
:105310009B84AA84B984C884DF80EE80FD800C81E0
:105320001B81AA81B981CE0FD11D0FB6F894DEBFC3
:105330000FBECDBFED010895A29FB001B39FC00184
:10534000A39F700D811D1124911DB29F700D811DB1
:105350001124911D0895E894F92F96EBFF2381F015
:10536000121613061406440B9395F69587957795B8
:10537000679557954040FF23B9F71BC099270895BB
:10538000882351F49850D2F7872B762F652F542F0E
:10539000432F322F20E0B1F3121613061406440BEC
:1053A00088233AF09A95440F551F661F771F881F70
:1053B000CAF755234AF4440F551F11F460FF04C087
:1053C0006F5F7F4F8F4F9F4F880F9695879597F907
:1053D00008950E94562808F48FEF08952A193B0972
:1053E0004C095D096E097F09800B910B0895EE0F42
:1053F000FF1F0590F491E02D09940F931F93CF9315
:10540000DF938230910510F482E090E0E091BE06D7
:10541000F091BF0630E020E0B0E0A0E0309799F4D2
:105420002115310509F44AC0281B390B24303105F8
:10543000D8F58A819B816115710589F1FB01938300
:105440008283FE0111C0408151810281138148177E
:105450005907E0F04817590799F4109761F0129630
:105460000C93129713961C933296CF01DF91CF9134
:105470001F910F9108950093BE061093BF06F4CFBD
:105480002115310551F04217530738F0A901DB010E
:105490009A01BD01DF01F801C1CFEF01F9CF90936F
:1054A000BF068093BE06CDCFFE01E20FF31F8193AE
:1054B00091932250310939832883D7CF2091BC069C
:1054C0003091BD06232B41F420910A0130910B014C
:1054D0003093BD062093BC0620910801309109014C
:1054E0002115310541F42DB73EB740910C01509183
:1054F0000D01241B350BE091BC06F091BD06E217AF
:10550000F307A0F42E1B3F0B2817390778F0AC01E6
:105510004E5F5F4F2417350748F04E0F5F1F5093C3
:10552000BD064093BC06819391939FCFF0E0E0E0ED
:105530009CCFCF93DF930097E9F0FC013297138261
:105540001282A091BE06B091BF06ED0130E020E0CE
:105550001097A1F420813181820F931F2091BC0606
:105560003091BD062817390709F061C0F093BD06D8
:10557000E093BC06DF91CF910895EA01CE17DF07D3
:10558000E8F54A815B819E0141155105B1F7E901BA
:10559000FB83EA8349915991C40FD51FEC17FD078E
:1055A00061F4808191810296840F951FE9019983AE
:1055B0008883828193819B838A83F0E0E0E0129666
:1055C0008D919C9113970097B9F52D913C9111976E
:1055D000CD010296820F931F2091BC063091BD062B
:1055E0002817390739F6309751F51092BF061092F7
:1055F000BE06B093BD06A093BC06BCCFD383C283C6
:1056000040815181840F951FC817D90761F44E5FFF
:105610005F4F88819981480F591F518340838A8148
:105620009B81938382832115310509F0B0CFF093DC
:10563000BF06E093BE069ECFFD01DC01C0CF138202
:105640001282D7CFFB01DC0102C001900D924150C4
:105650005040D8F708956817790768F4FB01DC011A
:10566000E40FF51FA40FB51F02C002900E92415027
:105670005040D8F708950C94222BDC0101C06D93A3
:1056800041505040E0F70895FB01DC010D900020EF
:10569000E9F7119701900D920020E1F70895FB01C1
:1056A000DC018D91019080190110D9F3990B0895B7
:1056B000FB01DC0101900D920020E1F70895FB0150
:1056C000DC014150504048F001900D920020C9F794
:1056D00001C01D9241505040E0F7089511E0C4E828
:1056E000D1E004C0FE010E94F7292196C538D107F8
:0656F000C9F7F894FFCF9A
:1056F600FFFFFFFFFFFFFFFF0000C0068000000462
:105706004D51545404F1035B07FF031C0423042D7D
:105716000436044204000000008302D0062402D0AE
:105726000255023302470200000000720A450AA130
:105736000A15073E0A2B0A1C0A000000009D097D77
:1057460009A10AB509000000006709E115A10AD000
:10575600085C09590E1A0EA016AE14E708B0147F9D
:1057660015C80800000000E70B000000001607D06F
:1057760006A10A150772078807FD062B4950442C17
:10578600004F76657274616B696E675065726D69FC
:105796007373696F6E4D6573736167657352657177
:1057A600756573745065726D697373696F6E004FBA
:1057B60076657274616B696E675065726D69737335
:1057C600696F6E4D6573736167657345786563755B
:1057D6007465644F76657274616B696E67005B57BA
:1057E6006946694573705D20002C434C4F53454410
:1057F6000D0A004F76657274616B696E675065724B
:105806006D697373696F6E4D657373616765734414
:10581600656E795065726D697373696F6E004F7648
:10582600657274616B696E675065726D69737369D1
:105836006F6E4D657373616765734772616E745001
:1058460065726D697373696F6E004F766572746108
:105856006B696E67436F6F7264696E6174696F6EB0
:105866004D657373616765734163636570744F76E5
:10587600657274616B696E67003E004F766572747F
:10588600616B696E67436F6F7264696E6174696F8D
:105896006E4D657373616765735265717565737473
:1058A6004F76657274616B696E67004F76657274C8
:1058B600616B696E67436F6F7264696E6174696F5D
:1058C6006E4D6573736167657346696E6973686566
:1058D600644F76657274616B696E6700736C6F777F
:1058E600436172436F6F7264696E61746F72454390
:1058F600552F636F6D6D756E696361746F722E538C
:105906002F6F76657274616B696E67416666696C46
:1059160069617465312F0066617374436172436F08
:105926006F7264696E61746F724543552F636F6D54
:105936006D756E696361746F722E462F6F76657230
:1059460074616B696E67496E69746961746F7231EF
:105956002F00736C6F77436172436F6F7264696E69
:1059660061746F724543552F636F6D6D756E696314
:1059760061746F722E532F6F76657274616B696EE8
:1059860067496E69746961746F72312F006661735D
:1059960074436172436F6F7264696E61746F7245AE
:1059A60043552F636F6D6D756E696361746F722EEB
:1059B600462F6F76657274616B696E6741666669BC
:1059C6006C69617465312F002A2A2A2A2A2A2A2A12
:1059D6000053656374696F6E20436F6E74726F6CEB
:1059E600003139322E3136382E302E3130300073B8
:1059F6006C6F77436172436F6F7264696E61746F27
:105A0600724543555F636F6E666967000D0A4F4BBB
:105A16000D0A000D0A4552524F520D0A000D0A4654
:105A260041494C0D0A000D0A53454E44204F4B0D7B
:0E5A36000A0020434F4E4E4543540D0A000017
:00000001FF
